{
  "_format": "hh-sol-artifact-1",
  "contractName": "VestingVault",
  "sourceName": "contracts/VestingVault.sol",
  "abi": [
    {
      "inputs": [
        {
          "internalType": "contract IERC20",
          "name": "_token",
          "type": "address"
        }
      ],
      "stateMutability": "nonpayable",
      "type": "constructor"
    },
    {
      "anonymous": false,
      "inputs": [
        {
          "indexed": true,
          "internalType": "address",
          "name": "previousOwner",
          "type": "address"
        },
        {
          "indexed": true,
          "internalType": "address",
          "name": "newOwner",
          "type": "address"
        }
      ],
      "name": "OwnershipTransferred",
      "type": "event"
    },
    {
      "anonymous": false,
      "inputs": [
        {
          "indexed": false,
          "internalType": "address",
          "name": "beneficiary",
          "type": "address"
        },
        {
          "indexed": false,
          "internalType": "uint256",
          "name": "amount",
          "type": "uint256"
        }
      ],
      "name": "TokensReleased",
      "type": "event"
    },
    {
      "anonymous": false,
      "inputs": [
        {
          "indexed": false,
          "internalType": "address",
          "name": "beneficiary",
          "type": "address"
        },
        {
          "indexed": false,
          "internalType": "uint256",
          "name": "amount",
          "type": "uint256"
        },
        {
          "indexed": false,
          "internalType": "uint256",
          "name": "startTime",
          "type": "uint256"
        }
      ],
      "name": "VestingCreated",
      "type": "event"
    },
    {
      "anonymous": false,
      "inputs": [
        {
          "indexed": false,
          "internalType": "address",
          "name": "beneficiary",
          "type": "address"
        },
        {
          "indexed": false,
          "internalType": "uint256",
          "name": "unreleasedAmount",
          "type": "uint256"
        }
      ],
      "name": "VestingRevoked",
      "type": "event"
    },
    {
      "inputs": [
        {
          "internalType": "address",
          "name": "beneficiary",
          "type": "address"
        },
        {
          "internalType": "uint256",
          "name": "amount",
          "type": "uint256"
        },
        {
          "internalType": "uint256",
          "name": "startTime",
          "type": "uint256"
        },
        {
          "internalType": "uint256",
          "name": "cliffDuration",
          "type": "uint256"
        },
        {
          "internalType": "uint256",
          "name": "vestingDuration",
          "type": "uint256"
        },
        {
          "internalType": "bool",
          "name": "revocable",
          "type": "bool"
        }
      ],
      "name": "createVestingSchedule",
      "outputs": [],
      "stateMutability": "nonpayable",
      "type": "function"
    },
    {
      "inputs": [],
      "name": "owner",
      "outputs": [
        {
          "internalType": "address",
          "name": "",
          "type": "address"
        }
      ],
      "stateMutability": "view",
      "type": "function"
    },
    {
      "inputs": [
        {
          "internalType": "uint256",
          "name": "amount",
          "type": "uint256"
        }
      ],
      "name": "recoverExcessTokens",
      "outputs": [],
      "stateMutability": "nonpayable",
      "type": "function"
    },
    {
      "inputs": [],
      "name": "release",
      "outputs": [],
      "stateMutability": "nonpayable",
      "type": "function"
    },
    {
      "inputs": [],
      "name": "renounceOwnership",
      "outputs": [],
      "stateMutability": "nonpayable",
      "type": "function"
    },
    {
      "inputs": [
        {
          "internalType": "address",
          "name": "beneficiary",
          "type": "address"
        }
      ],
      "name": "revokeVesting",
      "outputs": [],
      "stateMutability": "nonpayable",
      "type": "function"
    },
    {
      "inputs": [
        {
          "internalType": "address",
          "name": "",
          "type": "address"
        }
      ],
      "name": "revokedVestings",
      "outputs": [
        {
          "internalType": "bool",
          "name": "",
          "type": "bool"
        }
      ],
      "stateMutability": "view",
      "type": "function"
    },
    {
      "inputs": [],
      "name": "token",
      "outputs": [
        {
          "internalType": "contract IERC20",
          "name": "",
          "type": "address"
        }
      ],
      "stateMutability": "view",
      "type": "function"
    },
    {
      "inputs": [
        {
          "internalType": "address",
          "name": "newOwner",
          "type": "address"
        }
      ],
      "name": "transferOwnership",
      "outputs": [],
      "stateMutability": "nonpayable",
      "type": "function"
    },
    {
      "inputs": [
        {
          "internalType": "address",
          "name": "beneficiary",
          "type": "address"
        }
      ],
      "name": "vestedAmount",
      "outputs": [
        {
          "internalType": "uint256",
          "name": "",
          "type": "uint256"
        }
      ],
      "stateMutability": "view",
      "type": "function"
    },
    {
      "inputs": [
        {
          "internalType": "address",
          "name": "",
          "type": "address"
        }
      ],
      "name": "vestingSchedules",
      "outputs": [
        {
          "internalType": "uint256",
          "name": "totalAmount",
          "type": "uint256"
        },
        {
          "internalType": "uint256",
          "name": "released",
          "type": "uint256"
        },
        {
          "internalType": "uint256",
          "name": "startTime",
          "type": "uint256"
        },
        {
          "internalType": "uint256",
          "name": "cliffDuration",
          "type": "uint256"
        },
        {
          "internalType": "uint256",
          "name": "vestingDuration",
          "type": "uint256"
        },
        {
          "internalType": "bool",
          "name": "revocable",
          "type": "bool"
        }
      ],
      "stateMutability": "view",
      "type": "function"
    }
  ],
  "bytecode": "0x60a060405234801561001057600080fd5b5060405161131438038061131483398101604081905261002f916100e7565b61003833610097565b600180556001600160a01b0381166100865760405162461bcd60e51b815260206004820152600d60248201526c24b73b30b634b2103a37b5b2b760991b604482015260640160405180910390fd5b6001600160a01b0316608052610117565b600080546001600160a01b038381166001600160a01b0319831681178455604051919092169283917f8be0079c531659141344cd1fd0a4f28419497f9722a3daafe3b4186f6b6457e09190a35050565b6000602082840312156100f957600080fd5b81516001600160a01b038116811461011057600080fd5b9392505050565b6080516111b16101636000396000818161018f0152818161024801528181610368015281816106ae0152818161073f015281816109ad01528181610cbd0152610ec601526111b16000f3fe608060405234801561001057600080fd5b50600436106100a95760003560e01c806386d1a69f1161007157806386d1a69f146101375780638da5cb5b1461013f578063aaad932114610164578063f2fde38b14610177578063fc0c546a1461018a578063fdb20ccb146101b157600080fd5b80632e8f3d1a146100ae578063384711cc146100c35780633b0da260146100e957806349eaaf4e146100fc578063715018a61461012f575b600080fd5b6100c16100bc366004610fe7565b610228565b005b6100d66100d136600461101c565b61043a565b6040519081526020015b60405180910390f35b6100c16100f736600461101c565b610520565b61011f61010a36600461101c565b60036020526000908152604090205460ff1681565b60405190151581526020016100e0565b6100c1610854565b6100c1610868565b6000546001600160a01b03165b6040516001600160a01b0390911681526020016100e0565b6100c1610172366004611045565b610a82565b6100c161018536600461101c565b610ddb565b61014c7f000000000000000000000000000000000000000000000000000000000000000081565b6101f96101bf36600461101c565b6002602081905260009182526040909120805460018201549282015460038301546004840154600590940154929493919290919060ff1686565b6040805196875260208701959095529385019290925260608401526080830152151560a082015260c0016100e0565b610230610e54565b6040516370a0823160e01b81523060048201526000907f00000000000000000000000000000000000000000000000000000000000000006001600160a01b0316906370a0823190602401602060405180830381865afa158015610297573d6000803e3d6000fd5b505050506040513d601f19601f820116820180604052508101906102bb91906110a1565b905060006102c7610eae565b90508082116103105760405162461bcd60e51b815260206004820152601060248201526f4e6f2065786365737320746f6b656e7360801b60448201526064015b60405180910390fd5b600061031c82846110d0565b9050808411156103665760405162461bcd60e51b8152602060048201526015602482015274416d6f756e7420657863656564732065786365737360581b6044820152606401610307565b7f00000000000000000000000000000000000000000000000000000000000000006001600160a01b031663a9059cbb6103a76000546001600160a01b031690565b6040516001600160e01b031960e084901b1681526001600160a01b039091166004820152602481018790526044016020604051808303816000875af11580156103f4573d6000803e3d6000fd5b505050506040513d601f19601f8201168201806040525081019061041891906110e9565b6104345760405162461bcd60e51b815260040161030790611106565b50505050565b6001600160a01b0381166000908152600260208181526040808420815160c0810183528154808252600183015494820194909452938101549184019190915260038101546060840152600481015460808401526005015460ff16151560a083015282036104aa5750600092915050565b806060015181604001516104be919061112f565b4210156104ce5750600092915050565b806080015181604001516104e2919061112f565b42106104ef575192915050565b6080810151604082015161050390426110d0565b825161050f9190611142565b6105199190611159565b9392505050565b610528610e54565b6001600160a01b038116600090815260026020818152604092839020835160c08101855281548152600182015492810192909252918201549281019290925260038101546060830152600481015460808301526005015460ff16151560a082018190526105cf5760405162461bcd60e51b815260206004820152601560248201527456657374696e67206e6f74207265766f6361626c6560581b6044820152606401610307565b6001600160a01b03821660009081526003602052604090205460ff161561062a5760405162461bcd60e51b815260206004820152600f60248201526e105b1c9958591e481c995d9bdad959608a1b6044820152606401610307565b60006106358361043a565b9050600082602001518261064991906110d0565b9050600082846000015161065d91906110d0565b6001600160a01b0386166000908152600360205260409020805460ff19166001179055905081156107375760405163a9059cbb60e01b81526001600160a01b038681166004830152602482018490527f0000000000000000000000000000000000000000000000000000000000000000169063a9059cbb906044016020604051808303816000875af11580156106f7573d6000803e3d6000fd5b505050506040513d601f19601f8201168201806040525081019061071b91906110e9565b6107375760405162461bcd60e51b815260040161030790611106565b801561080b577f00000000000000000000000000000000000000000000000000000000000000006001600160a01b031663a9059cbb61077e6000546001600160a01b031690565b6040516001600160e01b031960e084901b1681526001600160a01b039091166004820152602481018490526044016020604051808303816000875af11580156107cb573d6000803e3d6000fd5b505050506040513d601f19601f820116820180604052508101906107ef91906110e9565b61080b5760405162461bcd60e51b815260040161030790611106565b604080516001600160a01b0387168152602081018390527f57c76f5e278bfbd4eeb5207d287aa5a1a9e1113c65f7eefa540e379a2774d13b910160405180910390a15050505050565b61085c610e54565b6108666000610f3e565b565b610870610f8e565b33600090815260026020526040902080546108c35760405162461bcd60e51b81526020600482015260136024820152724e6f2076657374696e67207363686564756c6560681b6044820152606401610307565b3360009081526003602052604090205460ff16156109155760405162461bcd60e51b815260206004820152600f60248201526e15995cdd1a5b99c81c995d9bdad959608a1b6044820152606401610307565b600081600101546109253361043a565b61092f91906110d0565b9050600081116109785760405162461bcd60e51b81526020600482015260146024820152734e6f20746f6b656e7320746f2072656c6561736560601b6044820152606401610307565b8082600101600082825461098c919061112f565b909155505060405163a9059cbb60e01b8152336004820152602481018290527f00000000000000000000000000000000000000000000000000000000000000006001600160a01b03169063a9059cbb906044016020604051808303816000875af11580156109fe573d6000803e3d6000fd5b505050506040513d601f19601f82011682018060405250810190610a2291906110e9565b610a3e5760405162461bcd60e51b815260040161030790611106565b60408051338152602081018390527fc7798891864187665ac6dd119286e44ec13f014527aeeb2b8eb3fd413df93179910160405180910390a1505061086660018055565b610a8a610e54565b6001600160a01b038616610ad65760405162461bcd60e51b8152602060048201526013602482015272496e76616c69642062656e656669636961727960681b6044820152606401610307565b60008511610b1b5760405162461bcd60e51b81526020600482015260126024820152710416d6f756e74206d757374206265203e20360741b6044820152606401610307565b6001600160a01b03861660009081526002602052604090205415610b815760405162461bcd60e51b815260206004820152601f60248201527f42656e656669636961727920616c7265616479206861732076657374696e67006044820152606401610307565b60008211610bc85760405162461bcd60e51b815260206004820152601460248201527304475726174696f6e206d757374206265203e20360641b6044820152606401610307565b81831115610c115760405162461bcd60e51b815260206004820152601660248201527521b634b3331032bc31b2b2b23990323ab930ba34b7b760511b6044820152606401610307565b6040518060c001604052808681526020016000815260200185815260200184815260200183815260200182151581525060026000886001600160a01b03166001600160a01b03168152602001908152602001600020600082015181600001556020820151816001015560408201518160020155606082015181600301556080820151816004015560a08201518160050160006101000a81548160ff0219169083151502179055509050507f00000000000000000000000000000000000000000000000000000000000000006001600160a01b03166323b872dd3330886040518463ffffffff1660e01b8152600401610d2a939291906001600160a01b039384168152919092166020820152604081019190915260600190565b6020604051808303816000875af1158015610d49573d6000803e3d6000fd5b505050506040513d601f19601f82011682018060405250810190610d6d91906110e9565b610d895760405162461bcd60e51b815260040161030790611106565b604080516001600160a01b0388168152602081018790529081018590527f9ade76f4385de306666dfb21a52b27d52db0fde8ad0f515fa261f532cac60d219060600160405180910390a1505050505050565b610de3610e54565b6001600160a01b038116610e485760405162461bcd60e51b815260206004820152602660248201527f4f776e61626c653a206e6577206f776e657220697320746865207a65726f206160448201526564647265737360d01b6064820152608401610307565b610e5181610f3e565b50565b6000546001600160a01b031633146108665760405162461bcd60e51b815260206004820181905260248201527f4f776e61626c653a2063616c6c6572206973206e6f7420746865206f776e65726044820152606401610307565b6040516370a0823160e01b81523060048201526000907f00000000000000000000000000000000000000000000000000000000000000006001600160a01b0316906370a0823190602401602060405180830381865afa158015610f15573d6000803e3d6000fd5b505050506040513d601f19601f82011682018060405250810190610f3991906110a1565b905090565b600080546001600160a01b038381166001600160a01b0319831681178455604051919092169283917f8be0079c531659141344cd1fd0a4f28419497f9722a3daafe3b4186f6b6457e09190a35050565b600260015403610fe05760405162461bcd60e51b815260206004820152601f60248201527f5265656e7472616e637947756172643a207265656e7472616e742063616c6c006044820152606401610307565b6002600155565b600060208284031215610ff957600080fd5b5035919050565b80356001600160a01b038116811461101757600080fd5b919050565b60006020828403121561102e57600080fd5b61051982611000565b8015158114610e5157600080fd5b60008060008060008060c0878903121561105e57600080fd5b61106787611000565b95506020870135945060408701359350606087013592506080870135915060a087013561109381611037565b809150509295509295509295565b6000602082840312156110b357600080fd5b5051919050565b634e487b7160e01b600052601160045260246000fd5b818103818111156110e3576110e36110ba565b92915050565b6000602082840312156110fb57600080fd5b815161051981611037565b6020808252600f908201526e151c985b9cd9995c8819985a5b1959608a1b604082015260600190565b808201808211156110e3576110e36110ba565b80820281158282048414176110e3576110e36110ba565b60008261117657634e487b7160e01b600052601260045260246000fd5b50049056fea2646970667358221220e6be6889ec605838691366a167af73ed61d9bb2702d1032162080b8321c4517464736f6c63430008140033",
  "linkReferences": {},
  "deployedLinkReferences": {}
}