{
  "_format": "hh-sol-artifact-1",
  "contractName": "IMALIYieldFarming",
  "sourceName": "contracts/IMALIYieldFarming.sol",
  "abi": [
    {
      "inputs": [
        {
          "internalType": "contract IERC20",
          "name": "_imaliToken",
          "type": "address"
        },
        {
          "internalType": "contract IERC20",
          "name": "_lpToken",
          "type": "address"
        },
        {
          "internalType": "address",
          "name": "_feeRecipient",
          "type": "address"
        }
      ],
      "stateMutability": "nonpayable",
      "type": "constructor"
    },
    {
      "anonymous": false,
      "inputs": [
        {
          "indexed": true,
          "internalType": "address",
          "name": "user",
          "type": "address"
        },
        {
          "indexed": false,
          "internalType": "uint256",
          "name": "feeAmount",
          "type": "uint256"
        }
      ],
      "name": "FeeTransferred",
      "type": "event"
    },
    {
      "anonymous": false,
      "inputs": [
        {
          "indexed": true,
          "internalType": "address",
          "name": "user",
          "type": "address"
        },
        {
          "indexed": false,
          "internalType": "uint256",
          "name": "amount",
          "type": "uint256"
        }
      ],
      "name": "LiquidityStaked",
      "type": "event"
    },
    {
      "anonymous": false,
      "inputs": [
        {
          "indexed": true,
          "internalType": "address",
          "name": "user",
          "type": "address"
        },
        {
          "indexed": false,
          "internalType": "uint256",
          "name": "amount",
          "type": "uint256"
        }
      ],
      "name": "LiquidityUnstaked",
      "type": "event"
    },
    {
      "anonymous": false,
      "inputs": [
        {
          "indexed": true,
          "internalType": "address",
          "name": "previousOwner",
          "type": "address"
        },
        {
          "indexed": true,
          "internalType": "address",
          "name": "newOwner",
          "type": "address"
        }
      ],
      "name": "OwnershipTransferred",
      "type": "event"
    },
    {
      "anonymous": false,
      "inputs": [
        {
          "indexed": true,
          "internalType": "address",
          "name": "user",
          "type": "address"
        },
        {
          "indexed": false,
          "internalType": "uint256",
          "name": "reward",
          "type": "uint256"
        }
      ],
      "name": "RewardClaimed",
      "type": "event"
    },
    {
      "inputs": [],
      "name": "claimRewards",
      "outputs": [],
      "stateMutability": "nonpayable",
      "type": "function"
    },
    {
      "inputs": [
        {
          "internalType": "address",
          "name": "user",
          "type": "address"
        }
      ],
      "name": "earned",
      "outputs": [
        {
          "internalType": "uint256",
          "name": "",
          "type": "uint256"
        }
      ],
      "stateMutability": "view",
      "type": "function"
    },
    {
      "inputs": [],
      "name": "feePercentage",
      "outputs": [
        {
          "internalType": "uint256",
          "name": "",
          "type": "uint256"
        }
      ],
      "stateMutability": "view",
      "type": "function"
    },
    {
      "inputs": [],
      "name": "feeRecipient",
      "outputs": [
        {
          "internalType": "address",
          "name": "",
          "type": "address"
        }
      ],
      "stateMutability": "view",
      "type": "function"
    },
    {
      "inputs": [],
      "name": "imaliToken",
      "outputs": [
        {
          "internalType": "contract IERC20",
          "name": "",
          "type": "address"
        }
      ],
      "stateMutability": "view",
      "type": "function"
    },
    {
      "inputs": [],
      "name": "lastUpdated",
      "outputs": [
        {
          "internalType": "uint256",
          "name": "",
          "type": "uint256"
        }
      ],
      "stateMutability": "view",
      "type": "function"
    },
    {
      "inputs": [],
      "name": "lpToken",
      "outputs": [
        {
          "internalType": "contract IERC20",
          "name": "",
          "type": "address"
        }
      ],
      "stateMutability": "view",
      "type": "function"
    },
    {
      "inputs": [],
      "name": "owner",
      "outputs": [
        {
          "internalType": "address",
          "name": "",
          "type": "address"
        }
      ],
      "stateMutability": "view",
      "type": "function"
    },
    {
      "inputs": [],
      "name": "renounceOwnership",
      "outputs": [],
      "stateMutability": "nonpayable",
      "type": "function"
    },
    {
      "inputs": [],
      "name": "rewardPerToken",
      "outputs": [
        {
          "internalType": "uint256",
          "name": "",
          "type": "uint256"
        }
      ],
      "stateMutability": "view",
      "type": "function"
    },
    {
      "inputs": [],
      "name": "rewardPerTokenStored",
      "outputs": [
        {
          "internalType": "uint256",
          "name": "",
          "type": "uint256"
        }
      ],
      "stateMutability": "view",
      "type": "function"
    },
    {
      "inputs": [],
      "name": "rewardRate",
      "outputs": [
        {
          "internalType": "uint256",
          "name": "",
          "type": "uint256"
        }
      ],
      "stateMutability": "view",
      "type": "function"
    },
    {
      "inputs": [
        {
          "internalType": "address",
          "name": "",
          "type": "address"
        }
      ],
      "name": "rewards",
      "outputs": [
        {
          "internalType": "uint256",
          "name": "",
          "type": "uint256"
        }
      ],
      "stateMutability": "view",
      "type": "function"
    },
    {
      "inputs": [
        {
          "internalType": "uint256",
          "name": "newFeePercentage",
          "type": "uint256"
        }
      ],
      "name": "setFeePercentage",
      "outputs": [],
      "stateMutability": "nonpayable",
      "type": "function"
    },
    {
      "inputs": [
        {
          "internalType": "address",
          "name": "newFeeRecipient",
          "type": "address"
        }
      ],
      "name": "setFeeRecipient",
      "outputs": [],
      "stateMutability": "nonpayable",
      "type": "function"
    },
    {
      "inputs": [
        {
          "internalType": "uint256",
          "name": "amount",
          "type": "uint256"
        }
      ],
      "name": "stake",
      "outputs": [],
      "stateMutability": "nonpayable",
      "type": "function"
    },
    {
      "inputs": [
        {
          "internalType": "address",
          "name": "",
          "type": "address"
        }
      ],
      "name": "stakedLpTokens",
      "outputs": [
        {
          "internalType": "uint256",
          "name": "",
          "type": "uint256"
        }
      ],
      "stateMutability": "view",
      "type": "function"
    },
    {
      "inputs": [],
      "name": "totalStaked",
      "outputs": [
        {
          "internalType": "uint256",
          "name": "",
          "type": "uint256"
        }
      ],
      "stateMutability": "view",
      "type": "function"
    },
    {
      "inputs": [
        {
          "internalType": "address",
          "name": "newOwner",
          "type": "address"
        }
      ],
      "name": "transferOwnership",
      "outputs": [],
      "stateMutability": "nonpayable",
      "type": "function"
    },
    {
      "inputs": [
        {
          "internalType": "uint256",
          "name": "amount",
          "type": "uint256"
        }
      ],
      "name": "unstake",
      "outputs": [],
      "stateMutability": "nonpayable",
      "type": "function"
    },
    {
      "inputs": [
        {
          "internalType": "address",
          "name": "",
          "type": "address"
        }
      ],
      "name": "userRewardPerTokenPaid",
      "outputs": [
        {
          "internalType": "uint256",
          "name": "",
          "type": "uint256"
        }
      ],
      "stateMutability": "view",
      "type": "function"
    }
  ],
  "bytecode": "0x60c06040526064600155600580553480156200001a57600080fd5b50604051620013ed380380620013ed8339810160408190526200003d91620001fb565b620000483362000192565b6001600160a01b038316620000af5760405162461bcd60e51b815260206004820152602260248201527f494d414c4920546f6b656e20616464726573732063616e6e6f74206265207a65604482015261726f60f01b60648201526084015b60405180910390fd5b6001600160a01b038216620001075760405162461bcd60e51b815260206004820152601f60248201527f4c5020546f6b656e20616464726573732063616e6e6f74206265207a65726f006044820152606401620000a6565b6001600160a01b0381166200015f5760405162461bcd60e51b815260206004820152601c60248201527f46656520726563697069656e742063616e6e6f74206265207a65726f000000006044820152606401620000a6565b6001600160a01b0392831660805290821660a052600680546001600160a01b03191691909216179055426003556200024f565b600080546001600160a01b038381166001600160a01b0319831681178455604051919092169283917f8be0079c531659141344cd1fd0a4f28419497f9722a3daafe3b4186f6b6457e09190a35050565b6001600160a01b0381168114620001f857600080fd5b50565b6000806000606084860312156200021157600080fd5b83516200021e81620001e2565b60208501519093506200023181620001e2565b60408501519092506200024481620001e2565b809150509250925092565b60805160a051611147620002a6600039600081816101ce0152818161050e015281816105df015281816109ab01528181610a8901528181610ba90152610c820152600081816102a901526107f501526111476000f3fe608060405234801561001057600080fd5b50600436106101365760003560e01c80638bbfd265116100b8578063cd3daf9d1161007c578063cd3daf9d1461028a578063d0b06f5d14610292578063df136d651461029b578063e311fd0a146102a4578063e74b981b146102cb578063f2fde38b146102de57600080fd5b80638bbfd2651461022a5780638da5cb5b1461024a578063a001ecdd1461025b578063a694fc3a14610264578063ae06c1b71461027757600080fd5b80635fcbd285116100ff5780635fcbd285146101c9578063715018a6146101f05780637b0a47ee146101f8578063817b1cd2146102015780638b8763471461020a57600080fd5b80628cc2621461013b5780630700037d146101615780632e17de7814610181578063372500ab14610196578063469048401461019e575b600080fd5b61014e610149366004611018565b6102f1565b6040519081526020015b60405180910390f35b61014e61016f366004611018565b60086020526000908152604090205481565b61019461018f366004611048565b61036e565b005b610194610716565b6006546101b1906001600160a01b031681565b6040516001600160a01b039091168152602001610158565b6101b17f000000000000000000000000000000000000000000000000000000000000000081565b6101946108e4565b61014e60015481565b61014e60025481565b61014e610218366004611018565b60096020526000908152604090205481565b61014e610238366004611018565b60076020526000908152604090205481565b6000546001600160a01b03166101b1565b61014e60055481565b610194610272366004611048565b6108f8565b610194610285366004611048565b610dad565b61014e610e0b565b61014e60035481565b61014e60045481565b6101b17f000000000000000000000000000000000000000000000000000000000000000081565b6101946102d9366004611018565b610e69565b6101946102ec366004611018565b610ef5565b6001600160a01b0381166000908152600860209081526040808320546009909252822054670de0b6b3a764000090610327610e0b565b6103319190611077565b6001600160a01b038516600090815260076020526040902054610354919061108a565b61035e91906110a1565b61036891906110c3565b92915050565b33610377610e0b565b600455426003556001600160a01b038116156103c257610396816102f1565b6001600160a01b0382166000908152600860209081526040808320939093556004546009909152919020555b600082116104175760405162461bcd60e51b815260206004820152601760248201527f43616e6e6f7420756e7374616b65203020746f6b656e7300000000000000000060448201526064015b60405180910390fd5b336000908152600760205260409020548211156104765760405162461bcd60e51b815260206004820152601b60248201527f496e73756666696369656e74207374616b65642062616c616e63650000000000604482015260640161040e565b6000606460055484610488919061108a565b61049291906110a1565b905060006104a08285611077565b336000908152600760205260408120805492935086929091906104c4908490611077565b9250508190555083600260008282546104dd9190611077565b909155505060065460405163a9059cbb60e01b81526001600160a01b039182166004820152602481018490526000917f0000000000000000000000000000000000000000000000000000000000000000169063a9059cbb906044016020604051808303816000875af1158015610557573d6000803e3d6000fd5b505050506040513d601f19601f8201168201806040525081019061057b91906110d6565b9050806105c05760405162461bcd60e51b8152602060048201526013602482015272119959481d1c985b9cd9995c8819985a5b1959606a1b604482015260640161040e565b60405163a9059cbb60e01b8152336004820152602481018390526000907f00000000000000000000000000000000000000000000000000000000000000006001600160a01b03169063a9059cbb906044016020604051808303816000875af1158015610630573d6000803e3d6000fd5b505050506040513d601f19601f8201168201806040525081019061065491906110d6565b9050806106a35760405162461bcd60e51b815260206004820152601760248201527f556e7374616b65207472616e73666572206661696c6564000000000000000000604482015260640161040e565b60405183815233907fbd21f8e3649e37763ada407fae985c15bedb014b8297249d052363aa67d5a1d4906020015b60405180910390a260405184815233907f34e8a84e537ed93d93ddf39a78816dcbc74df8397c635838b8cc973d4fa943f89060200160405180910390a2505050505050565b3361071f610e0b565b600455426003556001600160a01b0381161561076a5761073e816102f1565b6001600160a01b0382166000908152600860209081526040808320939093556004546009909152919020555b33600090815260086020526040902054806107bd5760405162461bcd60e51b81526020600482015260136024820152724e6f207265776172647320746f20636c61696d60681b604482015260640161040e565b336000818152600860205260408082208290555163a9059cbb60e01b8152600481019290925260248201839052906001600160a01b037f0000000000000000000000000000000000000000000000000000000000000000169063a9059cbb906044016020604051808303816000875af115801561083e573d6000803e3d6000fd5b505050506040513d601f19601f8201168201806040525081019061086291906110d6565b9050806108aa5760405162461bcd60e51b815260206004820152601660248201527514995dd85c99081d1c985b9cd9995c8819985a5b195960521b604482015260640161040e565b60405182815233907f106f923f993c2149d49b4255ff723acafa1f2d94393f561d3eda32ae348f72419060200160405180910390a2505050565b6108ec610f6e565b6108f66000610fc8565b565b33610901610e0b565b600455426003556001600160a01b0381161561094c57610920816102f1565b6001600160a01b0382166000908152600860209081526040808320939093556004546009909152919020555b600082116109945760405162461bcd60e51b815260206004820152601560248201527443616e6e6f74207374616b65203020746f6b656e7360581b604482015260640161040e565b6040516370a0823160e01b815233600482015282907f00000000000000000000000000000000000000000000000000000000000000006001600160a01b0316906370a0823190602401602060405180830381865afa1580156109fa573d6000803e3d6000fd5b505050506040513d601f19601f82011682018060405250810190610a1e91906110f8565b1015610a6c5760405162461bcd60e51b815260206004820152601d60248201527f496e73756666696369656e74204c5020546f6b656e2062616c616e6365000000604482015260640161040e565b604051636eb1769f60e11b815233600482015230602482015282907f00000000000000000000000000000000000000000000000000000000000000006001600160a01b03169063dd62ed3e90604401602060405180830381865afa158015610ad8573d6000803e3d6000fd5b505050506040513d601f19601f82011682018060405250810190610afc91906110f8565b1015610b4a5760405162461bcd60e51b815260206004820152601a60248201527f4c5020546f6b656e20616c6c6f77616e636520746f6f206c6f77000000000000604482015260640161040e565b6000606460055484610b5c919061108a565b610b6691906110a1565b90506000610b748285611077565b6006546040516323b872dd60e01b81523360048201526001600160a01b039182166024820152604481018590529192506000917f0000000000000000000000000000000000000000000000000000000000000000909116906323b872dd906064016020604051808303816000875af1158015610bf4573d6000803e3d6000fd5b505050506040513d601f19601f82011682018060405250810190610c1891906110d6565b905080610c5d5760405162461bcd60e51b8152602060048201526013602482015272119959481d1c985b9cd9995c8819985a5b1959606a1b604482015260640161040e565b6040516323b872dd60e01b8152336004820152306024820152604481018390526000907f00000000000000000000000000000000000000000000000000000000000000006001600160a01b0316906323b872dd906064016020604051808303816000875af1158015610cd3573d6000803e3d6000fd5b505050506040513d601f19601f82011682018060405250810190610cf791906110d6565b905080610d3e5760405162461bcd60e51b815260206004820152601560248201527414dd185ad9481d1c985b9cd9995c8819985a5b1959605a1b604482015260640161040e565b3360009081526007602052604081208054859290610d5d9084906110c3565b925050819055508260026000828254610d7691906110c3565b909155505060405183815233907f6f50cbea63312b4c2be9a9a8da194e0d9092597ff756c7402c05b0dd506416e2906020016106d1565b610db5610f6e565b6064811115610e065760405162461bcd60e51b815260206004820152601d60248201527f466565206d757374206265206265747765656e203020616e6420313030000000604482015260640161040e565b600555565b6000600254600003610e1e575060045490565b600254600354610e2e9042611077565b600154610e3b919061108a565b610e4d90670de0b6b3a764000061108a565b610e5791906110a1565b600454610e6491906110c3565b905090565b610e71610f6e565b6001600160a01b038116610ed35760405162461bcd60e51b8152602060048201526024808201527f46656520726563697069656e742063616e6e6f74206265207a65726f206164646044820152637265737360e01b606482015260840161040e565b600680546001600160a01b0319166001600160a01b0392909216919091179055565b610efd610f6e565b6001600160a01b038116610f625760405162461bcd60e51b815260206004820152602660248201527f4f776e61626c653a206e6577206f776e657220697320746865207a65726f206160448201526564647265737360d01b606482015260840161040e565b610f6b81610fc8565b50565b6000546001600160a01b031633146108f65760405162461bcd60e51b815260206004820181905260248201527f4f776e61626c653a2063616c6c6572206973206e6f7420746865206f776e6572604482015260640161040e565b600080546001600160a01b038381166001600160a01b0319831681178455604051919092169283917f8be0079c531659141344cd1fd0a4f28419497f9722a3daafe3b4186f6b6457e09190a35050565b60006020828403121561102a57600080fd5b81356001600160a01b038116811461104157600080fd5b9392505050565b60006020828403121561105a57600080fd5b5035919050565b634e487b7160e01b600052601160045260246000fd5b8181038181111561036857610368611061565b808202811582820484141761036857610368611061565b6000826110be57634e487b7160e01b600052601260045260246000fd5b500490565b8082018082111561036857610368611061565b6000602082840312156110e857600080fd5b8151801515811461104157600080fd5b60006020828403121561110a57600080fd5b505191905056fea2646970667358221220eb373aeb4365ce1862cc69675f89b70c06519382b8df6ff1fad942af0018029964736f6c63430008140033",
  "linkReferences": {},
  "deployedLinkReferences": {}
}