{
  "_format": "hh-sol-artifact-1",
  "contractName": "LiquidityManager",
  "sourceName": "contracts/LiquidityManager.sol",
  "abi": [
    {
      "inputs": [
        {
          "internalType": "contract IERC20",
          "name": "_token",
          "type": "address"
        },
        {
          "internalType": "contract IUniswapV2Router02",
          "name": "_router",
          "type": "address"
        },
        {
          "internalType": "address",
          "name": "_lpTokenReceiver",
          "type": "address"
        }
      ],
      "stateMutability": "nonpayable",
      "type": "constructor"
    },
    {
      "anonymous": false,
      "inputs": [
        {
          "indexed": false,
          "internalType": "address",
          "name": "lpTokenReceiver",
          "type": "address"
        },
        {
          "indexed": false,
          "internalType": "uint256",
          "name": "slippage",
          "type": "uint256"
        },
        {
          "indexed": false,
          "internalType": "uint256",
          "name": "minAmount",
          "type": "uint256"
        }
      ],
      "name": "ConfigUpdated",
      "type": "event"
    },
    {
      "anonymous": false,
      "inputs": [
        {
          "indexed": false,
          "internalType": "uint256",
          "name": "tokenAmount",
          "type": "uint256"
        },
        {
          "indexed": false,
          "internalType": "uint256",
          "name": "ethAmount",
          "type": "uint256"
        },
        {
          "indexed": false,
          "internalType": "uint256",
          "name": "liquidity",
          "type": "uint256"
        }
      ],
      "name": "LiquidityAdded",
      "type": "event"
    },
    {
      "anonymous": false,
      "inputs": [
        {
          "indexed": false,
          "internalType": "uint256",
          "name": "liquidity",
          "type": "uint256"
        },
        {
          "indexed": false,
          "internalType": "uint256",
          "name": "tokenAmount",
          "type": "uint256"
        },
        {
          "indexed": false,
          "internalType": "uint256",
          "name": "ethAmount",
          "type": "uint256"
        }
      ],
      "name": "LiquidityRemoved",
      "type": "event"
    },
    {
      "anonymous": false,
      "inputs": [
        {
          "indexed": true,
          "internalType": "address",
          "name": "previousOwner",
          "type": "address"
        },
        {
          "indexed": true,
          "internalType": "address",
          "name": "newOwner",
          "type": "address"
        }
      ],
      "name": "OwnershipTransferred",
      "type": "event"
    },
    {
      "anonymous": false,
      "inputs": [
        {
          "indexed": false,
          "internalType": "address",
          "name": "account",
          "type": "address"
        }
      ],
      "name": "Paused",
      "type": "event"
    },
    {
      "anonymous": false,
      "inputs": [
        {
          "indexed": false,
          "internalType": "address",
          "name": "account",
          "type": "address"
        }
      ],
      "name": "Unpaused",
      "type": "event"
    },
    {
      "inputs": [
        {
          "internalType": "uint256",
          "name": "tokenAmount",
          "type": "uint256"
        },
        {
          "internalType": "uint256",
          "name": "ethAmount",
          "type": "uint256"
        },
        {
          "internalType": "uint256",
          "name": "minTokenAmount",
          "type": "uint256"
        },
        {
          "internalType": "uint256",
          "name": "minEthAmount",
          "type": "uint256"
        },
        {
          "internalType": "uint256",
          "name": "deadline",
          "type": "uint256"
        }
      ],
      "name": "addLiquidity",
      "outputs": [],
      "stateMutability": "payable",
      "type": "function"
    },
    {
      "inputs": [
        {
          "internalType": "address",
          "name": "_token",
          "type": "address"
        },
        {
          "internalType": "uint256",
          "name": "amount",
          "type": "uint256"
        }
      ],
      "name": "emergencyWithdraw",
      "outputs": [],
      "stateMutability": "nonpayable",
      "type": "function"
    },
    {
      "inputs": [],
      "name": "factory",
      "outputs": [
        {
          "internalType": "contract IUniswapV2Factory",
          "name": "",
          "type": "address"
        }
      ],
      "stateMutability": "view",
      "type": "function"
    },
    {
      "inputs": [],
      "name": "lpTokenReceiver",
      "outputs": [
        {
          "internalType": "address",
          "name": "",
          "type": "address"
        }
      ],
      "stateMutability": "view",
      "type": "function"
    },
    {
      "inputs": [],
      "name": "minLiquidityAmount",
      "outputs": [
        {
          "internalType": "uint256",
          "name": "",
          "type": "uint256"
        }
      ],
      "stateMutability": "view",
      "type": "function"
    },
    {
      "inputs": [],
      "name": "owner",
      "outputs": [
        {
          "internalType": "address",
          "name": "",
          "type": "address"
        }
      ],
      "stateMutability": "view",
      "type": "function"
    },
    {
      "inputs": [],
      "name": "pause",
      "outputs": [],
      "stateMutability": "nonpayable",
      "type": "function"
    },
    {
      "inputs": [],
      "name": "paused",
      "outputs": [
        {
          "internalType": "bool",
          "name": "",
          "type": "bool"
        }
      ],
      "stateMutability": "view",
      "type": "function"
    },
    {
      "inputs": [
        {
          "internalType": "address",
          "name": "lpToken",
          "type": "address"
        },
        {
          "internalType": "uint256",
          "name": "liquidity",
          "type": "uint256"
        },
        {
          "internalType": "uint256",
          "name": "minTokenAmount",
          "type": "uint256"
        },
        {
          "internalType": "uint256",
          "name": "minEthAmount",
          "type": "uint256"
        },
        {
          "internalType": "uint256",
          "name": "deadline",
          "type": "uint256"
        }
      ],
      "name": "removeLiquidity",
      "outputs": [],
      "stateMutability": "nonpayable",
      "type": "function"
    },
    {
      "inputs": [],
      "name": "renounceOwnership",
      "outputs": [],
      "stateMutability": "nonpayable",
      "type": "function"
    },
    {
      "inputs": [],
      "name": "router",
      "outputs": [
        {
          "internalType": "contract IUniswapV2Router02",
          "name": "",
          "type": "address"
        }
      ],
      "stateMutability": "view",
      "type": "function"
    },
    {
      "inputs": [],
      "name": "slippageTolerance",
      "outputs": [
        {
          "internalType": "uint256",
          "name": "",
          "type": "uint256"
        }
      ],
      "stateMutability": "view",
      "type": "function"
    },
    {
      "inputs": [],
      "name": "token",
      "outputs": [
        {
          "internalType": "contract IERC20",
          "name": "",
          "type": "address"
        }
      ],
      "stateMutability": "view",
      "type": "function"
    },
    {
      "inputs": [
        {
          "internalType": "address",
          "name": "newOwner",
          "type": "address"
        }
      ],
      "name": "transferOwnership",
      "outputs": [],
      "stateMutability": "nonpayable",
      "type": "function"
    },
    {
      "inputs": [],
      "name": "unpause",
      "outputs": [],
      "stateMutability": "nonpayable",
      "type": "function"
    },
    {
      "inputs": [
        {
          "internalType": "address",
          "name": "_lpTokenReceiver",
          "type": "address"
        },
        {
          "internalType": "uint256",
          "name": "_slippage",
          "type": "uint256"
        },
        {
          "internalType": "uint256",
          "name": "_minLiquidityAmount",
          "type": "uint256"
        }
      ],
      "name": "updateConfig",
      "outputs": [],
      "stateMutability": "nonpayable",
      "type": "function"
    },
    {
      "stateMutability": "payable",
      "type": "receive"
    }
  ],
  "bytecode": "0x60e0604052670de0b6b3a764000060025560026003553480156200002257600080fd5b50604051620012fd380380620012fd833981016040819052620000459162000201565b620000503362000198565b6000805460ff60a01b191690556001600160a01b038316620000a95760405162461bcd60e51b815260206004820152600d60248201526c24b73b30b634b2103a37b5b2b760991b60448201526064015b60405180910390fd5b6001600160a01b038216620000f25760405162461bcd60e51b815260206004820152600e60248201526d24b73b30b634b2103937baba32b960911b6044820152606401620000a0565b6001600160a01b03808416608052821660a08190526040805163c45a015560e01b8152905163c45a0155916004808201926020929091908290030181865afa15801562000143573d6000803e3d6000fd5b505050506040513d601f19601f8201168201806040525081019062000169919062000255565b6001600160a01b0390811660c052600180546001600160a01b03191692909116919091179055506200027c9050565b600080546001600160a01b038381166001600160a01b0319831681178455604051919092169283917f8be0079c531659141344cd1fd0a4f28419497f9722a3daafe3b4186f6b6457e09190a35050565b6001600160a01b0381168114620001fe57600080fd5b50565b6000806000606084860312156200021757600080fd5b83516200022481620001e8565b60208501519093506200023781620001e8565b60408501519092506200024a81620001e8565b809150509250925092565b6000602082840312156200026857600080fd5b81516200027581620001e8565b9392505050565b60805160a05160c051611012620002eb600039600061024e0152600081816102d8015281816103d30152818161045501528181610878015281816109310152610a1301526000818161030c01528181610484015281816108a3015281816109610152610a4301526110126000f3fe6080604052600436106100f75760003560e01c806395ccea671161008a578063f2fde38b11610059578063f2fde38b14610286578063f3f7338e146102a6578063f887ea40146102c6578063fc0c546a146102fa57600080fd5b806395ccea6714610209578063a360501c14610229578063c45a01551461023c578063d03153aa1461027057600080fd5b80635c975abb116100c65780635c975abb14610183578063715018a6146101ad5780638456cb59146101c25780638da5cb5b146101d757600080fd5b806313928082146101035780631e1186ce146101255780633f4ba83a146101455780634d9e9e091461015a57600080fd5b366100fe57005b600080fd5b34801561010f57600080fd5b5061012361011e366004610df1565b61032e565b005b34801561013157600080fd5b50610123610140366004610e33565b61056b565b34801561015157600080fd5b50610123610625565b34801561016657600080fd5b5061017060025481565b6040519081526020015b60405180910390f35b34801561018f57600080fd5b50600054600160a01b900460ff16604051901515815260200161017a565b3480156101b957600080fd5b50610123610637565b3480156101ce57600080fd5b50610123610649565b3480156101e357600080fd5b506000546001600160a01b03165b6040516001600160a01b03909116815260200161017a565b34801561021557600080fd5b50610123610224366004610e66565b610659565b610123610237366004610e90565b610740565b34801561024857600080fd5b506101f17f000000000000000000000000000000000000000000000000000000000000000081565b34801561027c57600080fd5b5061017060035481565b34801561029257600080fd5b506101236102a1366004610ecb565b610b7d565b3480156102b257600080fd5b506001546101f1906001600160a01b031681565b3480156102d257600080fd5b506101f17f000000000000000000000000000000000000000000000000000000000000000081565b34801561030657600080fd5b506101f17f000000000000000000000000000000000000000000000000000000000000000081565b610336610bf6565b6000841161037a5760405162461bcd60e51b815260206004820152600c60248201526b4e6f206c697175696469747960a01b60448201526064015b60405180910390fd5b428110156103bc5760405162461bcd60e51b815260206004820152600f60248201526e111958591b1a5b99481c185cdcd959608a1b6044820152606401610371565b60405163095ea7b360e01b81526001600160a01b037f0000000000000000000000000000000000000000000000000000000000000000811660048301526024820186905286169063095ea7b3906044016020604051808303816000875af115801561042b573d6000803e3d6000fd5b505050506040513d601f19601f8201168201806040525081019061044f9190610eed565b506000807f00000000000000000000000000000000000000000000000000000000000000006001600160a01b03166302751cec7f00000000000000000000000000000000000000000000000000000000000000008888886104b86000546001600160a01b031690565b896040518763ffffffff1660e01b81526004016104da96959493929190610f0f565b60408051808303816000875af11580156104f8573d6000803e3d6000fd5b505050506040513d601f19601f8201168201806040525081019061051c9190610f4a565b604080518981526020810184905290810182905291935091507f0bb89aa54ed6940a7e7167bd262b2400d63945045ceff1a52a05f2601ed215f19060600160405180910390a150505050505050565b610573610bf6565b600a8211156105b85760405162461bcd60e51b81526020600482015260116024820152700a6d8d2e0e0c2ceca40e8dede40d0d2ced607b1b6044820152606401610371565b600180546001600160a01b0319166001600160a01b03851690811790915560038390556002829055604080519182526020820184905281018290527f57d4073099735e9cca8e792596cbbfe773a7d12a5efcd88c7a2cf3e0a8eba0059060600160405180910390a1505050565b61062d610bf6565b610635610c50565b565b61063f610bf6565b6106356000610ca5565b610651610bf6565b610635610cf5565b610661610bf6565b6001600160a01b0382166106ae57600080546040516001600160a01b03909116914780156108fc02929091818181858888f193505050501580156106a9573d6000803e3d6000fd5b505050565b816001600160a01b031663a9059cbb6106cf6000546001600160a01b031690565b6040516001600160e01b031960e084901b1681526001600160a01b039091166004820152602481018490526044016020604051808303816000875af115801561071c573d6000803e3d6000fd5b505050506040513d601f19601f820116820180604052508101906106a99190610eed565b610748610bf6565b610750610d38565b8334146107955760405162461bcd60e51b815260206004820152601360248201527208aa89040c2dadeeadce840dad2e6dac2e8c6d606b1b6044820152606401610371565b6002548510156107d75760405162461bcd60e51b815260206004820152600d60248201526c42656c6f77206d696e696d756d60981b6044820152606401610371565b6002548410156108195760405162461bcd60e51b815260206004820152600d60248201526c42656c6f77206d696e696d756d60981b6044820152606401610371565b4281101561085b5760405162461bcd60e51b815260206004820152600f60248201526e111958591b1a5b99481c185cdcd959608a1b6044820152606401610371565b604051636eb1769f60e11b81523060048201526001600160a01b037f0000000000000000000000000000000000000000000000000000000000000000811660248301526000917f00000000000000000000000000000000000000000000000000000000000000009091169063dd62ed3e90604401602060405180830381865afa1580156108ec573d6000803e3d6000fd5b505050506040513d601f19601f820116820180604052508101906109109190610f6e565b905085811015610a0c5760405163095ea7b360e01b81526001600160a01b037f00000000000000000000000000000000000000000000000000000000000000008116600483015260001960248301527f0000000000000000000000000000000000000000000000000000000000000000169063095ea7b3906044016020604051808303816000875af11580156109aa573d6000803e3d6000fd5b505050506040513d601f19601f820116820180604052508101906109ce9190610eed565b610a0c5760405162461bcd60e51b815260206004820152600f60248201526e105c1c1c9bdd985b0819985a5b1959608a1b6044820152606401610371565b60008060007f00000000000000000000000000000000000000000000000000000000000000006001600160a01b031663f305d719897f00000000000000000000000000000000000000000000000000000000000000008c8b8b600160009054906101000a90046001600160a01b03168c6040518863ffffffff1660e01b8152600401610a9d96959493929190610f0f565b60606040518083038185885af1158015610abb573d6000803e3d6000fd5b50505050506040513d601f19601f82011682018060405250810190610ae09190610f87565b92509250925081341115610b31576000546001600160a01b03166108fc610b078434610fb5565b6040518115909202916000818181858888f19350505050158015610b2f573d6000803e3d6000fd5b505b60408051848152602081018490529081018290527fd7f28048575eead8851d024ead087913957dfb4fd1a02b4d1573f5352a5a2be39060600160405180910390a1505050505050505050565b610b85610bf6565b6001600160a01b038116610bea5760405162461bcd60e51b815260206004820152602660248201527f4f776e61626c653a206e6577206f776e657220697320746865207a65726f206160448201526564647265737360d01b6064820152608401610371565b610bf381610ca5565b50565b6000546001600160a01b031633146106355760405162461bcd60e51b815260206004820181905260248201527f4f776e61626c653a2063616c6c6572206973206e6f7420746865206f776e65726044820152606401610371565b610c58610d85565b6000805460ff60a01b191690557f5db9ee0a495bf2e6ff9c91a7834c1ba4fdd244a5e8aa4e537bd38aeae4b073aa335b6040516001600160a01b03909116815260200160405180910390a1565b600080546001600160a01b038381166001600160a01b0319831681178455604051919092169283917f8be0079c531659141344cd1fd0a4f28419497f9722a3daafe3b4186f6b6457e09190a35050565b610cfd610d38565b6000805460ff60a01b1916600160a01b1790557f62e78cea01bee320cd4e420270b5ea74000d11b0c9f74754ebdbfc544b05a258610c883390565b600054600160a01b900460ff16156106355760405162461bcd60e51b815260206004820152601060248201526f14185d5cd8589b194e881c185d5cd95960821b6044820152606401610371565b600054600160a01b900460ff166106355760405162461bcd60e51b815260206004820152601460248201527314185d5cd8589b194e881b9bdd081c185d5cd95960621b6044820152606401610371565b80356001600160a01b0381168114610dec57600080fd5b919050565b600080600080600060a08688031215610e0957600080fd5b610e1286610dd5565b97602087013597506040870135966060810135965060800135945092505050565b600080600060608486031215610e4857600080fd5b610e5184610dd5565b95602085013595506040909401359392505050565b60008060408385031215610e7957600080fd5b610e8283610dd5565b946020939093013593505050565b600080600080600060a08688031215610ea857600080fd5b505083359560208501359550604085013594606081013594506080013592509050565b600060208284031215610edd57600080fd5b610ee682610dd5565b9392505050565b600060208284031215610eff57600080fd5b81518015158114610ee657600080fd5b6001600160a01b039687168152602081019590955260408501939093526060840191909152909216608082015260a081019190915260c00190565b60008060408385031215610f5d57600080fd5b505080516020909101519092909150565b600060208284031215610f8057600080fd5b5051919050565b600080600060608486031215610f9c57600080fd5b8351925060208401519150604084015190509250925092565b81810381811115610fd657634e487b7160e01b600052601160045260246000fd5b9291505056fea264697066735822122092b382a0a0dd844c13471f5471dce4a6e5f8918173ba2d09c8abe8c9a9969db764736f6c63430008140033",
  "linkReferences": {},
  "deployedLinkReferences": {}
}