{
  "_format": "hh-sol-artifact-1",
  "contractName": "Presale",
  "sourceName": "contracts/Presale.sol",
  "abi": [
    {
      "inputs": [
        {
          "internalType": "contract IERC20",
          "name": "_imaliToken",
          "type": "address"
        },
        {
          "internalType": "uint256",
          "name": "_presaleDuration",
          "type": "uint256"
        }
      ],
      "stateMutability": "nonpayable",
      "type": "constructor"
    },
    {
      "anonymous": false,
      "inputs": [
        {
          "indexed": false,
          "internalType": "bool",
          "name": "status",
          "type": "bool"
        }
      ],
      "name": "EmergencyStopToggled",
      "type": "event"
    },
    {
      "anonymous": false,
      "inputs": [
        {
          "indexed": true,
          "internalType": "address",
          "name": "previousOwner",
          "type": "address"
        },
        {
          "indexed": true,
          "internalType": "address",
          "name": "newOwner",
          "type": "address"
        }
      ],
      "name": "OwnershipTransferred",
      "type": "event"
    },
    {
      "anonymous": false,
      "inputs": [
        {
          "indexed": false,
          "internalType": "uint256",
          "name": "totalRaised",
          "type": "uint256"
        }
      ],
      "name": "PresaleCompleted",
      "type": "event"
    },
    {
      "anonymous": false,
      "inputs": [
        {
          "indexed": true,
          "internalType": "address",
          "name": "user",
          "type": "address"
        },
        {
          "indexed": false,
          "internalType": "uint256",
          "name": "amount",
          "type": "uint256"
        }
      ],
      "name": "PresaleParticipated",
      "type": "event"
    },
    {
      "anonymous": false,
      "inputs": [
        {
          "indexed": true,
          "internalType": "address",
          "name": "user",
          "type": "address"
        },
        {
          "indexed": false,
          "internalType": "uint256",
          "name": "amount",
          "type": "uint256"
        }
      ],
      "name": "PresaleRefunded",
      "type": "event"
    },
    {
      "anonymous": false,
      "inputs": [
        {
          "indexed": true,
          "internalType": "address",
          "name": "user",
          "type": "address"
        },
        {
          "indexed": true,
          "internalType": "address",
          "name": "referrer",
          "type": "address"
        },
        {
          "indexed": false,
          "internalType": "uint256",
          "name": "bonus",
          "type": "uint256"
        }
      ],
      "name": "ReferralUsed",
      "type": "event"
    },
    {
      "anonymous": false,
      "inputs": [
        {
          "indexed": true,
          "internalType": "address",
          "name": "user",
          "type": "address"
        },
        {
          "indexed": false,
          "internalType": "uint256",
          "name": "amount",
          "type": "uint256"
        }
      ],
      "name": "TokensClaimed",
      "type": "event"
    },
    {
      "anonymous": false,
      "inputs": [
        {
          "indexed": false,
          "internalType": "address[]",
          "name": "users",
          "type": "address[]"
        },
        {
          "indexed": false,
          "internalType": "bool",
          "name": "status",
          "type": "bool"
        }
      ],
      "name": "WhitelistUpdated",
      "type": "event"
    },
    {
      "inputs": [],
      "name": "HARD_CAP",
      "outputs": [
        {
          "internalType": "uint256",
          "name": "",
          "type": "uint256"
        }
      ],
      "stateMutability": "view",
      "type": "function"
    },
    {
      "inputs": [],
      "name": "MAX_CONTRIBUTION",
      "outputs": [
        {
          "internalType": "uint256",
          "name": "",
          "type": "uint256"
        }
      ],
      "stateMutability": "view",
      "type": "function"
    },
    {
      "inputs": [],
      "name": "OWNER_WITHDRAWAL_DELAY",
      "outputs": [
        {
          "internalType": "uint256",
          "name": "",
          "type": "uint256"
        }
      ],
      "stateMutability": "view",
      "type": "function"
    },
    {
      "inputs": [],
      "name": "REFERRAL_BONUS",
      "outputs": [
        {
          "internalType": "uint256",
          "name": "",
          "type": "uint256"
        }
      ],
      "stateMutability": "view",
      "type": "function"
    },
    {
      "inputs": [],
      "name": "REFUND_CLAIM_PERIOD",
      "outputs": [
        {
          "internalType": "uint256",
          "name": "",
          "type": "uint256"
        }
      ],
      "stateMutability": "view",
      "type": "function"
    },
    {
      "inputs": [],
      "name": "SOFT_CAP",
      "outputs": [
        {
          "internalType": "uint256",
          "name": "",
          "type": "uint256"
        }
      ],
      "stateMutability": "view",
      "type": "function"
    },
    {
      "inputs": [],
      "name": "TOKEN_PRICE",
      "outputs": [
        {
          "internalType": "uint256",
          "name": "",
          "type": "uint256"
        }
      ],
      "stateMutability": "view",
      "type": "function"
    },
    {
      "inputs": [
        {
          "internalType": "address[]",
          "name": "users",
          "type": "address[]"
        }
      ],
      "name": "addToWhitelist",
      "outputs": [],
      "stateMutability": "nonpayable",
      "type": "function"
    },
    {
      "inputs": [],
      "name": "claimRefund",
      "outputs": [],
      "stateMutability": "nonpayable",
      "type": "function"
    },
    {
      "inputs": [],
      "name": "claimTokens",
      "outputs": [],
      "stateMutability": "nonpayable",
      "type": "function"
    },
    {
      "inputs": [
        {
          "internalType": "address",
          "name": "",
          "type": "address"
        }
      ],
      "name": "claimed",
      "outputs": [
        {
          "internalType": "uint256",
          "name": "",
          "type": "uint256"
        }
      ],
      "stateMutability": "view",
      "type": "function"
    },
    {
      "inputs": [],
      "name": "completePresale",
      "outputs": [],
      "stateMutability": "nonpayable",
      "type": "function"
    },
    {
      "inputs": [
        {
          "internalType": "address",
          "name": "",
          "type": "address"
        }
      ],
      "name": "contributions",
      "outputs": [
        {
          "internalType": "uint256",
          "name": "",
          "type": "uint256"
        }
      ],
      "stateMutability": "view",
      "type": "function"
    },
    {
      "inputs": [],
      "name": "emergencyStop",
      "outputs": [
        {
          "internalType": "bool",
          "name": "",
          "type": "bool"
        }
      ],
      "stateMutability": "view",
      "type": "function"
    },
    {
      "inputs": [
        {
          "internalType": "address",
          "name": "user",
          "type": "address"
        }
      ],
      "name": "getClaimableTokens",
      "outputs": [
        {
          "internalType": "uint256",
          "name": "",
          "type": "uint256"
        }
      ],
      "stateMutability": "view",
      "type": "function"
    },
    {
      "inputs": [
        {
          "internalType": "address",
          "name": "user",
          "type": "address"
        }
      ],
      "name": "getRefundAmount",
      "outputs": [
        {
          "internalType": "uint256",
          "name": "",
          "type": "uint256"
        }
      ],
      "stateMutability": "view",
      "type": "function"
    },
    {
      "inputs": [],
      "name": "imaliToken",
      "outputs": [
        {
          "internalType": "contract IERC20",
          "name": "",
          "type": "address"
        }
      ],
      "stateMutability": "view",
      "type": "function"
    },
    {
      "inputs": [],
      "name": "owner",
      "outputs": [
        {
          "internalType": "address",
          "name": "",
          "type": "address"
        }
      ],
      "stateMutability": "view",
      "type": "function"
    },
    {
      "inputs": [
        {
          "internalType": "address",
          "name": "referrer",
          "type": "address"
        }
      ],
      "name": "participate",
      "outputs": [],
      "stateMutability": "payable",
      "type": "function"
    },
    {
      "inputs": [],
      "name": "presaleEndTime",
      "outputs": [
        {
          "internalType": "uint256",
          "name": "",
          "type": "uint256"
        }
      ],
      "stateMutability": "view",
      "type": "function"
    },
    {
      "inputs": [],
      "name": "recoverUnclaimedFunds",
      "outputs": [],
      "stateMutability": "nonpayable",
      "type": "function"
    },
    {
      "inputs": [
        {
          "internalType": "address",
          "name": "",
          "type": "address"
        }
      ],
      "name": "referralEarnings",
      "outputs": [
        {
          "internalType": "uint256",
          "name": "",
          "type": "uint256"
        }
      ],
      "stateMutability": "view",
      "type": "function"
    },
    {
      "inputs": [
        {
          "internalType": "address",
          "name": "",
          "type": "address"
        }
      ],
      "name": "referrers",
      "outputs": [
        {
          "internalType": "address",
          "name": "",
          "type": "address"
        }
      ],
      "stateMutability": "view",
      "type": "function"
    },
    {
      "inputs": [
        {
          "internalType": "address[]",
          "name": "users",
          "type": "address[]"
        }
      ],
      "name": "removeFromWhitelist",
      "outputs": [],
      "stateMutability": "nonpayable",
      "type": "function"
    },
    {
      "inputs": [],
      "name": "renounceOwnership",
      "outputs": [],
      "stateMutability": "nonpayable",
      "type": "function"
    },
    {
      "inputs": [],
      "name": "toggleEmergencyStop",
      "outputs": [],
      "stateMutability": "nonpayable",
      "type": "function"
    },
    {
      "inputs": [],
      "name": "totalRaised",
      "outputs": [
        {
          "internalType": "uint256",
          "name": "",
          "type": "uint256"
        }
      ],
      "stateMutability": "view",
      "type": "function"
    },
    {
      "inputs": [],
      "name": "totalReferralEarnings",
      "outputs": [
        {
          "internalType": "uint256",
          "name": "",
          "type": "uint256"
        }
      ],
      "stateMutability": "view",
      "type": "function"
    },
    {
      "inputs": [
        {
          "internalType": "address",
          "name": "newOwner",
          "type": "address"
        }
      ],
      "name": "transferOwnership",
      "outputs": [],
      "stateMutability": "nonpayable",
      "type": "function"
    },
    {
      "inputs": [
        {
          "internalType": "address",
          "name": "",
          "type": "address"
        }
      ],
      "name": "whitelist",
      "outputs": [
        {
          "internalType": "bool",
          "name": "",
          "type": "bool"
        }
      ],
      "stateMutability": "view",
      "type": "function"
    },
    {
      "inputs": [],
      "name": "withdrawFunds",
      "outputs": [],
      "stateMutability": "nonpayable",
      "type": "function"
    },
    {
      "inputs": [],
      "name": "withdrawReferralEarnings",
      "outputs": [],
      "stateMutability": "nonpayable",
      "type": "function"
    }
  ],
  "bytecode": "0x60a06040523480156200001157600080fd5b5060405162001aa638038062001aa6833981016040819052620000349162000166565b6200003f3362000116565b600180556001600160a01b0382166200009f5760405162461bcd60e51b815260206004820152601460248201527f546f6b656e2063616e6e6f74206265207a65726f00000000000000000000000060448201526064015b60405180910390fd5b60008111620000f15760405162461bcd60e51b815260206004820152601460248201527f4475726174696f6e206d757374206265203e2030000000000000000000000000604482015260640162000096565b6001600160a01b0382166080526200010a8142620001a2565b60025550620001ca9050565b600080546001600160a01b038381166001600160a01b0319831681178455604051919092169283917f8be0079c531659141344cd1fd0a4f28419497f9722a3daafe3b4186f6b6457e09190a35050565b600080604083850312156200017a57600080fd5b82516001600160a01b03811681146200019257600080fd5b6020939093015192949293505050565b80820180821115620001c457634e487b7160e01b600052601160045260246000fd5b92915050565b6080516118b2620001f46000396000818161058e01528181610a2c0152610cf201526118b26000f3fe6080604052600436106101e35760003560e01c8063715018a611610102578063b91038c711610095578063d2d8cb6711610064578063d2d8cb671461054b578063e1913c8114610566578063e311fd0a1461057c578063f2fde38b146105b057600080fd5b8063b91038c7146104c8578063c07b528a146104db578063c5c4744c14610508578063c884ef831461051e57600080fd5b806394d95f8f116100d157806394d95f8f1461044a5780639b19251a14610466578063b5545a3c14610496578063b652dc2f146104ab57600080fd5b8063715018a6146103e15780637f649783146103f65780638da5cb5b1461041657806392faa69e1461043457600080fd5b80634621d0821161017a578063548db17411610149578063548db174146103625780635d306f341461038257806363a599a4146103a257806367cf6f10146103cc57600080fd5b80634621d082146102d557806348c54b9d146102ea5780634a3b68cc146102ff5780634b7aac941461034d57600080fd5b8063249b7c19116101b6578063249b7c19146102605780633a03171c1461027657806342e94c9014610293578063451459f2146102c057600080fd5b806301908e6b146101e85780631564233c146102125780631b831ead1461022957806324600fc314610249575b600080fd5b3480156101f457600080fd5b506101ff6212750081565b6040519081526020015b60405180910390f35b34801561021e57600080fd5b506101ff62093a8081565b34801561023557600080fd5b506101ff61024436600461164a565b6105d0565b34801561025557600080fd5b5061025e61063d565b005b34801561026c57600080fd5b506101ff60025481565b34801561028257600080fd5b506101ff683635c9adc5dea0000081565b34801561029f57600080fd5b506101ff6102ae36600461164a565b60066020526000908152604090205481565b3480156102cc57600080fd5b5061025e610778565b3480156102e157600080fd5b5061025e610803565b3480156102f657600080fd5b5061025e6108d7565b34801561030b57600080fd5b5061033561031a36600461164a565b6008602052600090815260409020546001600160a01b031681565b6040516001600160a01b039091168152602001610209565b34801561035957600080fd5b5061025e610af6565b34801561036e57600080fd5b5061025e61037d36600461166c565b610b4b565b34801561038e57600080fd5b506101ff61039d36600461164a565b610c06565b3480156103ae57600080fd5b506005546103bc9060ff1681565b6040519015158152602001610209565b3480156103d857600080fd5b5061025e610c67565b3480156103ed57600080fd5b5061025e610e31565b34801561040257600080fd5b5061025e61041136600461166c565b610e43565b34801561042257600080fd5b506000546001600160a01b0316610335565b34801561044057600080fd5b506101ff60045481565b34801561045657600080fd5b506101ff678ac7230489e8000081565b34801561047257600080fd5b506103bc61048136600461164a565b600a6020526000908152604090205460ff1681565b3480156104a257600080fd5b5061025e610ef2565b3480156104b757600080fd5b506101ff681b1ae4d6e2ef50000081565b61025e6104d636600461164a565b6110c2565b3480156104e757600080fd5b506101ff6104f636600461164a565b60096020526000908152604090205481565b34801561051457600080fd5b506101ff60035481565b34801561052a57600080fd5b506101ff61053936600461164a565b60076020526000908152604090205481565b34801561055757600080fd5b506101ff662386f26fc1000081565b34801561057257600080fd5b506101ff6101f481565b34801561058857600080fd5b506103357f000000000000000000000000000000000000000000000000000000000000000081565b3480156105bc57600080fd5b5061025e6105cb36600461164a565b6114b5565b60006002544210806105ec5750681b1ae4d6e2ef500000600354105b156105f957506000919050565b6001600160a01b038216600090815260066020526040902054662386f26fc100009061062d90670de0b6b3a76400006116f7565b610637919061170e565b92915050565b61064561152b565b61064d611585565b6212750060025461065e9190611730565b4210156106a95760405162461bcd60e51b81526020600482015260146024820152735769746864726177616c20746f6f206561726c7960601b60448201526064015b60405180910390fd5b681b1ae4d6e2ef50000060035410156106d45760405162461bcd60e51b81526004016106a090611743565b6000600454476106e4919061176d565b905060006106fa6000546001600160a01b031690565b6001600160a01b0316826040515b60006040518083038185875af1925050503d8060008114610745576040519150601f19603f3d011682016040523d82523d6000602084013e61074a565b606091505b505090508061076b5760405162461bcd60e51b81526004016106a090611780565b505061077660018055565b565b610780611585565b33600090815260096020526040902054806107cb5760405162461bcd60e51b815260206004820152600b60248201526a4e6f206561726e696e677360a81b60448201526064016106a0565b336000908152600960205260408120819055600480548392906107ef90849061176d565b909155505060405160009033908390610708565b61080b61152b565b6108196212750060026116f7565b6002546108269190611730565b4210156108615760405162461bcd60e51b8152602060048201526009602482015268546f6f206561726c7960b81b60448201526064016106a0565b600080546040516001600160a01b039091169047908381818185875af1925050503d80600081146108ae576040519150601f19603f3d011682016040523d82523d6000602084013e6108b3565b606091505b50509050806108d45760405162461bcd60e51b81526004016106a090611780565b50565b6108df611585565b6002544210156109015760405162461bcd60e51b81526004016106a0906117a9565b681b1ae4d6e2ef500000600354101561092c5760405162461bcd60e51b81526004016106a090611743565b336000908152600660205260409020548061097b5760405162461bcd60e51b815260206004820152600f60248201526e27379031b7b73a3934b13aba34b7b760891b60448201526064016106a0565b3360009081526007602052604090205481116109cb5760405162461bcd60e51b815260206004820152600f60248201526e105b1c9958591e4818db185a5b5959608a1b60448201526064016106a0565b6000662386f26fc100006109e783670de0b6b3a76400006116f7565b6109f1919061170e565b33600081815260076020526040908190208590555163a9059cbb60e01b81526004810191909152602481018290529091506001600160a01b037f0000000000000000000000000000000000000000000000000000000000000000169063a9059cbb906044016020604051808303816000875af1158015610a75573d6000803e3d6000fd5b505050506040513d601f19601f82011682018060405250810190610a9991906117d4565b610ab55760405162461bcd60e51b81526004016106a090611780565b60405181815233907f896e034966eaaf1adc54acc0f257056febbd300c9e47182cf761982cf1f5e430906020015b60405180910390a2505061077660018055565b610afe61152b565b6005805460ff8082161560ff1990921682179092556040519116151581527f05b88d23d9a60b7924fccc370e1e0c1ccf49989e3b2968cafaf7db7fc13bd13f9060200160405180910390a1565b610b5361152b565b60005b81811015610bc5576000600a6000858585818110610b7657610b766117f6565b9050602002016020810190610b8b919061164a565b6001600160a01b031681526020810191909152604001600020805460ff191691151591909117905580610bbd8161180c565b915050610b56565b507fa091d95aa3f4b3529e12c57e1e9e10580edde8a7ac6fd51dd3c8e824c332dbe082826000604051610bfa93929190611825565b60405180910390a15050565b6000600254421080610c28575062093a80600254610c249190611730565b4210155b80610c3e5750681b1ae4d6e2ef50000060035410155b15610c4b57506000919050565b506001600160a01b031660009081526006602052604090205490565b610c6f61152b565b610c77611585565b600254421015610c995760405162461bcd60e51b81526004016106a0906117a9565b681b1ae4d6e2ef5000006003541015610cc45760405162461bcd60e51b81526004016106a090611743565b6000662386f26fc10000600354670de0b6b3a7640000610ce491906116f7565b610cee919061170e565b90507f00000000000000000000000000000000000000000000000000000000000000006001600160a01b03166323b872dd610d316000546001600160a01b031690565b6040516001600160e01b031960e084901b1681526001600160a01b039091166004820152306024820152604481018490526064016020604051808303816000875af1158015610d84573d6000803e3d6000fd5b505050506040513d601f19601f82011682018060405250810190610da891906117d4565b610dec5760405162461bcd60e51b8152602060048201526015602482015274151bdad95b881d1c985b9cd9995c8819985a5b1959605a1b60448201526064016106a0565b7f6882b4e9381959c371492b71e5cc926ee0b176e95804510eeac6c20044b5b5a2600354604051610e1f91815260200190565b60405180910390a15061077660018055565b610e3961152b565b61077660006115de565b610e4b61152b565b60005b81811015610ebd576001600a6000858585818110610e6e57610e6e6117f6565b9050602002016020810190610e83919061164a565b6001600160a01b031681526020810191909152604001600020805460ff191691151591909117905580610eb58161180c565b915050610e4e565b507fa091d95aa3f4b3529e12c57e1e9e10580edde8a7ac6fd51dd3c8e824c332dbe082826001604051610bfa93929190611825565b610efa611585565b600254421015610f1c5760405162461bcd60e51b81526004016106a0906117a9565b62093a80600254610f2d9190611730565b4210610f735760405162461bcd60e51b81526020600482015260156024820152741499599d5b99081c195c9a5bd908195e1c1a5c9959605a1b60448201526064016106a0565b681b1ae4d6e2ef50000060035410610fbc5760405162461bcd60e51b815260206004820152600c60248201526b14dbd99d0818d85c081b595d60a21b60448201526064016106a0565b33600090815260066020526040902054806110195760405162461bcd60e51b815260206004820152601960248201527f4e6f20636f6e747269627574696f6e20746f20726566756e640000000000000060448201526064016106a0565b336000818152600660205260408082208290555190919083908381818185875af1925050503d806000811461106a576040519150601f19603f3d011682016040523d82523d6000602084013e61106f565b606091505b50509050806110905760405162461bcd60e51b81526004016106a090611780565b60405182815233907fdea7aa5d4950ef68f736a4f3e648d80758270c4f8fbc9d63cdf1e1a30418e34890602001610ae3565b6110ca611585565b60055460ff16156111125760405162461bcd60e51b815260206004820152601260248201527110dbdb9d1c9858dd081a5cc81c185d5cd95960721b60448201526064016106a0565b60025442106111575760405162461bcd60e51b8152602060048201526011602482015270141c995cd85b19481a185cc8195b991959607a1b60448201526064016106a0565b600034116111a75760405162461bcd60e51b815260206004820152601860248201527f436f6e747269627574696f6e206d757374206265203e2030000000000000000060448201526064016106a0565b678ac7230489e800003411156111ff5760405162461bcd60e51b815260206004820152601860248201527f45786365656473206d617820636f6e747269627574696f6e000000000000000060448201526064016106a0565b683635c9adc5dea00000346003546112179190611730565b11156112585760405162461bcd60e51b815260206004820152601060248201526f12185c990818d85c081c995858da195960821b60448201526064016106a0565b336000908152600a602052604090205460ff168061128057506000546001600160a01b031633145b6112be5760405162461bcd60e51b815260206004820152600f60248201526e139bdd081dda1a5d195b1a5cdd1959608a1b60448201526064016106a0565b60006001600160a01b0382161561142757336001600160a01b0383160361131b5760405162461bcd60e51b815260206004820152601160248201527021b0b73737ba103932b332b91039b2b63360791b60448201526064016106a0565b336000908152600860205260409020546001600160a01b03166113615733600090815260086020526040902080546001600160a01b0319166001600160a01b0384161790555b336000908152600860205260409020546001600160a01b031680156114255761271061138f6101f4346116f7565b611399919061170e565b6001600160a01b0382166000908152600960205260408120805492945084929091906113c6908490611730565b9250508190555081600460008282546113df9190611730565b90915550506040518281526001600160a01b0382169033907f9bdaca2ba7ce1627f2155806b08d043dac82c2ce8300504720fea617e2bf94019060200160405180910390a35b505b6000611433823461176d565b33600090815260066020526040812080549293508392909190611457908490611730565b9250508190555080600360008282546114709190611730565b909155505060405181815233907f757ac15f39154bd6740150be3e77eb5f244537bd537fe545b7390fb2a2cd63699060200160405180910390a250506108d460018055565b6114bd61152b565b6001600160a01b0381166115225760405162461bcd60e51b815260206004820152602660248201527f4f776e61626c653a206e6577206f776e657220697320746865207a65726f206160448201526564647265737360d01b60648201526084016106a0565b6108d4816115de565b6000546001600160a01b031633146107765760405162461bcd60e51b815260206004820181905260248201527f4f776e61626c653a2063616c6c6572206973206e6f7420746865206f776e657260448201526064016106a0565b6002600154036115d75760405162461bcd60e51b815260206004820152601f60248201527f5265656e7472616e637947756172643a207265656e7472616e742063616c6c0060448201526064016106a0565b6002600155565b600080546001600160a01b038381166001600160a01b0319831681178455604051919092169283917f8be0079c531659141344cd1fd0a4f28419497f9722a3daafe3b4186f6b6457e09190a35050565b80356001600160a01b038116811461164557600080fd5b919050565b60006020828403121561165c57600080fd5b6116658261162e565b9392505050565b6000806020838503121561167f57600080fd5b823567ffffffffffffffff8082111561169757600080fd5b818501915085601f8301126116ab57600080fd5b8135818111156116ba57600080fd5b8660208260051b85010111156116cf57600080fd5b60209290920196919550909350505050565b634e487b7160e01b600052601160045260246000fd5b8082028115828204841417610637576106376116e1565b60008261172b57634e487b7160e01b600052601260045260246000fd5b500490565b80820180821115610637576106376116e1565b60208082526010908201526f14dbd99d0818d85c081b9bdd081b595d60821b604082015260600190565b81810381811115610637576106376116e1565b6020808252600f908201526e151c985b9cd9995c8819985a5b1959608a1b604082015260600190565b602080825260119082015270141c995cd85b19481b9bdd08195b991959607a1b604082015260600190565b6000602082840312156117e657600080fd5b8151801515811461166557600080fd5b634e487b7160e01b600052603260045260246000fd5b60006001820161181e5761181e6116e1565b5060010190565b6040808252810183905260008460608301825b86811015611866576001600160a01b036118518461162e565b16825260209283019290910190600101611838565b508092505050821515602083015294935050505056fea2646970667358221220d2a71880830df0d52d65471e6b9138cc705760b7fea0681571faa48988e2e69d64736f6c63430008140033",
  "linkReferences": {},
  "deployedLinkReferences": {}
}