{
  "_format": "hh-sol-artifact-1",
  "contractName": "IMALIStaking",
  "sourceName": "contracts/IMALIStaking.sol",
  "abi": [
    {
      "inputs": [
        {
          "internalType": "address",
          "name": "_imaliToken",
          "type": "address"
        },
        {
          "internalType": "address",
          "name": "_lpToken",
          "type": "address"
        },
        {
          "internalType": "address",
          "name": "_nftContract",
          "type": "address"
        },
        {
          "internalType": "address",
          "name": "_feeRecipient",
          "type": "address"
        }
      ],
      "stateMutability": "nonpayable",
      "type": "constructor"
    },
    {
      "anonymous": false,
      "inputs": [
        {
          "indexed": false,
          "internalType": "bool",
          "name": "paused",
          "type": "bool"
        }
      ],
      "name": "EmergencyPaused",
      "type": "event"
    },
    {
      "anonymous": false,
      "inputs": [
        {
          "indexed": true,
          "internalType": "address",
          "name": "previousOwner",
          "type": "address"
        },
        {
          "indexed": true,
          "internalType": "address",
          "name": "newOwner",
          "type": "address"
        }
      ],
      "name": "OwnershipTransferred",
      "type": "event"
    },
    {
      "anonymous": false,
      "inputs": [
        {
          "indexed": true,
          "internalType": "address",
          "name": "user",
          "type": "address"
        },
        {
          "indexed": false,
          "internalType": "uint256",
          "name": "reward",
          "type": "uint256"
        }
      ],
      "name": "RewardClaimed",
      "type": "event"
    },
    {
      "anonymous": false,
      "inputs": [
        {
          "indexed": true,
          "internalType": "address",
          "name": "user",
          "type": "address"
        },
        {
          "indexed": false,
          "internalType": "bool",
          "name": "isIMALI",
          "type": "bool"
        },
        {
          "indexed": false,
          "internalType": "uint256",
          "name": "amount",
          "type": "uint256"
        },
        {
          "indexed": false,
          "internalType": "uint256",
          "name": "fee",
          "type": "uint256"
        }
      ],
      "name": "Staked",
      "type": "event"
    },
    {
      "anonymous": false,
      "inputs": [
        {
          "indexed": true,
          "internalType": "address",
          "name": "user",
          "type": "address"
        },
        {
          "indexed": false,
          "internalType": "bool",
          "name": "isIMALI",
          "type": "bool"
        },
        {
          "indexed": false,
          "internalType": "uint256",
          "name": "amount",
          "type": "uint256"
        },
        {
          "indexed": false,
          "internalType": "uint256",
          "name": "fee",
          "type": "uint256"
        }
      ],
      "name": "Unstaked",
      "type": "event"
    },
    {
      "inputs": [],
      "name": "MAX_FEE",
      "outputs": [
        {
          "internalType": "uint256",
          "name": "",
          "type": "uint256"
        }
      ],
      "stateMutability": "view",
      "type": "function"
    },
    {
      "inputs": [],
      "name": "claimRewards",
      "outputs": [],
      "stateMutability": "nonpayable",
      "type": "function"
    },
    {
      "inputs": [],
      "name": "emergencyPaused",
      "outputs": [
        {
          "internalType": "bool",
          "name": "",
          "type": "bool"
        }
      ],
      "stateMutability": "view",
      "type": "function"
    },
    {
      "inputs": [],
      "name": "feeRecipient",
      "outputs": [
        {
          "internalType": "address",
          "name": "",
          "type": "address"
        }
      ],
      "stateMutability": "view",
      "type": "function"
    },
    {
      "inputs": [],
      "name": "imaliRewardRate",
      "outputs": [
        {
          "internalType": "uint256",
          "name": "",
          "type": "uint256"
        }
      ],
      "stateMutability": "view",
      "type": "function"
    },
    {
      "inputs": [
        {
          "internalType": "address",
          "name": "",
          "type": "address"
        }
      ],
      "name": "imaliStakers",
      "outputs": [
        {
          "internalType": "uint256",
          "name": "amount",
          "type": "uint256"
        },
        {
          "internalType": "uint256",
          "name": "lastUpdated",
          "type": "uint256"
        },
        {
          "internalType": "uint256",
          "name": "rewards",
          "type": "uint256"
        },
        {
          "internalType": "uint256",
          "name": "rewardMultiplier",
          "type": "uint256"
        }
      ],
      "stateMutability": "view",
      "type": "function"
    },
    {
      "inputs": [],
      "name": "imaliToken",
      "outputs": [
        {
          "internalType": "contract IERC20",
          "name": "",
          "type": "address"
        }
      ],
      "stateMutability": "view",
      "type": "function"
    },
    {
      "inputs": [],
      "name": "lpRewardRate",
      "outputs": [
        {
          "internalType": "uint256",
          "name": "",
          "type": "uint256"
        }
      ],
      "stateMutability": "view",
      "type": "function"
    },
    {
      "inputs": [
        {
          "internalType": "address",
          "name": "",
          "type": "address"
        }
      ],
      "name": "lpStakers",
      "outputs": [
        {
          "internalType": "uint256",
          "name": "amount",
          "type": "uint256"
        },
        {
          "internalType": "uint256",
          "name": "lastUpdated",
          "type": "uint256"
        },
        {
          "internalType": "uint256",
          "name": "rewards",
          "type": "uint256"
        },
        {
          "internalType": "uint256",
          "name": "rewardMultiplier",
          "type": "uint256"
        }
      ],
      "stateMutability": "view",
      "type": "function"
    },
    {
      "inputs": [],
      "name": "lpToken",
      "outputs": [
        {
          "internalType": "contract IERC20",
          "name": "",
          "type": "address"
        }
      ],
      "stateMutability": "view",
      "type": "function"
    },
    {
      "inputs": [],
      "name": "nftContract",
      "outputs": [
        {
          "internalType": "contract IERC721",
          "name": "",
          "type": "address"
        }
      ],
      "stateMutability": "view",
      "type": "function"
    },
    {
      "inputs": [
        {
          "internalType": "uint256",
          "name": "",
          "type": "uint256"
        }
      ],
      "name": "nftTierMultipliers",
      "outputs": [
        {
          "internalType": "uint256",
          "name": "",
          "type": "uint256"
        }
      ],
      "stateMutability": "view",
      "type": "function"
    },
    {
      "inputs": [],
      "name": "owner",
      "outputs": [
        {
          "internalType": "address",
          "name": "",
          "type": "address"
        }
      ],
      "stateMutability": "view",
      "type": "function"
    },
    {
      "inputs": [
        {
          "internalType": "address",
          "name": "tokenAddress",
          "type": "address"
        },
        {
          "internalType": "uint256",
          "name": "amount",
          "type": "uint256"
        }
      ],
      "name": "recoverERC20",
      "outputs": [],
      "stateMutability": "nonpayable",
      "type": "function"
    },
    {
      "inputs": [],
      "name": "renounceOwnership",
      "outputs": [],
      "stateMutability": "nonpayable",
      "type": "function"
    },
    {
      "inputs": [
        {
          "internalType": "bool",
          "name": "paused",
          "type": "bool"
        }
      ],
      "name": "setEmergencyPause",
      "outputs": [],
      "stateMutability": "nonpayable",
      "type": "function"
    },
    {
      "inputs": [
        {
          "internalType": "address",
          "name": "_feeRecipient",
          "type": "address"
        }
      ],
      "name": "setFeeRecipient",
      "outputs": [],
      "stateMutability": "nonpayable",
      "type": "function"
    },
    {
      "inputs": [
        {
          "internalType": "uint256[]",
          "name": "nftIds",
          "type": "uint256[]"
        },
        {
          "internalType": "uint256[]",
          "name": "multipliers",
          "type": "uint256[]"
        }
      ],
      "name": "setNFTMultipliers",
      "outputs": [],
      "stateMutability": "nonpayable",
      "type": "function"
    },
    {
      "inputs": [
        {
          "internalType": "uint256",
          "name": "amount",
          "type": "uint256"
        },
        {
          "internalType": "uint256[]",
          "name": "nftIds",
          "type": "uint256[]"
        }
      ],
      "name": "stakeIMALI",
      "outputs": [],
      "stateMutability": "nonpayable",
      "type": "function"
    },
    {
      "inputs": [
        {
          "internalType": "uint256",
          "name": "amount",
          "type": "uint256"
        },
        {
          "internalType": "uint256[]",
          "name": "nftIds",
          "type": "uint256[]"
        }
      ],
      "name": "stakeLP",
      "outputs": [],
      "stateMutability": "nonpayable",
      "type": "function"
    },
    {
      "inputs": [
        {
          "internalType": "address",
          "name": "newOwner",
          "type": "address"
        }
      ],
      "name": "transferOwnership",
      "outputs": [],
      "stateMutability": "nonpayable",
      "type": "function"
    },
    {
      "inputs": [
        {
          "internalType": "uint256",
          "name": "amount",
          "type": "uint256"
        }
      ],
      "name": "unstakeIMALI",
      "outputs": [],
      "stateMutability": "nonpayable",
      "type": "function"
    },
    {
      "inputs": [
        {
          "internalType": "uint256",
          "name": "amount",
          "type": "uint256"
        }
      ],
      "name": "unstakeLP",
      "outputs": [],
      "stateMutability": "nonpayable",
      "type": "function"
    },
    {
      "inputs": [
        {
          "internalType": "address",
          "name": "",
          "type": "address"
        }
      ],
      "name": "userBoostMultiplier",
      "outputs": [
        {
          "internalType": "uint256",
          "name": "",
          "type": "uint256"
        }
      ],
      "stateMutability": "view",
      "type": "function"
    }
  ],
  "bytecode": "0x60e0604052603260065560646007553480156200001b57600080fd5b5060405162001a1038038062001a108339810160408190526200003e9162000245565b6200004933620001d8565b600180556001600160a01b038416620000a95760405162461bcd60e51b815260206004820152601360248201527f496e76616c696420494d414c4920746f6b656e0000000000000000000000000060448201526064015b60405180910390fd5b6001600160a01b038316620000f45760405162461bcd60e51b815260206004820152601060248201526f24b73b30b634b2102628103a37b5b2b760811b6044820152606401620000a0565b6001600160a01b0382166200014c5760405162461bcd60e51b815260206004820152601460248201527f496e76616c6964204e465420636f6e74726163740000000000000000000000006044820152606401620000a0565b6001600160a01b038116620001a45760405162461bcd60e51b815260206004820152601560248201527f496e76616c69642066656520726563697069656e7400000000000000000000006044820152606401620000a0565b6001600160a01b0393841660805291831660a052821660c052600880546001600160a01b03191691909216179055620002a2565b600080546001600160a01b038381166001600160a01b0319831681178455604051919092169283917f8be0079c531659141344cd1fd0a4f28419497f9722a3daafe3b4186f6b6457e09190a35050565b80516001600160a01b03811681146200024057600080fd5b919050565b600080600080608085870312156200025c57600080fd5b620002678562000228565b9350620002776020860162000228565b9250620002876040860162000228565b9150620002976060860162000228565b905092959194509250565b60805160a05160c0516117066200030a600039600081816102fe015261126c0152600081816102270152818161077f01528181610c5b0152610fef01526000818161034b015281816105aa0152818161074201528181610c81015261101501526117066000f3fe608060405234801561001057600080fd5b50600436106101585760003560e01c8063acc36319116100c3578063d8d1a6571161007c578063d8d1a65714610333578063e311fd0a14610346578063e74b981b1461036d578063f240a55814610380578063f2fde38b146103a0578063fb9c19ea146103b357600080fd5b8063acc363191461027e578063b2bac3cf14610287578063bc063e1a146102de578063c4778998146102e6578063d56d229d146102f9578063d87a8b8e1461032057600080fd5b80635065547f116101155780635065547f1461020f5780635fcbd28514610222578063715018a6146102495780638162bff4146102515780638980f11f1461025a5780638da5cb5b1461026d57600080fd5b80630eae0c221461015d57806327c830a914610172578063372500ab1461019b5780633a2cc05f146101a357806346904840146101d1578063499a586b146101fc575b600080fd5b61017061016b366004611476565b6103ea565b005b60085461018690600160a01b900460ff1681565b60405190151581526020015b60405180910390f35b6101706104ae565b6101c36101b13660046114da565b60046020526000908152604090205481565b604051908152602001610192565b6008546101e4906001600160a01b031681565b6040516001600160a01b039091168152602001610192565b61017061020a3660046114f3565b61069d565b61017061021d3660046114f3565b6106e8565b6101e47f000000000000000000000000000000000000000000000000000000000000000081565b610170610726565b6101c360065481565b610170610268366004611545565b610738565b6000546001600160a01b03166101e4565b6101c360075481565b6102be610295366004611571565b600260208190526000918252604090912080546001820154928201546003909201549092919084565b604080519485526020850193909352918301526060820152608001610192565b6101c3600a81565b6101706102f43660046114da565b610892565b6101e47f000000000000000000000000000000000000000000000000000000000000000081565b61017061032e3660046114da565b6108db565b6101706103413660046115a3565b610918565b6101e47f000000000000000000000000000000000000000000000000000000000000000081565b61017061037b366004611571565b610978565b6101c361038e366004611571565b60056020526000908152604090205481565b6101706103ae366004611571565b6109ea565b6102be6103c1366004611571565b600360208190526000918252604090912080546001820154600283015492909301549092919084565b6103f2610a60565b80518251146104405760405162461bcd60e51b8152602060048201526015602482015274082e4e4c2f240d8cadccee8d040dad2e6dac2e8c6d605b1b60448201526064015b60405180910390fd5b60005b82518110156104a95781818151811061045e5761045e6115c0565b60200260200101516004600085848151811061047c5761047c6115c0565b602002602001015181526020019081526020016000208190555080806104a1906115ec565b915050610443565b505050565b6104b6610aba565b600854600160a01b900460ff16156104e05760405162461bcd60e51b815260040161043790611605565b6104eb336001610b13565b6104f6336000610b13565b3360009081526003602090815260408083206002908101549281905290832001546105219190611631565b9050600081116105605760405162461bcd60e51b815260206004820152600a6024820152694e6f207265776172647360b01b6044820152606401610437565b33600081815260026020818152604080842083018490556003909152808320909101919091555163a9059cbb60e01b81526004810191909152602481018290526001600160a01b037f0000000000000000000000000000000000000000000000000000000000000000169063a9059cbb906044016020604051808303816000875af11580156105f3573d6000803e3d6000fd5b505050506040513d601f19601f82011682018060405250810190610617919061164a565b61065c5760405162461bcd60e51b815260206004820152601660248201527514995dd85c99081d1c985b9cd9995c8819985a5b195960521b6044820152606401610437565b60405181815233907f106f923f993c2149d49b4255ff723acafa1f2d94393f561d3eda32ae348f72419060200160405180910390a25061069b60018055565b565b6106a5610aba565b600854600160a01b900460ff16156106cf5760405162461bcd60e51b815260040161043790611605565b6106db82826000610c0d565b6106e460018055565b5050565b6106f0610aba565b600854600160a01b900460ff161561071a5760405162461bcd60e51b815260040161043790611605565b6106db82826001610c0d565b61072e610a60565b61069b6000610f11565b610740610a60565b7f00000000000000000000000000000000000000000000000000000000000000006001600160a01b0316826001600160a01b0316141580156107b457507f00000000000000000000000000000000000000000000000000000000000000006001600160a01b0316826001600160a01b031614155b6108005760405162461bcd60e51b815260206004820152601c60248201527f43616e6e6f74207265636f766572207374616b656420746f6b656e73000000006044820152606401610437565b816001600160a01b031663a9059cbb6108216000546001600160a01b031690565b6040516001600160e01b031960e084901b1681526001600160a01b039091166004820152602481018490526044016020604051808303816000875af115801561086e573d6000803e3d6000fd5b505050506040513d601f19601f820116820180604052508101906104a9919061164a565b61089a610aba565b600854600160a01b900460ff16156108c45760405162461bcd60e51b815260040161043790611605565b6108cf816000610f61565b6108d860018055565b50565b6108e3610aba565b600854600160a01b900460ff161561090d5760405162461bcd60e51b815260040161043790611605565b6108cf816001610f61565b610920610a60565b60088054821515600160a01b0260ff60a01b199091161790556040517f228f455d7bc3d0b24a3a08d7847f391c3e78fc8aeb83acf226b7a96ee162b8ac9061096d90831515815260200190565b60405180910390a150565b610980610a60565b6001600160a01b0381166109c85760405162461bcd60e51b815260206004820152600f60248201526e496e76616c6964206164647265737360881b6044820152606401610437565b600880546001600160a01b0319166001600160a01b0392909216919091179055565b6109f2610a60565b6001600160a01b038116610a575760405162461bcd60e51b815260206004820152602660248201527f4f776e61626c653a206e6577206f776e657220697320746865207a65726f206160448201526564647265737360d01b6064820152608401610437565b6108d881610f11565b6000546001600160a01b0316331461069b5760405162461bcd60e51b815260206004820181905260248201527f4f776e61626c653a2063616c6c6572206973206e6f7420746865206f776e65726044820152606401610437565b600260015403610b0c5760405162461bcd60e51b815260206004820152601f60248201527f5265656e7472616e637947756172643a207265656e7472616e742063616c6c006044820152606401610437565b6002600155565b600081610b37576001600160a01b0383166000908152600360205260409020610b50565b6001600160a01b03831660009081526002602052604090205b9050600082610b6157600754610b65565b6006545b825490915015610c01576000826001015442610b819190611667565b905060006201518082848660000154610b9a919061167a565b610ba4919061167a565b610bae9190611691565b6001600160a01b03871660009081526005602052604081205491925090606490610bd8908461167a565b610be29190611691565b905080856002016000828254610bf89190611631565b90915550505050505b50426001909101555050565b60008311610c525760405162461bcd60e51b81526020600482015260126024820152710416d6f756e74206d757374206265203e20360741b6044820152606401610437565b600081610c7f577f0000000000000000000000000000000000000000000000000000000000000000610ca1565b7f00000000000000000000000000000000000000000000000000000000000000005b9050600082610cb1576005610cb4565b60035b60ff16905060006064610cc7838861167a565b610cd19190611691565b90506000610cdf8288611667565b6008546040516323b872dd60e01b81523360048201526001600160a01b039182166024820152604481018590529192508516906323b872dd906064016020604051808303816000875af1158015610d3a573d6000803e3d6000fd5b505050506040513d601f19601f82011682018060405250810190610d5e919061164a565b610da05760405162461bcd60e51b8152602060048201526013602482015272119959481d1c985b9cd9995c8819985a5b1959606a1b6044820152606401610437565b6040516323b872dd60e01b8152336004820152306024820152604481018290526001600160a01b038516906323b872dd906064016020604051808303816000875af1158015610df3573d6000803e3d6000fd5b505050506040513d601f19601f82011682018060405250810190610e17919061164a565b610e5b5760405162461bcd60e51b815260206004820152601560248201527414dd185ad9481d1c985b9cd9995c8819985a5b1959605a1b6044820152606401610437565b610e653386610b13565b855115610e7657610e763387611252565b600085610e9157336000908152600360205260409020610ea1565b3360009081526002602052604090205b905081816000016000828254610eb79190611631565b90915550504260018201556040805187151581526020810184905290810184905233907f32e9f3a248532fff6963435691938b457568b3b1bc8826c101d2fdb9d020f1b09060600160405180910390a25050505050505050565b600080546001600160a01b038381166001600160a01b0319831681178455604051919092169283917f8be0079c531659141344cd1fd0a4f28419497f9722a3daafe3b4186f6b6457e09190a35050565b600081610f7c57336000908152600360205260409020610f8c565b3360009081526002602052604090205b9050600083118015610f9f575080548311155b610fdc5760405162461bcd60e51b815260206004820152600e60248201526d125b9d985b1a5908185b5bdd5b9d60921b6044820152606401610437565b610fe63383610b13565b600082611013577f0000000000000000000000000000000000000000000000000000000000000000611035565b7f00000000000000000000000000000000000000000000000000000000000000005b9050600083611045576005611048565b60035b60ff1690506000606461105b838861167a565b6110659190611691565b905060006110738288611667565b9050868560000160008282546110899190611667565b909155505060085460405163a9059cbb60e01b81526001600160a01b039182166004820152602481018490529085169063a9059cbb906044016020604051808303816000875af11580156110e1573d6000803e3d6000fd5b505050506040513d601f19601f82011682018060405250810190611105919061164a565b6111475760405162461bcd60e51b8152602060048201526013602482015272119959481d1c985b9cd9995c8819985a5b1959606a1b6044820152606401610437565b60405163a9059cbb60e01b8152336004820152602481018290526001600160a01b0385169063a9059cbb906044016020604051808303816000875af1158015611194573d6000803e3d6000fd5b505050506040513d601f19601f820116820180604052508101906111b8919061164a565b6112045760405162461bcd60e51b815260206004820152601760248201527f556e7374616b65207472616e73666572206661696c65640000000000000000006044820152606401610437565b6040805187151581526020810183905290810183905233907ff9ecbeb7f88eca00d9305e9268ecb22701fca32f07993500ba89c9c955d0d1a49060600160405180910390a250505050505050565b606460005b82518110156113a457836001600160a01b03167f00000000000000000000000000000000000000000000000000000000000000006001600160a01b0316636352211e8584815181106112ab576112ab6115c0565b60200260200101516040518263ffffffff1660e01b81526004016112d191815260200190565b602060405180830381865afa1580156112ee573d6000803e3d6000fd5b505050506040513d601f19601f8201168201806040525081019061131291906116b3565b6001600160a01b0316146113585760405162461bcd60e51b815260206004820152600d60248201526c2737ba1027232a1037bbb732b960991b6044820152606401610437565b6004600084838151811061136e5761136e6115c0565b6020026020010151815260200190815260200160002054826113909190611631565b91508061139c816115ec565b915050611257565b506001600160a01b0390921660009081526005602052604090209190915550565b634e487b7160e01b600052604160045260246000fd5b600082601f8301126113ec57600080fd5b8135602067ffffffffffffffff80831115611409576114096113c5565b8260051b604051601f19603f8301168101818110848211171561142e5761142e6113c5565b60405293845285810183019383810192508785111561144c57600080fd5b83870191505b8482101561146b57813583529183019190830190611452565b979650505050505050565b6000806040838503121561148957600080fd5b823567ffffffffffffffff808211156114a157600080fd5b6114ad868387016113db565b935060208501359150808211156114c357600080fd5b506114d0858286016113db565b9150509250929050565b6000602082840312156114ec57600080fd5b5035919050565b6000806040838503121561150657600080fd5b82359150602083013567ffffffffffffffff81111561152457600080fd5b6114d0858286016113db565b6001600160a01b03811681146108d857600080fd5b6000806040838503121561155857600080fd5b823561156381611530565b946020939093013593505050565b60006020828403121561158357600080fd5b813561158e81611530565b9392505050565b80151581146108d857600080fd5b6000602082840312156115b557600080fd5b813561158e81611595565b634e487b7160e01b600052603260045260246000fd5b634e487b7160e01b600052601160045260246000fd5b6000600182016115fe576115fe6115d6565b5060010190565b60208082526012908201527110dbdb9d1c9858dd081a5cc81c185d5cd95960721b604082015260600190565b80820180821115611644576116446115d6565b92915050565b60006020828403121561165c57600080fd5b815161158e81611595565b81810381811115611644576116446115d6565b8082028115828204841417611644576116446115d6565b6000826116ae57634e487b7160e01b600052601260045260246000fd5b500490565b6000602082840312156116c557600080fd5b815161158e8161153056fea2646970667358221220d5d4883caf1c2cd646f3fc20ce078dadf5e375902bc0678edfc1eb41949518ec64736f6c63430008140033",
  "linkReferences": {},
  "deployedLinkReferences": {}
}