{
  "_format": "hh-sol-artifact-1",
  "contractName": "Buyback",
  "sourceName": "contracts/BuyBack.sol",
  "abi": [
    {
      "inputs": [
        {
          "internalType": "address",
          "name": "_router",
          "type": "address"
        },
        {
          "internalType": "address",
          "name": "_imaliToken",
          "type": "address"
        },
        {
          "internalType": "address",
          "name": "_treasury",
          "type": "address"
        },
        {
          "internalType": "address",
          "name": "_burnAddress",
          "type": "address"
        }
      ],
      "stateMutability": "nonpayable",
      "type": "constructor"
    },
    {
      "anonymous": false,
      "inputs": [
        {
          "indexed": false,
          "internalType": "uint256",
          "name": "maticUsed",
          "type": "uint256"
        },
        {
          "indexed": false,
          "internalType": "uint256",
          "name": "imaliBought",
          "type": "uint256"
        },
        {
          "indexed": false,
          "internalType": "uint256",
          "name": "burned",
          "type": "uint256"
        }
      ],
      "name": "BuybackExecuted",
      "type": "event"
    },
    {
      "anonymous": false,
      "inputs": [
        {
          "indexed": false,
          "internalType": "address",
          "name": "treasury",
          "type": "address"
        },
        {
          "indexed": false,
          "internalType": "address",
          "name": "burnAddress",
          "type": "address"
        },
        {
          "indexed": false,
          "internalType": "uint256",
          "name": "treasuryShare",
          "type": "uint256"
        },
        {
          "indexed": false,
          "internalType": "uint256",
          "name": "slippage",
          "type": "uint256"
        }
      ],
      "name": "ConfigUpdated",
      "type": "event"
    },
    {
      "anonymous": false,
      "inputs": [
        {
          "indexed": true,
          "internalType": "address",
          "name": "previousOwner",
          "type": "address"
        },
        {
          "indexed": true,
          "internalType": "address",
          "name": "newOwner",
          "type": "address"
        }
      ],
      "name": "OwnershipTransferred",
      "type": "event"
    },
    {
      "inputs": [],
      "name": "WETH",
      "outputs": [
        {
          "internalType": "address",
          "name": "",
          "type": "address"
        }
      ],
      "stateMutability": "view",
      "type": "function"
    },
    {
      "inputs": [],
      "name": "burnAddress",
      "outputs": [
        {
          "internalType": "address",
          "name": "",
          "type": "address"
        }
      ],
      "stateMutability": "view",
      "type": "function"
    },
    {
      "inputs": [],
      "name": "emergencyWithdraw",
      "outputs": [],
      "stateMutability": "nonpayable",
      "type": "function"
    },
    {
      "inputs": [],
      "name": "executeBuyback",
      "outputs": [],
      "stateMutability": "nonpayable",
      "type": "function"
    },
    {
      "inputs": [],
      "name": "imaliToken",
      "outputs": [
        {
          "internalType": "address",
          "name": "",
          "type": "address"
        }
      ],
      "stateMutability": "view",
      "type": "function"
    },
    {
      "inputs": [],
      "name": "owner",
      "outputs": [
        {
          "internalType": "address",
          "name": "",
          "type": "address"
        }
      ],
      "stateMutability": "view",
      "type": "function"
    },
    {
      "inputs": [],
      "name": "renounceOwnership",
      "outputs": [],
      "stateMutability": "nonpayable",
      "type": "function"
    },
    {
      "inputs": [],
      "name": "router",
      "outputs": [
        {
          "internalType": "contract IUniswapV2Router02",
          "name": "",
          "type": "address"
        }
      ],
      "stateMutability": "view",
      "type": "function"
    },
    {
      "inputs": [],
      "name": "slippageTolerance",
      "outputs": [
        {
          "internalType": "uint256",
          "name": "",
          "type": "uint256"
        }
      ],
      "stateMutability": "view",
      "type": "function"
    },
    {
      "inputs": [
        {
          "internalType": "address",
          "name": "newOwner",
          "type": "address"
        }
      ],
      "name": "transferOwnership",
      "outputs": [],
      "stateMutability": "nonpayable",
      "type": "function"
    },
    {
      "inputs": [],
      "name": "treasury",
      "outputs": [
        {
          "internalType": "address",
          "name": "",
          "type": "address"
        }
      ],
      "stateMutability": "view",
      "type": "function"
    },
    {
      "inputs": [],
      "name": "treasuryShare",
      "outputs": [
        {
          "internalType": "uint256",
          "name": "",
          "type": "uint256"
        }
      ],
      "stateMutability": "view",
      "type": "function"
    },
    {
      "inputs": [
        {
          "internalType": "address",
          "name": "_treasury",
          "type": "address"
        },
        {
          "internalType": "address",
          "name": "_burnAddress",
          "type": "address"
        },
        {
          "internalType": "uint256",
          "name": "_treasuryShare",
          "type": "uint256"
        }
      ],
      "name": "updateBuybackConfig",
      "outputs": [],
      "stateMutability": "nonpayable",
      "type": "function"
    },
    {
      "stateMutability": "payable",
      "type": "receive"
    }
  ],
  "bytecode": "0x60e0604052603c60035560056004553480156200001b57600080fd5b5060405162000d8238038062000d828339810160408190526200003e91620001fa565b62000049336200018d565b6001600160a01b038416620000965760405162461bcd60e51b815260206004820152600e60248201526d24b73b30b634b2103937baba32b960911b60448201526064015b60405180910390fd5b6001600160a01b038316620000de5760405162461bcd60e51b815260206004820152600d60248201526c24b73b30b634b2103a37b5b2b760991b60448201526064016200008d565b6001600160a01b0384166080819052604080516315ab88c960e31b8152905163ad5c4648916004808201926020929091908290030181865afa15801562000129573d6000803e3d6000fd5b505050506040513d601f19601f820116820180604052508101906200014f919062000257565b6001600160a01b0390811660a05292831660c052600180549284166001600160a01b031993841617905560028054919093169116179055506200027c565b600080546001600160a01b038381166001600160a01b0319831681178455604051919092169283917f8be0079c531659141344cd1fd0a4f28419497f9722a3daafe3b4186f6b6457e09190a35050565b80516001600160a01b0381168114620001f557600080fd5b919050565b600080600080608085870312156200021157600080fd5b6200021c85620001dd565b93506200022c60208601620001dd565b92506200023c60408601620001dd565b91506200024c60608601620001dd565b905092959194509250565b6000602082840312156200026a57600080fd5b6200027582620001dd565b9392505050565b60805160a05160c051610ab3620002cf6000396000818161020e01528181610694015281816106f901526108240152600081816101af015261064001526000818161028201526107740152610ab36000f3fe6080604052600436106100c65760003560e01c8063ad5c46481161007f578063e311fd0a11610059578063e311fd0a146101fc578063f095e20714610230578063f2fde38b14610250578063f887ea401461027057600080fd5b8063ad5c46481461019d578063d03153aa146101d1578063db2e21bc146101e757600080fd5b806361d027b3146100d257806370d5ae051461010f578063715018a61461012f5780637796ff37146101465780638da5cb5b1461016a5780638e10e77a1461018857600080fd5b366100cd57005b600080fd5b3480156100de57600080fd5b506001546100f2906001600160a01b031681565b6040516001600160a01b0390911681526020015b60405180910390f35b34801561011b57600080fd5b506002546100f2906001600160a01b031681565b34801561013b57600080fd5b506101446102a4565b005b34801561015257600080fd5b5061015c60035481565b604051908152602001610106565b34801561017657600080fd5b506000546001600160a01b03166100f2565b34801561019457600080fd5b506101446102b8565b3480156101a957600080fd5b506100f27f000000000000000000000000000000000000000000000000000000000000000081565b3480156101dd57600080fd5b5061015c60045481565b3480156101f357600080fd5b506101446103eb565b34801561020857600080fd5b506100f27f000000000000000000000000000000000000000000000000000000000000000081565b34801561023c57600080fd5b5061014461024b36600461090b565b610430565b34801561025c57600080fd5b5061014461026b366004610947565b6104fd565b34801561027c57600080fd5b506100f27f000000000000000000000000000000000000000000000000000000000000000081565b6102ac610573565b6102b660006105cd565b565b6102c0610573565b47806103065760405162461bcd60e51b815260206004820152601060248201526f4e6f204d415449432062616c616e636560801b60448201526064015b60405180910390fd5b6000606460035483610318919061097f565b610322919061099c565b9050600061033082846109be565b905081156103dd576001546040516000916001600160a01b03169084908381818185875af1925050503d8060008114610385576040519150601f19603f3d011682016040523d82523d6000602084013e61038a565b606091505b50509050806103db5760405162461bcd60e51b815260206004820152601860248201527f5472656173757279207472616e73666572206661696c6564000000000000000060448201526064016102fd565b505b6103e68161061d565b505050565b6103f3610573565b600080546040516001600160a01b03909116914780156108fc02929091818181858888f1935050505015801561042d573d6000803e3d6000fd5b50565b610438610573565b60648111156104795760405162461bcd60e51b815260206004820152600d60248201526c496e76616c696420736861726560981b60448201526064016102fd565b600180546001600160a01b038581166001600160a01b0319928316811790935560028054918616919092168117909155600383905560045460408051938452602084019290925290820183905260608201527f4e1b3234b4317564d2645f45fdfd8530b1dbf4b3621010d9d3d9a9389a282f419060800160405180910390a1505050565b610505610573565b6001600160a01b03811661056a5760405162461bcd60e51b815260206004820152602660248201527f4f776e61626c653a206e6577206f776e657220697320746865207a65726f206160448201526564647265737360d01b60648201526084016102fd565b61042d816105cd565b6000546001600160a01b031633146102b65760405162461bcd60e51b815260206004820181905260248201527f4f776e61626c653a2063616c6c6572206973206e6f7420746865206f776e657260448201526064016102fd565b600080546001600160a01b038381166001600160a01b0319831681178455604051919092169283917f8be0079c531659141344cd1fd0a4f28419497f9722a3daafe3b4186f6b6457e09190a35050565b6040805160028082526060820183526000926020830190803683370190505090507f000000000000000000000000000000000000000000000000000000000000000081600081518110610672576106726109d1565b60200260200101906001600160a01b031690816001600160a01b0316815250507f0000000000000000000000000000000000000000000000000000000000000000816001815181106106c6576106c66109d1565b6001600160a01b0392831660209182029290920101526002546040516370a0823160e01b815290821660048201526000917f000000000000000000000000000000000000000000000000000000000000000016906370a0823190602401602060405180830381865afa158015610740573d6000803e3d6000fd5b505050506040513d601f19601f8201168201806040525081019061076491906109e7565b6002549091506001600160a01b037f000000000000000000000000000000000000000000000000000000000000000081169163b6f9de959186916000918791166107b04261012c610a00565b6040518663ffffffff1660e01b81526004016107cf9493929190610a13565b6000604051808303818588803b1580156107e857600080fd5b505af11580156107fc573d6000803e3d6000fd5b50506002546040516370a0823160e01b81526001600160a01b039182166004820152600094507f000000000000000000000000000000000000000000000000000000000000000090911692506370a082319150602401602060405180830381865afa15801561086f573d6000803e3d6000fd5b505050506040513d601f19601f8201168201806040525081019061089391906109e7565b90507ff7e3493d2eb6a455012bf7667cb0e1563155e97974bcf902b23dc50b0a76bb1f846108c184846109be565b6108cb85856109be565b6040805193845260208401929092529082015260600160405180910390a150505050565b80356001600160a01b038116811461090657600080fd5b919050565b60008060006060848603121561092057600080fd5b610929846108ef565b9250610937602085016108ef565b9150604084013590509250925092565b60006020828403121561095957600080fd5b610962826108ef565b9392505050565b634e487b7160e01b600052601160045260246000fd5b808202811582820484141761099657610996610969565b92915050565b6000826109b957634e487b7160e01b600052601260045260246000fd5b500490565b8181038181111561099657610996610969565b634e487b7160e01b600052603260045260246000fd5b6000602082840312156109f957600080fd5b5051919050565b8082018082111561099657610996610969565b600060808201868352602060808185015281875180845260a086019150828901935060005b81811015610a5d5784516001600160a01b031683529383019391830191600101610a38565b50506001600160a01b03969096166040850152505050606001529291505056fea264697066735822122053741f0a713554c6eed864779c68c3eee89b48bbd01b80654445be4f8c4495a664736f6c63430008140033",
  "linkReferences": {},
  "deployedLinkReferences": {}
}