{
  "_format": "hh-sol-artifact-1",
  "contractName": "LPLottery",
  "sourceName": "contracts/LPLottery.sol",
  "abi": [
    {
      "inputs": [
        {
          "internalType": "address",
          "name": "_lpToken",
          "type": "address"
        },
        {
          "internalType": "address",
          "name": "_vrfCoordinator",
          "type": "address"
        },
        {
          "internalType": "address",
          "name": "_linkToken",
          "type": "address"
        },
        {
          "internalType": "bytes32",
          "name": "_keyHash",
          "type": "bytes32"
        },
        {
          "internalType": "uint256",
          "name": "_fee",
          "type": "uint256"
        }
      ],
      "stateMutability": "nonpayable",
      "type": "constructor"
    },
    {
      "anonymous": false,
      "inputs": [
        {
          "indexed": false,
          "internalType": "address",
          "name": "recipient",
          "type": "address"
        },
        {
          "indexed": false,
          "internalType": "uint256",
          "name": "amount",
          "type": "uint256"
        }
      ],
      "name": "EmergencyWithdraw",
      "type": "event"
    },
    {
      "anonymous": false,
      "inputs": [
        {
          "indexed": false,
          "internalType": "address",
          "name": "participant",
          "type": "address"
        },
        {
          "indexed": false,
          "internalType": "uint256",
          "name": "amount",
          "type": "uint256"
        }
      ],
      "name": "LotteryEntered",
      "type": "event"
    },
    {
      "anonymous": false,
      "inputs": [
        {
          "indexed": true,
          "internalType": "address",
          "name": "previousOwner",
          "type": "address"
        },
        {
          "indexed": true,
          "internalType": "address",
          "name": "newOwner",
          "type": "address"
        }
      ],
      "name": "OwnershipTransferred",
      "type": "event"
    },
    {
      "anonymous": false,
      "inputs": [
        {
          "indexed": false,
          "internalType": "address",
          "name": "winner",
          "type": "address"
        },
        {
          "indexed": false,
          "internalType": "uint256",
          "name": "prize",
          "type": "uint256"
        }
      ],
      "name": "WinnerSelected",
      "type": "event"
    },
    {
      "inputs": [],
      "name": "drawWinner",
      "outputs": [],
      "stateMutability": "nonpayable",
      "type": "function"
    },
    {
      "inputs": [],
      "name": "emergencyWithdraw",
      "outputs": [],
      "stateMutability": "nonpayable",
      "type": "function"
    },
    {
      "inputs": [
        {
          "internalType": "uint256",
          "name": "lpAmount",
          "type": "uint256"
        }
      ],
      "name": "enterLottery",
      "outputs": [],
      "stateMutability": "nonpayable",
      "type": "function"
    },
    {
      "inputs": [],
      "name": "lastLotteryTime",
      "outputs": [
        {
          "internalType": "uint256",
          "name": "",
          "type": "uint256"
        }
      ],
      "stateMutability": "view",
      "type": "function"
    },
    {
      "inputs": [],
      "name": "lotteryActive",
      "outputs": [
        {
          "internalType": "bool",
          "name": "",
          "type": "bool"
        }
      ],
      "stateMutability": "view",
      "type": "function"
    },
    {
      "inputs": [],
      "name": "lotteryDuration",
      "outputs": [
        {
          "internalType": "uint256",
          "name": "",
          "type": "uint256"
        }
      ],
      "stateMutability": "view",
      "type": "function"
    },
    {
      "inputs": [],
      "name": "lpToken",
      "outputs": [
        {
          "internalType": "contract IERC20",
          "name": "",
          "type": "address"
        }
      ],
      "stateMutability": "view",
      "type": "function"
    },
    {
      "inputs": [],
      "name": "owner",
      "outputs": [
        {
          "internalType": "address",
          "name": "",
          "type": "address"
        }
      ],
      "stateMutability": "view",
      "type": "function"
    },
    {
      "inputs": [
        {
          "internalType": "uint256",
          "name": "",
          "type": "uint256"
        }
      ],
      "name": "participants",
      "outputs": [
        {
          "internalType": "address",
          "name": "",
          "type": "address"
        }
      ],
      "stateMutability": "view",
      "type": "function"
    },
    {
      "inputs": [],
      "name": "prizePool",
      "outputs": [
        {
          "internalType": "uint256",
          "name": "",
          "type": "uint256"
        }
      ],
      "stateMutability": "view",
      "type": "function"
    },
    {
      "inputs": [],
      "name": "randomResult",
      "outputs": [
        {
          "internalType": "uint256",
          "name": "",
          "type": "uint256"
        }
      ],
      "stateMutability": "view",
      "type": "function"
    },
    {
      "inputs": [
        {
          "internalType": "bytes32",
          "name": "requestId",
          "type": "bytes32"
        },
        {
          "internalType": "uint256",
          "name": "randomness",
          "type": "uint256"
        }
      ],
      "name": "rawFulfillRandomness",
      "outputs": [],
      "stateMutability": "nonpayable",
      "type": "function"
    },
    {
      "inputs": [],
      "name": "renounceOwnership",
      "outputs": [],
      "stateMutability": "nonpayable",
      "type": "function"
    },
    {
      "inputs": [
        {
          "internalType": "bool",
          "name": "active",
          "type": "bool"
        }
      ],
      "name": "setLotteryActive",
      "outputs": [],
      "stateMutability": "nonpayable",
      "type": "function"
    },
    {
      "inputs": [
        {
          "internalType": "address",
          "name": "",
          "type": "address"
        }
      ],
      "name": "tickets",
      "outputs": [
        {
          "internalType": "uint256",
          "name": "",
          "type": "uint256"
        }
      ],
      "stateMutability": "view",
      "type": "function"
    },
    {
      "inputs": [
        {
          "internalType": "address",
          "name": "newOwner",
          "type": "address"
        }
      ],
      "name": "transferOwnership",
      "outputs": [],
      "stateMutability": "nonpayable",
      "type": "function"
    },
    {
      "inputs": [],
      "name": "withdrawLink",
      "outputs": [],
      "stateMutability": "nonpayable",
      "type": "function"
    }
  ],
  "bytecode": "0x60e060405262093a806002553480156200001857600080fd5b50604051620013e5380380620013e58339810160408190526200003b916200013f565b6001600160a01b0384811660a05283166080526200005933620000d0565b6001600160a01b038516620000a75760405162461bcd60e51b815260206004820152601060248201526f24b73b30b634b2102628103a37b5b2b760811b604482015260640160405180910390fd5b6001600160a01b0390941660c05260085550506009556007805460ff191660011790556200019c565b600180546001600160a01b038381166001600160a01b0319831681179093556040519116919082907f8be0079c531659141344cd1fd0a4f28419497f9722a3daafe3b4186f6b6457e090600090a35050565b80516001600160a01b03811681146200013a57600080fd5b919050565b600080600080600060a086880312156200015857600080fd5b620001638662000122565b9450620001736020870162000122565b9350620001836040870162000122565b6060870151608090970151959894975095949392505050565b60805160a05160c0516111e162000204600039600081816101960152818161034d015281816108d0015281816109470152610d570152600081816106750152610e860152600081816104f1015281816105450152818161079c0152610e5701526111e16000f3fe608060405234801561001057600080fd5b506004361061010b5760003560e01c8063715018a6116100a257806394985ddd1161007157806394985ddd14610202578063b2185bb114610215578063cef5ab651461021d578063db2e21bc1461023a578063f2fde38b1461024257600080fd5b8063715018a6146101d8578063719ce73e146101e05780638da5cb5b146101e95780638dc654a2146101fa57600080fd5b806342619f66116100de57806342619f661461017f578063442208b2146101885780635fcbd285146101915780636dcbf2a3146101b857600080fd5b80632d97902f146101105780633210ded71461012c57806335c1d349146101415780633fd430981461016c575b600080fd5b61011960025481565b6040519081526020015b60405180910390f35b61013f61013a36600461100e565b610255565b005b61015461014f366004611032565b610270565b6040516001600160a01b039091168152602001610123565b61013f61017a366004611032565b61029a565b610119600a5481565b61011960035481565b6101547f000000000000000000000000000000000000000000000000000000000000000081565b6101196101c636600461104b565b60056020526000908152604090205481565b61013f6104d3565b61011960045481565b6001546001600160a01b0316610154565b61013f6104e7565b61013f610210366004611074565b61066a565b61013f6106f0565b60075461022a9060ff1681565b6040519015158152602001610123565b61013f610866565b61013f61025036600461104b565b610a86565b61025d610afc565b6007805460ff1916911515919091179055565b6006818154811061028057600080fd5b6000918252602090912001546001600160a01b0316905081565b60075460ff166102e65760405162461bcd60e51b81526020600482015260126024820152714c6f7474657279206e6f742061637469766560701b60448201526064015b60405180910390fd5b6000811161032b5760405162461bcd60e51b81526020600482015260126024820152710416d6f756e74206d757374206265203e20360741b60448201526064016102dd565b6040516323b872dd60e01b8152336004820152306024820152604481018290527f00000000000000000000000000000000000000000000000000000000000000006001600160a01b0316906323b872dd906064016020604051808303816000875af115801561039e573d6000803e3d6000fd5b505050506040513d601f19601f820116820180604052508101906103c29190611096565b6104005760405162461bcd60e51b815260206004820152600f60248201526e151c985b9cd9995c8819985a5b1959608a1b60448201526064016102dd565b33600090815260056020526040812054900361045957600680546001810182556000919091527ff652222313e28459528d920b65115c16c04f3efc82aaedc97be59f3f377c0d3f0180546001600160a01b031916331790555b33600090815260056020526040812080548392906104789084906110c9565b92505081905550806004600082825461049191906110c9565b909155505060408051338152602081018390527fc28711c8dcc0cb3d25732e13809d1d8c2640669a0a3fb4f7729810a9caaffdff91015b60405180910390a150565b6104db610afc565b6104e56000610b56565b565b6104ef610afc565b7f00000000000000000000000000000000000000000000000000000000000000006001600160a01b031663a9059cbb6105306001546001600160a01b031690565b6040516370a0823160e01b81523060048201527f00000000000000000000000000000000000000000000000000000000000000006001600160a01b0316906370a0823190602401602060405180830381865afa158015610594573d6000803e3d6000fd5b505050506040513d601f19601f820116820180604052508101906105b891906110dc565b6040516001600160e01b031960e085901b1681526001600160a01b03909216600483015260248201526044016020604051808303816000875af1158015610603573d6000803e3d6000fd5b505050506040513d601f19601f820116820180604052508101906106279190611096565b6104e55760405162461bcd60e51b815260206004820152601460248201527313125392c81d1c985b9cd9995c8819985a5b195960621b60448201526064016102dd565b336001600160a01b037f000000000000000000000000000000000000000000000000000000000000000016146106e25760405162461bcd60e51b815260206004820152601f60248201527f4f6e6c7920565246436f6f7264696e61746f722063616e2066756c66696c6c0060448201526064016102dd565b6106ec8282610ba8565b5050565b6106f8610afc565b60025460035461070891906110c9565b42116107425760405162461bcd60e51b8152602060048201526009602482015268546f6f206561726c7960b81b60448201526064016102dd565b6000600454116107845760405162461bcd60e51b815260206004820152600d60248201526c139bc81c1c9a5e99481c1bdbdb609a1b60448201526064016102dd565b6009546040516370a0823160e01b81523060048201527f00000000000000000000000000000000000000000000000000000000000000006001600160a01b0316906370a0823190602401602060405180830381865afa1580156107eb573d6000803e3d6000fd5b505050506040513d601f19601f8201168201806040525081019061080f91906110dc565b101561084f5760405162461bcd60e51b815260206004820152600f60248201526e4e6f7420656e6f756768204c494e4b60881b60448201526064016102dd565b426003556008546009546108639190610e53565b50565b61086e610afc565b60075460ff16156108b85760405162461bcd60e51b81526020600482015260146024820152734c6f7474657279207374696c6c2061637469766560601b60448201526064016102dd565b6040516370a0823160e01b81523060048201526000907f00000000000000000000000000000000000000000000000000000000000000006001600160a01b0316906370a0823190602401602060405180830381865afa15801561091f573d6000803e3d6000fd5b505050506040513d601f19601f8201168201806040525081019061094391906110dc565b90507f00000000000000000000000000000000000000000000000000000000000000006001600160a01b031663a9059cbb6109866001546001600160a01b031690565b6040516001600160e01b031960e084901b1681526001600160a01b039091166004820152602481018490526044016020604051808303816000875af11580156109d3573d6000803e3d6000fd5b505050506040513d601f19601f820116820180604052508101906109f79190611096565b610a355760405162461bcd60e51b815260206004820152600f60248201526e15da5d1a191c985dc819985a5b1959608a1b60448201526064016102dd565b7f5fafa99d0643513820be26656b45130b01e1c03062e1266bf36f88cbd3bd9695610a686001546001600160a01b031690565b604080516001600160a01b03909216825260208201849052016104c8565b610a8e610afc565b6001600160a01b038116610af35760405162461bcd60e51b815260206004820152602660248201527f4f776e61626c653a206e6577206f776e657220697320746865207a65726f206160448201526564647265737360d01b60648201526084016102dd565b61086381610b56565b6001546001600160a01b031633146104e55760405162461bcd60e51b815260206004820181905260248201527f4f776e61626c653a2063616c6c6572206973206e6f7420746865206f776e657260448201526064016102dd565b600180546001600160a01b038381166001600160a01b0319831681179093556040519116919082907f8be0079c531659141344cd1fd0a4f28419497f9722a3daafe3b4186f6b6457e090600090a35050565b6000805b600654811015610c10576005600060068381548110610bcd57610bcd6110f5565b60009182526020808320909101546001600160a01b03168352820192909252604001902054610bfc90836110c9565b915080610c088161110b565b915050610bac565b506000610c1d8284611124565b905060008060005b600654811015610cbf576005600060068381548110610c4657610c466110f5565b60009182526020808320909101546001600160a01b03168352820192909252604001902054610c7590846110c9565b9250838310610cad5760068181548110610c9157610c916110f5565b6000918252602090912001546001600160a01b03169150610cbf565b80610cb78161110b565b915050610c25565b5060048054600091829055905b600654811015610d24576005600060068381548110610ced57610ced6110f5565b60009182526020808320909101546001600160a01b0316835282019290925260400181205580610d1c8161110b565b915050610ccc565b50610d3160066000610fce565b60405163a9059cbb60e01b81526001600160a01b038381166004830152602482018390527f0000000000000000000000000000000000000000000000000000000000000000169063a9059cbb906044016020604051808303816000875af1158015610da0573d6000803e3d6000fd5b505050506040513d601f19601f82011682018060405250810190610dc49190611096565b610e085760405162461bcd60e51b8152602060048201526015602482015274141c9a5e99481d1c985b9cd9995c8819985a5b1959605a1b60448201526064016102dd565b604080516001600160a01b0384168152602081018390527f75060f9e79552df167b73353fee6237a75bb5ba8ea022f77224e32f152138bcb910160405180910390a150505050505050565b60007f00000000000000000000000000000000000000000000000000000000000000006001600160a01b0316634000aea07f000000000000000000000000000000000000000000000000000000000000000084866000604051602001610ec3929190918252602082015260400190565b6040516020818303038152906040526040518463ffffffff1660e01b8152600401610ef093929190611146565b6020604051808303816000875af1158015610f0f573d6000803e3d6000fd5b505050506040513d601f19601f82011682018060405250810190610f339190611096565b5060008381526020818152604080832054815180840188905280830185905230606082015260808082018390528351808303909101815260a090910190925281519183019190912086845292909152610f8d9060016110c9565b600085815260208181526040918290209290925580518083018790528082019390935280518084038201815260609093019052815191012090505b92915050565b508054600082559060005260206000209081019061086391905b80821115610ffc5760008155600101610fe8565b5090565b801515811461086357600080fd5b60006020828403121561102057600080fd5b813561102b81611000565b9392505050565b60006020828403121561104457600080fd5b5035919050565b60006020828403121561105d57600080fd5b81356001600160a01b038116811461102b57600080fd5b6000806040838503121561108757600080fd5b50508035926020909101359150565b6000602082840312156110a857600080fd5b815161102b81611000565b634e487b7160e01b600052601160045260246000fd5b80820180821115610fc857610fc86110b3565b6000602082840312156110ee57600080fd5b5051919050565b634e487b7160e01b600052603260045260246000fd5b60006001820161111d5761111d6110b3565b5060010190565b60008261114157634e487b7160e01b600052601260045260246000fd5b500690565b60018060a01b038416815260006020848184015260606040840152835180606085015260005b818110156111885785810183015185820160800152820161116c565b506000608082860101526080601f19601f8301168501019250505094935050505056fea26469706673582212207076df583ad4b3e18f0bd3ab40b83d92ffad04008cb05630f9c80000242b9d0e64736f6c63430008140033",
  "linkReferences": {},
  "deployedLinkReferences": {}
}