{
  "_format": "hh-sol-artifact-1",
  "contractName": "AirdropDistributor",
  "sourceName": "contracts/AirdropDistributor.sol",
  "abi": [
    {
      "inputs": [
        {
          "internalType": "contract IERC20",
          "name": "_token",
          "type": "address"
        }
      ],
      "stateMutability": "nonpayable",
      "type": "constructor"
    },
    {
      "anonymous": false,
      "inputs": [
        {
          "indexed": true,
          "internalType": "address",
          "name": "recipient",
          "type": "address"
        },
        {
          "indexed": false,
          "internalType": "uint256",
          "name": "amount",
          "type": "uint256"
        }
      ],
      "name": "Airdropped",
      "type": "event"
    },
    {
      "anonymous": false,
      "inputs": [
        {
          "indexed": false,
          "internalType": "uint256",
          "name": "totalRecipients",
          "type": "uint256"
        },
        {
          "indexed": false,
          "internalType": "uint256",
          "name": "totalAmount",
          "type": "uint256"
        }
      ],
      "name": "BulkAirdrop",
      "type": "event"
    },
    {
      "anonymous": false,
      "inputs": [
        {
          "indexed": true,
          "internalType": "address",
          "name": "previousOwner",
          "type": "address"
        },
        {
          "indexed": true,
          "internalType": "address",
          "name": "newOwner",
          "type": "address"
        }
      ],
      "name": "OwnershipTransferred",
      "type": "event"
    },
    {
      "anonymous": false,
      "inputs": [
        {
          "indexed": false,
          "internalType": "address",
          "name": "account",
          "type": "address"
        }
      ],
      "name": "Paused",
      "type": "event"
    },
    {
      "anonymous": false,
      "inputs": [
        {
          "indexed": false,
          "internalType": "address",
          "name": "token",
          "type": "address"
        },
        {
          "indexed": false,
          "internalType": "uint256",
          "name": "amount",
          "type": "uint256"
        }
      ],
      "name": "TokensRecovered",
      "type": "event"
    },
    {
      "anonymous": false,
      "inputs": [
        {
          "indexed": false,
          "internalType": "address",
          "name": "account",
          "type": "address"
        }
      ],
      "name": "Unpaused",
      "type": "event"
    },
    {
      "inputs": [],
      "name": "MAX_BATCH_SIZE",
      "outputs": [
        {
          "internalType": "uint256",
          "name": "",
          "type": "uint256"
        }
      ],
      "stateMutability": "view",
      "type": "function"
    },
    {
      "inputs": [
        {
          "internalType": "address[]",
          "name": "recipients",
          "type": "address[]"
        },
        {
          "internalType": "uint256[]",
          "name": "amounts",
          "type": "uint256[]"
        }
      ],
      "name": "airdrop",
      "outputs": [],
      "stateMutability": "nonpayable",
      "type": "function"
    },
    {
      "inputs": [],
      "name": "owner",
      "outputs": [
        {
          "internalType": "address",
          "name": "",
          "type": "address"
        }
      ],
      "stateMutability": "view",
      "type": "function"
    },
    {
      "inputs": [],
      "name": "pause",
      "outputs": [],
      "stateMutability": "nonpayable",
      "type": "function"
    },
    {
      "inputs": [],
      "name": "paused",
      "outputs": [
        {
          "internalType": "bool",
          "name": "",
          "type": "bool"
        }
      ],
      "stateMutability": "view",
      "type": "function"
    },
    {
      "inputs": [
        {
          "internalType": "address",
          "name": "_token",
          "type": "address"
        },
        {
          "internalType": "uint256",
          "name": "amount",
          "type": "uint256"
        }
      ],
      "name": "recoverTokens",
      "outputs": [],
      "stateMutability": "nonpayable",
      "type": "function"
    },
    {
      "inputs": [],
      "name": "renounceOwnership",
      "outputs": [],
      "stateMutability": "nonpayable",
      "type": "function"
    },
    {
      "inputs": [],
      "name": "token",
      "outputs": [
        {
          "internalType": "contract IERC20",
          "name": "",
          "type": "address"
        }
      ],
      "stateMutability": "view",
      "type": "function"
    },
    {
      "inputs": [
        {
          "internalType": "address",
          "name": "newOwner",
          "type": "address"
        }
      ],
      "name": "transferOwnership",
      "outputs": [],
      "stateMutability": "nonpayable",
      "type": "function"
    },
    {
      "inputs": [],
      "name": "unpause",
      "outputs": [],
      "stateMutability": "nonpayable",
      "type": "function"
    }
  ],
  "bytecode": "0x60a060405234801561001057600080fd5b50604051610e02380380610e0283398101604081905261002f91610104565b610038336100b4565b6000805460ff60a01b19169055600180556001600160a01b0381166100a35760405162461bcd60e51b815260206004820152601560248201527f496e76616c696420746f6b656e20616464726573730000000000000000000000604482015260640160405180910390fd5b6001600160a01b0316608052610134565b600080546001600160a01b038381166001600160a01b0319831681178455604051919092169283917f8be0079c531659141344cd1fd0a4f28419497f9722a3daafe3b4186f6b6457e09190a35050565b60006020828403121561011657600080fd5b81516001600160a01b038116811461012d57600080fd5b9392505050565b608051610c9e61016460003960008181610158015281816101840152818161051e01526105e30152610c9e6000f3fe608060405234801561001057600080fd5b506004361061009e5760003560e01c80638456cb59116100665780638456cb59146100fd5780638da5cb5b14610105578063cfdbf2541461012a578063f2fde38b14610140578063fc0c546a1461015357600080fd5b8063069c9fae146100a35780633f4ba83a146100b85780635c975abb146100c057806367243482146100e2578063715018a6146100f5575b600080fd5b6100b66100b1366004610acb565b61017a565b005b6100b6610305565b600054600160a01b900460ff1660405190151581526020015b60405180910390f35b6100b66100f0366004610b41565b610317565b6100b66107dc565b6100b66107ee565b6000546001600160a01b03165b6040516001600160a01b0390911681526020016100d9565b61013260c881565b6040519081526020016100d9565b6100b661014e366004610bad565b6107fe565b6101127f000000000000000000000000000000000000000000000000000000000000000081565b610182610877565b7f00000000000000000000000000000000000000000000000000000000000000006001600160a01b0316826001600160a01b03161415806101cc5750600054600160a01b900460ff165b61022c5760405162461bcd60e51b815260206004820152602660248201527f43616e6e6f74207265636f766572206d61696e20746f6b656e207768696c652060448201526561637469766560d01b60648201526084015b60405180910390fd5b816001600160a01b031663a9059cbb61024d6000546001600160a01b031690565b6040516001600160e01b031960e084901b1681526001600160a01b039091166004820152602481018490526044016020604051808303816000875af115801561029a573d6000803e3d6000fd5b505050506040513d601f19601f820116820180604052508101906102be9190610bcf565b50604080516001600160a01b0384168152602081018390527f46d2e6e71fc567877b817ff3d940571f989d4ee4d40f2b70806d36e738feef6f910160405180910390a15050565b61030d610877565b6103156108d1565b565b61031f610877565b610327610926565b61032f610973565b8261036c5760405162461bcd60e51b815260206004820152600d60248201526c4e6f20726563697069656e747360981b6044820152606401610223565b60c88311156103af5760405162461bcd60e51b815260206004820152600f60248201526e426174636820746f6f206c6172676560881b6044820152606401610223565b8281146103f65760405162461bcd60e51b8152602060048201526015602482015274082e4e4c2f240d8cadccee8d040dad2e6dac2e8c6d605b1b6044820152606401610223565b6000805b8481101561050657600086868381811061041657610416610bf1565b905060200201602081019061042b9190610bad565b6001600160a01b0316036104755760405162461bcd60e51b8152602060048201526011602482015270125b9d985b1a59081c9958da5c1a595b9d607a1b6044820152606401610223565b600084848381811061048957610489610bf1565b90506020020135116104ce5760405162461bcd60e51b815260206004820152600e60248201526d125b9d985b1a5908185b5bdd5b9d60921b6044820152606401610223565b8383828181106104e0576104e0610bf1565b90506020020135826104f29190610c1d565b9150806104fe81610c36565b9150506103fa565b506040516370a0823160e01b815230600482015281907f00000000000000000000000000000000000000000000000000000000000000006001600160a01b0316906370a0823190602401602060405180830381865afa15801561056d573d6000803e3d6000fd5b505050506040513d601f19601f820116820180604052508101906105919190610c4f565b10156105d65760405162461bcd60e51b8152602060048201526014602482015273496e73756666696369656e742062616c616e636560601b6044820152606401610223565b60005b84811015610792577f00000000000000000000000000000000000000000000000000000000000000006001600160a01b031663a9059cbb87878481811061062257610622610bf1565b90506020020160208101906106379190610bad565b86868581811061064957610649610bf1565b6040516001600160e01b031960e087901b1681526001600160a01b03909416600485015260200291909101356024830152506044016020604051808303816000875af115801561069d573d6000803e3d6000fd5b505050506040513d601f19601f820116820180604052508101906106c19190610bcf565b6106ff5760405162461bcd60e51b815260206004820152600f60248201526e151c985b9cd9995c8819985a5b1959608a1b6044820152606401610223565b85858281811061071157610711610bf1565b90506020020160208101906107269190610bad565b6001600160a01b03167f7bd6d4be1decdc27a9ed9c7ccdf5bb7cc38e31b3647b958c6b37162a2296c0fa85858481811061076257610762610bf1565b9050602002013560405161077891815260200190565b60405180910390a28061078a81610c36565b9150506105d9565b5060408051858152602081018390527f0fb0d3deb3749b5702292a69a2c9d5edb3002f27d326a018b24149ad67e75235910160405180910390a1506107d660018055565b50505050565b6107e4610877565b61031560006109cc565b6107f6610877565b610315610a1c565b610806610877565b6001600160a01b03811661086b5760405162461bcd60e51b815260206004820152602660248201527f4f776e61626c653a206e6577206f776e657220697320746865207a65726f206160448201526564647265737360d01b6064820152608401610223565b610874816109cc565b50565b6000546001600160a01b031633146103155760405162461bcd60e51b815260206004820181905260248201527f4f776e61626c653a2063616c6c6572206973206e6f7420746865206f776e65726044820152606401610223565b6108d9610a5f565b6000805460ff60a01b191690557f5db9ee0a495bf2e6ff9c91a7834c1ba4fdd244a5e8aa4e537bd38aeae4b073aa335b6040516001600160a01b03909116815260200160405180910390a1565b600054600160a01b900460ff16156103155760405162461bcd60e51b815260206004820152601060248201526f14185d5cd8589b194e881c185d5cd95960821b6044820152606401610223565b6002600154036109c55760405162461bcd60e51b815260206004820152601f60248201527f5265656e7472616e637947756172643a207265656e7472616e742063616c6c006044820152606401610223565b6002600155565b600080546001600160a01b038381166001600160a01b0319831681178455604051919092169283917f8be0079c531659141344cd1fd0a4f28419497f9722a3daafe3b4186f6b6457e09190a35050565b610a24610926565b6000805460ff60a01b1916600160a01b1790557f62e78cea01bee320cd4e420270b5ea74000d11b0c9f74754ebdbfc544b05a2586109093390565b600054600160a01b900460ff166103155760405162461bcd60e51b815260206004820152601460248201527314185d5cd8589b194e881b9bdd081c185d5cd95960621b6044820152606401610223565b80356001600160a01b0381168114610ac657600080fd5b919050565b60008060408385031215610ade57600080fd5b610ae783610aaf565b946020939093013593505050565b60008083601f840112610b0757600080fd5b50813567ffffffffffffffff811115610b1f57600080fd5b6020830191508360208260051b8501011115610b3a57600080fd5b9250929050565b60008060008060408587031215610b5757600080fd5b843567ffffffffffffffff80821115610b6f57600080fd5b610b7b88838901610af5565b90965094506020870135915080821115610b9457600080fd5b50610ba187828801610af5565b95989497509550505050565b600060208284031215610bbf57600080fd5b610bc882610aaf565b9392505050565b600060208284031215610be157600080fd5b81518015158114610bc857600080fd5b634e487b7160e01b600052603260045260246000fd5b634e487b7160e01b600052601160045260246000fd5b80820180821115610c3057610c30610c07565b92915050565b600060018201610c4857610c48610c07565b5060010190565b600060208284031215610c6157600080fd5b505191905056fea26469706673582212204d685f01cae3d38ec3eed73a48f95742cc3d28e58097c6176f35c78ea4dc058364736f6c63430008140033",
  "linkReferences": {},
  "deployedLinkReferences": {}
}