{
  "_format": "hh-sol-artifact-1",
  "contractName": "IMALIToken",
  "sourceName": "contracts/IMALIToken.sol",
  "abi": [
    {
      "inputs": [
        {
          "internalType": "address",
          "name": "initialOwner",
          "type": "address"
        },
        {
          "internalType": "address",
          "name": "_marketingWallet",
          "type": "address"
        }
      ],
      "stateMutability": "nonpayable",
      "type": "constructor"
    },
    {
      "anonymous": false,
      "inputs": [
        {
          "indexed": true,
          "internalType": "address",
          "name": "owner",
          "type": "address"
        },
        {
          "indexed": true,
          "internalType": "address",
          "name": "spender",
          "type": "address"
        },
        {
          "indexed": false,
          "internalType": "uint256",
          "name": "value",
          "type": "uint256"
        }
      ],
      "name": "Approval",
      "type": "event"
    },
    {
      "anonymous": false,
      "inputs": [
        {
          "indexed": true,
          "internalType": "address",
          "name": "previousOwner",
          "type": "address"
        },
        {
          "indexed": true,
          "internalType": "address",
          "name": "newOwner",
          "type": "address"
        }
      ],
      "name": "OwnershipTransferred",
      "type": "event"
    },
    {
      "anonymous": false,
      "inputs": [
        {
          "indexed": true,
          "internalType": "address",
          "name": "from",
          "type": "address"
        },
        {
          "indexed": true,
          "internalType": "address",
          "name": "to",
          "type": "address"
        },
        {
          "indexed": false,
          "internalType": "uint256",
          "name": "value",
          "type": "uint256"
        }
      ],
      "name": "Transfer",
      "type": "event"
    },
    {
      "inputs": [],
      "name": "RATE",
      "outputs": [
        {
          "internalType": "uint256",
          "name": "",
          "type": "uint256"
        }
      ],
      "stateMutability": "view",
      "type": "function"
    },
    {
      "inputs": [
        {
          "internalType": "address[]",
          "name": "recipients",
          "type": "address[]"
        },
        {
          "internalType": "uint256",
          "name": "amount",
          "type": "uint256"
        }
      ],
      "name": "airdrop",
      "outputs": [],
      "stateMutability": "nonpayable",
      "type": "function"
    },
    {
      "inputs": [
        {
          "internalType": "address",
          "name": "owner",
          "type": "address"
        },
        {
          "internalType": "address",
          "name": "spender",
          "type": "address"
        }
      ],
      "name": "allowance",
      "outputs": [
        {
          "internalType": "uint256",
          "name": "",
          "type": "uint256"
        }
      ],
      "stateMutability": "view",
      "type": "function"
    },
    {
      "inputs": [
        {
          "internalType": "address",
          "name": "spender",
          "type": "address"
        },
        {
          "internalType": "uint256",
          "name": "amount",
          "type": "uint256"
        }
      ],
      "name": "approve",
      "outputs": [
        {
          "internalType": "bool",
          "name": "",
          "type": "bool"
        }
      ],
      "stateMutability": "nonpayable",
      "type": "function"
    },
    {
      "inputs": [
        {
          "internalType": "address",
          "name": "account",
          "type": "address"
        }
      ],
      "name": "balanceOf",
      "outputs": [
        {
          "internalType": "uint256",
          "name": "",
          "type": "uint256"
        }
      ],
      "stateMutability": "view",
      "type": "function"
    },
    {
      "inputs": [],
      "name": "buyTokens",
      "outputs": [],
      "stateMutability": "payable",
      "type": "function"
    },
    {
      "inputs": [],
      "name": "decimals",
      "outputs": [
        {
          "internalType": "uint8",
          "name": "",
          "type": "uint8"
        }
      ],
      "stateMutability": "view",
      "type": "function"
    },
    {
      "inputs": [
        {
          "internalType": "address",
          "name": "spender",
          "type": "address"
        },
        {
          "internalType": "uint256",
          "name": "subtractedValue",
          "type": "uint256"
        }
      ],
      "name": "decreaseAllowance",
      "outputs": [
        {
          "internalType": "bool",
          "name": "",
          "type": "bool"
        }
      ],
      "stateMutability": "nonpayable",
      "type": "function"
    },
    {
      "inputs": [
        {
          "internalType": "address",
          "name": "spender",
          "type": "address"
        },
        {
          "internalType": "uint256",
          "name": "addedValue",
          "type": "uint256"
        }
      ],
      "name": "increaseAllowance",
      "outputs": [
        {
          "internalType": "bool",
          "name": "",
          "type": "bool"
        }
      ],
      "stateMutability": "nonpayable",
      "type": "function"
    },
    {
      "inputs": [],
      "name": "marketingWallet",
      "outputs": [
        {
          "internalType": "address",
          "name": "",
          "type": "address"
        }
      ],
      "stateMutability": "view",
      "type": "function"
    },
    {
      "inputs": [
        {
          "internalType": "address",
          "name": "to",
          "type": "address"
        },
        {
          "internalType": "uint256",
          "name": "amount",
          "type": "uint256"
        }
      ],
      "name": "mint",
      "outputs": [],
      "stateMutability": "nonpayable",
      "type": "function"
    },
    {
      "inputs": [],
      "name": "name",
      "outputs": [
        {
          "internalType": "string",
          "name": "",
          "type": "string"
        }
      ],
      "stateMutability": "view",
      "type": "function"
    },
    {
      "inputs": [],
      "name": "owner",
      "outputs": [
        {
          "internalType": "address",
          "name": "",
          "type": "address"
        }
      ],
      "stateMutability": "view",
      "type": "function"
    },
    {
      "inputs": [],
      "name": "renounceOwnership",
      "outputs": [],
      "stateMutability": "nonpayable",
      "type": "function"
    },
    {
      "inputs": [],
      "name": "symbol",
      "outputs": [
        {
          "internalType": "string",
          "name": "",
          "type": "string"
        }
      ],
      "stateMutability": "view",
      "type": "function"
    },
    {
      "inputs": [],
      "name": "totalSupply",
      "outputs": [
        {
          "internalType": "uint256",
          "name": "",
          "type": "uint256"
        }
      ],
      "stateMutability": "view",
      "type": "function"
    },
    {
      "inputs": [
        {
          "internalType": "address",
          "name": "to",
          "type": "address"
        },
        {
          "internalType": "uint256",
          "name": "amount",
          "type": "uint256"
        }
      ],
      "name": "transfer",
      "outputs": [
        {
          "internalType": "bool",
          "name": "",
          "type": "bool"
        }
      ],
      "stateMutability": "nonpayable",
      "type": "function"
    },
    {
      "inputs": [
        {
          "internalType": "address",
          "name": "from",
          "type": "address"
        },
        {
          "internalType": "address",
          "name": "to",
          "type": "address"
        },
        {
          "internalType": "uint256",
          "name": "amount",
          "type": "uint256"
        }
      ],
      "name": "transferFrom",
      "outputs": [
        {
          "internalType": "bool",
          "name": "",
          "type": "bool"
        }
      ],
      "stateMutability": "nonpayable",
      "type": "function"
    },
    {
      "inputs": [
        {
          "internalType": "address",
          "name": "newOwner",
          "type": "address"
        }
      ],
      "name": "transferOwnership",
      "outputs": [],
      "stateMutability": "nonpayable",
      "type": "function"
    },
    {
      "inputs": [],
      "name": "withdraw",
      "outputs": [],
      "stateMutability": "nonpayable",
      "type": "function"
    }
  ],
  "bytecode": "0x60806040523480156200001157600080fd5b50604051620017d6380380620017d68339810160408190526200003491620003ee565b6040518060400160405280600a81526020016924a6a0a624aa37b5b2b760b11b815250604051806040016040528060048152602001631253505360e21b8152508160039081620000859190620004ca565b506004620000948282620004ca565b505050620000b1620000ab620001d660201b60201c565b620001da565b6001600160a01b0382166200010d5760405162461bcd60e51b815260206004820181905260248201527f4f776e65722063616e6e6f7420626520746865207a65726f206164647265737360448201526064015b60405180910390fd5b6001600160a01b038116620001795760405162461bcd60e51b815260206004820152602b60248201527f4d61726b6574696e672077616c6c65742063616e6e6f7420626520746865207a60448201526a65726f206164647265737360a81b606482015260840162000104565b600680546001600160a01b0319166001600160a01b038316179055620001c382620001a2601290565b620001af90600a620006ab565b620001bd906103e8620006c3565b6200022c565b620001ce82620002ef565b5050620006f3565b3390565b600580546001600160a01b038381166001600160a01b0319831681179093556040519116919082907f8be0079c531659141344cd1fd0a4f28419497f9722a3daafe3b4186f6b6457e090600090a35050565b6001600160a01b038216620002845760405162461bcd60e51b815260206004820152601f60248201527f45524332303a206d696e7420746f20746865207a65726f206164647265737300604482015260640162000104565b8060026000828254620002989190620006dd565b90915550506001600160a01b038216600081815260208181526040808320805486019055518481527fddf252ad1be2c89b69c2b068fc378daa952ba7f163c4a11628f55a4df523b3ef910160405180910390a35050565b620002f962000373565b6001600160a01b038116620003605760405162461bcd60e51b815260206004820152602660248201527f4f776e61626c653a206e6577206f776e657220697320746865207a65726f206160448201526564647265737360d01b606482015260840162000104565b6200036b81620001da565b50565b505050565b6005546001600160a01b03163314620003cf5760405162461bcd60e51b815260206004820181905260248201527f4f776e61626c653a2063616c6c6572206973206e6f7420746865206f776e6572604482015260640162000104565b565b80516001600160a01b0381168114620003e957600080fd5b919050565b600080604083850312156200040257600080fd5b6200040d83620003d1565b91506200041d60208401620003d1565b90509250929050565b634e487b7160e01b600052604160045260246000fd5b600181811c908216806200045157607f821691505b6020821081036200047257634e487b7160e01b600052602260045260246000fd5b50919050565b601f8211156200036e57600081815260208120601f850160051c81016020861015620004a15750805b601f850160051c820191505b81811015620004c257828155600101620004ad565b505050505050565b81516001600160401b03811115620004e657620004e662000426565b620004fe81620004f784546200043c565b8462000478565b602080601f8311600181146200053657600084156200051d5750858301515b600019600386901b1c1916600185901b178555620004c2565b600085815260208120601f198616915b82811015620005675788860151825594840194600190910190840162000546565b5085821015620005865787850151600019600388901b60f8161c191681555b5050505050600190811b01905550565b634e487b7160e01b600052601160045260246000fd5b600181815b80851115620005ed578160001904821115620005d157620005d162000596565b80851615620005df57918102915b93841c9390800290620005b1565b509250929050565b6000826200060657506001620006a5565b816200061557506000620006a5565b81600181146200062e5760028114620006395762000659565b6001915050620006a5565b60ff8411156200064d576200064d62000596565b50506001821b620006a5565b5060208310610133831016604e8410600b84101617156200067e575081810a620006a5565b6200068a8383620005ac565b8060001904821115620006a157620006a162000596565b0290505b92915050565b6000620006bc60ff841683620005f5565b9392505050565b8082028115828204841417620006a557620006a562000596565b80820180821115620006a557620006a562000596565b6110d380620007036000396000f3fe60806040526004361061011f5760003560e01c8063715018a6116100a0578063a9059cbb11610064578063a9059cbb1461031c578063c204642c1461033c578063d0febe4c1461035c578063dd62ed3e14610364578063f2fde38b1461038457600080fd5b8063715018a61461027c57806375f0a874146102915780638da5cb5b146102c957806395d89b41146102e7578063a457c2d7146102fc57600080fd5b806339509351116100e757806339509351146101da5780633ccfd60b146101fa57806340c10f1914610211578063664e97041461023157806370a082311461024657600080fd5b806306fdde0314610124578063095ea7b31461014f57806318160ddd1461017f57806323b872dd1461019e578063313ce567146101be575b600080fd5b34801561013057600080fd5b506101396103a4565b6040516101469190610db9565b60405180910390f35b34801561015b57600080fd5b5061016f61016a366004610e23565b610436565b6040519015158152602001610146565b34801561018b57600080fd5b506002545b604051908152602001610146565b3480156101aa57600080fd5b5061016f6101b9366004610e4d565b610450565b3480156101ca57600080fd5b5060405160128152602001610146565b3480156101e657600080fd5b5061016f6101f5366004610e23565b610474565b34801561020657600080fd5b5061020f610496565b005b34801561021d57600080fd5b5061020f61022c366004610e23565b610526565b34801561023d57600080fd5b50610190606481565b34801561025257600080fd5b50610190610261366004610e89565b6001600160a01b031660009081526020819052604090205490565b34801561028857600080fd5b5061020f61058e565b34801561029d57600080fd5b506006546102b1906001600160a01b031681565b6040516001600160a01b039091168152602001610146565b3480156102d557600080fd5b506005546001600160a01b03166102b1565b3480156102f357600080fd5b506101396105a2565b34801561030857600080fd5b5061016f610317366004610e23565b6105b1565b34801561032857600080fd5b5061016f610337366004610e23565b61062c565b34801561034857600080fd5b5061020f610357366004610ec1565b61063a565b61020f6106f5565b34801561037057600080fd5b5061019061037f366004610f8c565b610761565b34801561039057600080fd5b5061020f61039f366004610e89565b61078c565b6060600380546103b390610fbf565b80601f01602080910402602001604051908101604052809291908181526020018280546103df90610fbf565b801561042c5780601f106104015761010080835404028352916020019161042c565b820191906000526020600020905b81548152906001019060200180831161040f57829003601f168201915b5050505050905090565b600033610444818585610802565b60019150505b92915050565b60003361045e858285610926565b6104698585856109a0565b506001949350505050565b6000336104448185856104878383610761565b610491919061100f565b610802565b61049e610aaa565b47806104e85760405162461bcd60e51b81526020600482015260146024820152734e6f2066756e647320746f20776974686472617760601b60448201526064015b60405180910390fd5b6005546040516001600160a01b039091169082156108fc029083906000818181858888f19350505050158015610522573d6000803e3d6000fd5b5050565b61052e610aaa565b6001600160a01b0382166105845760405162461bcd60e51b815260206004820152601f60248201527f43616e6e6f74206d696e7420746f20746865207a65726f20616464726573730060448201526064016104df565b6105228282610b04565b610596610aaa565b6105a06000610bc3565b565b6060600480546103b390610fbf565b600033816105bf8286610761565b90508381101561061f5760405162461bcd60e51b815260206004820152602560248201527f45524332303a2064656372656173656420616c6c6f77616e63652062656c6f77604482015264207a65726f60d81b60648201526084016104df565b6104698286868403610802565b6000336104448185856109a0565b610642610aaa565b60005b82518110156106f05760006001600160a01b031683828151811061066b5761066b611022565b60200260200101516001600160a01b0316036106bb5760405162461bcd60e51b815260206004820152600f60248201526e496e76616c6964206164647265737360881b60448201526064016104df565b6106de8382815181106106d0576106d0611022565b602002602001015183610b04565b806106e881611038565b915050610645565b505050565b600034116107455760405162461bcd60e51b815260206004820152601d60248201527f53656e6420736f6d65204d4154494320746f2062757920746f6b656e7300000060448201526064016104df565b6000610752606434611051565b905061075e3382610b04565b50565b6001600160a01b03918216600090815260016020908152604080832093909416825291909152205490565b610794610aaa565b6001600160a01b0381166107f95760405162461bcd60e51b815260206004820152602660248201527f4f776e61626c653a206e6577206f776e657220697320746865207a65726f206160448201526564647265737360d01b60648201526084016104df565b61075e81610bc3565b6001600160a01b0383166108645760405162461bcd60e51b8152602060048201526024808201527f45524332303a20617070726f76652066726f6d20746865207a65726f206164646044820152637265737360e01b60648201526084016104df565b6001600160a01b0382166108c55760405162461bcd60e51b815260206004820152602260248201527f45524332303a20617070726f766520746f20746865207a65726f206164647265604482015261737360f01b60648201526084016104df565b6001600160a01b0383811660008181526001602090815260408083209487168084529482529182902085905590518481527f8c5be1e5ebec7d5bd14f71427d1e84f3dd0314c0f7b2291e5b200ac8c7c3b925910160405180910390a3505050565b60006109328484610761565b9050600019811461099a578181101561098d5760405162461bcd60e51b815260206004820152601d60248201527f45524332303a20696e73756666696369656e7420616c6c6f77616e636500000060448201526064016104df565b61099a8484848403610802565b50505050565b6001600160a01b038316610a005760405162461bcd60e51b815260206004820152602160248201527f45524332303a207472616e736665722066726f6d207a65726f206164647265736044820152607360f81b60648201526084016104df565b6001600160a01b038216610a565760405162461bcd60e51b815260206004820152601f60248201527f45524332303a207472616e7366657220746f207a65726f20616464726573730060448201526064016104df565b60006064610a65836003611051565b610a6f9190611068565b90506000610a7d828461108a565b600654909150610a989086906001600160a01b031684610c15565b610aa3858583610c15565b5050505050565b6005546001600160a01b031633146105a05760405162461bcd60e51b815260206004820181905260248201527f4f776e61626c653a2063616c6c6572206973206e6f7420746865206f776e657260448201526064016104df565b6001600160a01b038216610b5a5760405162461bcd60e51b815260206004820152601f60248201527f45524332303a206d696e7420746f20746865207a65726f20616464726573730060448201526064016104df565b8060026000828254610b6c919061100f565b90915550506001600160a01b038216600081815260208181526040808320805486019055518481527fddf252ad1be2c89b69c2b068fc378daa952ba7f163c4a11628f55a4df523b3ef910160405180910390a35050565b600580546001600160a01b038381166001600160a01b0319831681179093556040519116919082907f8be0079c531659141344cd1fd0a4f28419497f9722a3daafe3b4186f6b6457e090600090a35050565b6001600160a01b038316610c795760405162461bcd60e51b815260206004820152602560248201527f45524332303a207472616e736665722066726f6d20746865207a65726f206164604482015264647265737360d81b60648201526084016104df565b6001600160a01b038216610cdb5760405162461bcd60e51b815260206004820152602360248201527f45524332303a207472616e7366657220746f20746865207a65726f206164647260448201526265737360e81b60648201526084016104df565b6001600160a01b03831660009081526020819052604090205481811015610d535760405162461bcd60e51b815260206004820152602660248201527f45524332303a207472616e7366657220616d6f756e7420657863656564732062604482015265616c616e636560d01b60648201526084016104df565b6001600160a01b03848116600081815260208181526040808320878703905593871680835291849020805487019055925185815290927fddf252ad1be2c89b69c2b068fc378daa952ba7f163c4a11628f55a4df523b3ef910160405180910390a361099a565b600060208083528351808285015260005b81811015610de657858101830151858201604001528201610dca565b506000604082860101526040601f19601f8301168501019250505092915050565b80356001600160a01b0381168114610e1e57600080fd5b919050565b60008060408385031215610e3657600080fd5b610e3f83610e07565b946020939093013593505050565b600080600060608486031215610e6257600080fd5b610e6b84610e07565b9250610e7960208501610e07565b9150604084013590509250925092565b600060208284031215610e9b57600080fd5b610ea482610e07565b9392505050565b634e487b7160e01b600052604160045260246000fd5b60008060408385031215610ed457600080fd5b823567ffffffffffffffff80821115610eec57600080fd5b818501915085601f830112610f0057600080fd5b8135602082821115610f1457610f14610eab565b8160051b604051601f19603f83011681018181108682111715610f3957610f39610eab565b604052928352818301935084810182019289841115610f5757600080fd5b948201945b83861015610f7c57610f6d86610e07565b85529482019493820193610f5c565b9997909101359750505050505050565b60008060408385031215610f9f57600080fd5b610fa883610e07565b9150610fb660208401610e07565b90509250929050565b600181811c90821680610fd357607f821691505b602082108103610ff357634e487b7160e01b600052602260045260246000fd5b50919050565b634e487b7160e01b600052601160045260246000fd5b8082018082111561044a5761044a610ff9565b634e487b7160e01b600052603260045260246000fd5b60006001820161104a5761104a610ff9565b5060010190565b808202811582820484141761044a5761044a610ff9565b60008261108557634e487b7160e01b600052601260045260246000fd5b500490565b8181038181111561044a5761044a610ff956fea2646970667358221220a10828fdef1cc797c6e473ee2caf37d21edb2e5a3fb3d795f7f48b7320f8419064736f6c63430008140033",
  "linkReferences": {},
  "deployedLinkReferences": {}
}