{
  "_format": "hh-sol-artifact-1",
  "contractName": "FeeDistributor",
  "sourceName": "contracts/FeeDistributor.sol",
  "abi": [
    {
      "inputs": [
        {
          "internalType": "address",
          "name": "_imaliToken",
          "type": "address"
        },
        {
          "internalType": "address",
          "name": "_treasury",
          "type": "address"
        },
        {
          "internalType": "address",
          "name": "_team",
          "type": "address"
        },
        {
          "internalType": "address",
          "name": "_buybackPool",
          "type": "address"
        }
      ],
      "stateMutability": "nonpayable",
      "type": "constructor"
    },
    {
      "anonymous": false,
      "inputs": [
        {
          "indexed": true,
          "internalType": "address",
          "name": "caller",
          "type": "address"
        },
        {
          "indexed": false,
          "internalType": "uint256",
          "name": "treasuryAmount",
          "type": "uint256"
        },
        {
          "indexed": false,
          "internalType": "uint256",
          "name": "teamAmount",
          "type": "uint256"
        },
        {
          "indexed": false,
          "internalType": "uint256",
          "name": "buybackAmount",
          "type": "uint256"
        }
      ],
      "name": "Distribution",
      "type": "event"
    },
    {
      "anonymous": false,
      "inputs": [
        {
          "indexed": true,
          "internalType": "address",
          "name": "previousOwner",
          "type": "address"
        },
        {
          "indexed": true,
          "internalType": "address",
          "name": "newOwner",
          "type": "address"
        }
      ],
      "name": "OwnershipTransferred",
      "type": "event"
    },
    {
      "anonymous": false,
      "inputs": [
        {
          "indexed": false,
          "internalType": "uint256",
          "name": "treasury",
          "type": "uint256"
        },
        {
          "indexed": false,
          "internalType": "uint256",
          "name": "team",
          "type": "uint256"
        },
        {
          "indexed": false,
          "internalType": "uint256",
          "name": "buyback",
          "type": "uint256"
        }
      ],
      "name": "SharesUpdated",
      "type": "event"
    },
    {
      "inputs": [],
      "name": "buybackPool",
      "outputs": [
        {
          "internalType": "address",
          "name": "",
          "type": "address"
        }
      ],
      "stateMutability": "view",
      "type": "function"
    },
    {
      "inputs": [],
      "name": "buybackShare",
      "outputs": [
        {
          "internalType": "uint256",
          "name": "",
          "type": "uint256"
        }
      ],
      "stateMutability": "view",
      "type": "function"
    },
    {
      "inputs": [],
      "name": "distribute",
      "outputs": [],
      "stateMutability": "nonpayable",
      "type": "function"
    },
    {
      "inputs": [],
      "name": "distributionPaused",
      "outputs": [
        {
          "internalType": "bool",
          "name": "",
          "type": "bool"
        }
      ],
      "stateMutability": "view",
      "type": "function"
    },
    {
      "inputs": [],
      "name": "imaliToken",
      "outputs": [
        {
          "internalType": "contract IERC20",
          "name": "",
          "type": "address"
        }
      ],
      "stateMutability": "view",
      "type": "function"
    },
    {
      "inputs": [],
      "name": "owner",
      "outputs": [
        {
          "internalType": "address",
          "name": "",
          "type": "address"
        }
      ],
      "stateMutability": "view",
      "type": "function"
    },
    {
      "inputs": [
        {
          "internalType": "address",
          "name": "tokenAddress",
          "type": "address"
        },
        {
          "internalType": "uint256",
          "name": "amount",
          "type": "uint256"
        }
      ],
      "name": "recoverERC20",
      "outputs": [],
      "stateMutability": "nonpayable",
      "type": "function"
    },
    {
      "inputs": [],
      "name": "renounceOwnership",
      "outputs": [],
      "stateMutability": "nonpayable",
      "type": "function"
    },
    {
      "inputs": [
        {
          "internalType": "bool",
          "name": "paused",
          "type": "bool"
        }
      ],
      "name": "setPaused",
      "outputs": [],
      "stateMutability": "nonpayable",
      "type": "function"
    },
    {
      "inputs": [
        {
          "internalType": "address",
          "name": "_treasury",
          "type": "address"
        },
        {
          "internalType": "address",
          "name": "_team",
          "type": "address"
        },
        {
          "internalType": "address",
          "name": "_buyback",
          "type": "address"
        }
      ],
      "name": "setRecipients",
      "outputs": [],
      "stateMutability": "nonpayable",
      "type": "function"
    },
    {
      "inputs": [
        {
          "internalType": "uint256",
          "name": "_treasury",
          "type": "uint256"
        },
        {
          "internalType": "uint256",
          "name": "_team",
          "type": "uint256"
        },
        {
          "internalType": "uint256",
          "name": "_buyback",
          "type": "uint256"
        }
      ],
      "name": "setShares",
      "outputs": [],
      "stateMutability": "nonpayable",
      "type": "function"
    },
    {
      "inputs": [],
      "name": "team",
      "outputs": [
        {
          "internalType": "address",
          "name": "",
          "type": "address"
        }
      ],
      "stateMutability": "view",
      "type": "function"
    },
    {
      "inputs": [],
      "name": "teamShare",
      "outputs": [
        {
          "internalType": "uint256",
          "name": "",
          "type": "uint256"
        }
      ],
      "stateMutability": "view",
      "type": "function"
    },
    {
      "inputs": [
        {
          "internalType": "address",
          "name": "newOwner",
          "type": "address"
        }
      ],
      "name": "transferOwnership",
      "outputs": [],
      "stateMutability": "nonpayable",
      "type": "function"
    },
    {
      "inputs": [],
      "name": "treasury",
      "outputs": [
        {
          "internalType": "address",
          "name": "",
          "type": "address"
        }
      ],
      "stateMutability": "view",
      "type": "function"
    },
    {
      "inputs": [],
      "name": "treasuryShare",
      "outputs": [
        {
          "internalType": "uint256",
          "name": "",
          "type": "uint256"
        }
      ],
      "stateMutability": "view",
      "type": "function"
    }
  ],
  "bytecode": "0x60a06040526032600555601e60065560146007553480156200002057600080fd5b5060405162000fa938038062000fa983398101604081905262000043916200023d565b6200004e33620001d0565b600180556001600160a01b0384166200009e5760405162461bcd60e51b815260206004820152600d60248201526c24b73b30b634b2103a37b5b2b760991b60448201526064015b60405180910390fd5b6001600160a01b038316620000e95760405162461bcd60e51b815260206004820152601060248201526f496e76616c696420747265617375727960801b604482015260640162000095565b6001600160a01b038216620001305760405162461bcd60e51b815260206004820152600c60248201526b496e76616c6964207465616d60a01b604482015260640162000095565b6001600160a01b038116620001885760405162461bcd60e51b815260206004820152601460248201527f496e76616c6964206275796261636b20706f6f6c000000000000000000000000604482015260640162000095565b6001600160a01b03938416608052600280549385166001600160a01b03199485161790556003805492851692841692909217909155600480549190931691161790556200029a565b600080546001600160a01b038381166001600160a01b0319831681178455604051919092169283917f8be0079c531659141344cd1fd0a4f28419497f9722a3daafe3b4186f6b6457e09190a35050565b80516001600160a01b03811681146200023857600080fd5b919050565b600080600080608085870312156200025457600080fd5b6200025f8562000220565b93506200026f6020860162000220565b92506200027f6040860162000220565b91506200028f6060860162000220565b905092959194509250565b608051610cd0620002d9600039600081816101f101528181610283015281816104b8015281816105e9015281816106cb01526107a90152610cd06000f3fe608060405234801561001057600080fd5b50600436106101005760003560e01c80638da5cb5b11610097578063e4fc6b6d11610066578063e4fc6b6d14610213578063ea6ef2fe1461021b578063f2fde38b14610224578063fcd0251b1461023757600080fd5b80638da5cb5b146101bf578063a0885e93146101d0578063df10b508146101e3578063e311fd0a146101ec57600080fd5b8063715018a6116100d3578063715018a61461017a5780637796ff371461018257806385f2aef2146101995780638980f11f146101ac57600080fd5b806316c38b3c14610105578063474465701461011a5780634912300d1461014a57806361d027b314610167575b600080fd5b610118610113366004610af5565b61024a565b005b60045461012d906001600160a01b031681565b6040516001600160a01b0390911681526020015b60405180910390f35b6008546101579060ff1681565b6040519015158152602001610141565b60025461012d906001600160a01b031681565b610118610265565b61018b60055481565b604051908152602001610141565b60035461012d906001600160a01b031681565b6101186101ba366004610b35565b610279565b6000546001600160a01b031661012d565b6101186101de366004610b5f565b610395565b61018b60075481565b61012d7f000000000000000000000000000000000000000000000000000000000000000081565b61011861044f565b61018b60065481565b610118610232366004610b8b565b6108b2565b610118610245366004610ba6565b61092b565b6102526109e4565b6008805460ff1916911515919091179055565b61026d6109e4565b6102776000610a3e565b565b6102816109e4565b7f00000000000000000000000000000000000000000000000000000000000000006001600160a01b0316826001600160a01b0316036102fe5760405162461bcd60e51b815260206004820152601460248201527343616e6e6f74207265636f76657220494d414c4960601b60448201526064015b60405180910390fd5b816001600160a01b031663a9059cbb61031f6000546001600160a01b031690565b6040516001600160e01b031960e084901b1681526001600160a01b039091166004820152602481018490526044016020604051808303816000875af115801561036c573d6000803e3d6000fd5b505050506040513d601f19601f820116820180604052508101906103909190610be9565b505050565b61039d6109e4565b806103a88385610c1c565b6103b29190610c1c565b6064146103fa5760405162461bcd60e51b81526020600482015260166024820152750536861726573206d7573742073756d20746f203130360541b60448201526064016102f5565b60058390556006829055600781905560408051848152602081018490529081018290527ff81b1f9d8b5d36a5a67d13006a8b091a9b63e2a38b331d315d99c6daefd2ddcc9060600160405180910390a1505050565b610457610a8e565b60085460ff16156104a05760405162461bcd60e51b8152602060048201526013602482015272111a5cdd1c9a589d5d1a5bdb881c185d5cd959606a1b60448201526064016102f5565b6040516370a0823160e01b81523060048201526000907f00000000000000000000000000000000000000000000000000000000000000006001600160a01b0316906370a0823190602401602060405180830381865afa158015610507573d6000803e3d6000fd5b505050506040513d601f19601f8201168201806040525081019061052b9190610c35565b90506000811161056a5760405162461bcd60e51b815260206004820152600a6024820152694e6f2062616c616e636560b01b60448201526064016102f5565b600060646005548361057c9190610c4e565b6105869190610c65565b9050600060646006548461059a9190610c4e565b6105a49190610c65565b90506000816105b38486610c87565b6105bd9190610c87565b60025460405163a9059cbb60e01b81526001600160a01b039182166004820152602481018690529192507f0000000000000000000000000000000000000000000000000000000000000000169063a9059cbb906044016020604051808303816000875af1158015610632573d6000803e3d6000fd5b505050506040513d601f19601f820116820180604052508101906106569190610be9565b6106a25760405162461bcd60e51b815260206004820152601860248201527f5472656173757279207472616e73666572206661696c6564000000000000000060448201526064016102f5565b60035460405163a9059cbb60e01b81526001600160a01b039182166004820152602481018490527f00000000000000000000000000000000000000000000000000000000000000009091169063a9059cbb906044016020604051808303816000875af1158015610716573d6000803e3d6000fd5b505050506040513d601f19601f8201168201806040525081019061073a9190610be9565b61077d5760405162461bcd60e51b81526020600482015260146024820152731519585b481d1c985b9cd9995c8819985a5b195960621b60448201526064016102f5565b6004805460405163a9059cbb60e01b81526001600160a01b0391821692810192909252602482018390527f0000000000000000000000000000000000000000000000000000000000000000169063a9059cbb906044016020604051808303816000875af11580156107f2573d6000803e3d6000fd5b505050506040513d601f19601f820116820180604052508101906108169190610be9565b6108625760405162461bcd60e51b815260206004820152601760248201527f4275796261636b207472616e73666572206661696c656400000000000000000060448201526064016102f5565b604080518481526020810184905290810182905233907f10ef6ec0586cfbee915265b2cbb79ce89c09698b847ee364575833b0762d9c839060600160405180910390a25050505061027760018055565b6108ba6109e4565b6001600160a01b03811661091f5760405162461bcd60e51b815260206004820152602660248201527f4f776e61626c653a206e6577206f776e657220697320746865207a65726f206160448201526564647265737360d01b60648201526084016102f5565b61092881610a3e565b50565b6109336109e4565b6001600160a01b0383161580159061095357506001600160a01b03821615155b801561096757506001600160a01b03811615155b6109a55760405162461bcd60e51b815260206004820152600f60248201526e496e76616c6964206164647265737360881b60448201526064016102f5565b600280546001600160a01b039485166001600160a01b031991821617909155600380549385169382169390931790925560048054919093169116179055565b6000546001600160a01b031633146102775760405162461bcd60e51b815260206004820181905260248201527f4f776e61626c653a2063616c6c6572206973206e6f7420746865206f776e657260448201526064016102f5565b600080546001600160a01b038381166001600160a01b0319831681178455604051919092169283917f8be0079c531659141344cd1fd0a4f28419497f9722a3daafe3b4186f6b6457e09190a35050565b600260015403610ae05760405162461bcd60e51b815260206004820152601f60248201527f5265656e7472616e637947756172643a207265656e7472616e742063616c6c0060448201526064016102f5565b6002600155565b801515811461092857600080fd5b600060208284031215610b0757600080fd5b8135610b1281610ae7565b9392505050565b80356001600160a01b0381168114610b3057600080fd5b919050565b60008060408385031215610b4857600080fd5b610b5183610b19565b946020939093013593505050565b600080600060608486031215610b7457600080fd5b505081359360208301359350604090920135919050565b600060208284031215610b9d57600080fd5b610b1282610b19565b600080600060608486031215610bbb57600080fd5b610bc484610b19565b9250610bd260208501610b19565b9150610be060408501610b19565b90509250925092565b600060208284031215610bfb57600080fd5b8151610b1281610ae7565b634e487b7160e01b600052601160045260246000fd5b80820180821115610c2f57610c2f610c06565b92915050565b600060208284031215610c4757600080fd5b5051919050565b8082028115828204841417610c2f57610c2f610c06565b600082610c8257634e487b7160e01b600052601260045260246000fd5b500490565b81810381811115610c2f57610c2f610c0656fea2646970667358221220bbabd21705dc49ec90757f8d879644575514641cf474405563f43067956cc99664736f6c63430008140033",
  "linkReferences": {},
  "deployedLinkReferences": {}
}