{"contracts/FeeDistributor.sol":{"FeeDistributor":{"abi":[{"inputs":[{"internalType":"address","name":"_imaliToken","type":"address"},{"internalType":"address","name":"_treasury","type":"address"},{"internalType":"address","name":"_team","type":"address"},{"internalType":"address","name":"_buybackPool","type":"address"}],"stateMutability":"nonpayable","type":"constructor"},{"anonymous":false,"inputs":[{"indexed":true,"internalType":"address","name":"caller","type":"address"},{"indexed":false,"internalType":"uint256","name":"treasuryAmount","type":"uint256"},{"indexed":false,"internalType":"uint256","name":"teamAmount","type":"uint256"},{"indexed":false,"internalType":"uint256","name":"buybackAmount","type":"uint256"}],"name":"Distribution","type":"event"},{"anonymous":false,"inputs":[{"indexed":true,"internalType":"address","name":"previousOwner","type":"address"},{"indexed":true,"internalType":"address","name":"newOwner","type":"address"}],"name":"OwnershipTransferred","type":"event"},{"anonymous":false,"inputs":[{"indexed":false,"internalType":"uint256","name":"treasury","type":"uint256"},{"indexed":false,"internalType":"uint256","name":"team","type":"uint256"},{"indexed":false,"internalType":"uint256","name":"buyback","type":"uint256"}],"name":"SharesUpdated","type":"event"},{"inputs":[],"name":"buybackPool","outputs":[{"internalType":"address","name":"","type":"address"}],"stateMutability":"view","type":"function"},{"inputs":[],"name":"buybackShare","outputs":[{"internalType":"uint256","name":"","type":"uint256"}],"stateMutability":"view","type":"function"},{"inputs":[],"name":"distribute","outputs":[],"stateMutability":"nonpayable","type":"function"},{"inputs":[],"name":"distributionPaused","outputs":[{"internalType":"bool","name":"","type":"bool"}],"stateMutability":"view","type":"function"},{"inputs":[],"name":"imaliToken","outputs":[{"internalType":"contract IERC20","name":"","type":"address"}],"stateMutability":"view","type":"function"},{"inputs":[],"name":"owner","outputs":[{"internalType":"address","name":"","type":"address"}],"stateMutability":"view","type":"function"},{"inputs":[{"internalType":"address","name":"tokenAddress","type":"address"},{"internalType":"uint256","name":"amount","type":"uint256"}],"name":"recoverERC20","outputs":[],"stateMutability":"nonpayable","type":"function"},{"inputs":[],"name":"renounceOwnership","outputs":[],"stateMutability":"nonpayable","type":"function"},{"inputs":[{"internalType":"bool","name":"paused","type":"bool"}],"name":"setPaused","outputs":[],"stateMutability":"nonpayable","type":"function"},{"inputs":[{"internalType":"address","name":"_treasury","type":"address"},{"internalType":"address","name":"_team","type":"address"},{"internalType":"address","name":"_buyback","type":"address"}],"name":"setRecipients","outputs":[],"stateMutability":"nonpayable","type":"function"},{"inputs":[{"internalType":"uint256","name":"_treasury","type":"uint256"},{"internalType":"uint256","name":"_team","type":"uint256"},{"internalType":"uint256","name":"_buyback","type":"uint256"}],"name":"setShares","outputs":[],"stateMutability":"nonpayable","type":"function"},{"inputs":[],"name":"team","outputs":[{"internalType":"address","name":"","type":"address"}],"stateMutability":"view","type":"function"},{"inputs":[],"name":"teamShare","outputs":[{"internalType":"uint256","name":"","type":"uint256"}],"stateMutability":"view","type":"function"},{"inputs":[{"internalType":"address","name":"newOwner","type":"address"}],"name":"transferOwnership","outputs":[],"stateMutability":"nonpayable","type":"function"},{"inputs":[],"name":"treasury","outputs":[{"internalType":"address","name":"","type":"address"}],"stateMutability":"view","type":"function"},{"inputs":[],"name":"treasuryShare","outputs":[{"internalType":"uint256","name":"","type":"uint256"}],"stateMutability":"view","type":"function"}],"evm":{"bytecode":{"linkReferences":{},"object":"60a06040526032600555601e60065560146007553480156200002057600080fd5b5060405162000fa938038062000fa983398101604081905262000043916200023d565b6200004e33620001d0565b600180556001600160a01b0384166200009e5760405162461bcd60e51b815260206004820152600d60248201526c24b73b30b634b2103a37b5b2b760991b60448201526064015b60405180910390fd5b6001600160a01b038316620000e95760405162461bcd60e51b815260206004820152601060248201526f496e76616c696420747265617375727960801b604482015260640162000095565b6001600160a01b038216620001305760405162461bcd60e51b815260206004820152600c60248201526b496e76616c6964207465616d60a01b604482015260640162000095565b6001600160a01b038116620001885760405162461bcd60e51b815260206004820152601460248201527f496e76616c6964206275796261636b20706f6f6c000000000000000000000000604482015260640162000095565b6001600160a01b03938416608052600280549385166001600160a01b03199485161790556003805492851692841692909217909155600480549190931691161790556200029a565b600080546001600160a01b038381166001600160a01b0319831681178455604051919092169283917f8be0079c531659141344cd1fd0a4f28419497f9722a3daafe3b4186f6b6457e09190a35050565b80516001600160a01b03811681146200023857600080fd5b919050565b600080600080608085870312156200025457600080fd5b6200025f8562000220565b93506200026f6020860162000220565b92506200027f6040860162000220565b91506200028f6060860162000220565b905092959194509250565b608051610cd0620002d9600039600081816101f101528181610283015281816104b8015281816105e9015281816106cb01526107a90152610cd06000f3fe608060405234801561001057600080fd5b50600436106101005760003560e01c80638da5cb5b11610097578063e4fc6b6d11610066578063e4fc6b6d14610213578063ea6ef2fe1461021b578063f2fde38b14610224578063fcd0251b1461023757600080fd5b80638da5cb5b146101bf578063a0885e93146101d0578063df10b508146101e3578063e311fd0a146101ec57600080fd5b8063715018a6116100d3578063715018a61461017a5780637796ff371461018257806385f2aef2146101995780638980f11f146101ac57600080fd5b806316c38b3c14610105578063474465701461011a5780634912300d1461014a57806361d027b314610167575b600080fd5b610118610113366004610af5565b61024a565b005b60045461012d906001600160a01b031681565b6040516001600160a01b0390911681526020015b60405180910390f35b6008546101579060ff1681565b6040519015158152602001610141565b60025461012d906001600160a01b031681565b610118610265565b61018b60055481565b604051908152602001610141565b60035461012d906001600160a01b031681565b6101186101ba366004610b35565b610279565b6000546001600160a01b031661012d565b6101186101de366004610b5f565b610395565b61018b60075481565b61012d7f000000000000000000000000000000000000000000000000000000000000000081565b61011861044f565b61018b60065481565b610118610232366004610b8b565b6108b2565b610118610245366004610ba6565b61092b565b6102526109e4565b6008805460ff1916911515919091179055565b61026d6109e4565b6102776000610a3e565b565b6102816109e4565b7f00000000000000000000000000000000000000000000000000000000000000006001600160a01b0316826001600160a01b0316036102fe5760405162461bcd60e51b815260206004820152601460248201527343616e6e6f74207265636f76657220494d414c4960601b60448201526064015b60405180910390fd5b816001600160a01b031663a9059cbb61031f6000546001600160a01b031690565b6040516001600160e01b031960e084901b1681526001600160a01b039091166004820152602481018490526044016020604051808303816000875af115801561036c573d6000803e3d6000fd5b505050506040513d601f19601f820116820180604052508101906103909190610be9565b505050565b61039d6109e4565b806103a88385610c1c565b6103b29190610c1c565b6064146103fa5760405162461bcd60e51b81526020600482015260166024820152750536861726573206d7573742073756d20746f203130360541b60448201526064016102f5565b60058390556006829055600781905560408051848152602081018490529081018290527ff81b1f9d8b5d36a5a67d13006a8b091a9b63e2a38b331d315d99c6daefd2ddcc9060600160405180910390a1505050565b610457610a8e565b60085460ff16156104a05760405162461bcd60e51b8152602060048201526013602482015272111a5cdd1c9a589d5d1a5bdb881c185d5cd959606a1b60448201526064016102f5565b6040516370a0823160e01b81523060048201526000907f00000000000000000000000000000000000000000000000000000000000000006001600160a01b0316906370a0823190602401602060405180830381865afa158015610507573d6000803e3d6000fd5b505050506040513d601f19601f8201168201806040525081019061052b9190610c35565b90506000811161056a5760405162461bcd60e51b815260206004820152600a6024820152694e6f2062616c616e636560b01b60448201526064016102f5565b600060646005548361057c9190610c4e565b6105869190610c65565b9050600060646006548461059a9190610c4e565b6105a49190610c65565b90506000816105b38486610c87565b6105bd9190610c87565b60025460405163a9059cbb60e01b81526001600160a01b039182166004820152602481018690529192507f0000000000000000000000000000000000000000000000000000000000000000169063a9059cbb906044016020604051808303816000875af1158015610632573d6000803e3d6000fd5b505050506040513d601f19601f820116820180604052508101906106569190610be9565b6106a25760405162461bcd60e51b815260206004820152601860248201527f5472656173757279207472616e73666572206661696c6564000000000000000060448201526064016102f5565b60035460405163a9059cbb60e01b81526001600160a01b039182166004820152602481018490527f00000000000000000000000000000000000000000000000000000000000000009091169063a9059cbb906044016020604051808303816000875af1158015610716573d6000803e3d6000fd5b505050506040513d601f19601f8201168201806040525081019061073a9190610be9565b61077d5760405162461bcd60e51b81526020600482015260146024820152731519585b481d1c985b9cd9995c8819985a5b195960621b60448201526064016102f5565b6004805460405163a9059cbb60e01b81526001600160a01b0391821692810192909252602482018390527f0000000000000000000000000000000000000000000000000000000000000000169063a9059cbb906044016020604051808303816000875af11580156107f2573d6000803e3d6000fd5b505050506040513d601f19601f820116820180604052508101906108169190610be9565b6108625760405162461bcd60e51b815260206004820152601760248201527f4275796261636b207472616e73666572206661696c656400000000000000000060448201526064016102f5565b604080518481526020810184905290810182905233907f10ef6ec0586cfbee915265b2cbb79ce89c09698b847ee364575833b0762d9c839060600160405180910390a25050505061027760018055565b6108ba6109e4565b6001600160a01b03811661091f5760405162461bcd60e51b815260206004820152602660248201527f4f776e61626c653a206e6577206f776e657220697320746865207a65726f206160448201526564647265737360d01b60648201526084016102f5565b61092881610a3e565b50565b6109336109e4565b6001600160a01b0383161580159061095357506001600160a01b03821615155b801561096757506001600160a01b03811615155b6109a55760405162461bcd60e51b815260206004820152600f60248201526e496e76616c6964206164647265737360881b60448201526064016102f5565b600280546001600160a01b039485166001600160a01b031991821617909155600380549385169382169390931790925560048054919093169116179055565b6000546001600160a01b031633146102775760405162461bcd60e51b815260206004820181905260248201527f4f776e61626c653a2063616c6c6572206973206e6f7420746865206f776e657260448201526064016102f5565b600080546001600160a01b038381166001600160a01b0319831681178455604051919092169283917f8be0079c531659141344cd1fd0a4f28419497f9722a3daafe3b4186f6b6457e09190a35050565b600260015403610ae05760405162461bcd60e51b815260206004820152601f60248201527f5265656e7472616e637947756172643a207265656e7472616e742063616c6c0060448201526064016102f5565b6002600155565b801515811461092857600080fd5b600060208284031215610b0757600080fd5b8135610b1281610ae7565b9392505050565b80356001600160a01b0381168114610b3057600080fd5b919050565b60008060408385031215610b4857600080fd5b610b5183610b19565b946020939093013593505050565b600080600060608486031215610b7457600080fd5b505081359360208301359350604090920135919050565b600060208284031215610b9d57600080fd5b610b1282610b19565b600080600060608486031215610bbb57600080fd5b610bc484610b19565b9250610bd260208501610b19565b9150610be060408501610b19565b90509250925092565b600060208284031215610bfb57600080fd5b8151610b1281610ae7565b634e487b7160e01b600052601160045260246000fd5b80820180821115610c2f57610c2f610c06565b92915050565b600060208284031215610c4757600080fd5b5051919050565b8082028115828204841417610c2f57610c2f610c06565b600082610c8257634e487b7160e01b600052601260045260246000fd5b500490565b81810381811115610c2f57610c2f610c0656fea2646970667358221220bbabd21705dc49ec90757f8d879644575514641cf474405563f43067956cc99664736f6c63430008140033","opcodes":"PUSH1 0xA0 PUSH1 0x40 MSTORE PUSH1 0x32 PUSH1 0x5 SSTORE PUSH1 0x1E PUSH1 0x6 SSTORE PUSH1 0x14 PUSH1 0x7 SSTORE CALLVALUE DUP1 ISZERO PUSH3 0x20 JUMPI PUSH1 0x0 DUP1 REVERT JUMPDEST POP PUSH1 0x40 MLOAD PUSH3 0xFA9 CODESIZE SUB DUP1 PUSH3 0xFA9 DUP4 CODECOPY DUP2 ADD PUSH1 0x40 DUP2 SWAP1 MSTORE PUSH3 0x43 SWAP2 PUSH3 0x23D JUMP JUMPDEST PUSH3 0x4E CALLER PUSH3 0x1D0 JUMP JUMPDEST PUSH1 0x1 DUP1 SSTORE PUSH1 0x1 PUSH1 0x1 PUSH1 0xA0 SHL SUB DUP5 AND PUSH3 0x9E JUMPI PUSH1 0x40 MLOAD PUSH3 0x461BCD PUSH1 0xE5 SHL DUP2 MSTORE PUSH1 0x20 PUSH1 0x4 DUP3 ADD MSTORE PUSH1 0xD PUSH1 0x24 DUP3 ADD MSTORE PUSH13 0x24B73B30B634B2103A37B5B2B7 PUSH1 0x99 SHL PUSH1 0x44 DUP3 ADD MSTORE PUSH1 0x64 ADD JUMPDEST PUSH1 0x40 MLOAD DUP1 SWAP2 SUB SWAP1 REVERT JUMPDEST PUSH1 0x1 PUSH1 0x1 PUSH1 0xA0 SHL SUB DUP4 AND PUSH3 0xE9 JUMPI PUSH1 0x40 MLOAD PUSH3 0x461BCD PUSH1 0xE5 SHL DUP2 MSTORE PUSH1 0x20 PUSH1 0x4 DUP3 ADD MSTORE PUSH1 0x10 PUSH1 0x24 DUP3 ADD MSTORE PUSH16 0x496E76616C6964207472656173757279 PUSH1 0x80 SHL PUSH1 0x44 DUP3 ADD MSTORE PUSH1 0x64 ADD PUSH3 0x95 JUMP JUMPDEST PUSH1 0x1 PUSH1 0x1 PUSH1 0xA0 SHL SUB DUP3 AND PUSH3 0x130 JUMPI PUSH1 0x40 MLOAD PUSH3 0x461BCD PUSH1 0xE5 SHL DUP2 MSTORE PUSH1 0x20 PUSH1 0x4 DUP3 ADD MSTORE PUSH1 0xC PUSH1 0x24 DUP3 ADD MSTORE PUSH12 0x496E76616C6964207465616D PUSH1 0xA0 SHL PUSH1 0x44 DUP3 ADD MSTORE PUSH1 0x64 ADD PUSH3 0x95 JUMP JUMPDEST PUSH1 0x1 PUSH1 0x1 PUSH1 0xA0 SHL SUB DUP2 AND PUSH3 0x188 JUMPI PUSH1 0x40 MLOAD PUSH3 0x461BCD PUSH1 0xE5 SHL DUP2 MSTORE PUSH1 0x20 PUSH1 0x4 DUP3 ADD MSTORE PUSH1 0x14 PUSH1 0x24 DUP3 ADD MSTORE PUSH32 0x496E76616C6964206275796261636B20706F6F6C000000000000000000000000 PUSH1 0x44 DUP3 ADD MSTORE PUSH1 0x64 ADD PUSH3 0x95 JUMP JUMPDEST PUSH1 0x1 PUSH1 0x1 PUSH1 0xA0 SHL SUB SWAP4 DUP5 AND PUSH1 0x80 MSTORE PUSH1 0x2 DUP1 SLOAD SWAP4 DUP6 AND PUSH1 0x1 PUSH1 0x1 PUSH1 0xA0 SHL SUB NOT SWAP5 DUP6 AND OR SWAP1 SSTORE PUSH1 0x3 DUP1 SLOAD SWAP3 DUP6 AND SWAP3 DUP5 AND SWAP3 SWAP1 SWAP3 OR SWAP1 SWAP2 SSTORE PUSH1 0x4 DUP1 SLOAD SWAP2 SWAP1 SWAP4 AND SWAP2 AND OR SWAP1 SSTORE PUSH3 0x29A JUMP JUMPDEST PUSH1 0x0 DUP1 SLOAD PUSH1 0x1 PUSH1 0x1 PUSH1 0xA0 SHL SUB DUP4 DUP2 AND PUSH1 0x1 PUSH1 0x1 PUSH1 0xA0 SHL SUB NOT DUP4 AND DUP2 OR DUP5 SSTORE PUSH1 0x40 MLOAD SWAP2 SWAP1 SWAP3 AND SWAP3 DUP4 SWAP2 PUSH32 0x8BE0079C531659141344CD1FD0A4F28419497F9722A3DAAFE3B4186F6B6457E0 SWAP2 SWAP1 LOG3 POP POP JUMP JUMPDEST DUP1 MLOAD PUSH1 0x1 PUSH1 0x1 PUSH1 0xA0 SHL SUB DUP2 AND DUP2 EQ PUSH3 0x238 JUMPI PUSH1 0x0 DUP1 REVERT JUMPDEST SWAP2 SWAP1 POP JUMP JUMPDEST PUSH1 0x0 DUP1 PUSH1 0x0 DUP1 PUSH1 0x80 DUP6 DUP8 SUB SLT ISZERO PUSH3 0x254 JUMPI PUSH1 0x0 DUP1 REVERT JUMPDEST PUSH3 0x25F DUP6 PUSH3 0x220 JUMP JUMPDEST SWAP4 POP PUSH3 0x26F PUSH1 0x20 DUP7 ADD PUSH3 0x220 JUMP JUMPDEST SWAP3 POP PUSH3 0x27F PUSH1 0x40 DUP7 ADD PUSH3 0x220 JUMP JUMPDEST SWAP2 POP PUSH3 0x28F PUSH1 0x60 DUP7 ADD PUSH3 0x220 JUMP JUMPDEST SWAP1 POP SWAP3 SWAP6 SWAP2 SWAP5 POP SWAP3 POP JUMP JUMPDEST PUSH1 0x80 MLOAD PUSH2 0xCD0 PUSH3 0x2D9 PUSH1 0x0 CODECOPY PUSH1 0x0 DUP2 DUP2 PUSH2 0x1F1 ADD MSTORE DUP2 DUP2 PUSH2 0x283 ADD MSTORE DUP2 DUP2 PUSH2 0x4B8 ADD MSTORE DUP2 DUP2 PUSH2 0x5E9 ADD MSTORE DUP2 DUP2 PUSH2 0x6CB ADD MSTORE PUSH2 0x7A9 ADD MSTORE PUSH2 0xCD0 PUSH1 0x0 RETURN INVALID PUSH1 0x80 PUSH1 0x40 MSTORE CALLVALUE DUP1 ISZERO PUSH2 0x10 JUMPI PUSH1 0x0 DUP1 REVERT JUMPDEST POP PUSH1 0x4 CALLDATASIZE LT PUSH2 0x100 JUMPI PUSH1 0x0 CALLDATALOAD PUSH1 0xE0 SHR DUP1 PUSH4 0x8DA5CB5B GT PUSH2 0x97 JUMPI DUP1 PUSH4 0xE4FC6B6D GT PUSH2 0x66 JUMPI DUP1 PUSH4 0xE4FC6B6D EQ PUSH2 0x213 JUMPI DUP1 PUSH4 0xEA6EF2FE EQ PUSH2 0x21B JUMPI DUP1 PUSH4 0xF2FDE38B EQ PUSH2 0x224 JUMPI DUP1 PUSH4 0xFCD0251B EQ PUSH2 0x237 JUMPI PUSH1 0x0 DUP1 REVERT JUMPDEST DUP1 PUSH4 0x8DA5CB5B EQ PUSH2 0x1BF JUMPI DUP1 PUSH4 0xA0885E93 EQ PUSH2 0x1D0 JUMPI DUP1 PUSH4 0xDF10B508 EQ PUSH2 0x1E3 JUMPI DUP1 PUSH4 0xE311FD0A EQ PUSH2 0x1EC JUMPI PUSH1 0x0 DUP1 REVERT JUMPDEST DUP1 PUSH4 0x715018A6 GT PUSH2 0xD3 JUMPI DUP1 PUSH4 0x715018A6 EQ PUSH2 0x17A JUMPI DUP1 PUSH4 0x7796FF37 EQ PUSH2 0x182 JUMPI DUP1 PUSH4 0x85F2AEF2 EQ PUSH2 0x199 JUMPI DUP1 PUSH4 0x8980F11F EQ PUSH2 0x1AC JUMPI PUSH1 0x0 DUP1 REVERT JUMPDEST DUP1 PUSH4 0x16C38B3C EQ PUSH2 0x105 JUMPI DUP1 PUSH4 0x47446570 EQ PUSH2 0x11A JUMPI DUP1 PUSH4 0x4912300D EQ PUSH2 0x14A JUMPI DUP1 PUSH4 0x61D027B3 EQ PUSH2 0x167 JUMPI JUMPDEST PUSH1 0x0 DUP1 REVERT JUMPDEST PUSH2 0x118 PUSH2 0x113 CALLDATASIZE PUSH1 0x4 PUSH2 0xAF5 JUMP JUMPDEST PUSH2 0x24A JUMP JUMPDEST STOP JUMPDEST PUSH1 0x4 SLOAD PUSH2 0x12D SWAP1 PUSH1 0x1 PUSH1 0x1 PUSH1 0xA0 SHL SUB AND DUP2 JUMP JUMPDEST PUSH1 0x40 MLOAD PUSH1 0x1 PUSH1 0x1 PUSH1 0xA0 SHL SUB SWAP1 SWAP2 AND DUP2 MSTORE PUSH1 0x20 ADD JUMPDEST PUSH1 0x40 MLOAD DUP1 SWAP2 SUB SWAP1 RETURN JUMPDEST PUSH1 0x8 SLOAD PUSH2 0x157 SWAP1 PUSH1 0xFF AND DUP2 JUMP JUMPDEST PUSH1 0x40 MLOAD SWAP1 ISZERO ISZERO DUP2 MSTORE PUSH1 0x20 ADD PUSH2 0x141 JUMP JUMPDEST PUSH1 0x2 SLOAD PUSH2 0x12D SWAP1 PUSH1 0x1 PUSH1 0x1 PUSH1 0xA0 SHL SUB AND DUP2 JUMP JUMPDEST PUSH2 0x118 PUSH2 0x265 JUMP JUMPDEST PUSH2 0x18B PUSH1 0x5 SLOAD DUP2 JUMP JUMPDEST PUSH1 0x40 MLOAD SWAP1 DUP2 MSTORE PUSH1 0x20 ADD PUSH2 0x141 JUMP JUMPDEST PUSH1 0x3 SLOAD PUSH2 0x12D SWAP1 PUSH1 0x1 PUSH1 0x1 PUSH1 0xA0 SHL SUB AND DUP2 JUMP JUMPDEST PUSH2 0x118 PUSH2 0x1BA CALLDATASIZE PUSH1 0x4 PUSH2 0xB35 JUMP JUMPDEST PUSH2 0x279 JUMP JUMPDEST PUSH1 0x0 SLOAD PUSH1 0x1 PUSH1 0x1 PUSH1 0xA0 SHL SUB AND PUSH2 0x12D JUMP JUMPDEST PUSH2 0x118 PUSH2 0x1DE CALLDATASIZE PUSH1 0x4 PUSH2 0xB5F JUMP JUMPDEST PUSH2 0x395 JUMP JUMPDEST PUSH2 0x18B PUSH1 0x7 SLOAD DUP2 JUMP JUMPDEST PUSH2 0x12D PUSH32 0x0 DUP2 JUMP JUMPDEST PUSH2 0x118 PUSH2 0x44F JUMP JUMPDEST PUSH2 0x18B PUSH1 0x6 SLOAD DUP2 JUMP JUMPDEST PUSH2 0x118 PUSH2 0x232 CALLDATASIZE PUSH1 0x4 PUSH2 0xB8B JUMP JUMPDEST PUSH2 0x8B2 JUMP JUMPDEST PUSH2 0x118 PUSH2 0x245 CALLDATASIZE PUSH1 0x4 PUSH2 0xBA6 JUMP JUMPDEST PUSH2 0x92B JUMP JUMPDEST PUSH2 0x252 PUSH2 0x9E4 JUMP JUMPDEST PUSH1 0x8 DUP1 SLOAD PUSH1 0xFF NOT AND SWAP2 ISZERO ISZERO SWAP2 SWAP1 SWAP2 OR SWAP1 SSTORE JUMP JUMPDEST PUSH2 0x26D PUSH2 0x9E4 JUMP JUMPDEST PUSH2 0x277 PUSH1 0x0 PUSH2 0xA3E JUMP JUMPDEST JUMP JUMPDEST PUSH2 0x281 PUSH2 0x9E4 JUMP JUMPDEST PUSH32 0x0 PUSH1 0x1 PUSH1 0x1 PUSH1 0xA0 SHL SUB AND DUP3 PUSH1 0x1 PUSH1 0x1 PUSH1 0xA0 SHL SUB AND SUB PUSH2 0x2FE JUMPI PUSH1 0x40 MLOAD PUSH3 0x461BCD PUSH1 0xE5 SHL DUP2 MSTORE PUSH1 0x20 PUSH1 0x4 DUP3 ADD MSTORE PUSH1 0x14 PUSH1 0x24 DUP3 ADD MSTORE PUSH20 0x43616E6E6F74207265636F76657220494D414C49 PUSH1 0x60 SHL PUSH1 0x44 DUP3 ADD MSTORE PUSH1 0x64 ADD JUMPDEST PUSH1 0x40 MLOAD DUP1 SWAP2 SUB SWAP1 REVERT JUMPDEST DUP2 PUSH1 0x1 PUSH1 0x1 PUSH1 0xA0 SHL SUB AND PUSH4 0xA9059CBB PUSH2 0x31F PUSH1 0x0 SLOAD PUSH1 0x1 PUSH1 0x1 PUSH1 0xA0 SHL SUB AND SWAP1 JUMP JUMPDEST PUSH1 0x40 MLOAD PUSH1 0x1 PUSH1 0x1 PUSH1 0xE0 SHL SUB NOT PUSH1 0xE0 DUP5 SWAP1 SHL AND DUP2 MSTORE PUSH1 0x1 PUSH1 0x1 PUSH1 0xA0 SHL SUB SWAP1 SWAP2 AND PUSH1 0x4 DUP3 ADD MSTORE PUSH1 0x24 DUP2 ADD DUP5 SWAP1 MSTORE PUSH1 0x44 ADD PUSH1 0x20 PUSH1 0x40 MLOAD DUP1 DUP4 SUB DUP2 PUSH1 0x0 DUP8 GAS CALL ISZERO DUP1 ISZERO PUSH2 0x36C JUMPI RETURNDATASIZE PUSH1 0x0 DUP1 RETURNDATACOPY RETURNDATASIZE PUSH1 0x0 REVERT JUMPDEST POP POP POP POP PUSH1 0x40 MLOAD RETURNDATASIZE PUSH1 0x1F NOT PUSH1 0x1F DUP3 ADD AND DUP3 ADD DUP1 PUSH1 0x40 MSTORE POP DUP2 ADD SWAP1 PUSH2 0x390 SWAP2 SWAP1 PUSH2 0xBE9 JUMP JUMPDEST POP POP POP JUMP JUMPDEST PUSH2 0x39D PUSH2 0x9E4 JUMP JUMPDEST DUP1 PUSH2 0x3A8 DUP4 DUP6 PUSH2 0xC1C JUMP JUMPDEST PUSH2 0x3B2 SWAP2 SWAP1 PUSH2 0xC1C JUMP JUMPDEST PUSH1 0x64 EQ PUSH2 0x3FA JUMPI PUSH1 0x40 MLOAD PUSH3 0x461BCD PUSH1 0xE5 SHL DUP2 MSTORE PUSH1 0x20 PUSH1 0x4 DUP3 ADD MSTORE PUSH1 0x16 PUSH1 0x24 DUP3 ADD MSTORE PUSH22 0x536861726573206D7573742073756D20746F2031303 PUSH1 0x54 SHL PUSH1 0x44 DUP3 ADD MSTORE PUSH1 0x64 ADD PUSH2 0x2F5 JUMP JUMPDEST PUSH1 0x5 DUP4 SWAP1 SSTORE PUSH1 0x6 DUP3 SWAP1 SSTORE PUSH1 0x7 DUP2 SWAP1 SSTORE PUSH1 0x40 DUP1 MLOAD DUP5 DUP2 MSTORE PUSH1 0x20 DUP2 ADD DUP5 SWAP1 MSTORE SWAP1 DUP2 ADD DUP3 SWAP1 MSTORE PUSH32 0xF81B1F9D8B5D36A5A67D13006A8B091A9B63E2A38B331D315D99C6DAEFD2DDCC SWAP1 PUSH1 0x60 ADD PUSH1 0x40 MLOAD DUP1 SWAP2 SUB SWAP1 LOG1 POP POP POP JUMP JUMPDEST PUSH2 0x457 PUSH2 0xA8E JUMP JUMPDEST PUSH1 0x8 SLOAD PUSH1 0xFF AND ISZERO PUSH2 0x4A0 JUMPI PUSH1 0x40 MLOAD PUSH3 0x461BCD PUSH1 0xE5 SHL DUP2 MSTORE PUSH1 0x20 PUSH1 0x4 DUP3 ADD MSTORE PUSH1 0x13 PUSH1 0x24 DUP3 ADD MSTORE PUSH19 0x111A5CDD1C9A589D5D1A5BDB881C185D5CD959 PUSH1 0x6A SHL PUSH1 0x44 DUP3 ADD MSTORE PUSH1 0x64 ADD PUSH2 0x2F5 JUMP JUMPDEST PUSH1 0x40 MLOAD PUSH4 0x70A08231 PUSH1 0xE0 SHL DUP2 MSTORE ADDRESS PUSH1 0x4 DUP3 ADD MSTORE PUSH1 0x0 SWAP1 PUSH32 0x0 PUSH1 0x1 PUSH1 0x1 PUSH1 0xA0 SHL SUB AND SWAP1 PUSH4 0x70A08231 SWAP1 PUSH1 0x24 ADD PUSH1 0x20 PUSH1 0x40 MLOAD DUP1 DUP4 SUB DUP2 DUP7 GAS STATICCALL ISZERO DUP1 ISZERO PUSH2 0x507 JUMPI RETURNDATASIZE PUSH1 0x0 DUP1 RETURNDATACOPY RETURNDATASIZE PUSH1 0x0 REVERT JUMPDEST POP POP POP POP PUSH1 0x40 MLOAD RETURNDATASIZE PUSH1 0x1F NOT PUSH1 0x1F DUP3 ADD AND DUP3 ADD DUP1 PUSH1 0x40 MSTORE POP DUP2 ADD SWAP1 PUSH2 0x52B SWAP2 SWAP1 PUSH2 0xC35 JUMP JUMPDEST SWAP1 POP PUSH1 0x0 DUP2 GT PUSH2 0x56A JUMPI PUSH1 0x40 MLOAD PUSH3 0x461BCD PUSH1 0xE5 SHL DUP2 MSTORE PUSH1 0x20 PUSH1 0x4 DUP3 ADD MSTORE PUSH1 0xA PUSH1 0x24 DUP3 ADD MSTORE PUSH10 0x4E6F2062616C616E6365 PUSH1 0xB0 SHL PUSH1 0x44 DUP3 ADD MSTORE PUSH1 0x64 ADD PUSH2 0x2F5 JUMP JUMPDEST PUSH1 0x0 PUSH1 0x64 PUSH1 0x5 SLOAD DUP4 PUSH2 0x57C SWAP2 SWAP1 PUSH2 0xC4E JUMP JUMPDEST PUSH2 0x586 SWAP2 SWAP1 PUSH2 0xC65 JUMP JUMPDEST SWAP1 POP PUSH1 0x0 PUSH1 0x64 PUSH1 0x6 SLOAD DUP5 PUSH2 0x59A SWAP2 SWAP1 PUSH2 0xC4E JUMP JUMPDEST PUSH2 0x5A4 SWAP2 SWAP1 PUSH2 0xC65 JUMP JUMPDEST SWAP1 POP PUSH1 0x0 DUP2 PUSH2 0x5B3 DUP5 DUP7 PUSH2 0xC87 JUMP JUMPDEST PUSH2 0x5BD SWAP2 SWAP1 PUSH2 0xC87 JUMP JUMPDEST PUSH1 0x2 SLOAD PUSH1 0x40 MLOAD PUSH4 0xA9059CBB PUSH1 0xE0 SHL DUP2 MSTORE PUSH1 0x1 PUSH1 0x1 PUSH1 0xA0 SHL SUB SWAP2 DUP3 AND PUSH1 0x4 DUP3 ADD MSTORE PUSH1 0x24 DUP2 ADD DUP7 SWAP1 MSTORE SWAP2 SWAP3 POP PUSH32 0x0 AND SWAP1 PUSH4 0xA9059CBB SWAP1 PUSH1 0x44 ADD PUSH1 0x20 PUSH1 0x40 MLOAD DUP1 DUP4 SUB DUP2 PUSH1 0x0 DUP8 GAS CALL ISZERO DUP1 ISZERO PUSH2 0x632 JUMPI RETURNDATASIZE PUSH1 0x0 DUP1 RETURNDATACOPY RETURNDATASIZE PUSH1 0x0 REVERT JUMPDEST POP POP POP POP PUSH1 0x40 MLOAD RETURNDATASIZE PUSH1 0x1F NOT PUSH1 0x1F DUP3 ADD AND DUP3 ADD DUP1 PUSH1 0x40 MSTORE POP DUP2 ADD SWAP1 PUSH2 0x656 SWAP2 SWAP1 PUSH2 0xBE9 JUMP JUMPDEST PUSH2 0x6A2 JUMPI PUSH1 0x40 MLOAD PUSH3 0x461BCD PUSH1 0xE5 SHL DUP2 MSTORE PUSH1 0x20 PUSH1 0x4 DUP3 ADD MSTORE PUSH1 0x18 PUSH1 0x24 DUP3 ADD MSTORE PUSH32 0x5472656173757279207472616E73666572206661696C65640000000000000000 PUSH1 0x44 DUP3 ADD MSTORE PUSH1 0x64 ADD PUSH2 0x2F5 JUMP JUMPDEST PUSH1 0x3 SLOAD PUSH1 0x40 MLOAD PUSH4 0xA9059CBB PUSH1 0xE0 SHL DUP2 MSTORE PUSH1 0x1 PUSH1 0x1 PUSH1 0xA0 SHL SUB SWAP2 DUP3 AND PUSH1 0x4 DUP3 ADD MSTORE PUSH1 0x24 DUP2 ADD DUP5 SWAP1 MSTORE PUSH32 0x0 SWAP1 SWAP2 AND SWAP1 PUSH4 0xA9059CBB SWAP1 PUSH1 0x44 ADD PUSH1 0x20 PUSH1 0x40 MLOAD DUP1 DUP4 SUB DUP2 PUSH1 0x0 DUP8 GAS CALL ISZERO DUP1 ISZERO PUSH2 0x716 JUMPI RETURNDATASIZE PUSH1 0x0 DUP1 RETURNDATACOPY RETURNDATASIZE PUSH1 0x0 REVERT JUMPDEST POP POP POP POP PUSH1 0x40 MLOAD RETURNDATASIZE PUSH1 0x1F NOT PUSH1 0x1F DUP3 ADD AND DUP3 ADD DUP1 PUSH1 0x40 MSTORE POP DUP2 ADD SWAP1 PUSH2 0x73A SWAP2 SWAP1 PUSH2 0xBE9 JUMP JUMPDEST PUSH2 0x77D JUMPI PUSH1 0x40 MLOAD PUSH3 0x461BCD PUSH1 0xE5 SHL DUP2 MSTORE PUSH1 0x20 PUSH1 0x4 DUP3 ADD MSTORE PUSH1 0x14 PUSH1 0x24 DUP3 ADD MSTORE PUSH20 0x1519585B481D1C985B9CD9995C8819985A5B1959 PUSH1 0x62 SHL PUSH1 0x44 DUP3 ADD MSTORE PUSH1 0x64 ADD PUSH2 0x2F5 JUMP JUMPDEST PUSH1 0x4 DUP1 SLOAD PUSH1 0x40 MLOAD PUSH4 0xA9059CBB PUSH1 0xE0 SHL DUP2 MSTORE PUSH1 0x1 PUSH1 0x1 PUSH1 0xA0 SHL SUB SWAP2 DUP3 AND SWAP3 DUP2 ADD SWAP3 SWAP1 SWAP3 MSTORE PUSH1 0x24 DUP3 ADD DUP4 SWAP1 MSTORE PUSH32 0x0 AND SWAP1 PUSH4 0xA9059CBB SWAP1 PUSH1 0x44 ADD PUSH1 0x20 PUSH1 0x40 MLOAD DUP1 DUP4 SUB DUP2 PUSH1 0x0 DUP8 GAS CALL ISZERO DUP1 ISZERO PUSH2 0x7F2 JUMPI RETURNDATASIZE PUSH1 0x0 DUP1 RETURNDATACOPY RETURNDATASIZE PUSH1 0x0 REVERT JUMPDEST POP POP POP POP PUSH1 0x40 MLOAD RETURNDATASIZE PUSH1 0x1F NOT PUSH1 0x1F DUP3 ADD AND DUP3 ADD DUP1 PUSH1 0x40 MSTORE POP DUP2 ADD SWAP1 PUSH2 0x816 SWAP2 SWAP1 PUSH2 0xBE9 JUMP JUMPDEST PUSH2 0x862 JUMPI PUSH1 0x40 MLOAD PUSH3 0x461BCD PUSH1 0xE5 SHL DUP2 MSTORE PUSH1 0x20 PUSH1 0x4 DUP3 ADD MSTORE PUSH1 0x17 PUSH1 0x24 DUP3 ADD MSTORE PUSH32 0x4275796261636B207472616E73666572206661696C6564000000000000000000 PUSH1 0x44 DUP3 ADD MSTORE PUSH1 0x64 ADD PUSH2 0x2F5 JUMP JUMPDEST PUSH1 0x40 DUP1 MLOAD DUP5 DUP2 MSTORE PUSH1 0x20 DUP2 ADD DUP5 SWAP1 MSTORE SWAP1 DUP2 ADD DUP3 SWAP1 MSTORE CALLER SWAP1 PUSH32 0x10EF6EC0586CFBEE915265B2CBB79CE89C09698B847EE364575833B0762D9C83 SWAP1 PUSH1 0x60 ADD PUSH1 0x40 MLOAD DUP1 SWAP2 SUB SWAP1 LOG2 POP POP POP POP PUSH2 0x277 PUSH1 0x1 DUP1 SSTORE JUMP JUMPDEST PUSH2 0x8BA PUSH2 0x9E4 JUMP JUMPDEST PUSH1 0x1 PUSH1 0x1 PUSH1 0xA0 SHL SUB DUP2 AND PUSH2 0x91F JUMPI PUSH1 0x40 MLOAD PUSH3 0x461BCD PUSH1 0xE5 SHL DUP2 MSTORE PUSH1 0x20 PUSH1 0x4 DUP3 ADD MSTORE PUSH1 0x26 PUSH1 0x24 DUP3 ADD MSTORE PUSH32 0x4F776E61626C653A206E6577206F776E657220697320746865207A65726F2061 PUSH1 0x44 DUP3 ADD MSTORE PUSH6 0x646472657373 PUSH1 0xD0 SHL PUSH1 0x64 DUP3 ADD MSTORE PUSH1 0x84 ADD PUSH2 0x2F5 JUMP JUMPDEST PUSH2 0x928 DUP2 PUSH2 0xA3E JUMP JUMPDEST POP JUMP JUMPDEST PUSH2 0x933 PUSH2 0x9E4 JUMP JUMPDEST PUSH1 0x1 PUSH1 0x1 PUSH1 0xA0 SHL SUB DUP4 AND ISZERO DUP1 ISZERO SWAP1 PUSH2 0x953 JUMPI POP PUSH1 0x1 PUSH1 0x1 PUSH1 0xA0 SHL SUB DUP3 AND ISZERO ISZERO JUMPDEST DUP1 ISZERO PUSH2 0x967 JUMPI POP PUSH1 0x1 PUSH1 0x1 PUSH1 0xA0 SHL SUB DUP2 AND ISZERO ISZERO JUMPDEST PUSH2 0x9A5 JUMPI PUSH1 0x40 MLOAD PUSH3 0x461BCD PUSH1 0xE5 SHL DUP2 MSTORE PUSH1 0x20 PUSH1 0x4 DUP3 ADD MSTORE PUSH1 0xF PUSH1 0x24 DUP3 ADD MSTORE PUSH15 0x496E76616C69642061646472657373 PUSH1 0x88 SHL PUSH1 0x44 DUP3 ADD MSTORE PUSH1 0x64 ADD PUSH2 0x2F5 JUMP JUMPDEST PUSH1 0x2 DUP1 SLOAD PUSH1 0x1 PUSH1 0x1 PUSH1 0xA0 SHL SUB SWAP5 DUP6 AND PUSH1 0x1 PUSH1 0x1 PUSH1 0xA0 SHL SUB NOT SWAP2 DUP3 AND OR SWAP1 SWAP2 SSTORE PUSH1 0x3 DUP1 SLOAD SWAP4 DUP6 AND SWAP4 DUP3 AND SWAP4 SWAP1 SWAP4 OR SWAP1 SWAP3 SSTORE PUSH1 0x4 DUP1 SLOAD SWAP2 SWAP1 SWAP4 AND SWAP2 AND OR SWAP1 SSTORE JUMP JUMPDEST PUSH1 0x0 SLOAD PUSH1 0x1 PUSH1 0x1 PUSH1 0xA0 SHL SUB AND CALLER EQ PUSH2 0x277 JUMPI PUSH1 0x40 MLOAD PUSH3 0x461BCD PUSH1 0xE5 SHL DUP2 MSTORE PUSH1 0x20 PUSH1 0x4 DUP3 ADD DUP2 SWAP1 MSTORE PUSH1 0x24 DUP3 ADD MSTORE PUSH32 0x4F776E61626C653A2063616C6C6572206973206E6F7420746865206F776E6572 PUSH1 0x44 DUP3 ADD MSTORE PUSH1 0x64 ADD PUSH2 0x2F5 JUMP JUMPDEST PUSH1 0x0 DUP1 SLOAD PUSH1 0x1 PUSH1 0x1 PUSH1 0xA0 SHL SUB DUP4 DUP2 AND PUSH1 0x1 PUSH1 0x1 PUSH1 0xA0 SHL SUB NOT DUP4 AND DUP2 OR DUP5 SSTORE PUSH1 0x40 MLOAD SWAP2 SWAP1 SWAP3 AND SWAP3 DUP4 SWAP2 PUSH32 0x8BE0079C531659141344CD1FD0A4F28419497F9722A3DAAFE3B4186F6B6457E0 SWAP2 SWAP1 LOG3 POP POP JUMP JUMPDEST PUSH1 0x2 PUSH1 0x1 SLOAD SUB PUSH2 0xAE0 JUMPI PUSH1 0x40 MLOAD PUSH3 0x461BCD PUSH1 0xE5 SHL DUP2 MSTORE PUSH1 0x20 PUSH1 0x4 DUP3 ADD MSTORE PUSH1 0x1F PUSH1 0x24 DUP3 ADD MSTORE PUSH32 0x5265656E7472616E637947756172643A207265656E7472616E742063616C6C00 PUSH1 0x44 DUP3 ADD MSTORE PUSH1 0x64 ADD PUSH2 0x2F5 JUMP JUMPDEST PUSH1 0x2 PUSH1 0x1 SSTORE JUMP JUMPDEST DUP1 ISZERO ISZERO DUP2 EQ PUSH2 0x928 JUMPI PUSH1 0x0 DUP1 REVERT JUMPDEST PUSH1 0x0 PUSH1 0x20 DUP3 DUP5 SUB SLT ISZERO PUSH2 0xB07 JUMPI PUSH1 0x0 DUP1 REVERT JUMPDEST DUP2 CALLDATALOAD PUSH2 0xB12 DUP2 PUSH2 0xAE7 JUMP JUMPDEST SWAP4 SWAP3 POP POP POP JUMP JUMPDEST DUP1 CALLDATALOAD PUSH1 0x1 PUSH1 0x1 PUSH1 0xA0 SHL SUB DUP2 AND DUP2 EQ PUSH2 0xB30 JUMPI PUSH1 0x0 DUP1 REVERT JUMPDEST SWAP2 SWAP1 POP JUMP JUMPDEST PUSH1 0x0 DUP1 PUSH1 0x40 DUP4 DUP6 SUB SLT ISZERO PUSH2 0xB48 JUMPI PUSH1 0x0 DUP1 REVERT JUMPDEST PUSH2 0xB51 DUP4 PUSH2 0xB19 JUMP JUMPDEST SWAP5 PUSH1 0x20 SWAP4 SWAP1 SWAP4 ADD CALLDATALOAD SWAP4 POP POP POP JUMP JUMPDEST PUSH1 0x0 DUP1 PUSH1 0x0 PUSH1 0x60 DUP5 DUP7 SUB SLT ISZERO PUSH2 0xB74 JUMPI PUSH1 0x0 DUP1 REVERT JUMPDEST POP POP DUP2 CALLDATALOAD SWAP4 PUSH1 0x20 DUP4 ADD CALLDATALOAD SWAP4 POP PUSH1 0x40 SWAP1 SWAP3 ADD CALLDATALOAD SWAP2 SWAP1 POP JUMP JUMPDEST PUSH1 0x0 PUSH1 0x20 DUP3 DUP5 SUB SLT ISZERO PUSH2 0xB9D JUMPI PUSH1 0x0 DUP1 REVERT JUMPDEST PUSH2 0xB12 DUP3 PUSH2 0xB19 JUMP JUMPDEST PUSH1 0x0 DUP1 PUSH1 0x0 PUSH1 0x60 DUP5 DUP7 SUB SLT ISZERO PUSH2 0xBBB JUMPI PUSH1 0x0 DUP1 REVERT JUMPDEST PUSH2 0xBC4 DUP5 PUSH2 0xB19 JUMP JUMPDEST SWAP3 POP PUSH2 0xBD2 PUSH1 0x20 DUP6 ADD PUSH2 0xB19 JUMP JUMPDEST SWAP2 POP PUSH2 0xBE0 PUSH1 0x40 DUP6 ADD PUSH2 0xB19 JUMP JUMPDEST SWAP1 POP SWAP3 POP SWAP3 POP SWAP3 JUMP JUMPDEST PUSH1 0x0 PUSH1 0x20 DUP3 DUP5 SUB SLT ISZERO PUSH2 0xBFB JUMPI PUSH1 0x0 DUP1 REVERT JUMPDEST DUP2 MLOAD PUSH2 0xB12 DUP2 PUSH2 0xAE7 JUMP JUMPDEST PUSH4 0x4E487B71 PUSH1 0xE0 SHL PUSH1 0x0 MSTORE PUSH1 0x11 PUSH1 0x4 MSTORE PUSH1 0x24 PUSH1 0x0 REVERT JUMPDEST DUP1 DUP3 ADD DUP1 DUP3 GT ISZERO PUSH2 0xC2F JUMPI PUSH2 0xC2F PUSH2 0xC06 JUMP JUMPDEST SWAP3 SWAP2 POP POP JUMP JUMPDEST PUSH1 0x0 PUSH1 0x20 DUP3 DUP5 SUB SLT ISZERO PUSH2 0xC47 JUMPI PUSH1 0x0 DUP1 REVERT JUMPDEST POP MLOAD SWAP2 SWAP1 POP JUMP JUMPDEST DUP1 DUP3 MUL DUP2 ISZERO DUP3 DUP3 DIV DUP5 EQ OR PUSH2 0xC2F JUMPI PUSH2 0xC2F PUSH2 0xC06 JUMP JUMPDEST PUSH1 0x0 DUP3 PUSH2 0xC82 JUMPI PUSH4 0x4E487B71 PUSH1 0xE0 SHL PUSH1 0x0 MSTORE PUSH1 0x12 PUSH1 0x4 MSTORE PUSH1 0x24 PUSH1 0x0 REVERT JUMPDEST POP DIV SWAP1 JUMP JUMPDEST DUP2 DUP2 SUB DUP2 DUP2 GT ISZERO PUSH2 0xC2F JUMPI PUSH2 0xC2F PUSH2 0xC06 JUMP INVALID LOG2 PUSH5 0x6970667358 0x22 SLT KECCAK256 0xBB 0xAB 0xD2 OR SDIV 0xDC 0x49 0xEC SWAP1 PUSH22 0x7F8D879644575514641CF474405563F43067956CC996 PUSH5 0x736F6C6343 STOP ADDMOD EQ STOP CALLER "},"methodIdentifiers":{"buybackPool()":"47446570","buybackShare()":"df10b508","distribute()":"e4fc6b6d","distributionPaused()":"4912300d","imaliToken()":"e311fd0a","owner()":"8da5cb5b","recoverERC20(address,uint256)":"8980f11f","renounceOwnership()":"715018a6","setPaused(bool)":"16c38b3c","setRecipients(address,address,address)":"fcd0251b","setShares(uint256,uint256,uint256)":"a0885e93","team()":"85f2aef2","teamShare()":"ea6ef2fe","transferOwnership(address)":"f2fde38b","treasury()":"61d027b3","treasuryShare()":"7796ff37"}},"storageLayout":{"storage":[{"astId":273,"contract":"contracts/FeeDistributor.sol:FeeDistributor","label":"_owner","offset":0,"slot":"0","type":"t_address"},{"astId":389,"contract":"contracts/FeeDistributor.sol:FeeDistributor","label":"_status","offset":0,"slot":"1","type":"t_uint256"},{"astId":693,"contract":"contracts/FeeDistributor.sol:FeeDistributor","label":"treasury","offset":0,"slot":"2","type":"t_address"},{"astId":695,"contract":"contracts/FeeDistributor.sol:FeeDistributor","label":"team","offset":0,"slot":"3","type":"t_address"},{"astId":697,"contract":"contracts/FeeDistributor.sol:FeeDistributor","label":"buybackPool","offset":0,"slot":"4","type":"t_address"},{"astId":700,"contract":"contracts/FeeDistributor.sol:FeeDistributor","label":"treasuryShare","offset":0,"slot":"5","type":"t_uint256"},{"astId":703,"contract":"contracts/FeeDistributor.sol:FeeDistributor","label":"teamShare","offset":0,"slot":"6","type":"t_uint256"},{"astId":706,"contract":"contracts/FeeDistributor.sol:FeeDistributor","label":"buybackShare","offset":0,"slot":"7","type":"t_uint256"},{"astId":708,"contract":"contracts/FeeDistributor.sol:FeeDistributor","label":"distributionPaused","offset":0,"slot":"8","type":"t_bool"}],"types":{"t_address":{"encoding":"inplace","label":"address","numberOfBytes":"20"},"t_bool":{"encoding":"inplace","label":"bool","numberOfBytes":"1"},"t_uint256":{"encoding":"inplace","label":"uint256","numberOfBytes":"32"}}}}}}