{"contracts/IMALIStaking.sol":{"IMALIStaking":{"abi":[{"inputs":[{"internalType":"address","name":"_imaliToken","type":"address"},{"internalType":"address","name":"_lpToken","type":"address"},{"internalType":"address","name":"_nftContract","type":"address"},{"internalType":"address","name":"_feeRecipient","type":"address"}],"stateMutability":"nonpayable","type":"constructor"},{"anonymous":false,"inputs":[{"indexed":false,"internalType":"bool","name":"paused","type":"bool"}],"name":"EmergencyPaused","type":"event"},{"anonymous":false,"inputs":[{"indexed":true,"internalType":"address","name":"previousOwner","type":"address"},{"indexed":true,"internalType":"address","name":"newOwner","type":"address"}],"name":"OwnershipTransferred","type":"event"},{"anonymous":false,"inputs":[{"indexed":true,"internalType":"address","name":"user","type":"address"},{"indexed":false,"internalType":"uint256","name":"reward","type":"uint256"}],"name":"RewardClaimed","type":"event"},{"anonymous":false,"inputs":[{"indexed":true,"internalType":"address","name":"user","type":"address"},{"indexed":false,"internalType":"bool","name":"isIMALI","type":"bool"},{"indexed":false,"internalType":"uint256","name":"amount","type":"uint256"},{"indexed":false,"internalType":"uint256","name":"fee","type":"uint256"}],"name":"Staked","type":"event"},{"anonymous":false,"inputs":[{"indexed":true,"internalType":"address","name":"user","type":"address"},{"indexed":false,"internalType":"bool","name":"isIMALI","type":"bool"},{"indexed":false,"internalType":"uint256","name":"amount","type":"uint256"},{"indexed":false,"internalType":"uint256","name":"fee","type":"uint256"}],"name":"Unstaked","type":"event"},{"inputs":[],"name":"MAX_FEE","outputs":[{"internalType":"uint256","name":"","type":"uint256"}],"stateMutability":"view","type":"function"},{"inputs":[],"name":"claimRewards","outputs":[],"stateMutability":"nonpayable","type":"function"},{"inputs":[],"name":"emergencyPaused","outputs":[{"internalType":"bool","name":"","type":"bool"}],"stateMutability":"view","type":"function"},{"inputs":[],"name":"feeRecipient","outputs":[{"internalType":"address","name":"","type":"address"}],"stateMutability":"view","type":"function"},{"inputs":[],"name":"imaliRewardRate","outputs":[{"internalType":"uint256","name":"","type":"uint256"}],"stateMutability":"view","type":"function"},{"inputs":[{"internalType":"address","name":"","type":"address"}],"name":"imaliStakers","outputs":[{"internalType":"uint256","name":"amount","type":"uint256"},{"internalType":"uint256","name":"lastUpdated","type":"uint256"},{"internalType":"uint256","name":"rewards","type":"uint256"},{"internalType":"uint256","name":"rewardMultiplier","type":"uint256"}],"stateMutability":"view","type":"function"},{"inputs":[],"name":"imaliToken","outputs":[{"internalType":"contract IERC20","name":"","type":"address"}],"stateMutability":"view","type":"function"},{"inputs":[],"name":"lpRewardRate","outputs":[{"internalType":"uint256","name":"","type":"uint256"}],"stateMutability":"view","type":"function"},{"inputs":[{"internalType":"address","name":"","type":"address"}],"name":"lpStakers","outputs":[{"internalType":"uint256","name":"amount","type":"uint256"},{"internalType":"uint256","name":"lastUpdated","type":"uint256"},{"internalType":"uint256","name":"rewards","type":"uint256"},{"internalType":"uint256","name":"rewardMultiplier","type":"uint256"}],"stateMutability":"view","type":"function"},{"inputs":[],"name":"lpToken","outputs":[{"internalType":"contract IERC20","name":"","type":"address"}],"stateMutability":"view","type":"function"},{"inputs":[],"name":"nftContract","outputs":[{"internalType":"contract IERC721","name":"","type":"address"}],"stateMutability":"view","type":"function"},{"inputs":[{"internalType":"uint256","name":"","type":"uint256"}],"name":"nftTierMultipliers","outputs":[{"internalType":"uint256","name":"","type":"uint256"}],"stateMutability":"view","type":"function"},{"inputs":[],"name":"owner","outputs":[{"internalType":"address","name":"","type":"address"}],"stateMutability":"view","type":"function"},{"inputs":[{"internalType":"address","name":"tokenAddress","type":"address"},{"internalType":"uint256","name":"amount","type":"uint256"}],"name":"recoverERC20","outputs":[],"stateMutability":"nonpayable","type":"function"},{"inputs":[],"name":"renounceOwnership","outputs":[],"stateMutability":"nonpayable","type":"function"},{"inputs":[{"internalType":"bool","name":"paused","type":"bool"}],"name":"setEmergencyPause","outputs":[],"stateMutability":"nonpayable","type":"function"},{"inputs":[{"internalType":"address","name":"_feeRecipient","type":"address"}],"name":"setFeeRecipient","outputs":[],"stateMutability":"nonpayable","type":"function"},{"inputs":[{"internalType":"uint256[]","name":"nftIds","type":"uint256[]"},{"internalType":"uint256[]","name":"multipliers","type":"uint256[]"}],"name":"setNFTMultipliers","outputs":[],"stateMutability":"nonpayable","type":"function"},{"inputs":[{"internalType":"uint256","name":"amount","type":"uint256"},{"internalType":"uint256[]","name":"nftIds","type":"uint256[]"}],"name":"stakeIMALI","outputs":[],"stateMutability":"nonpayable","type":"function"},{"inputs":[{"internalType":"uint256","name":"amount","type":"uint256"},{"internalType":"uint256[]","name":"nftIds","type":"uint256[]"}],"name":"stakeLP","outputs":[],"stateMutability":"nonpayable","type":"function"},{"inputs":[{"internalType":"address","name":"newOwner","type":"address"}],"name":"transferOwnership","outputs":[],"stateMutability":"nonpayable","type":"function"},{"inputs":[{"internalType":"uint256","name":"amount","type":"uint256"}],"name":"unstakeIMALI","outputs":[],"stateMutability":"nonpayable","type":"function"},{"inputs":[{"internalType":"uint256","name":"amount","type":"uint256"}],"name":"unstakeLP","outputs":[],"stateMutability":"nonpayable","type":"function"},{"inputs":[{"internalType":"address","name":"","type":"address"}],"name":"userBoostMultiplier","outputs":[{"internalType":"uint256","name":"","type":"uint256"}],"stateMutability":"view","type":"function"}],"evm":{"bytecode":{"linkReferences":{},"object":"60e0604052603260065560646007553480156200001b57600080fd5b5060405162001a1038038062001a108339810160408190526200003e9162000245565b6200004933620001d8565b600180556001600160a01b038416620000a95760405162461bcd60e51b815260206004820152601360248201527f496e76616c696420494d414c4920746f6b656e0000000000000000000000000060448201526064015b60405180910390fd5b6001600160a01b038316620000f45760405162461bcd60e51b815260206004820152601060248201526f24b73b30b634b2102628103a37b5b2b760811b6044820152606401620000a0565b6001600160a01b0382166200014c5760405162461bcd60e51b815260206004820152601460248201527f496e76616c6964204e465420636f6e74726163740000000000000000000000006044820152606401620000a0565b6001600160a01b038116620001a45760405162461bcd60e51b815260206004820152601560248201527f496e76616c69642066656520726563697069656e7400000000000000000000006044820152606401620000a0565b6001600160a01b0393841660805291831660a052821660c052600880546001600160a01b03191691909216179055620002a2565b600080546001600160a01b038381166001600160a01b0319831681178455604051919092169283917f8be0079c531659141344cd1fd0a4f28419497f9722a3daafe3b4186f6b6457e09190a35050565b80516001600160a01b03811681146200024057600080fd5b919050565b600080600080608085870312156200025c57600080fd5b620002678562000228565b9350620002776020860162000228565b9250620002876040860162000228565b9150620002976060860162000228565b905092959194509250565b60805160a05160c0516117066200030a600039600081816102fe015261126c0152600081816102270152818161077f01528181610c5b0152610fef01526000818161034b015281816105aa0152818161074201528181610c81015261101501526117066000f3fe608060405234801561001057600080fd5b50600436106101585760003560e01c8063acc36319116100c3578063d8d1a6571161007c578063d8d1a65714610333578063e311fd0a14610346578063e74b981b1461036d578063f240a55814610380578063f2fde38b146103a0578063fb9c19ea146103b357600080fd5b8063acc363191461027e578063b2bac3cf14610287578063bc063e1a146102de578063c4778998146102e6578063d56d229d146102f9578063d87a8b8e1461032057600080fd5b80635065547f116101155780635065547f1461020f5780635fcbd28514610222578063715018a6146102495780638162bff4146102515780638980f11f1461025a5780638da5cb5b1461026d57600080fd5b80630eae0c221461015d57806327c830a914610172578063372500ab1461019b5780633a2cc05f146101a357806346904840146101d1578063499a586b146101fc575b600080fd5b61017061016b366004611476565b6103ea565b005b60085461018690600160a01b900460ff1681565b60405190151581526020015b60405180910390f35b6101706104ae565b6101c36101b13660046114da565b60046020526000908152604090205481565b604051908152602001610192565b6008546101e4906001600160a01b031681565b6040516001600160a01b039091168152602001610192565b61017061020a3660046114f3565b61069d565b61017061021d3660046114f3565b6106e8565b6101e47f000000000000000000000000000000000000000000000000000000000000000081565b610170610726565b6101c360065481565b610170610268366004611545565b610738565b6000546001600160a01b03166101e4565b6101c360075481565b6102be610295366004611571565b600260208190526000918252604090912080546001820154928201546003909201549092919084565b604080519485526020850193909352918301526060820152608001610192565b6101c3600a81565b6101706102f43660046114da565b610892565b6101e47f000000000000000000000000000000000000000000000000000000000000000081565b61017061032e3660046114da565b6108db565b6101706103413660046115a3565b610918565b6101e47f000000000000000000000000000000000000000000000000000000000000000081565b61017061037b366004611571565b610978565b6101c361038e366004611571565b60056020526000908152604090205481565b6101706103ae366004611571565b6109ea565b6102be6103c1366004611571565b600360208190526000918252604090912080546001820154600283015492909301549092919084565b6103f2610a60565b80518251146104405760405162461bcd60e51b8152602060048201526015602482015274082e4e4c2f240d8cadccee8d040dad2e6dac2e8c6d605b1b60448201526064015b60405180910390fd5b60005b82518110156104a95781818151811061045e5761045e6115c0565b60200260200101516004600085848151811061047c5761047c6115c0565b602002602001015181526020019081526020016000208190555080806104a1906115ec565b915050610443565b505050565b6104b6610aba565b600854600160a01b900460ff16156104e05760405162461bcd60e51b815260040161043790611605565b6104eb336001610b13565b6104f6336000610b13565b3360009081526003602090815260408083206002908101549281905290832001546105219190611631565b9050600081116105605760405162461bcd60e51b815260206004820152600a6024820152694e6f207265776172647360b01b6044820152606401610437565b33600081815260026020818152604080842083018490556003909152808320909101919091555163a9059cbb60e01b81526004810191909152602481018290526001600160a01b037f0000000000000000000000000000000000000000000000000000000000000000169063a9059cbb906044016020604051808303816000875af11580156105f3573d6000803e3d6000fd5b505050506040513d601f19601f82011682018060405250810190610617919061164a565b61065c5760405162461bcd60e51b815260206004820152601660248201527514995dd85c99081d1c985b9cd9995c8819985a5b195960521b6044820152606401610437565b60405181815233907f106f923f993c2149d49b4255ff723acafa1f2d94393f561d3eda32ae348f72419060200160405180910390a25061069b60018055565b565b6106a5610aba565b600854600160a01b900460ff16156106cf5760405162461bcd60e51b815260040161043790611605565b6106db82826000610c0d565b6106e460018055565b5050565b6106f0610aba565b600854600160a01b900460ff161561071a5760405162461bcd60e51b815260040161043790611605565b6106db82826001610c0d565b61072e610a60565b61069b6000610f11565b610740610a60565b7f00000000000000000000000000000000000000000000000000000000000000006001600160a01b0316826001600160a01b0316141580156107b457507f00000000000000000000000000000000000000000000000000000000000000006001600160a01b0316826001600160a01b031614155b6108005760405162461bcd60e51b815260206004820152601c60248201527f43616e6e6f74207265636f766572207374616b656420746f6b656e73000000006044820152606401610437565b816001600160a01b031663a9059cbb6108216000546001600160a01b031690565b6040516001600160e01b031960e084901b1681526001600160a01b039091166004820152602481018490526044016020604051808303816000875af115801561086e573d6000803e3d6000fd5b505050506040513d601f19601f820116820180604052508101906104a9919061164a565b61089a610aba565b600854600160a01b900460ff16156108c45760405162461bcd60e51b815260040161043790611605565b6108cf816000610f61565b6108d860018055565b50565b6108e3610aba565b600854600160a01b900460ff161561090d5760405162461bcd60e51b815260040161043790611605565b6108cf816001610f61565b610920610a60565b60088054821515600160a01b0260ff60a01b199091161790556040517f228f455d7bc3d0b24a3a08d7847f391c3e78fc8aeb83acf226b7a96ee162b8ac9061096d90831515815260200190565b60405180910390a150565b610980610a60565b6001600160a01b0381166109c85760405162461bcd60e51b815260206004820152600f60248201526e496e76616c6964206164647265737360881b6044820152606401610437565b600880546001600160a01b0319166001600160a01b0392909216919091179055565b6109f2610a60565b6001600160a01b038116610a575760405162461bcd60e51b815260206004820152602660248201527f4f776e61626c653a206e6577206f776e657220697320746865207a65726f206160448201526564647265737360d01b6064820152608401610437565b6108d881610f11565b6000546001600160a01b0316331461069b5760405162461bcd60e51b815260206004820181905260248201527f4f776e61626c653a2063616c6c6572206973206e6f7420746865206f776e65726044820152606401610437565b600260015403610b0c5760405162461bcd60e51b815260206004820152601f60248201527f5265656e7472616e637947756172643a207265656e7472616e742063616c6c006044820152606401610437565b6002600155565b600081610b37576001600160a01b0383166000908152600360205260409020610b50565b6001600160a01b03831660009081526002602052604090205b9050600082610b6157600754610b65565b6006545b825490915015610c01576000826001015442610b819190611667565b905060006201518082848660000154610b9a919061167a565b610ba4919061167a565b610bae9190611691565b6001600160a01b03871660009081526005602052604081205491925090606490610bd8908461167a565b610be29190611691565b905080856002016000828254610bf89190611631565b90915550505050505b50426001909101555050565b60008311610c525760405162461bcd60e51b81526020600482015260126024820152710416d6f756e74206d757374206265203e20360741b6044820152606401610437565b600081610c7f577f0000000000000000000000000000000000000000000000000000000000000000610ca1565b7f00000000000000000000000000000000000000000000000000000000000000005b9050600082610cb1576005610cb4565b60035b60ff16905060006064610cc7838861167a565b610cd19190611691565b90506000610cdf8288611667565b6008546040516323b872dd60e01b81523360048201526001600160a01b039182166024820152604481018590529192508516906323b872dd906064016020604051808303816000875af1158015610d3a573d6000803e3d6000fd5b505050506040513d601f19601f82011682018060405250810190610d5e919061164a565b610da05760405162461bcd60e51b8152602060048201526013602482015272119959481d1c985b9cd9995c8819985a5b1959606a1b6044820152606401610437565b6040516323b872dd60e01b8152336004820152306024820152604481018290526001600160a01b038516906323b872dd906064016020604051808303816000875af1158015610df3573d6000803e3d6000fd5b505050506040513d601f19601f82011682018060405250810190610e17919061164a565b610e5b5760405162461bcd60e51b815260206004820152601560248201527414dd185ad9481d1c985b9cd9995c8819985a5b1959605a1b6044820152606401610437565b610e653386610b13565b855115610e7657610e763387611252565b600085610e9157336000908152600360205260409020610ea1565b3360009081526002602052604090205b905081816000016000828254610eb79190611631565b90915550504260018201556040805187151581526020810184905290810184905233907f32e9f3a248532fff6963435691938b457568b3b1bc8826c101d2fdb9d020f1b09060600160405180910390a25050505050505050565b600080546001600160a01b038381166001600160a01b0319831681178455604051919092169283917f8be0079c531659141344cd1fd0a4f28419497f9722a3daafe3b4186f6b6457e09190a35050565b600081610f7c57336000908152600360205260409020610f8c565b3360009081526002602052604090205b9050600083118015610f9f575080548311155b610fdc5760405162461bcd60e51b815260206004820152600e60248201526d125b9d985b1a5908185b5bdd5b9d60921b6044820152606401610437565b610fe63383610b13565b600082611013577f0000000000000000000000000000000000000000000000000000000000000000611035565b7f00000000000000000000000000000000000000000000000000000000000000005b9050600083611045576005611048565b60035b60ff1690506000606461105b838861167a565b6110659190611691565b905060006110738288611667565b9050868560000160008282546110899190611667565b909155505060085460405163a9059cbb60e01b81526001600160a01b039182166004820152602481018490529085169063a9059cbb906044016020604051808303816000875af11580156110e1573d6000803e3d6000fd5b505050506040513d601f19601f82011682018060405250810190611105919061164a565b6111475760405162461bcd60e51b8152602060048201526013602482015272119959481d1c985b9cd9995c8819985a5b1959606a1b6044820152606401610437565b60405163a9059cbb60e01b8152336004820152602481018290526001600160a01b0385169063a9059cbb906044016020604051808303816000875af1158015611194573d6000803e3d6000fd5b505050506040513d601f19601f820116820180604052508101906111b8919061164a565b6112045760405162461bcd60e51b815260206004820152601760248201527f556e7374616b65207472616e73666572206661696c65640000000000000000006044820152606401610437565b6040805187151581526020810183905290810183905233907ff9ecbeb7f88eca00d9305e9268ecb22701fca32f07993500ba89c9c955d0d1a49060600160405180910390a250505050505050565b606460005b82518110156113a457836001600160a01b03167f00000000000000000000000000000000000000000000000000000000000000006001600160a01b0316636352211e8584815181106112ab576112ab6115c0565b60200260200101516040518263ffffffff1660e01b81526004016112d191815260200190565b602060405180830381865afa1580156112ee573d6000803e3d6000fd5b505050506040513d601f19601f8201168201806040525081019061131291906116b3565b6001600160a01b0316146113585760405162461bcd60e51b815260206004820152600d60248201526c2737ba1027232a1037bbb732b960991b6044820152606401610437565b6004600084838151811061136e5761136e6115c0565b6020026020010151815260200190815260200160002054826113909190611631565b91508061139c816115ec565b915050611257565b506001600160a01b0390921660009081526005602052604090209190915550565b634e487b7160e01b600052604160045260246000fd5b600082601f8301126113ec57600080fd5b8135602067ffffffffffffffff80831115611409576114096113c5565b8260051b604051601f19603f8301168101818110848211171561142e5761142e6113c5565b60405293845285810183019383810192508785111561144c57600080fd5b83870191505b8482101561146b57813583529183019190830190611452565b979650505050505050565b6000806040838503121561148957600080fd5b823567ffffffffffffffff808211156114a157600080fd5b6114ad868387016113db565b935060208501359150808211156114c357600080fd5b506114d0858286016113db565b9150509250929050565b6000602082840312156114ec57600080fd5b5035919050565b6000806040838503121561150657600080fd5b82359150602083013567ffffffffffffffff81111561152457600080fd5b6114d0858286016113db565b6001600160a01b03811681146108d857600080fd5b6000806040838503121561155857600080fd5b823561156381611530565b946020939093013593505050565b60006020828403121561158357600080fd5b813561158e81611530565b9392505050565b80151581146108d857600080fd5b6000602082840312156115b557600080fd5b813561158e81611595565b634e487b7160e01b600052603260045260246000fd5b634e487b7160e01b600052601160045260246000fd5b6000600182016115fe576115fe6115d6565b5060010190565b60208082526012908201527110dbdb9d1c9858dd081a5cc81c185d5cd95960721b604082015260600190565b80820180821115611644576116446115d6565b92915050565b60006020828403121561165c57600080fd5b815161158e81611595565b81810381811115611644576116446115d6565b8082028115828204841417611644576116446115d6565b6000826116ae57634e487b7160e01b600052601260045260246000fd5b500490565b6000602082840312156116c557600080fd5b815161158e8161153056fea2646970667358221220d5d4883caf1c2cd646f3fc20ce078dadf5e375902bc0678edfc1eb41949518ec64736f6c63430008140033","opcodes":"PUSH1 0xE0 PUSH1 0x40 MSTORE PUSH1 0x32 PUSH1 0x6 SSTORE PUSH1 0x64 PUSH1 0x7 SSTORE CALLVALUE DUP1 ISZERO PUSH3 0x1B JUMPI PUSH1 0x0 DUP1 REVERT JUMPDEST POP PUSH1 0x40 MLOAD PUSH3 0x1A10 CODESIZE SUB DUP1 PUSH3 0x1A10 DUP4 CODECOPY DUP2 ADD PUSH1 0x40 DUP2 SWAP1 MSTORE PUSH3 0x3E SWAP2 PUSH3 0x245 JUMP JUMPDEST PUSH3 0x49 CALLER PUSH3 0x1D8 JUMP JUMPDEST PUSH1 0x1 DUP1 SSTORE PUSH1 0x1 PUSH1 0x1 PUSH1 0xA0 SHL SUB DUP5 AND PUSH3 0xA9 JUMPI PUSH1 0x40 MLOAD PUSH3 0x461BCD PUSH1 0xE5 SHL DUP2 MSTORE PUSH1 0x20 PUSH1 0x4 DUP3 ADD MSTORE PUSH1 0x13 PUSH1 0x24 DUP3 ADD MSTORE PUSH32 0x496E76616C696420494D414C4920746F6B656E00000000000000000000000000 PUSH1 0x44 DUP3 ADD MSTORE PUSH1 0x64 ADD JUMPDEST PUSH1 0x40 MLOAD DUP1 SWAP2 SUB SWAP1 REVERT JUMPDEST PUSH1 0x1 PUSH1 0x1 PUSH1 0xA0 SHL SUB DUP4 AND PUSH3 0xF4 JUMPI PUSH1 0x40 MLOAD PUSH3 0x461BCD PUSH1 0xE5 SHL DUP2 MSTORE PUSH1 0x20 PUSH1 0x4 DUP3 ADD MSTORE PUSH1 0x10 PUSH1 0x24 DUP3 ADD MSTORE PUSH16 0x24B73B30B634B2102628103A37B5B2B7 PUSH1 0x81 SHL PUSH1 0x44 DUP3 ADD MSTORE PUSH1 0x64 ADD PUSH3 0xA0 JUMP JUMPDEST PUSH1 0x1 PUSH1 0x1 PUSH1 0xA0 SHL SUB DUP3 AND PUSH3 0x14C JUMPI PUSH1 0x40 MLOAD PUSH3 0x461BCD PUSH1 0xE5 SHL DUP2 MSTORE PUSH1 0x20 PUSH1 0x4 DUP3 ADD MSTORE PUSH1 0x14 PUSH1 0x24 DUP3 ADD MSTORE PUSH32 0x496E76616C6964204E465420636F6E7472616374000000000000000000000000 PUSH1 0x44 DUP3 ADD MSTORE PUSH1 0x64 ADD PUSH3 0xA0 JUMP JUMPDEST PUSH1 0x1 PUSH1 0x1 PUSH1 0xA0 SHL SUB DUP2 AND PUSH3 0x1A4 JUMPI PUSH1 0x40 MLOAD PUSH3 0x461BCD PUSH1 0xE5 SHL DUP2 MSTORE PUSH1 0x20 PUSH1 0x4 DUP3 ADD MSTORE PUSH1 0x15 PUSH1 0x24 DUP3 ADD MSTORE PUSH32 0x496E76616C69642066656520726563697069656E740000000000000000000000 PUSH1 0x44 DUP3 ADD MSTORE PUSH1 0x64 ADD PUSH3 0xA0 JUMP JUMPDEST PUSH1 0x1 PUSH1 0x1 PUSH1 0xA0 SHL SUB SWAP4 DUP5 AND PUSH1 0x80 MSTORE SWAP2 DUP4 AND PUSH1 0xA0 MSTORE DUP3 AND PUSH1 0xC0 MSTORE PUSH1 0x8 DUP1 SLOAD PUSH1 0x1 PUSH1 0x1 PUSH1 0xA0 SHL SUB NOT AND SWAP2 SWAP1 SWAP3 AND OR SWAP1 SSTORE PUSH3 0x2A2 JUMP JUMPDEST PUSH1 0x0 DUP1 SLOAD PUSH1 0x1 PUSH1 0x1 PUSH1 0xA0 SHL SUB DUP4 DUP2 AND PUSH1 0x1 PUSH1 0x1 PUSH1 0xA0 SHL SUB NOT DUP4 AND DUP2 OR DUP5 SSTORE PUSH1 0x40 MLOAD SWAP2 SWAP1 SWAP3 AND SWAP3 DUP4 SWAP2 PUSH32 0x8BE0079C531659141344CD1FD0A4F28419497F9722A3DAAFE3B4186F6B6457E0 SWAP2 SWAP1 LOG3 POP POP JUMP JUMPDEST DUP1 MLOAD PUSH1 0x1 PUSH1 0x1 PUSH1 0xA0 SHL SUB DUP2 AND DUP2 EQ PUSH3 0x240 JUMPI PUSH1 0x0 DUP1 REVERT JUMPDEST SWAP2 SWAP1 POP JUMP JUMPDEST PUSH1 0x0 DUP1 PUSH1 0x0 DUP1 PUSH1 0x80 DUP6 DUP8 SUB SLT ISZERO PUSH3 0x25C JUMPI PUSH1 0x0 DUP1 REVERT JUMPDEST PUSH3 0x267 DUP6 PUSH3 0x228 JUMP JUMPDEST SWAP4 POP PUSH3 0x277 PUSH1 0x20 DUP7 ADD PUSH3 0x228 JUMP JUMPDEST SWAP3 POP PUSH3 0x287 PUSH1 0x40 DUP7 ADD PUSH3 0x228 JUMP JUMPDEST SWAP2 POP PUSH3 0x297 PUSH1 0x60 DUP7 ADD PUSH3 0x228 JUMP JUMPDEST SWAP1 POP SWAP3 SWAP6 SWAP2 SWAP5 POP SWAP3 POP JUMP JUMPDEST PUSH1 0x80 MLOAD PUSH1 0xA0 MLOAD PUSH1 0xC0 MLOAD PUSH2 0x1706 PUSH3 0x30A PUSH1 0x0 CODECOPY PUSH1 0x0 DUP2 DUP2 PUSH2 0x2FE ADD MSTORE PUSH2 0x126C ADD MSTORE PUSH1 0x0 DUP2 DUP2 PUSH2 0x227 ADD MSTORE DUP2 DUP2 PUSH2 0x77F ADD MSTORE DUP2 DUP2 PUSH2 0xC5B ADD MSTORE PUSH2 0xFEF ADD MSTORE PUSH1 0x0 DUP2 DUP2 PUSH2 0x34B ADD MSTORE DUP2 DUP2 PUSH2 0x5AA ADD MSTORE DUP2 DUP2 PUSH2 0x742 ADD MSTORE DUP2 DUP2 PUSH2 0xC81 ADD MSTORE PUSH2 0x1015 ADD MSTORE PUSH2 0x1706 PUSH1 0x0 RETURN INVALID PUSH1 0x80 PUSH1 0x40 MSTORE CALLVALUE DUP1 ISZERO PUSH2 0x10 JUMPI PUSH1 0x0 DUP1 REVERT JUMPDEST POP PUSH1 0x4 CALLDATASIZE LT PUSH2 0x158 JUMPI PUSH1 0x0 CALLDATALOAD PUSH1 0xE0 SHR DUP1 PUSH4 0xACC36319 GT PUSH2 0xC3 JUMPI DUP1 PUSH4 0xD8D1A657 GT PUSH2 0x7C JUMPI DUP1 PUSH4 0xD8D1A657 EQ PUSH2 0x333 JUMPI DUP1 PUSH4 0xE311FD0A EQ PUSH2 0x346 JUMPI DUP1 PUSH4 0xE74B981B EQ PUSH2 0x36D JUMPI DUP1 PUSH4 0xF240A558 EQ PUSH2 0x380 JUMPI DUP1 PUSH4 0xF2FDE38B EQ PUSH2 0x3A0 JUMPI DUP1 PUSH4 0xFB9C19EA EQ PUSH2 0x3B3 JUMPI PUSH1 0x0 DUP1 REVERT JUMPDEST DUP1 PUSH4 0xACC36319 EQ PUSH2 0x27E JUMPI DUP1 PUSH4 0xB2BAC3CF EQ PUSH2 0x287 JUMPI DUP1 PUSH4 0xBC063E1A EQ PUSH2 0x2DE JUMPI DUP1 PUSH4 0xC4778998 EQ PUSH2 0x2E6 JUMPI DUP1 PUSH4 0xD56D229D EQ PUSH2 0x2F9 JUMPI DUP1 PUSH4 0xD87A8B8E EQ PUSH2 0x320 JUMPI PUSH1 0x0 DUP1 REVERT JUMPDEST DUP1 PUSH4 0x5065547F GT PUSH2 0x115 JUMPI DUP1 PUSH4 0x5065547F EQ PUSH2 0x20F JUMPI DUP1 PUSH4 0x5FCBD285 EQ PUSH2 0x222 JUMPI DUP1 PUSH4 0x715018A6 EQ PUSH2 0x249 JUMPI DUP1 PUSH4 0x8162BFF4 EQ PUSH2 0x251 JUMPI DUP1 PUSH4 0x8980F11F EQ PUSH2 0x25A JUMPI DUP1 PUSH4 0x8DA5CB5B EQ PUSH2 0x26D JUMPI PUSH1 0x0 DUP1 REVERT JUMPDEST DUP1 PUSH4 0xEAE0C22 EQ PUSH2 0x15D JUMPI DUP1 PUSH4 0x27C830A9 EQ PUSH2 0x172 JUMPI DUP1 PUSH4 0x372500AB EQ PUSH2 0x19B JUMPI DUP1 PUSH4 0x3A2CC05F EQ PUSH2 0x1A3 JUMPI DUP1 PUSH4 0x46904840 EQ PUSH2 0x1D1 JUMPI DUP1 PUSH4 0x499A586B EQ PUSH2 0x1FC JUMPI JUMPDEST PUSH1 0x0 DUP1 REVERT JUMPDEST PUSH2 0x170 PUSH2 0x16B CALLDATASIZE PUSH1 0x4 PUSH2 0x1476 JUMP JUMPDEST PUSH2 0x3EA JUMP JUMPDEST STOP JUMPDEST PUSH1 0x8 SLOAD PUSH2 0x186 SWAP1 PUSH1 0x1 PUSH1 0xA0 SHL SWAP1 DIV PUSH1 0xFF AND DUP2 JUMP JUMPDEST PUSH1 0x40 MLOAD SWAP1 ISZERO ISZERO DUP2 MSTORE PUSH1 0x20 ADD JUMPDEST PUSH1 0x40 MLOAD DUP1 SWAP2 SUB SWAP1 RETURN JUMPDEST PUSH2 0x170 PUSH2 0x4AE JUMP JUMPDEST PUSH2 0x1C3 PUSH2 0x1B1 CALLDATASIZE PUSH1 0x4 PUSH2 0x14DA JUMP JUMPDEST PUSH1 0x4 PUSH1 0x20 MSTORE PUSH1 0x0 SWAP1 DUP2 MSTORE PUSH1 0x40 SWAP1 KECCAK256 SLOAD DUP2 JUMP JUMPDEST PUSH1 0x40 MLOAD SWAP1 DUP2 MSTORE PUSH1 0x20 ADD PUSH2 0x192 JUMP JUMPDEST PUSH1 0x8 SLOAD PUSH2 0x1E4 SWAP1 PUSH1 0x1 PUSH1 0x1 PUSH1 0xA0 SHL SUB AND DUP2 JUMP JUMPDEST PUSH1 0x40 MLOAD PUSH1 0x1 PUSH1 0x1 PUSH1 0xA0 SHL SUB SWAP1 SWAP2 AND DUP2 MSTORE PUSH1 0x20 ADD PUSH2 0x192 JUMP JUMPDEST PUSH2 0x170 PUSH2 0x20A CALLDATASIZE PUSH1 0x4 PUSH2 0x14F3 JUMP JUMPDEST PUSH2 0x69D JUMP JUMPDEST PUSH2 0x170 PUSH2 0x21D CALLDATASIZE PUSH1 0x4 PUSH2 0x14F3 JUMP JUMPDEST PUSH2 0x6E8 JUMP JUMPDEST PUSH2 0x1E4 PUSH32 0x0 DUP2 JUMP JUMPDEST PUSH2 0x170 PUSH2 0x726 JUMP JUMPDEST PUSH2 0x1C3 PUSH1 0x6 SLOAD DUP2 JUMP JUMPDEST PUSH2 0x170 PUSH2 0x268 CALLDATASIZE PUSH1 0x4 PUSH2 0x1545 JUMP JUMPDEST PUSH2 0x738 JUMP JUMPDEST PUSH1 0x0 SLOAD PUSH1 0x1 PUSH1 0x1 PUSH1 0xA0 SHL SUB AND PUSH2 0x1E4 JUMP JUMPDEST PUSH2 0x1C3 PUSH1 0x7 SLOAD DUP2 JUMP JUMPDEST PUSH2 0x2BE PUSH2 0x295 CALLDATASIZE PUSH1 0x4 PUSH2 0x1571 JUMP JUMPDEST PUSH1 0x2 PUSH1 0x20 DUP2 SWAP1 MSTORE PUSH1 0x0 SWAP2 DUP3 MSTORE PUSH1 0x40 SWAP1 SWAP2 KECCAK256 DUP1 SLOAD PUSH1 0x1 DUP3 ADD SLOAD SWAP3 DUP3 ADD SLOAD PUSH1 0x3 SWAP1 SWAP3 ADD SLOAD SWAP1 SWAP3 SWAP2 SWAP1 DUP5 JUMP JUMPDEST PUSH1 0x40 DUP1 MLOAD SWAP5 DUP6 MSTORE PUSH1 0x20 DUP6 ADD SWAP4 SWAP1 SWAP4 MSTORE SWAP2 DUP4 ADD MSTORE PUSH1 0x60 DUP3 ADD MSTORE PUSH1 0x80 ADD PUSH2 0x192 JUMP JUMPDEST PUSH2 0x1C3 PUSH1 0xA DUP2 JUMP JUMPDEST PUSH2 0x170 PUSH2 0x2F4 CALLDATASIZE PUSH1 0x4 PUSH2 0x14DA JUMP JUMPDEST PUSH2 0x892 JUMP JUMPDEST PUSH2 0x1E4 PUSH32 0x0 DUP2 JUMP JUMPDEST PUSH2 0x170 PUSH2 0x32E CALLDATASIZE PUSH1 0x4 PUSH2 0x14DA JUMP JUMPDEST PUSH2 0x8DB JUMP JUMPDEST PUSH2 0x170 PUSH2 0x341 CALLDATASIZE PUSH1 0x4 PUSH2 0x15A3 JUMP JUMPDEST PUSH2 0x918 JUMP JUMPDEST PUSH2 0x1E4 PUSH32 0x0 DUP2 JUMP JUMPDEST PUSH2 0x170 PUSH2 0x37B CALLDATASIZE PUSH1 0x4 PUSH2 0x1571 JUMP JUMPDEST PUSH2 0x978 JUMP JUMPDEST PUSH2 0x1C3 PUSH2 0x38E CALLDATASIZE PUSH1 0x4 PUSH2 0x1571 JUMP JUMPDEST PUSH1 0x5 PUSH1 0x20 MSTORE PUSH1 0x0 SWAP1 DUP2 MSTORE PUSH1 0x40 SWAP1 KECCAK256 SLOAD DUP2 JUMP JUMPDEST PUSH2 0x170 PUSH2 0x3AE CALLDATASIZE PUSH1 0x4 PUSH2 0x1571 JUMP JUMPDEST PUSH2 0x9EA JUMP JUMPDEST PUSH2 0x2BE PUSH2 0x3C1 CALLDATASIZE PUSH1 0x4 PUSH2 0x1571 JUMP JUMPDEST PUSH1 0x3 PUSH1 0x20 DUP2 SWAP1 MSTORE PUSH1 0x0 SWAP2 DUP3 MSTORE PUSH1 0x40 SWAP1 SWAP2 KECCAK256 DUP1 SLOAD PUSH1 0x1 DUP3 ADD SLOAD PUSH1 0x2 DUP4 ADD SLOAD SWAP3 SWAP1 SWAP4 ADD SLOAD SWAP1 SWAP3 SWAP2 SWAP1 DUP5 JUMP JUMPDEST PUSH2 0x3F2 PUSH2 0xA60 JUMP JUMPDEST DUP1 MLOAD DUP3 MLOAD EQ PUSH2 0x440 JUMPI PUSH1 0x40 MLOAD PUSH3 0x461BCD PUSH1 0xE5 SHL DUP2 MSTORE PUSH1 0x20 PUSH1 0x4 DUP3 ADD MSTORE PUSH1 0x15 PUSH1 0x24 DUP3 ADD MSTORE PUSH21 0x82E4E4C2F240D8CADCCEE8D040DAD2E6DAC2E8C6D PUSH1 0x5B SHL PUSH1 0x44 DUP3 ADD MSTORE PUSH1 0x64 ADD JUMPDEST PUSH1 0x40 MLOAD DUP1 SWAP2 SUB SWAP1 REVERT JUMPDEST PUSH1 0x0 JUMPDEST DUP3 MLOAD DUP2 LT ISZERO PUSH2 0x4A9 JUMPI DUP2 DUP2 DUP2 MLOAD DUP2 LT PUSH2 0x45E JUMPI PUSH2 0x45E PUSH2 0x15C0 JUMP JUMPDEST PUSH1 0x20 MUL PUSH1 0x20 ADD ADD MLOAD PUSH1 0x4 PUSH1 0x0 DUP6 DUP5 DUP2 MLOAD DUP2 LT PUSH2 0x47C JUMPI PUSH2 0x47C PUSH2 0x15C0 JUMP JUMPDEST PUSH1 0x20 MUL PUSH1 0x20 ADD ADD MLOAD DUP2 MSTORE PUSH1 0x20 ADD SWAP1 DUP2 MSTORE PUSH1 0x20 ADD PUSH1 0x0 KECCAK256 DUP2 SWAP1 SSTORE POP DUP1 DUP1 PUSH2 0x4A1 SWAP1 PUSH2 0x15EC JUMP JUMPDEST SWAP2 POP POP PUSH2 0x443 JUMP JUMPDEST POP POP POP JUMP JUMPDEST PUSH2 0x4B6 PUSH2 0xABA JUMP JUMPDEST PUSH1 0x8 SLOAD PUSH1 0x1 PUSH1 0xA0 SHL SWAP1 DIV PUSH1 0xFF AND ISZERO PUSH2 0x4E0 JUMPI PUSH1 0x40 MLOAD PUSH3 0x461BCD PUSH1 0xE5 SHL DUP2 MSTORE PUSH1 0x4 ADD PUSH2 0x437 SWAP1 PUSH2 0x1605 JUMP JUMPDEST PUSH2 0x4EB CALLER PUSH1 0x1 PUSH2 0xB13 JUMP JUMPDEST PUSH2 0x4F6 CALLER PUSH1 0x0 PUSH2 0xB13 JUMP JUMPDEST CALLER PUSH1 0x0 SWAP1 DUP2 MSTORE PUSH1 0x3 PUSH1 0x20 SWAP1 DUP2 MSTORE PUSH1 0x40 DUP1 DUP4 KECCAK256 PUSH1 0x2 SWAP1 DUP2 ADD SLOAD SWAP3 DUP2 SWAP1 MSTORE SWAP1 DUP4 KECCAK256 ADD SLOAD PUSH2 0x521 SWAP2 SWAP1 PUSH2 0x1631 JUMP JUMPDEST SWAP1 POP PUSH1 0x0 DUP2 GT PUSH2 0x560 JUMPI PUSH1 0x40 MLOAD PUSH3 0x461BCD PUSH1 0xE5 SHL DUP2 MSTORE PUSH1 0x20 PUSH1 0x4 DUP3 ADD MSTORE PUSH1 0xA PUSH1 0x24 DUP3 ADD MSTORE PUSH10 0x4E6F2072657761726473 PUSH1 0xB0 SHL PUSH1 0x44 DUP3 ADD MSTORE PUSH1 0x64 ADD PUSH2 0x437 JUMP JUMPDEST CALLER PUSH1 0x0 DUP2 DUP2 MSTORE PUSH1 0x2 PUSH1 0x20 DUP2 DUP2 MSTORE PUSH1 0x40 DUP1 DUP5 KECCAK256 DUP4 ADD DUP5 SWAP1 SSTORE PUSH1 0x3 SWAP1 SWAP2 MSTORE DUP1 DUP4 KECCAK256 SWAP1 SWAP2 ADD SWAP2 SWAP1 SWAP2 SSTORE MLOAD PUSH4 0xA9059CBB PUSH1 0xE0 SHL DUP2 MSTORE PUSH1 0x4 DUP2 ADD SWAP2 SWAP1 SWAP2 MSTORE PUSH1 0x24 DUP2 ADD DUP3 SWAP1 MSTORE PUSH1 0x1 PUSH1 0x1 PUSH1 0xA0 SHL SUB PUSH32 0x0 AND SWAP1 PUSH4 0xA9059CBB SWAP1 PUSH1 0x44 ADD PUSH1 0x20 PUSH1 0x40 MLOAD DUP1 DUP4 SUB DUP2 PUSH1 0x0 DUP8 GAS CALL ISZERO DUP1 ISZERO PUSH2 0x5F3 JUMPI RETURNDATASIZE PUSH1 0x0 DUP1 RETURNDATACOPY RETURNDATASIZE PUSH1 0x0 REVERT JUMPDEST POP POP POP POP PUSH1 0x40 MLOAD RETURNDATASIZE PUSH1 0x1F NOT PUSH1 0x1F DUP3 ADD AND DUP3 ADD DUP1 PUSH1 0x40 MSTORE POP DUP2 ADD SWAP1 PUSH2 0x617 SWAP2 SWAP1 PUSH2 0x164A JUMP JUMPDEST PUSH2 0x65C JUMPI PUSH1 0x40 MLOAD PUSH3 0x461BCD PUSH1 0xE5 SHL DUP2 MSTORE PUSH1 0x20 PUSH1 0x4 DUP3 ADD MSTORE PUSH1 0x16 PUSH1 0x24 DUP3 ADD MSTORE PUSH22 0x14995DD85C99081D1C985B9CD9995C8819985A5B1959 PUSH1 0x52 SHL PUSH1 0x44 DUP3 ADD MSTORE PUSH1 0x64 ADD PUSH2 0x437 JUMP JUMPDEST PUSH1 0x40 MLOAD DUP2 DUP2 MSTORE CALLER SWAP1 PUSH32 0x106F923F993C2149D49B4255FF723ACAFA1F2D94393F561D3EDA32AE348F7241 SWAP1 PUSH1 0x20 ADD PUSH1 0x40 MLOAD DUP1 SWAP2 SUB SWAP1 LOG2 POP PUSH2 0x69B PUSH1 0x1 DUP1 SSTORE JUMP JUMPDEST JUMP JUMPDEST PUSH2 0x6A5 PUSH2 0xABA JUMP JUMPDEST PUSH1 0x8 SLOAD PUSH1 0x1 PUSH1 0xA0 SHL SWAP1 DIV PUSH1 0xFF AND ISZERO PUSH2 0x6CF JUMPI PUSH1 0x40 MLOAD PUSH3 0x461BCD PUSH1 0xE5 SHL DUP2 MSTORE PUSH1 0x4 ADD PUSH2 0x437 SWAP1 PUSH2 0x1605 JUMP JUMPDEST PUSH2 0x6DB DUP3 DUP3 PUSH1 0x0 PUSH2 0xC0D JUMP JUMPDEST PUSH2 0x6E4 PUSH1 0x1 DUP1 SSTORE JUMP JUMPDEST POP POP JUMP JUMPDEST PUSH2 0x6F0 PUSH2 0xABA JUMP JUMPDEST PUSH1 0x8 SLOAD PUSH1 0x1 PUSH1 0xA0 SHL SWAP1 DIV PUSH1 0xFF AND ISZERO PUSH2 0x71A JUMPI PUSH1 0x40 MLOAD PUSH3 0x461BCD PUSH1 0xE5 SHL DUP2 MSTORE PUSH1 0x4 ADD PUSH2 0x437 SWAP1 PUSH2 0x1605 JUMP JUMPDEST PUSH2 0x6DB DUP3 DUP3 PUSH1 0x1 PUSH2 0xC0D JUMP JUMPDEST PUSH2 0x72E PUSH2 0xA60 JUMP JUMPDEST PUSH2 0x69B PUSH1 0x0 PUSH2 0xF11 JUMP JUMPDEST PUSH2 0x740 PUSH2 0xA60 JUMP JUMPDEST PUSH32 0x0 PUSH1 0x1 PUSH1 0x1 PUSH1 0xA0 SHL SUB AND DUP3 PUSH1 0x1 PUSH1 0x1 PUSH1 0xA0 SHL SUB AND EQ ISZERO DUP1 ISZERO PUSH2 0x7B4 JUMPI POP PUSH32 0x0 PUSH1 0x1 PUSH1 0x1 PUSH1 0xA0 SHL SUB AND DUP3 PUSH1 0x1 PUSH1 0x1 PUSH1 0xA0 SHL SUB AND EQ ISZERO JUMPDEST PUSH2 0x800 JUMPI PUSH1 0x40 MLOAD PUSH3 0x461BCD PUSH1 0xE5 SHL DUP2 MSTORE PUSH1 0x20 PUSH1 0x4 DUP3 ADD MSTORE PUSH1 0x1C PUSH1 0x24 DUP3 ADD MSTORE PUSH32 0x43616E6E6F74207265636F766572207374616B656420746F6B656E7300000000 PUSH1 0x44 DUP3 ADD MSTORE PUSH1 0x64 ADD PUSH2 0x437 JUMP JUMPDEST DUP2 PUSH1 0x1 PUSH1 0x1 PUSH1 0xA0 SHL SUB AND PUSH4 0xA9059CBB PUSH2 0x821 PUSH1 0x0 SLOAD PUSH1 0x1 PUSH1 0x1 PUSH1 0xA0 SHL SUB AND SWAP1 JUMP JUMPDEST PUSH1 0x40 MLOAD PUSH1 0x1 PUSH1 0x1 PUSH1 0xE0 SHL SUB NOT PUSH1 0xE0 DUP5 SWAP1 SHL AND DUP2 MSTORE PUSH1 0x1 PUSH1 0x1 PUSH1 0xA0 SHL SUB SWAP1 SWAP2 AND PUSH1 0x4 DUP3 ADD MSTORE PUSH1 0x24 DUP2 ADD DUP5 SWAP1 MSTORE PUSH1 0x44 ADD PUSH1 0x20 PUSH1 0x40 MLOAD DUP1 DUP4 SUB DUP2 PUSH1 0x0 DUP8 GAS CALL ISZERO DUP1 ISZERO PUSH2 0x86E JUMPI RETURNDATASIZE PUSH1 0x0 DUP1 RETURNDATACOPY RETURNDATASIZE PUSH1 0x0 REVERT JUMPDEST POP POP POP POP PUSH1 0x40 MLOAD RETURNDATASIZE PUSH1 0x1F NOT PUSH1 0x1F DUP3 ADD AND DUP3 ADD DUP1 PUSH1 0x40 MSTORE POP DUP2 ADD SWAP1 PUSH2 0x4A9 SWAP2 SWAP1 PUSH2 0x164A JUMP JUMPDEST PUSH2 0x89A PUSH2 0xABA JUMP JUMPDEST PUSH1 0x8 SLOAD PUSH1 0x1 PUSH1 0xA0 SHL SWAP1 DIV PUSH1 0xFF AND ISZERO PUSH2 0x8C4 JUMPI PUSH1 0x40 MLOAD PUSH3 0x461BCD PUSH1 0xE5 SHL DUP2 MSTORE PUSH1 0x4 ADD PUSH2 0x437 SWAP1 PUSH2 0x1605 JUMP JUMPDEST PUSH2 0x8CF DUP2 PUSH1 0x0 PUSH2 0xF61 JUMP JUMPDEST PUSH2 0x8D8 PUSH1 0x1 DUP1 SSTORE JUMP JUMPDEST POP JUMP JUMPDEST PUSH2 0x8E3 PUSH2 0xABA JUMP JUMPDEST PUSH1 0x8 SLOAD PUSH1 0x1 PUSH1 0xA0 SHL SWAP1 DIV PUSH1 0xFF AND ISZERO PUSH2 0x90D JUMPI PUSH1 0x40 MLOAD PUSH3 0x461BCD PUSH1 0xE5 SHL DUP2 MSTORE PUSH1 0x4 ADD PUSH2 0x437 SWAP1 PUSH2 0x1605 JUMP JUMPDEST PUSH2 0x8CF DUP2 PUSH1 0x1 PUSH2 0xF61 JUMP JUMPDEST PUSH2 0x920 PUSH2 0xA60 JUMP JUMPDEST PUSH1 0x8 DUP1 SLOAD DUP3 ISZERO ISZERO PUSH1 0x1 PUSH1 0xA0 SHL MUL PUSH1 0xFF PUSH1 0xA0 SHL NOT SWAP1 SWAP2 AND OR SWAP1 SSTORE PUSH1 0x40 MLOAD PUSH32 0x228F455D7BC3D0B24A3A08D7847F391C3E78FC8AEB83ACF226B7A96EE162B8AC SWAP1 PUSH2 0x96D SWAP1 DUP4 ISZERO ISZERO DUP2 MSTORE PUSH1 0x20 ADD SWAP1 JUMP JUMPDEST PUSH1 0x40 MLOAD DUP1 SWAP2 SUB SWAP1 LOG1 POP JUMP JUMPDEST PUSH2 0x980 PUSH2 0xA60 JUMP JUMPDEST PUSH1 0x1 PUSH1 0x1 PUSH1 0xA0 SHL SUB DUP2 AND PUSH2 0x9C8 JUMPI PUSH1 0x40 MLOAD PUSH3 0x461BCD PUSH1 0xE5 SHL DUP2 MSTORE PUSH1 0x20 PUSH1 0x4 DUP3 ADD MSTORE PUSH1 0xF PUSH1 0x24 DUP3 ADD MSTORE PUSH15 0x496E76616C69642061646472657373 PUSH1 0x88 SHL PUSH1 0x44 DUP3 ADD MSTORE PUSH1 0x64 ADD PUSH2 0x437 JUMP JUMPDEST PUSH1 0x8 DUP1 SLOAD PUSH1 0x1 PUSH1 0x1 PUSH1 0xA0 SHL SUB NOT AND PUSH1 0x1 PUSH1 0x1 PUSH1 0xA0 SHL SUB SWAP3 SWAP1 SWAP3 AND SWAP2 SWAP1 SWAP2 OR SWAP1 SSTORE JUMP JUMPDEST PUSH2 0x9F2 PUSH2 0xA60 JUMP JUMPDEST PUSH1 0x1 PUSH1 0x1 PUSH1 0xA0 SHL SUB DUP2 AND PUSH2 0xA57 JUMPI PUSH1 0x40 MLOAD PUSH3 0x461BCD PUSH1 0xE5 SHL DUP2 MSTORE PUSH1 0x20 PUSH1 0x4 DUP3 ADD MSTORE PUSH1 0x26 PUSH1 0x24 DUP3 ADD MSTORE PUSH32 0x4F776E61626C653A206E6577206F776E657220697320746865207A65726F2061 PUSH1 0x44 DUP3 ADD MSTORE PUSH6 0x646472657373 PUSH1 0xD0 SHL PUSH1 0x64 DUP3 ADD MSTORE PUSH1 0x84 ADD PUSH2 0x437 JUMP JUMPDEST PUSH2 0x8D8 DUP2 PUSH2 0xF11 JUMP JUMPDEST PUSH1 0x0 SLOAD PUSH1 0x1 PUSH1 0x1 PUSH1 0xA0 SHL SUB AND CALLER EQ PUSH2 0x69B JUMPI PUSH1 0x40 MLOAD PUSH3 0x461BCD PUSH1 0xE5 SHL DUP2 MSTORE PUSH1 0x20 PUSH1 0x4 DUP3 ADD DUP2 SWAP1 MSTORE PUSH1 0x24 DUP3 ADD MSTORE PUSH32 0x4F776E61626C653A2063616C6C6572206973206E6F7420746865206F776E6572 PUSH1 0x44 DUP3 ADD MSTORE PUSH1 0x64 ADD PUSH2 0x437 JUMP JUMPDEST PUSH1 0x2 PUSH1 0x1 SLOAD SUB PUSH2 0xB0C JUMPI PUSH1 0x40 MLOAD PUSH3 0x461BCD PUSH1 0xE5 SHL DUP2 MSTORE PUSH1 0x20 PUSH1 0x4 DUP3 ADD MSTORE PUSH1 0x1F PUSH1 0x24 DUP3 ADD MSTORE PUSH32 0x5265656E7472616E637947756172643A207265656E7472616E742063616C6C00 PUSH1 0x44 DUP3 ADD MSTORE PUSH1 0x64 ADD PUSH2 0x437 JUMP JUMPDEST PUSH1 0x2 PUSH1 0x1 SSTORE JUMP JUMPDEST PUSH1 0x0 DUP2 PUSH2 0xB37 JUMPI PUSH1 0x1 PUSH1 0x1 PUSH1 0xA0 SHL SUB DUP4 AND PUSH1 0x0 SWAP1 DUP2 MSTORE PUSH1 0x3 PUSH1 0x20 MSTORE PUSH1 0x40 SWAP1 KECCAK256 PUSH2 0xB50 JUMP JUMPDEST PUSH1 0x1 PUSH1 0x1 PUSH1 0xA0 SHL SUB DUP4 AND PUSH1 0x0 SWAP1 DUP2 MSTORE PUSH1 0x2 PUSH1 0x20 MSTORE PUSH1 0x40 SWAP1 KECCAK256 JUMPDEST SWAP1 POP PUSH1 0x0 DUP3 PUSH2 0xB61 JUMPI PUSH1 0x7 SLOAD PUSH2 0xB65 JUMP JUMPDEST PUSH1 0x6 SLOAD JUMPDEST DUP3 SLOAD SWAP1 SWAP2 POP ISZERO PUSH2 0xC01 JUMPI PUSH1 0x0 DUP3 PUSH1 0x1 ADD SLOAD TIMESTAMP PUSH2 0xB81 SWAP2 SWAP1 PUSH2 0x1667 JUMP JUMPDEST SWAP1 POP PUSH1 0x0 PUSH3 0x15180 DUP3 DUP5 DUP7 PUSH1 0x0 ADD SLOAD PUSH2 0xB9A SWAP2 SWAP1 PUSH2 0x167A JUMP JUMPDEST PUSH2 0xBA4 SWAP2 SWAP1 PUSH2 0x167A JUMP JUMPDEST PUSH2 0xBAE SWAP2 SWAP1 PUSH2 0x1691 JUMP JUMPDEST PUSH1 0x1 PUSH1 0x1 PUSH1 0xA0 SHL SUB DUP8 AND PUSH1 0x0 SWAP1 DUP2 MSTORE PUSH1 0x5 PUSH1 0x20 MSTORE PUSH1 0x40 DUP2 KECCAK256 SLOAD SWAP2 SWAP3 POP SWAP1 PUSH1 0x64 SWAP1 PUSH2 0xBD8 SWAP1 DUP5 PUSH2 0x167A JUMP JUMPDEST PUSH2 0xBE2 SWAP2 SWAP1 PUSH2 0x1691 JUMP JUMPDEST SWAP1 POP DUP1 DUP6 PUSH1 0x2 ADD PUSH1 0x0 DUP3 DUP3 SLOAD PUSH2 0xBF8 SWAP2 SWAP1 PUSH2 0x1631 JUMP JUMPDEST SWAP1 SWAP2 SSTORE POP POP POP POP POP JUMPDEST POP TIMESTAMP PUSH1 0x1 SWAP1 SWAP2 ADD SSTORE POP POP JUMP JUMPDEST PUSH1 0x0 DUP4 GT PUSH2 0xC52 JUMPI PUSH1 0x40 MLOAD PUSH3 0x461BCD PUSH1 0xE5 SHL DUP2 MSTORE PUSH1 0x20 PUSH1 0x4 DUP3 ADD MSTORE PUSH1 0x12 PUSH1 0x24 DUP3 ADD MSTORE PUSH18 0x416D6F756E74206D757374206265203E203 PUSH1 0x74 SHL PUSH1 0x44 DUP3 ADD MSTORE PUSH1 0x64 ADD PUSH2 0x437 JUMP JUMPDEST PUSH1 0x0 DUP2 PUSH2 0xC7F JUMPI PUSH32 0x0 PUSH2 0xCA1 JUMP JUMPDEST PUSH32 0x0 JUMPDEST SWAP1 POP PUSH1 0x0 DUP3 PUSH2 0xCB1 JUMPI PUSH1 0x5 PUSH2 0xCB4 JUMP JUMPDEST PUSH1 0x3 JUMPDEST PUSH1 0xFF AND SWAP1 POP PUSH1 0x0 PUSH1 0x64 PUSH2 0xCC7 DUP4 DUP9 PUSH2 0x167A JUMP JUMPDEST PUSH2 0xCD1 SWAP2 SWAP1 PUSH2 0x1691 JUMP JUMPDEST SWAP1 POP PUSH1 0x0 PUSH2 0xCDF DUP3 DUP9 PUSH2 0x1667 JUMP JUMPDEST PUSH1 0x8 SLOAD PUSH1 0x40 MLOAD PUSH4 0x23B872DD PUSH1 0xE0 SHL DUP2 MSTORE CALLER PUSH1 0x4 DUP3 ADD MSTORE PUSH1 0x1 PUSH1 0x1 PUSH1 0xA0 SHL SUB SWAP2 DUP3 AND PUSH1 0x24 DUP3 ADD MSTORE PUSH1 0x44 DUP2 ADD DUP6 SWAP1 MSTORE SWAP2 SWAP3 POP DUP6 AND SWAP1 PUSH4 0x23B872DD SWAP1 PUSH1 0x64 ADD PUSH1 0x20 PUSH1 0x40 MLOAD DUP1 DUP4 SUB DUP2 PUSH1 0x0 DUP8 GAS CALL ISZERO DUP1 ISZERO PUSH2 0xD3A JUMPI RETURNDATASIZE PUSH1 0x0 DUP1 RETURNDATACOPY RETURNDATASIZE PUSH1 0x0 REVERT JUMPDEST POP POP POP POP PUSH1 0x40 MLOAD RETURNDATASIZE PUSH1 0x1F NOT PUSH1 0x1F DUP3 ADD AND DUP3 ADD DUP1 PUSH1 0x40 MSTORE POP DUP2 ADD SWAP1 PUSH2 0xD5E SWAP2 SWAP1 PUSH2 0x164A JUMP JUMPDEST PUSH2 0xDA0 JUMPI PUSH1 0x40 MLOAD PUSH3 0x461BCD PUSH1 0xE5 SHL DUP2 MSTORE PUSH1 0x20 PUSH1 0x4 DUP3 ADD MSTORE PUSH1 0x13 PUSH1 0x24 DUP3 ADD MSTORE PUSH19 0x119959481D1C985B9CD9995C8819985A5B1959 PUSH1 0x6A SHL PUSH1 0x44 DUP3 ADD MSTORE PUSH1 0x64 ADD PUSH2 0x437 JUMP JUMPDEST PUSH1 0x40 MLOAD PUSH4 0x23B872DD PUSH1 0xE0 SHL DUP2 MSTORE CALLER PUSH1 0x4 DUP3 ADD MSTORE ADDRESS PUSH1 0x24 DUP3 ADD MSTORE PUSH1 0x44 DUP2 ADD DUP3 SWAP1 MSTORE PUSH1 0x1 PUSH1 0x1 PUSH1 0xA0 SHL SUB DUP6 AND SWAP1 PUSH4 0x23B872DD SWAP1 PUSH1 0x64 ADD PUSH1 0x20 PUSH1 0x40 MLOAD DUP1 DUP4 SUB DUP2 PUSH1 0x0 DUP8 GAS CALL ISZERO DUP1 ISZERO PUSH2 0xDF3 JUMPI RETURNDATASIZE PUSH1 0x0 DUP1 RETURNDATACOPY RETURNDATASIZE PUSH1 0x0 REVERT JUMPDEST POP POP POP POP PUSH1 0x40 MLOAD RETURNDATASIZE PUSH1 0x1F NOT PUSH1 0x1F DUP3 ADD AND DUP3 ADD DUP1 PUSH1 0x40 MSTORE POP DUP2 ADD SWAP1 PUSH2 0xE17 SWAP2 SWAP1 PUSH2 0x164A JUMP JUMPDEST PUSH2 0xE5B JUMPI PUSH1 0x40 MLOAD PUSH3 0x461BCD PUSH1 0xE5 SHL DUP2 MSTORE PUSH1 0x20 PUSH1 0x4 DUP3 ADD MSTORE PUSH1 0x15 PUSH1 0x24 DUP3 ADD MSTORE PUSH21 0x14DD185AD9481D1C985B9CD9995C8819985A5B1959 PUSH1 0x5A SHL PUSH1 0x44 DUP3 ADD MSTORE PUSH1 0x64 ADD PUSH2 0x437 JUMP JUMPDEST PUSH2 0xE65 CALLER DUP7 PUSH2 0xB13 JUMP JUMPDEST DUP6 MLOAD ISZERO PUSH2 0xE76 JUMPI PUSH2 0xE76 CALLER DUP8 PUSH2 0x1252 JUMP JUMPDEST PUSH1 0x0 DUP6 PUSH2 0xE91 JUMPI CALLER PUSH1 0x0 SWAP1 DUP2 MSTORE PUSH1 0x3 PUSH1 0x20 MSTORE PUSH1 0x40 SWAP1 KECCAK256 PUSH2 0xEA1 JUMP JUMPDEST CALLER PUSH1 0x0 SWAP1 DUP2 MSTORE PUSH1 0x2 PUSH1 0x20 MSTORE PUSH1 0x40 SWAP1 KECCAK256 JUMPDEST SWAP1 POP DUP2 DUP2 PUSH1 0x0 ADD PUSH1 0x0 DUP3 DUP3 SLOAD PUSH2 0xEB7 SWAP2 SWAP1 PUSH2 0x1631 JUMP JUMPDEST SWAP1 SWAP2 SSTORE POP POP TIMESTAMP PUSH1 0x1 DUP3 ADD SSTORE PUSH1 0x40 DUP1 MLOAD DUP8 ISZERO ISZERO DUP2 MSTORE PUSH1 0x20 DUP2 ADD DUP5 SWAP1 MSTORE SWAP1 DUP2 ADD DUP5 SWAP1 MSTORE CALLER SWAP1 PUSH32 0x32E9F3A248532FFF6963435691938B457568B3B1BC8826C101D2FDB9D020F1B0 SWAP1 PUSH1 0x60 ADD PUSH1 0x40 MLOAD DUP1 SWAP2 SUB SWAP1 LOG2 POP POP POP POP POP POP POP POP JUMP JUMPDEST PUSH1 0x0 DUP1 SLOAD PUSH1 0x1 PUSH1 0x1 PUSH1 0xA0 SHL SUB DUP4 DUP2 AND PUSH1 0x1 PUSH1 0x1 PUSH1 0xA0 SHL SUB NOT DUP4 AND DUP2 OR DUP5 SSTORE PUSH1 0x40 MLOAD SWAP2 SWAP1 SWAP3 AND SWAP3 DUP4 SWAP2 PUSH32 0x8BE0079C531659141344CD1FD0A4F28419497F9722A3DAAFE3B4186F6B6457E0 SWAP2 SWAP1 LOG3 POP POP JUMP JUMPDEST PUSH1 0x0 DUP2 PUSH2 0xF7C JUMPI CALLER PUSH1 0x0 SWAP1 DUP2 MSTORE PUSH1 0x3 PUSH1 0x20 MSTORE PUSH1 0x40 SWAP1 KECCAK256 PUSH2 0xF8C JUMP JUMPDEST CALLER PUSH1 0x0 SWAP1 DUP2 MSTORE PUSH1 0x2 PUSH1 0x20 MSTORE PUSH1 0x40 SWAP1 KECCAK256 JUMPDEST SWAP1 POP PUSH1 0x0 DUP4 GT DUP1 ISZERO PUSH2 0xF9F JUMPI POP DUP1 SLOAD DUP4 GT ISZERO JUMPDEST PUSH2 0xFDC JUMPI PUSH1 0x40 MLOAD PUSH3 0x461BCD PUSH1 0xE5 SHL DUP2 MSTORE PUSH1 0x20 PUSH1 0x4 DUP3 ADD MSTORE PUSH1 0xE PUSH1 0x24 DUP3 ADD MSTORE PUSH14 0x125B9D985B1A5908185B5BDD5B9D PUSH1 0x92 SHL PUSH1 0x44 DUP3 ADD MSTORE PUSH1 0x64 ADD PUSH2 0x437 JUMP JUMPDEST PUSH2 0xFE6 CALLER DUP4 PUSH2 0xB13 JUMP JUMPDEST PUSH1 0x0 DUP3 PUSH2 0x1013 JUMPI PUSH32 0x0 PUSH2 0x1035 JUMP JUMPDEST PUSH32 0x0 JUMPDEST SWAP1 POP PUSH1 0x0 DUP4 PUSH2 0x1045 JUMPI PUSH1 0x5 PUSH2 0x1048 JUMP JUMPDEST PUSH1 0x3 JUMPDEST PUSH1 0xFF AND SWAP1 POP PUSH1 0x0 PUSH1 0x64 PUSH2 0x105B DUP4 DUP9 PUSH2 0x167A JUMP JUMPDEST PUSH2 0x1065 SWAP2 SWAP1 PUSH2 0x1691 JUMP JUMPDEST SWAP1 POP PUSH1 0x0 PUSH2 0x1073 DUP3 DUP9 PUSH2 0x1667 JUMP JUMPDEST SWAP1 POP DUP7 DUP6 PUSH1 0x0 ADD PUSH1 0x0 DUP3 DUP3 SLOAD PUSH2 0x1089 SWAP2 SWAP1 PUSH2 0x1667 JUMP JUMPDEST SWAP1 SWAP2 SSTORE POP POP PUSH1 0x8 SLOAD PUSH1 0x40 MLOAD PUSH4 0xA9059CBB PUSH1 0xE0 SHL DUP2 MSTORE PUSH1 0x1 PUSH1 0x1 PUSH1 0xA0 SHL SUB SWAP2 DUP3 AND PUSH1 0x4 DUP3 ADD MSTORE PUSH1 0x24 DUP2 ADD DUP5 SWAP1 MSTORE SWAP1 DUP6 AND SWAP1 PUSH4 0xA9059CBB SWAP1 PUSH1 0x44 ADD PUSH1 0x20 PUSH1 0x40 MLOAD DUP1 DUP4 SUB DUP2 PUSH1 0x0 DUP8 GAS CALL ISZERO DUP1 ISZERO PUSH2 0x10E1 JUMPI RETURNDATASIZE PUSH1 0x0 DUP1 RETURNDATACOPY RETURNDATASIZE PUSH1 0x0 REVERT JUMPDEST POP POP POP POP PUSH1 0x40 MLOAD RETURNDATASIZE PUSH1 0x1F NOT PUSH1 0x1F DUP3 ADD AND DUP3 ADD DUP1 PUSH1 0x40 MSTORE POP DUP2 ADD SWAP1 PUSH2 0x1105 SWAP2 SWAP1 PUSH2 0x164A JUMP JUMPDEST PUSH2 0x1147 JUMPI PUSH1 0x40 MLOAD PUSH3 0x461BCD PUSH1 0xE5 SHL DUP2 MSTORE PUSH1 0x20 PUSH1 0x4 DUP3 ADD MSTORE PUSH1 0x13 PUSH1 0x24 DUP3 ADD MSTORE PUSH19 0x119959481D1C985B9CD9995C8819985A5B1959 PUSH1 0x6A SHL PUSH1 0x44 DUP3 ADD MSTORE PUSH1 0x64 ADD PUSH2 0x437 JUMP JUMPDEST PUSH1 0x40 MLOAD PUSH4 0xA9059CBB PUSH1 0xE0 SHL DUP2 MSTORE CALLER PUSH1 0x4 DUP3 ADD MSTORE PUSH1 0x24 DUP2 ADD DUP3 SWAP1 MSTORE PUSH1 0x1 PUSH1 0x1 PUSH1 0xA0 SHL SUB DUP6 AND SWAP1 PUSH4 0xA9059CBB SWAP1 PUSH1 0x44 ADD PUSH1 0x20 PUSH1 0x40 MLOAD DUP1 DUP4 SUB DUP2 PUSH1 0x0 DUP8 GAS CALL ISZERO DUP1 ISZERO PUSH2 0x1194 JUMPI RETURNDATASIZE PUSH1 0x0 DUP1 RETURNDATACOPY RETURNDATASIZE PUSH1 0x0 REVERT JUMPDEST POP POP POP POP PUSH1 0x40 MLOAD RETURNDATASIZE PUSH1 0x1F NOT PUSH1 0x1F DUP3 ADD AND DUP3 ADD DUP1 PUSH1 0x40 MSTORE POP DUP2 ADD SWAP1 PUSH2 0x11B8 SWAP2 SWAP1 PUSH2 0x164A JUMP JUMPDEST PUSH2 0x1204 JUMPI PUSH1 0x40 MLOAD PUSH3 0x461BCD PUSH1 0xE5 SHL DUP2 MSTORE PUSH1 0x20 PUSH1 0x4 DUP3 ADD MSTORE PUSH1 0x17 PUSH1 0x24 DUP3 ADD MSTORE PUSH32 0x556E7374616B65207472616E73666572206661696C6564000000000000000000 PUSH1 0x44 DUP3 ADD MSTORE PUSH1 0x64 ADD PUSH2 0x437 JUMP JUMPDEST PUSH1 0x40 DUP1 MLOAD DUP8 ISZERO ISZERO DUP2 MSTORE PUSH1 0x20 DUP2 ADD DUP4 SWAP1 MSTORE SWAP1 DUP2 ADD DUP4 SWAP1 MSTORE CALLER SWAP1 PUSH32 0xF9ECBEB7F88ECA00D9305E9268ECB22701FCA32F07993500BA89C9C955D0D1A4 SWAP1 PUSH1 0x60 ADD PUSH1 0x40 MLOAD DUP1 SWAP2 SUB SWAP1 LOG2 POP POP POP POP POP POP POP JUMP JUMPDEST PUSH1 0x64 PUSH1 0x0 JUMPDEST DUP3 MLOAD DUP2 LT ISZERO PUSH2 0x13A4 JUMPI DUP4 PUSH1 0x1 PUSH1 0x1 PUSH1 0xA0 SHL SUB AND PUSH32 0x0 PUSH1 0x1 PUSH1 0x1 PUSH1 0xA0 SHL SUB AND PUSH4 0x6352211E DUP6 DUP5 DUP2 MLOAD DUP2 LT PUSH2 0x12AB JUMPI PUSH2 0x12AB PUSH2 0x15C0 JUMP JUMPDEST PUSH1 0x20 MUL PUSH1 0x20 ADD ADD MLOAD PUSH1 0x40 MLOAD DUP3 PUSH4 0xFFFFFFFF AND PUSH1 0xE0 SHL DUP2 MSTORE PUSH1 0x4 ADD PUSH2 0x12D1 SWAP2 DUP2 MSTORE PUSH1 0x20 ADD SWAP1 JUMP JUMPDEST PUSH1 0x20 PUSH1 0x40 MLOAD DUP1 DUP4 SUB DUP2 DUP7 GAS STATICCALL ISZERO DUP1 ISZERO PUSH2 0x12EE JUMPI RETURNDATASIZE PUSH1 0x0 DUP1 RETURNDATACOPY RETURNDATASIZE PUSH1 0x0 REVERT JUMPDEST POP POP POP POP PUSH1 0x40 MLOAD RETURNDATASIZE PUSH1 0x1F NOT PUSH1 0x1F DUP3 ADD AND DUP3 ADD DUP1 PUSH1 0x40 MSTORE POP DUP2 ADD SWAP1 PUSH2 0x1312 SWAP2 SWAP1 PUSH2 0x16B3 JUMP JUMPDEST PUSH1 0x1 PUSH1 0x1 PUSH1 0xA0 SHL SUB AND EQ PUSH2 0x1358 JUMPI PUSH1 0x40 MLOAD PUSH3 0x461BCD PUSH1 0xE5 SHL DUP2 MSTORE PUSH1 0x20 PUSH1 0x4 DUP3 ADD MSTORE PUSH1 0xD PUSH1 0x24 DUP3 ADD MSTORE PUSH13 0x2737BA1027232A1037BBB732B9 PUSH1 0x99 SHL PUSH1 0x44 DUP3 ADD MSTORE PUSH1 0x64 ADD PUSH2 0x437 JUMP JUMPDEST PUSH1 0x4 PUSH1 0x0 DUP5 DUP4 DUP2 MLOAD DUP2 LT PUSH2 0x136E JUMPI PUSH2 0x136E PUSH2 0x15C0 JUMP JUMPDEST PUSH1 0x20 MUL PUSH1 0x20 ADD ADD MLOAD DUP2 MSTORE PUSH1 0x20 ADD SWAP1 DUP2 MSTORE PUSH1 0x20 ADD PUSH1 0x0 KECCAK256 SLOAD DUP3 PUSH2 0x1390 SWAP2 SWAP1 PUSH2 0x1631 JUMP JUMPDEST SWAP2 POP DUP1 PUSH2 0x139C DUP2 PUSH2 0x15EC JUMP JUMPDEST SWAP2 POP POP PUSH2 0x1257 JUMP JUMPDEST POP PUSH1 0x1 PUSH1 0x1 PUSH1 0xA0 SHL SUB SWAP1 SWAP3 AND PUSH1 0x0 SWAP1 DUP2 MSTORE PUSH1 0x5 PUSH1 0x20 MSTORE PUSH1 0x40 SWAP1 KECCAK256 SWAP2 SWAP1 SWAP2 SSTORE POP JUMP JUMPDEST PUSH4 0x4E487B71 PUSH1 0xE0 SHL PUSH1 0x0 MSTORE PUSH1 0x41 PUSH1 0x4 MSTORE PUSH1 0x24 PUSH1 0x0 REVERT JUMPDEST PUSH1 0x0 DUP3 PUSH1 0x1F DUP4 ADD SLT PUSH2 0x13EC JUMPI PUSH1 0x0 DUP1 REVERT JUMPDEST DUP2 CALLDATALOAD PUSH1 0x20 PUSH8 0xFFFFFFFFFFFFFFFF DUP1 DUP4 GT ISZERO PUSH2 0x1409 JUMPI PUSH2 0x1409 PUSH2 0x13C5 JUMP JUMPDEST DUP3 PUSH1 0x5 SHL PUSH1 0x40 MLOAD PUSH1 0x1F NOT PUSH1 0x3F DUP4 ADD AND DUP2 ADD DUP2 DUP2 LT DUP5 DUP3 GT OR ISZERO PUSH2 0x142E JUMPI PUSH2 0x142E PUSH2 0x13C5 JUMP JUMPDEST PUSH1 0x40 MSTORE SWAP4 DUP5 MSTORE DUP6 DUP2 ADD DUP4 ADD SWAP4 DUP4 DUP2 ADD SWAP3 POP DUP8 DUP6 GT ISZERO PUSH2 0x144C JUMPI PUSH1 0x0 DUP1 REVERT JUMPDEST DUP4 DUP8 ADD SWAP2 POP JUMPDEST DUP5 DUP3 LT ISZERO PUSH2 0x146B JUMPI DUP2 CALLDATALOAD DUP4 MSTORE SWAP2 DUP4 ADD SWAP2 SWAP1 DUP4 ADD SWAP1 PUSH2 0x1452 JUMP JUMPDEST SWAP8 SWAP7 POP POP POP POP POP POP POP JUMP JUMPDEST PUSH1 0x0 DUP1 PUSH1 0x40 DUP4 DUP6 SUB SLT ISZERO PUSH2 0x1489 JUMPI PUSH1 0x0 DUP1 REVERT JUMPDEST DUP3 CALLDATALOAD PUSH8 0xFFFFFFFFFFFFFFFF DUP1 DUP3 GT ISZERO PUSH2 0x14A1 JUMPI PUSH1 0x0 DUP1 REVERT JUMPDEST PUSH2 0x14AD DUP7 DUP4 DUP8 ADD PUSH2 0x13DB JUMP JUMPDEST SWAP4 POP PUSH1 0x20 DUP6 ADD CALLDATALOAD SWAP2 POP DUP1 DUP3 GT ISZERO PUSH2 0x14C3 JUMPI PUSH1 0x0 DUP1 REVERT JUMPDEST POP PUSH2 0x14D0 DUP6 DUP3 DUP7 ADD PUSH2 0x13DB JUMP JUMPDEST SWAP2 POP POP SWAP3 POP SWAP3 SWAP1 POP JUMP JUMPDEST PUSH1 0x0 PUSH1 0x20 DUP3 DUP5 SUB SLT ISZERO PUSH2 0x14EC JUMPI PUSH1 0x0 DUP1 REVERT JUMPDEST POP CALLDATALOAD SWAP2 SWAP1 POP JUMP JUMPDEST PUSH1 0x0 DUP1 PUSH1 0x40 DUP4 DUP6 SUB SLT ISZERO PUSH2 0x1506 JUMPI PUSH1 0x0 DUP1 REVERT JUMPDEST DUP3 CALLDATALOAD SWAP2 POP PUSH1 0x20 DUP4 ADD CALLDATALOAD PUSH8 0xFFFFFFFFFFFFFFFF DUP2 GT ISZERO PUSH2 0x1524 JUMPI PUSH1 0x0 DUP1 REVERT JUMPDEST PUSH2 0x14D0 DUP6 DUP3 DUP7 ADD PUSH2 0x13DB JUMP JUMPDEST PUSH1 0x1 PUSH1 0x1 PUSH1 0xA0 SHL SUB DUP2 AND DUP2 EQ PUSH2 0x8D8 JUMPI PUSH1 0x0 DUP1 REVERT JUMPDEST PUSH1 0x0 DUP1 PUSH1 0x40 DUP4 DUP6 SUB SLT ISZERO PUSH2 0x1558 JUMPI PUSH1 0x0 DUP1 REVERT JUMPDEST DUP3 CALLDATALOAD PUSH2 0x1563 DUP2 PUSH2 0x1530 JUMP JUMPDEST SWAP5 PUSH1 0x20 SWAP4 SWAP1 SWAP4 ADD CALLDATALOAD SWAP4 POP POP POP JUMP JUMPDEST PUSH1 0x0 PUSH1 0x20 DUP3 DUP5 SUB SLT ISZERO PUSH2 0x1583 JUMPI PUSH1 0x0 DUP1 REVERT JUMPDEST DUP2 CALLDATALOAD PUSH2 0x158E DUP2 PUSH2 0x1530 JUMP JUMPDEST SWAP4 SWAP3 POP POP POP JUMP JUMPDEST DUP1 ISZERO ISZERO DUP2 EQ PUSH2 0x8D8 JUMPI PUSH1 0x0 DUP1 REVERT JUMPDEST PUSH1 0x0 PUSH1 0x20 DUP3 DUP5 SUB SLT ISZERO PUSH2 0x15B5 JUMPI PUSH1 0x0 DUP1 REVERT JUMPDEST DUP2 CALLDATALOAD PUSH2 0x158E DUP2 PUSH2 0x1595 JUMP JUMPDEST PUSH4 0x4E487B71 PUSH1 0xE0 SHL PUSH1 0x0 MSTORE PUSH1 0x32 PUSH1 0x4 MSTORE PUSH1 0x24 PUSH1 0x0 REVERT JUMPDEST PUSH4 0x4E487B71 PUSH1 0xE0 SHL PUSH1 0x0 MSTORE PUSH1 0x11 PUSH1 0x4 MSTORE PUSH1 0x24 PUSH1 0x0 REVERT JUMPDEST PUSH1 0x0 PUSH1 0x1 DUP3 ADD PUSH2 0x15FE JUMPI PUSH2 0x15FE PUSH2 0x15D6 JUMP JUMPDEST POP PUSH1 0x1 ADD SWAP1 JUMP JUMPDEST PUSH1 0x20 DUP1 DUP3 MSTORE PUSH1 0x12 SWAP1 DUP3 ADD MSTORE PUSH18 0x10DBDB9D1C9858DD081A5CC81C185D5CD959 PUSH1 0x72 SHL PUSH1 0x40 DUP3 ADD MSTORE PUSH1 0x60 ADD SWAP1 JUMP JUMPDEST DUP1 DUP3 ADD DUP1 DUP3 GT ISZERO PUSH2 0x1644 JUMPI PUSH2 0x1644 PUSH2 0x15D6 JUMP JUMPDEST SWAP3 SWAP2 POP POP JUMP JUMPDEST PUSH1 0x0 PUSH1 0x20 DUP3 DUP5 SUB SLT ISZERO PUSH2 0x165C JUMPI PUSH1 0x0 DUP1 REVERT JUMPDEST DUP2 MLOAD PUSH2 0x158E DUP2 PUSH2 0x1595 JUMP JUMPDEST DUP2 DUP2 SUB DUP2 DUP2 GT ISZERO PUSH2 0x1644 JUMPI PUSH2 0x1644 PUSH2 0x15D6 JUMP JUMPDEST DUP1 DUP3 MUL DUP2 ISZERO DUP3 DUP3 DIV DUP5 EQ OR PUSH2 0x1644 JUMPI PUSH2 0x1644 PUSH2 0x15D6 JUMP JUMPDEST PUSH1 0x0 DUP3 PUSH2 0x16AE JUMPI PUSH4 0x4E487B71 PUSH1 0xE0 SHL PUSH1 0x0 MSTORE PUSH1 0x12 PUSH1 0x4 MSTORE PUSH1 0x24 PUSH1 0x0 REVERT JUMPDEST POP DIV SWAP1 JUMP JUMPDEST PUSH1 0x0 PUSH1 0x20 DUP3 DUP5 SUB SLT ISZERO PUSH2 0x16C5 JUMPI PUSH1 0x0 DUP1 REVERT JUMPDEST DUP2 MLOAD PUSH2 0x158E DUP2 PUSH2 0x1530 JUMP INVALID LOG2 PUSH5 0x6970667358 0x22 SLT KECCAK256 0xD5 0xD4 DUP9 EXTCODECOPY 0xAF SHR 0x2C 0xD6 CHAINID RETURN 0xFC KECCAK256 0xCE SMOD DUP14 0xAD CREATE2 0xE3 PUSH22 0x902BC0678EDFC1EB41949518EC64736F6C6343000814 STOP CALLER "},"methodIdentifiers":{"MAX_FEE()":"bc063e1a","claimRewards()":"372500ab","emergencyPaused()":"27c830a9","feeRecipient()":"46904840","imaliRewardRate()":"8162bff4","imaliStakers(address)":"b2bac3cf","imaliToken()":"e311fd0a","lpRewardRate()":"acc36319","lpStakers(address)":"fb9c19ea","lpToken()":"5fcbd285","nftContract()":"d56d229d","nftTierMultipliers(uint256)":"3a2cc05f","owner()":"8da5cb5b","recoverERC20(address,uint256)":"8980f11f","renounceOwnership()":"715018a6","setEmergencyPause(bool)":"d8d1a657","setFeeRecipient(address)":"e74b981b","setNFTMultipliers(uint256[],uint256[])":"0eae0c22","stakeIMALI(uint256,uint256[])":"5065547f","stakeLP(uint256,uint256[])":"499a586b","transferOwnership(address)":"f2fde38b","unstakeIMALI(uint256)":"d87a8b8e","unstakeLP(uint256)":"c4778998","userBoostMultiplier(address)":"f240a558"}},"storageLayout":{"storage":[{"astId":273,"contract":"contracts/IMALIStaking.sol:IMALIStaking","label":"_owner","offset":0,"slot":"0","type":"t_address"},{"astId":389,"contract":"contracts/IMALIStaking.sol:IMALIStaking","label":"_status","offset":0,"slot":"1","type":"t_uint256"},{"astId":1050,"contract":"contracts/IMALIStaking.sol:IMALIStaking","label":"imaliStakers","offset":0,"slot":"2","type":"t_mapping(t_address,t_struct(StakeInfo)1045_storage)"},{"astId":1055,"contract":"contracts/IMALIStaking.sol:IMALIStaking","label":"lpStakers","offset":0,"slot":"3","type":"t_mapping(t_address,t_struct(StakeInfo)1045_storage)"},{"astId":1059,"contract":"contracts/IMALIStaking.sol:IMALIStaking","label":"nftTierMultipliers","offset":0,"slot":"4","type":"t_mapping(t_uint256,t_uint256)"},{"astId":1063,"contract":"contracts/IMALIStaking.sol:IMALIStaking","label":"userBoostMultiplier","offset":0,"slot":"5","type":"t_mapping(t_address,t_uint256)"},{"astId":1066,"contract":"contracts/IMALIStaking.sol:IMALIStaking","label":"imaliRewardRate","offset":0,"slot":"6","type":"t_uint256"},{"astId":1069,"contract":"contracts/IMALIStaking.sol:IMALIStaking","label":"lpRewardRate","offset":0,"slot":"7","type":"t_uint256"},{"astId":1074,"contract":"contracts/IMALIStaking.sol:IMALIStaking","label":"feeRecipient","offset":0,"slot":"8","type":"t_address"},{"astId":1076,"contract":"contracts/IMALIStaking.sol:IMALIStaking","label":"emergencyPaused","offset":20,"slot":"8","type":"t_bool"}],"types":{"t_address":{"encoding":"inplace","label":"address","numberOfBytes":"20"},"t_bool":{"encoding":"inplace","label":"bool","numberOfBytes":"1"},"t_mapping(t_address,t_struct(StakeInfo)1045_storage)":{"encoding":"mapping","key":"t_address","label":"mapping(address => struct IMALIStaking.StakeInfo)","numberOfBytes":"32","value":"t_struct(StakeInfo)1045_storage"},"t_mapping(t_address,t_uint256)":{"encoding":"mapping","key":"t_address","label":"mapping(address => uint256)","numberOfBytes":"32","value":"t_uint256"},"t_mapping(t_uint256,t_uint256)":{"encoding":"mapping","key":"t_uint256","label":"mapping(uint256 => uint256)","numberOfBytes":"32","value":"t_uint256"},"t_struct(StakeInfo)1045_storage":{"encoding":"inplace","label":"struct IMALIStaking.StakeInfo","members":[{"astId":1038,"contract":"contracts/IMALIStaking.sol:IMALIStaking","label":"amount","offset":0,"slot":"0","type":"t_uint256"},{"astId":1040,"contract":"contracts/IMALIStaking.sol:IMALIStaking","label":"lastUpdated","offset":0,"slot":"1","type":"t_uint256"},{"astId":1042,"contract":"contracts/IMALIStaking.sol:IMALIStaking","label":"rewards","offset":0,"slot":"2","type":"t_uint256"},{"astId":1044,"contract":"contracts/IMALIStaking.sol:IMALIStaking","label":"rewardMultiplier","offset":0,"slot":"3","type":"t_uint256"}],"numberOfBytes":"128"},"t_uint256":{"encoding":"inplace","label":"uint256","numberOfBytes":"32"}}}}}}