{"contracts/IMALIStaking.sol":{"IMALIStaking":{"abi":[{"inputs":[{"internalType":"contract IERC20","name":"_imaliToken","type":"address"},{"internalType":"contract IERC20","name":"_lpToken","type":"address"},{"internalType":"address","name":"_feeRecipient","type":"address"}],"stateMutability":"nonpayable","type":"constructor"},{"anonymous":false,"inputs":[{"indexed":true,"internalType":"address","name":"user","type":"address"},{"indexed":false,"internalType":"uint256","name":"feeAmount","type":"uint256"}],"name":"FeeTransferred","type":"event"},{"anonymous":false,"inputs":[{"indexed":true,"internalType":"address","name":"previousOwner","type":"address"},{"indexed":true,"internalType":"address","name":"newOwner","type":"address"}],"name":"OwnershipTransferred","type":"event"},{"anonymous":false,"inputs":[{"indexed":true,"internalType":"address","name":"user","type":"address"},{"indexed":false,"internalType":"uint256","name":"reward","type":"uint256"}],"name":"RewardClaimed","type":"event"},{"anonymous":false,"inputs":[{"indexed":true,"internalType":"address","name":"user","type":"address"},{"indexed":false,"internalType":"uint256","name":"amount","type":"uint256"}],"name":"StakedIMALI","type":"event"},{"anonymous":false,"inputs":[{"indexed":true,"internalType":"address","name":"user","type":"address"},{"indexed":false,"internalType":"uint256","name":"amount","type":"uint256"}],"name":"StakedLP","type":"event"},{"anonymous":false,"inputs":[{"indexed":true,"internalType":"address","name":"user","type":"address"},{"indexed":false,"internalType":"uint256","name":"amount","type":"uint256"}],"name":"UnstakedIMALI","type":"event"},{"anonymous":false,"inputs":[{"indexed":true,"internalType":"address","name":"user","type":"address"},{"indexed":false,"internalType":"uint256","name":"amount","type":"uint256"}],"name":"UnstakedLP","type":"event"},{"inputs":[],"name":"claimRewards","outputs":[],"stateMutability":"nonpayable","type":"function"},{"inputs":[],"name":"feeRecipient","outputs":[{"internalType":"address","name":"","type":"address"}],"stateMutability":"view","type":"function"},{"inputs":[],"name":"imaliFeePercentage","outputs":[{"internalType":"uint256","name":"","type":"uint256"}],"stateMutability":"view","type":"function"},{"inputs":[],"name":"imaliRewardRate","outputs":[{"internalType":"uint256","name":"","type":"uint256"}],"stateMutability":"view","type":"function"},{"inputs":[{"internalType":"address","name":"","type":"address"}],"name":"imaliStakers","outputs":[{"internalType":"uint256","name":"amount","type":"uint256"},{"internalType":"uint256","name":"lastUpdated","type":"uint256"},{"internalType":"uint256","name":"rewards","type":"uint256"}],"stateMutability":"view","type":"function"},{"inputs":[],"name":"imaliToken","outputs":[{"internalType":"contract IERC20","name":"","type":"address"}],"stateMutability":"view","type":"function"},{"inputs":[],"name":"lpFeePercentage","outputs":[{"internalType":"uint256","name":"","type":"uint256"}],"stateMutability":"view","type":"function"},{"inputs":[],"name":"lpRewardRate","outputs":[{"internalType":"uint256","name":"","type":"uint256"}],"stateMutability":"view","type":"function"},{"inputs":[{"internalType":"address","name":"","type":"address"}],"name":"lpStakers","outputs":[{"internalType":"uint256","name":"amount","type":"uint256"},{"internalType":"uint256","name":"lastUpdated","type":"uint256"},{"internalType":"uint256","name":"rewards","type":"uint256"}],"stateMutability":"view","type":"function"},{"inputs":[],"name":"lpToken","outputs":[{"internalType":"contract IERC20","name":"","type":"address"}],"stateMutability":"view","type":"function"},{"inputs":[],"name":"owner","outputs":[{"internalType":"address","name":"","type":"address"}],"stateMutability":"view","type":"function"},{"inputs":[],"name":"renounceOwnership","outputs":[],"stateMutability":"nonpayable","type":"function"},{"inputs":[{"internalType":"uint256","name":"_imaliFee","type":"uint256"},{"internalType":"uint256","name":"_lpFee","type":"uint256"},{"internalType":"address","name":"_feeRecipient","type":"address"}],"name":"setFeeSettings","outputs":[],"stateMutability":"nonpayable","type":"function"},{"inputs":[{"internalType":"uint256","name":"_imaliRate","type":"uint256"},{"internalType":"uint256","name":"_lpRate","type":"uint256"}],"name":"setRewardRates","outputs":[],"stateMutability":"nonpayable","type":"function"},{"inputs":[{"internalType":"uint256","name":"amount","type":"uint256"}],"name":"stakeIMALI","outputs":[],"stateMutability":"nonpayable","type":"function"},{"inputs":[{"internalType":"uint256","name":"amount","type":"uint256"}],"name":"stakeLP","outputs":[],"stateMutability":"nonpayable","type":"function"},{"inputs":[{"internalType":"address","name":"newOwner","type":"address"}],"name":"transferOwnership","outputs":[],"stateMutability":"nonpayable","type":"function"},{"inputs":[{"internalType":"uint256","name":"amount","type":"uint256"}],"name":"unstakeIMALI","outputs":[],"stateMutability":"nonpayable","type":"function"},{"inputs":[{"internalType":"uint256","name":"amount","type":"uint256"}],"name":"unstakeLP","outputs":[],"stateMutability":"nonpayable","type":"function"}],"evm":{"bytecode":{"linkReferences":{},"object":"60c0604052603260025560646003556003600455600580553480156200002457600080fd5b506040516200184338038062001843833981016040819052620000479162000211565b6200005233620001a8565b600180556001600160a01b038316620000bd5760405162461bcd60e51b815260206004820152602260248201527f494d414c4920746f6b656e20616464726573732063616e6e6f74206265207a65604482015261726f60f01b60648201526084015b60405180910390fd5b6001600160a01b038216620001155760405162461bcd60e51b815260206004820152601f60248201527f4c5020746f6b656e20616464726573732063616e6e6f74206265207a65726f006044820152606401620000b4565b6001600160a01b038116620001795760405162461bcd60e51b8152602060048201526024808201527f46656520726563697069656e742063616e6e6f74206265207a65726f206164646044820152637265737360e01b6064820152608401620000b4565b6001600160a01b0392831660805290821660a052600680546001600160a01b0319169190921617905562000265565b600080546001600160a01b038381166001600160a01b0319831681178455604051919092169283917f8be0079c531659141344cd1fd0a4f28419497f9722a3daafe3b4186f6b6457e09190a35050565b6001600160a01b03811681146200020e57600080fd5b50565b6000806000606084860312156200022757600080fd5b83516200023481620001f8565b60208501519093506200024781620001f8565b60408501519092506200025a81620001f8565b809150509250925092565b60805160a051611579620002ca60003960008181610178015281816106b00152818161078001528181610eb40152610f8e015260008181610280015281816103db0152818161095001528181610a2d01528181610c5b0152610d2e01526115796000f3fe608060405234801561001057600080fd5b50600436106101215760003560e01c8063b2bac3cf116100ad578063d87a8b8e11610071578063d87a8b8e14610268578063e311fd0a1461027b578063e5da2cb2146102a2578063f2fde38b146102b5578063fb9c19ea146102c857600080fd5b8063b2bac3cf146101dc578063c38e319314610226578063c477899814610239578063c8d050421461024c578063d7634a731461025557600080fd5b8063715018a6116100f4578063715018a61461019a5780638162bff4146101a25780638da5cb5b146101b9578063ababedb0146101ca578063acc36319146101d357600080fd5b8063372500ab1461012657806337ba04a01461013057806346904840146101435780635fcbd28514610173575b600080fd5b61012e6102f7565b005b61012e61013e3660046113d4565b6104ce565b600654610156906001600160a01b031681565b6040516001600160a01b0390911681526020015b60405180910390f35b6101567f000000000000000000000000000000000000000000000000000000000000000081565b61012e6104e1565b6101ab60025481565b60405190815260200161016a565b6000546001600160a01b0316610156565b6101ab60045481565b6101ab60035481565b61020b6101ea366004611412565b60076020526000908152604090208054600182015460029092015490919083565b6040805193845260208401929092529082015260600161016a565b61012e610234366004611434565b6104f3565b61012e610247366004611469565b6105c1565b6101ab60055481565b61012e610263366004611469565b6108ba565b61012e610276366004611469565b610b6c565b6101567f000000000000000000000000000000000000000000000000000000000000000081565b61012e6102b0366004611469565b610e21565b61012e6102c3366004611412565b6110cd565b61020b6102d6366004611412565b60086020526000908152604090208054600182015460029092015490919083565b6102ff611143565b61030a33600161119c565b61031533600061119c565b336000908152600860209081526040808320600290810154600790935290832001546103419190611498565b90506000811161038e5760405162461bcd60e51b81526020600482015260136024820152724e6f207265776172647320746f20636c61696d60681b60448201526064015b60405180910390fd5b33600081815260076020908152604080832060029081018490556008909252808320909101919091555163a9059cbb60e01b81526004810191909152602481018290526001600160a01b037f0000000000000000000000000000000000000000000000000000000000000000169063a9059cbb906044016020604051808303816000875af1158015610424573d6000803e3d6000fd5b505050506040513d601f19601f8201168201806040525081019061044891906114b1565b61048d5760405162461bcd60e51b815260206004820152601660248201527514995dd85c99081d1c985b9cd9995c8819985a5b195960521b6044820152606401610385565b60405181815233907f106f923f993c2149d49b4255ff723acafa1f2d94393f561d3eda32ae348f72419060200160405180910390a2506104cc60018055565b565b6104d661132a565b600291909155600355565b6104e961132a565b6104cc6000611384565b6104fb61132a565b6001600160a01b0381166105495760405162461bcd60e51b8152602060048201526015602482015274125b9d985b1a5908199959481c9958da5c1a595b9d605a1b6044820152606401610385565b600a831115801561055b5750600a8211155b6105975760405162461bcd60e51b815260206004820152600d60248201526c08ccacae640e8dede40d0d2ced609b1b6044820152606401610385565b600492909255600555600680546001600160a01b0319166001600160a01b03909216919091179055565b6105c9611143565b6000811180156105e85750336000908152600860205260409020548111155b6106345760405162461bcd60e51b815260206004820152601960248201527f496e76616c6964204c5020756e7374616b6520616d6f756e74000000000000006044820152606401610385565b600060646005548361064691906114d3565b61065091906114ea565b9050600061065e828461150c565b3360009081526008602052604081208054929350859290919061068290849061150c565b909155505060065460405163a9059cbb60e01b81526001600160a01b039182166004820152602481018490527f00000000000000000000000000000000000000000000000000000000000000009091169063a9059cbb906044016020604051808303816000875af11580156106fb573d6000803e3d6000fd5b505050506040513d601f19601f8201168201806040525081019061071f91906114b1565b6107645760405162461bcd60e51b8152602060048201526016602482015275131408199959481d1c985b9cd9995c8819985a5b195960521b6044820152606401610385565b60405163a9059cbb60e01b8152336004820152602481018290527f00000000000000000000000000000000000000000000000000000000000000006001600160a01b03169063a9059cbb906044016020604051808303816000875af11580156107d1573d6000803e3d6000fd5b505050506040513d601f19601f820116820180604052508101906107f591906114b1565b6108415760405162461bcd60e51b815260206004820152601a60248201527f4c5020756e7374616b65207472616e73666572206661696c65640000000000006044820152606401610385565b60405181815233907f6cdb1bf7f2eb6c240b1c038fdc824928fd264038d2619c351562b7ca1e15ece4906020015b60405180910390a260405182815233907f34e8a84e537ed93d93ddf39a78816dcbc74df8397c635838b8cc973d4fa943f89060200160405180910390a250506108b760018055565b50565b6108c2611143565b600081116109095760405162461bcd60e51b815260206004820152601460248201527343616e6e6f74207374616b65203020494d414c4960601b6044820152606401610385565b600060646004548361091b91906114d3565b61092591906114ea565b90506000610933828461150c565b6006546040516323b872dd60e01b81529192506001600160a01b037f00000000000000000000000000000000000000000000000000000000000000008116926323b872dd9261098b923392911690879060040161151f565b6020604051808303816000875af11580156109aa573d6000803e3d6000fd5b505050506040513d601f19601f820116820180604052508101906109ce91906114b1565b610a165760405162461bcd60e51b8152602060048201526019602482015278125350531248199959481d1c985b9cd9995c8819985a5b1959603a1b6044820152606401610385565b6040516323b872dd60e01b81526001600160a01b037f000000000000000000000000000000000000000000000000000000000000000016906323b872dd90610a669033903090869060040161151f565b6020604051808303816000875af1158015610a85573d6000803e3d6000fd5b505050506040513d601f19601f82011682018060405250810190610aa991906114b1565b610af55760405162461bcd60e51b815260206004820152601b60248201527f494d414c49207374616b65207472616e73666572206661696c656400000000006044820152606401610385565b610b0033600161119c565b3360009081526007602052604081208054839290610b1f908490611498565b9091555050336000818152600760205260409081902042600190910155517f6ad467e7654b822390e4bb86e55c524831f3d49b0ab8ed1a632b1da4a7717f419061086f9084815260200190565b610b74611143565b600081118015610b935750336000908152600760205260409020548111155b610bdf5760405162461bcd60e51b815260206004820152601c60248201527f496e76616c696420494d414c4920756e7374616b6520616d6f756e74000000006044820152606401610385565b6000606460045483610bf191906114d3565b610bfb91906114ea565b90506000610c09828461150c565b33600090815260076020526040812080549293508592909190610c2d90849061150c565b909155505060065460405163a9059cbb60e01b81526001600160a01b039182166004820152602481018490527f00000000000000000000000000000000000000000000000000000000000000009091169063a9059cbb906044016020604051808303816000875af1158015610ca6573d6000803e3d6000fd5b505050506040513d601f19601f82011682018060405250810190610cca91906114b1565b610d125760405162461bcd60e51b8152602060048201526019602482015278125350531248199959481d1c985b9cd9995c8819985a5b1959603a1b6044820152606401610385565b60405163a9059cbb60e01b8152336004820152602481018290527f00000000000000000000000000000000000000000000000000000000000000006001600160a01b03169063a9059cbb906044016020604051808303816000875af1158015610d7f573d6000803e3d6000fd5b505050506040513d601f19601f82011682018060405250810190610da391906114b1565b610def5760405162461bcd60e51b815260206004820152601d60248201527f494d414c4920756e7374616b65207472616e73666572206661696c65640000006044820152606401610385565b60405181815233907f562551e6f2e6fe1db475f437ec919836d0ddcab2bbbeadb35a099f0756f30e279060200161086f565b610e29611143565b60008111610e6d5760405162461bcd60e51b8152602060048201526011602482015270043616e6e6f74207374616b652030204c5607c1b6044820152606401610385565b6000606460055483610e7f91906114d3565b610e8991906114ea565b90506000610e97828461150c565b6006546040516323b872dd60e01b81529192506001600160a01b037f00000000000000000000000000000000000000000000000000000000000000008116926323b872dd92610eef923392911690879060040161151f565b6020604051808303816000875af1158015610f0e573d6000803e3d6000fd5b505050506040513d601f19601f82011682018060405250810190610f3291906114b1565b610f775760405162461bcd60e51b8152602060048201526016602482015275131408199959481d1c985b9cd9995c8819985a5b195960521b6044820152606401610385565b6040516323b872dd60e01b81526001600160a01b037f000000000000000000000000000000000000000000000000000000000000000016906323b872dd90610fc79033903090869060040161151f565b6020604051808303816000875af1158015610fe6573d6000803e3d6000fd5b505050506040513d601f19601f8201168201806040525081019061100a91906114b1565b6110565760405162461bcd60e51b815260206004820152601860248201527f4c50207374616b65207472616e73666572206661696c656400000000000000006044820152606401610385565b61106133600061119c565b3360009081526008602052604081208054839290611080908490611498565b9091555050336000818152600860205260409081902042600190910155517fd48410cb74ca557af6df6423fe044c163e80cf09ed3db9294d365c70451ed7899061086f9084815260200190565b6110d561132a565b6001600160a01b03811661113a5760405162461bcd60e51b815260206004820152602660248201527f4f776e61626c653a206e6577206f776e657220697320746865207a65726f206160448201526564647265737360d01b6064820152608401610385565b6108b781611384565b6002600154036111955760405162461bcd60e51b815260206004820152601f60248201527f5265656e7472616e637947756172643a207265656e7472616e742063616c6c006044820152606401610385565b6002600155565b60008060008315611267576001600160a01b0385166000908152600760205260409020600101546111cd904261150c565b6002546001600160a01b0387166000908152600760205260409020549194509250905062015180836111ff84846114d3565b61120991906114d3565b61121391906114ea565b6001600160a01b0386166000908152600760205260408120600201805490919061123e908490611498565b90915550506001600160a01b038516600090815260076020526040902042600190910155611323565b6001600160a01b03851660009081526008602052604090206001015461128d904261150c565b6003546001600160a01b0387166000908152600860205260409020549194509250905062015180836112bf84846114d3565b6112c991906114d3565b6112d391906114ea565b6001600160a01b038616600090815260086020526040812060020180549091906112fe908490611498565b90915550506001600160a01b0385166000908152600860205260409020426001909101555b5050505050565b6000546001600160a01b031633146104cc5760405162461bcd60e51b815260206004820181905260248201527f4f776e61626c653a2063616c6c6572206973206e6f7420746865206f776e65726044820152606401610385565b600080546001600160a01b038381166001600160a01b0319831681178455604051919092169283917f8be0079c531659141344cd1fd0a4f28419497f9722a3daafe3b4186f6b6457e09190a35050565b600080604083850312156113e757600080fd5b50508035926020909101359150565b80356001600160a01b038116811461140d57600080fd5b919050565b60006020828403121561142457600080fd5b61142d826113f6565b9392505050565b60008060006060848603121561144957600080fd5b8335925060208401359150611460604085016113f6565b90509250925092565b60006020828403121561147b57600080fd5b5035919050565b634e487b7160e01b600052601160045260246000fd5b808201808211156114ab576114ab611482565b92915050565b6000602082840312156114c357600080fd5b8151801515811461142d57600080fd5b80820281158282048414176114ab576114ab611482565b60008261150757634e487b7160e01b600052601260045260246000fd5b500490565b818103818111156114ab576114ab611482565b6001600160a01b03938416815291909216602082015260408101919091526060019056fea2646970667358221220315bcfa668e9b1d66f04201f609d8601b496bab5fc4fefd7e02ccf5d43c476f864736f6c63430008140033","opcodes":"PUSH1 0xC0 PUSH1 0x40 MSTORE PUSH1 0x32 PUSH1 0x2 SSTORE PUSH1 0x64 PUSH1 0x3 SSTORE PUSH1 0x3 PUSH1 0x4 SSTORE PUSH1 0x5 DUP1 SSTORE CALLVALUE DUP1 ISZERO PUSH3 0x24 JUMPI PUSH1 0x0 DUP1 REVERT JUMPDEST POP PUSH1 0x40 MLOAD PUSH3 0x1843 CODESIZE SUB DUP1 PUSH3 0x1843 DUP4 CODECOPY DUP2 ADD PUSH1 0x40 DUP2 SWAP1 MSTORE PUSH3 0x47 SWAP2 PUSH3 0x211 JUMP JUMPDEST PUSH3 0x52 CALLER PUSH3 0x1A8 JUMP JUMPDEST PUSH1 0x1 DUP1 SSTORE PUSH1 0x1 PUSH1 0x1 PUSH1 0xA0 SHL SUB DUP4 AND PUSH3 0xBD JUMPI PUSH1 0x40 MLOAD PUSH3 0x461BCD PUSH1 0xE5 SHL DUP2 MSTORE PUSH1 0x20 PUSH1 0x4 DUP3 ADD MSTORE PUSH1 0x22 PUSH1 0x24 DUP3 ADD MSTORE PUSH32 0x494D414C4920746F6B656E20616464726573732063616E6E6F74206265207A65 PUSH1 0x44 DUP3 ADD MSTORE PUSH2 0x726F PUSH1 0xF0 SHL PUSH1 0x64 DUP3 ADD MSTORE PUSH1 0x84 ADD JUMPDEST PUSH1 0x40 MLOAD DUP1 SWAP2 SUB SWAP1 REVERT JUMPDEST PUSH1 0x1 PUSH1 0x1 PUSH1 0xA0 SHL SUB DUP3 AND PUSH3 0x115 JUMPI PUSH1 0x40 MLOAD PUSH3 0x461BCD PUSH1 0xE5 SHL DUP2 MSTORE PUSH1 0x20 PUSH1 0x4 DUP3 ADD MSTORE PUSH1 0x1F PUSH1 0x24 DUP3 ADD MSTORE PUSH32 0x4C5020746F6B656E20616464726573732063616E6E6F74206265207A65726F00 PUSH1 0x44 DUP3 ADD MSTORE PUSH1 0x64 ADD PUSH3 0xB4 JUMP JUMPDEST PUSH1 0x1 PUSH1 0x1 PUSH1 0xA0 SHL SUB DUP2 AND PUSH3 0x179 JUMPI PUSH1 0x40 MLOAD PUSH3 0x461BCD PUSH1 0xE5 SHL DUP2 MSTORE PUSH1 0x20 PUSH1 0x4 DUP3 ADD MSTORE PUSH1 0x24 DUP1 DUP3 ADD MSTORE PUSH32 0x46656520726563697069656E742063616E6E6F74206265207A65726F20616464 PUSH1 0x44 DUP3 ADD MSTORE PUSH4 0x72657373 PUSH1 0xE0 SHL PUSH1 0x64 DUP3 ADD MSTORE PUSH1 0x84 ADD PUSH3 0xB4 JUMP JUMPDEST PUSH1 0x1 PUSH1 0x1 PUSH1 0xA0 SHL SUB SWAP3 DUP4 AND PUSH1 0x80 MSTORE SWAP1 DUP3 AND PUSH1 0xA0 MSTORE PUSH1 0x6 DUP1 SLOAD PUSH1 0x1 PUSH1 0x1 PUSH1 0xA0 SHL SUB NOT AND SWAP2 SWAP1 SWAP3 AND OR SWAP1 SSTORE PUSH3 0x265 JUMP JUMPDEST PUSH1 0x0 DUP1 SLOAD PUSH1 0x1 PUSH1 0x1 PUSH1 0xA0 SHL SUB DUP4 DUP2 AND PUSH1 0x1 PUSH1 0x1 PUSH1 0xA0 SHL SUB NOT DUP4 AND DUP2 OR DUP5 SSTORE PUSH1 0x40 MLOAD SWAP2 SWAP1 SWAP3 AND SWAP3 DUP4 SWAP2 PUSH32 0x8BE0079C531659141344CD1FD0A4F28419497F9722A3DAAFE3B4186F6B6457E0 SWAP2 SWAP1 LOG3 POP POP JUMP JUMPDEST PUSH1 0x1 PUSH1 0x1 PUSH1 0xA0 SHL SUB DUP2 AND DUP2 EQ PUSH3 0x20E JUMPI PUSH1 0x0 DUP1 REVERT JUMPDEST POP JUMP JUMPDEST PUSH1 0x0 DUP1 PUSH1 0x0 PUSH1 0x60 DUP5 DUP7 SUB SLT ISZERO PUSH3 0x227 JUMPI PUSH1 0x0 DUP1 REVERT JUMPDEST DUP4 MLOAD PUSH3 0x234 DUP2 PUSH3 0x1F8 JUMP JUMPDEST PUSH1 0x20 DUP6 ADD MLOAD SWAP1 SWAP4 POP PUSH3 0x247 DUP2 PUSH3 0x1F8 JUMP JUMPDEST PUSH1 0x40 DUP6 ADD MLOAD SWAP1 SWAP3 POP PUSH3 0x25A DUP2 PUSH3 0x1F8 JUMP JUMPDEST DUP1 SWAP2 POP POP SWAP3 POP SWAP3 POP SWAP3 JUMP JUMPDEST PUSH1 0x80 MLOAD PUSH1 0xA0 MLOAD PUSH2 0x1579 PUSH3 0x2CA PUSH1 0x0 CODECOPY PUSH1 0x0 DUP2 DUP2 PUSH2 0x178 ADD MSTORE DUP2 DUP2 PUSH2 0x6B0 ADD MSTORE DUP2 DUP2 PUSH2 0x780 ADD MSTORE DUP2 DUP2 PUSH2 0xEB4 ADD MSTORE PUSH2 0xF8E ADD MSTORE PUSH1 0x0 DUP2 DUP2 PUSH2 0x280 ADD MSTORE DUP2 DUP2 PUSH2 0x3DB ADD MSTORE DUP2 DUP2 PUSH2 0x950 ADD MSTORE DUP2 DUP2 PUSH2 0xA2D ADD MSTORE DUP2 DUP2 PUSH2 0xC5B ADD MSTORE PUSH2 0xD2E ADD MSTORE PUSH2 0x1579 PUSH1 0x0 RETURN INVALID PUSH1 0x80 PUSH1 0x40 MSTORE CALLVALUE DUP1 ISZERO PUSH2 0x10 JUMPI PUSH1 0x0 DUP1 REVERT JUMPDEST POP PUSH1 0x4 CALLDATASIZE LT PUSH2 0x121 JUMPI PUSH1 0x0 CALLDATALOAD PUSH1 0xE0 SHR DUP1 PUSH4 0xB2BAC3CF GT PUSH2 0xAD JUMPI DUP1 PUSH4 0xD87A8B8E GT PUSH2 0x71 JUMPI DUP1 PUSH4 0xD87A8B8E EQ PUSH2 0x268 JUMPI DUP1 PUSH4 0xE311FD0A EQ PUSH2 0x27B JUMPI DUP1 PUSH4 0xE5DA2CB2 EQ PUSH2 0x2A2 JUMPI DUP1 PUSH4 0xF2FDE38B EQ PUSH2 0x2B5 JUMPI DUP1 PUSH4 0xFB9C19EA EQ PUSH2 0x2C8 JUMPI PUSH1 0x0 DUP1 REVERT JUMPDEST DUP1 PUSH4 0xB2BAC3CF EQ PUSH2 0x1DC JUMPI DUP1 PUSH4 0xC38E3193 EQ PUSH2 0x226 JUMPI DUP1 PUSH4 0xC4778998 EQ PUSH2 0x239 JUMPI DUP1 PUSH4 0xC8D05042 EQ PUSH2 0x24C JUMPI DUP1 PUSH4 0xD7634A73 EQ PUSH2 0x255 JUMPI PUSH1 0x0 DUP1 REVERT JUMPDEST DUP1 PUSH4 0x715018A6 GT PUSH2 0xF4 JUMPI DUP1 PUSH4 0x715018A6 EQ PUSH2 0x19A JUMPI DUP1 PUSH4 0x8162BFF4 EQ PUSH2 0x1A2 JUMPI DUP1 PUSH4 0x8DA5CB5B EQ PUSH2 0x1B9 JUMPI DUP1 PUSH4 0xABABEDB0 EQ PUSH2 0x1CA JUMPI DUP1 PUSH4 0xACC36319 EQ PUSH2 0x1D3 JUMPI PUSH1 0x0 DUP1 REVERT JUMPDEST DUP1 PUSH4 0x372500AB EQ PUSH2 0x126 JUMPI DUP1 PUSH4 0x37BA04A0 EQ PUSH2 0x130 JUMPI DUP1 PUSH4 0x46904840 EQ PUSH2 0x143 JUMPI DUP1 PUSH4 0x5FCBD285 EQ PUSH2 0x173 JUMPI JUMPDEST PUSH1 0x0 DUP1 REVERT JUMPDEST PUSH2 0x12E PUSH2 0x2F7 JUMP JUMPDEST STOP JUMPDEST PUSH2 0x12E PUSH2 0x13E CALLDATASIZE PUSH1 0x4 PUSH2 0x13D4 JUMP JUMPDEST PUSH2 0x4CE JUMP JUMPDEST PUSH1 0x6 SLOAD PUSH2 0x156 SWAP1 PUSH1 0x1 PUSH1 0x1 PUSH1 0xA0 SHL SUB AND DUP2 JUMP JUMPDEST PUSH1 0x40 MLOAD PUSH1 0x1 PUSH1 0x1 PUSH1 0xA0 SHL SUB SWAP1 SWAP2 AND DUP2 MSTORE PUSH1 0x20 ADD JUMPDEST PUSH1 0x40 MLOAD DUP1 SWAP2 SUB SWAP1 RETURN JUMPDEST PUSH2 0x156 PUSH32 0x0 DUP2 JUMP JUMPDEST PUSH2 0x12E PUSH2 0x4E1 JUMP JUMPDEST PUSH2 0x1AB PUSH1 0x2 SLOAD DUP2 JUMP JUMPDEST PUSH1 0x40 MLOAD SWAP1 DUP2 MSTORE PUSH1 0x20 ADD PUSH2 0x16A JUMP JUMPDEST PUSH1 0x0 SLOAD PUSH1 0x1 PUSH1 0x1 PUSH1 0xA0 SHL SUB AND PUSH2 0x156 JUMP JUMPDEST PUSH2 0x1AB PUSH1 0x4 SLOAD DUP2 JUMP JUMPDEST PUSH2 0x1AB PUSH1 0x3 SLOAD DUP2 JUMP JUMPDEST PUSH2 0x20B PUSH2 0x1EA CALLDATASIZE PUSH1 0x4 PUSH2 0x1412 JUMP JUMPDEST PUSH1 0x7 PUSH1 0x20 MSTORE PUSH1 0x0 SWAP1 DUP2 MSTORE PUSH1 0x40 SWAP1 KECCAK256 DUP1 SLOAD PUSH1 0x1 DUP3 ADD SLOAD PUSH1 0x2 SWAP1 SWAP3 ADD SLOAD SWAP1 SWAP2 SWAP1 DUP4 JUMP JUMPDEST PUSH1 0x40 DUP1 MLOAD SWAP4 DUP5 MSTORE PUSH1 0x20 DUP5 ADD SWAP3 SWAP1 SWAP3 MSTORE SWAP1 DUP3 ADD MSTORE PUSH1 0x60 ADD PUSH2 0x16A JUMP JUMPDEST PUSH2 0x12E PUSH2 0x234 CALLDATASIZE PUSH1 0x4 PUSH2 0x1434 JUMP JUMPDEST PUSH2 0x4F3 JUMP JUMPDEST PUSH2 0x12E PUSH2 0x247 CALLDATASIZE PUSH1 0x4 PUSH2 0x1469 JUMP JUMPDEST PUSH2 0x5C1 JUMP JUMPDEST PUSH2 0x1AB PUSH1 0x5 SLOAD DUP2 JUMP JUMPDEST PUSH2 0x12E PUSH2 0x263 CALLDATASIZE PUSH1 0x4 PUSH2 0x1469 JUMP JUMPDEST PUSH2 0x8BA JUMP JUMPDEST PUSH2 0x12E PUSH2 0x276 CALLDATASIZE PUSH1 0x4 PUSH2 0x1469 JUMP JUMPDEST PUSH2 0xB6C JUMP JUMPDEST PUSH2 0x156 PUSH32 0x0 DUP2 JUMP JUMPDEST PUSH2 0x12E PUSH2 0x2B0 CALLDATASIZE PUSH1 0x4 PUSH2 0x1469 JUMP JUMPDEST PUSH2 0xE21 JUMP JUMPDEST PUSH2 0x12E PUSH2 0x2C3 CALLDATASIZE PUSH1 0x4 PUSH2 0x1412 JUMP JUMPDEST PUSH2 0x10CD JUMP JUMPDEST PUSH2 0x20B PUSH2 0x2D6 CALLDATASIZE PUSH1 0x4 PUSH2 0x1412 JUMP JUMPDEST PUSH1 0x8 PUSH1 0x20 MSTORE PUSH1 0x0 SWAP1 DUP2 MSTORE PUSH1 0x40 SWAP1 KECCAK256 DUP1 SLOAD PUSH1 0x1 DUP3 ADD SLOAD PUSH1 0x2 SWAP1 SWAP3 ADD SLOAD SWAP1 SWAP2 SWAP1 DUP4 JUMP JUMPDEST PUSH2 0x2FF PUSH2 0x1143 JUMP JUMPDEST PUSH2 0x30A CALLER PUSH1 0x1 PUSH2 0x119C JUMP JUMPDEST PUSH2 0x315 CALLER PUSH1 0x0 PUSH2 0x119C JUMP JUMPDEST CALLER PUSH1 0x0 SWAP1 DUP2 MSTORE PUSH1 0x8 PUSH1 0x20 SWAP1 DUP2 MSTORE PUSH1 0x40 DUP1 DUP4 KECCAK256 PUSH1 0x2 SWAP1 DUP2 ADD SLOAD PUSH1 0x7 SWAP1 SWAP4 MSTORE SWAP1 DUP4 KECCAK256 ADD SLOAD PUSH2 0x341 SWAP2 SWAP1 PUSH2 0x1498 JUMP JUMPDEST SWAP1 POP PUSH1 0x0 DUP2 GT PUSH2 0x38E JUMPI PUSH1 0x40 MLOAD PUSH3 0x461BCD PUSH1 0xE5 SHL DUP2 MSTORE PUSH1 0x20 PUSH1 0x4 DUP3 ADD MSTORE PUSH1 0x13 PUSH1 0x24 DUP3 ADD MSTORE PUSH19 0x4E6F207265776172647320746F20636C61696D PUSH1 0x68 SHL PUSH1 0x44 DUP3 ADD MSTORE PUSH1 0x64 ADD JUMPDEST PUSH1 0x40 MLOAD DUP1 SWAP2 SUB SWAP1 REVERT JUMPDEST CALLER PUSH1 0x0 DUP2 DUP2 MSTORE PUSH1 0x7 PUSH1 0x20 SWAP1 DUP2 MSTORE PUSH1 0x40 DUP1 DUP4 KECCAK256 PUSH1 0x2 SWAP1 DUP2 ADD DUP5 SWAP1 SSTORE PUSH1 0x8 SWAP1 SWAP3 MSTORE DUP1 DUP4 KECCAK256 SWAP1 SWAP2 ADD SWAP2 SWAP1 SWAP2 SSTORE MLOAD PUSH4 0xA9059CBB PUSH1 0xE0 SHL DUP2 MSTORE PUSH1 0x4 DUP2 ADD SWAP2 SWAP1 SWAP2 MSTORE PUSH1 0x24 DUP2 ADD DUP3 SWAP1 MSTORE PUSH1 0x1 PUSH1 0x1 PUSH1 0xA0 SHL SUB PUSH32 0x0 AND SWAP1 PUSH4 0xA9059CBB SWAP1 PUSH1 0x44 ADD PUSH1 0x20 PUSH1 0x40 MLOAD DUP1 DUP4 SUB DUP2 PUSH1 0x0 DUP8 GAS CALL ISZERO DUP1 ISZERO PUSH2 0x424 JUMPI RETURNDATASIZE PUSH1 0x0 DUP1 RETURNDATACOPY RETURNDATASIZE PUSH1 0x0 REVERT JUMPDEST POP POP POP POP PUSH1 0x40 MLOAD RETURNDATASIZE PUSH1 0x1F NOT PUSH1 0x1F DUP3 ADD AND DUP3 ADD DUP1 PUSH1 0x40 MSTORE POP DUP2 ADD SWAP1 PUSH2 0x448 SWAP2 SWAP1 PUSH2 0x14B1 JUMP JUMPDEST PUSH2 0x48D JUMPI PUSH1 0x40 MLOAD PUSH3 0x461BCD PUSH1 0xE5 SHL DUP2 MSTORE PUSH1 0x20 PUSH1 0x4 DUP3 ADD MSTORE PUSH1 0x16 PUSH1 0x24 DUP3 ADD MSTORE PUSH22 0x14995DD85C99081D1C985B9CD9995C8819985A5B1959 PUSH1 0x52 SHL PUSH1 0x44 DUP3 ADD MSTORE PUSH1 0x64 ADD PUSH2 0x385 JUMP JUMPDEST PUSH1 0x40 MLOAD DUP2 DUP2 MSTORE CALLER SWAP1 PUSH32 0x106F923F993C2149D49B4255FF723ACAFA1F2D94393F561D3EDA32AE348F7241 SWAP1 PUSH1 0x20 ADD PUSH1 0x40 MLOAD DUP1 SWAP2 SUB SWAP1 LOG2 POP PUSH2 0x4CC PUSH1 0x1 DUP1 SSTORE JUMP JUMPDEST JUMP JUMPDEST PUSH2 0x4D6 PUSH2 0x132A JUMP JUMPDEST PUSH1 0x2 SWAP2 SWAP1 SWAP2 SSTORE PUSH1 0x3 SSTORE JUMP JUMPDEST PUSH2 0x4E9 PUSH2 0x132A JUMP JUMPDEST PUSH2 0x4CC PUSH1 0x0 PUSH2 0x1384 JUMP JUMPDEST PUSH2 0x4FB PUSH2 0x132A JUMP JUMPDEST PUSH1 0x1 PUSH1 0x1 PUSH1 0xA0 SHL SUB DUP2 AND PUSH2 0x549 JUMPI PUSH1 0x40 MLOAD PUSH3 0x461BCD PUSH1 0xE5 SHL DUP2 MSTORE PUSH1 0x20 PUSH1 0x4 DUP3 ADD MSTORE PUSH1 0x15 PUSH1 0x24 DUP3 ADD MSTORE PUSH21 0x125B9D985B1A5908199959481C9958DA5C1A595B9D PUSH1 0x5A SHL PUSH1 0x44 DUP3 ADD MSTORE PUSH1 0x64 ADD PUSH2 0x385 JUMP JUMPDEST PUSH1 0xA DUP4 GT ISZERO DUP1 ISZERO PUSH2 0x55B JUMPI POP PUSH1 0xA DUP3 GT ISZERO JUMPDEST PUSH2 0x597 JUMPI PUSH1 0x40 MLOAD PUSH3 0x461BCD PUSH1 0xE5 SHL DUP2 MSTORE PUSH1 0x20 PUSH1 0x4 DUP3 ADD MSTORE PUSH1 0xD PUSH1 0x24 DUP3 ADD MSTORE PUSH13 0x8CCACAE640E8DEDE40D0D2CED PUSH1 0x9B SHL PUSH1 0x44 DUP3 ADD MSTORE PUSH1 0x64 ADD PUSH2 0x385 JUMP JUMPDEST PUSH1 0x4 SWAP3 SWAP1 SWAP3 SSTORE PUSH1 0x5 SSTORE PUSH1 0x6 DUP1 SLOAD PUSH1 0x1 PUSH1 0x1 PUSH1 0xA0 SHL SUB NOT AND PUSH1 0x1 PUSH1 0x1 PUSH1 0xA0 SHL SUB SWAP1 SWAP3 AND SWAP2 SWAP1 SWAP2 OR SWAP1 SSTORE JUMP JUMPDEST PUSH2 0x5C9 PUSH2 0x1143 JUMP JUMPDEST PUSH1 0x0 DUP2 GT DUP1 ISZERO PUSH2 0x5E8 JUMPI POP CALLER PUSH1 0x0 SWAP1 DUP2 MSTORE PUSH1 0x8 PUSH1 0x20 MSTORE PUSH1 0x40 SWAP1 KECCAK256 SLOAD DUP2 GT ISZERO JUMPDEST PUSH2 0x634 JUMPI PUSH1 0x40 MLOAD PUSH3 0x461BCD PUSH1 0xE5 SHL DUP2 MSTORE PUSH1 0x20 PUSH1 0x4 DUP3 ADD MSTORE PUSH1 0x19 PUSH1 0x24 DUP3 ADD MSTORE PUSH32 0x496E76616C6964204C5020756E7374616B6520616D6F756E7400000000000000 PUSH1 0x44 DUP3 ADD MSTORE PUSH1 0x64 ADD PUSH2 0x385 JUMP JUMPDEST PUSH1 0x0 PUSH1 0x64 PUSH1 0x5 SLOAD DUP4 PUSH2 0x646 SWAP2 SWAP1 PUSH2 0x14D3 JUMP JUMPDEST PUSH2 0x650 SWAP2 SWAP1 PUSH2 0x14EA JUMP JUMPDEST SWAP1 POP PUSH1 0x0 PUSH2 0x65E DUP3 DUP5 PUSH2 0x150C JUMP JUMPDEST CALLER PUSH1 0x0 SWAP1 DUP2 MSTORE PUSH1 0x8 PUSH1 0x20 MSTORE PUSH1 0x40 DUP2 KECCAK256 DUP1 SLOAD SWAP3 SWAP4 POP DUP6 SWAP3 SWAP1 SWAP2 SWAP1 PUSH2 0x682 SWAP1 DUP5 SWAP1 PUSH2 0x150C JUMP JUMPDEST SWAP1 SWAP2 SSTORE POP POP PUSH1 0x6 SLOAD PUSH1 0x40 MLOAD PUSH4 0xA9059CBB PUSH1 0xE0 SHL DUP2 MSTORE PUSH1 0x1 PUSH1 0x1 PUSH1 0xA0 SHL SUB SWAP2 DUP3 AND PUSH1 0x4 DUP3 ADD MSTORE PUSH1 0x24 DUP2 ADD DUP5 SWAP1 MSTORE PUSH32 0x0 SWAP1 SWAP2 AND SWAP1 PUSH4 0xA9059CBB SWAP1 PUSH1 0x44 ADD PUSH1 0x20 PUSH1 0x40 MLOAD DUP1 DUP4 SUB DUP2 PUSH1 0x0 DUP8 GAS CALL ISZERO DUP1 ISZERO PUSH2 0x6FB JUMPI RETURNDATASIZE PUSH1 0x0 DUP1 RETURNDATACOPY RETURNDATASIZE PUSH1 0x0 REVERT JUMPDEST POP POP POP POP PUSH1 0x40 MLOAD RETURNDATASIZE PUSH1 0x1F NOT PUSH1 0x1F DUP3 ADD AND DUP3 ADD DUP1 PUSH1 0x40 MSTORE POP DUP2 ADD SWAP1 PUSH2 0x71F SWAP2 SWAP1 PUSH2 0x14B1 JUMP JUMPDEST PUSH2 0x764 JUMPI PUSH1 0x40 MLOAD PUSH3 0x461BCD PUSH1 0xE5 SHL DUP2 MSTORE PUSH1 0x20 PUSH1 0x4 DUP3 ADD MSTORE PUSH1 0x16 PUSH1 0x24 DUP3 ADD MSTORE PUSH22 0x131408199959481D1C985B9CD9995C8819985A5B1959 PUSH1 0x52 SHL PUSH1 0x44 DUP3 ADD MSTORE PUSH1 0x64 ADD PUSH2 0x385 JUMP JUMPDEST PUSH1 0x40 MLOAD PUSH4 0xA9059CBB PUSH1 0xE0 SHL DUP2 MSTORE CALLER PUSH1 0x4 DUP3 ADD MSTORE PUSH1 0x24 DUP2 ADD DUP3 SWAP1 MSTORE PUSH32 0x0 PUSH1 0x1 PUSH1 0x1 PUSH1 0xA0 SHL SUB AND SWAP1 PUSH4 0xA9059CBB SWAP1 PUSH1 0x44 ADD PUSH1 0x20 PUSH1 0x40 MLOAD DUP1 DUP4 SUB DUP2 PUSH1 0x0 DUP8 GAS CALL ISZERO DUP1 ISZERO PUSH2 0x7D1 JUMPI RETURNDATASIZE PUSH1 0x0 DUP1 RETURNDATACOPY RETURNDATASIZE PUSH1 0x0 REVERT JUMPDEST POP POP POP POP PUSH1 0x40 MLOAD RETURNDATASIZE PUSH1 0x1F NOT PUSH1 0x1F DUP3 ADD AND DUP3 ADD DUP1 PUSH1 0x40 MSTORE POP DUP2 ADD SWAP1 PUSH2 0x7F5 SWAP2 SWAP1 PUSH2 0x14B1 JUMP JUMPDEST PUSH2 0x841 JUMPI PUSH1 0x40 MLOAD PUSH3 0x461BCD PUSH1 0xE5 SHL DUP2 MSTORE PUSH1 0x20 PUSH1 0x4 DUP3 ADD MSTORE PUSH1 0x1A PUSH1 0x24 DUP3 ADD MSTORE PUSH32 0x4C5020756E7374616B65207472616E73666572206661696C6564000000000000 PUSH1 0x44 DUP3 ADD MSTORE PUSH1 0x64 ADD PUSH2 0x385 JUMP JUMPDEST PUSH1 0x40 MLOAD DUP2 DUP2 MSTORE CALLER SWAP1 PUSH32 0x6CDB1BF7F2EB6C240B1C038FDC824928FD264038D2619C351562B7CA1E15ECE4 SWAP1 PUSH1 0x20 ADD JUMPDEST PUSH1 0x40 MLOAD DUP1 SWAP2 SUB SWAP1 LOG2 PUSH1 0x40 MLOAD DUP3 DUP2 MSTORE CALLER SWAP1 PUSH32 0x34E8A84E537ED93D93DDF39A78816DCBC74DF8397C635838B8CC973D4FA943F8 SWAP1 PUSH1 0x20 ADD PUSH1 0x40 MLOAD DUP1 SWAP2 SUB SWAP1 LOG2 POP POP PUSH2 0x8B7 PUSH1 0x1 DUP1 SSTORE JUMP JUMPDEST POP JUMP JUMPDEST PUSH2 0x8C2 PUSH2 0x1143 JUMP JUMPDEST PUSH1 0x0 DUP2 GT PUSH2 0x909 JUMPI PUSH1 0x40 MLOAD PUSH3 0x461BCD PUSH1 0xE5 SHL DUP2 MSTORE PUSH1 0x20 PUSH1 0x4 DUP3 ADD MSTORE PUSH1 0x14 PUSH1 0x24 DUP3 ADD MSTORE PUSH20 0x43616E6E6F74207374616B65203020494D414C49 PUSH1 0x60 SHL PUSH1 0x44 DUP3 ADD MSTORE PUSH1 0x64 ADD PUSH2 0x385 JUMP JUMPDEST PUSH1 0x0 PUSH1 0x64 PUSH1 0x4 SLOAD DUP4 PUSH2 0x91B SWAP2 SWAP1 PUSH2 0x14D3 JUMP JUMPDEST PUSH2 0x925 SWAP2 SWAP1 PUSH2 0x14EA JUMP JUMPDEST SWAP1 POP PUSH1 0x0 PUSH2 0x933 DUP3 DUP5 PUSH2 0x150C JUMP JUMPDEST PUSH1 0x6 SLOAD PUSH1 0x40 MLOAD PUSH4 0x23B872DD PUSH1 0xE0 SHL DUP2 MSTORE SWAP2 SWAP3 POP PUSH1 0x1 PUSH1 0x1 PUSH1 0xA0 SHL SUB PUSH32 0x0 DUP2 AND SWAP3 PUSH4 0x23B872DD SWAP3 PUSH2 0x98B SWAP3 CALLER SWAP3 SWAP2 AND SWAP1 DUP8 SWAP1 PUSH1 0x4 ADD PUSH2 0x151F JUMP JUMPDEST PUSH1 0x20 PUSH1 0x40 MLOAD DUP1 DUP4 SUB DUP2 PUSH1 0x0 DUP8 GAS CALL ISZERO DUP1 ISZERO PUSH2 0x9AA JUMPI RETURNDATASIZE PUSH1 0x0 DUP1 RETURNDATACOPY RETURNDATASIZE PUSH1 0x0 REVERT JUMPDEST POP POP POP POP PUSH1 0x40 MLOAD RETURNDATASIZE PUSH1 0x1F NOT PUSH1 0x1F DUP3 ADD AND DUP3 ADD DUP1 PUSH1 0x40 MSTORE POP DUP2 ADD SWAP1 PUSH2 0x9CE SWAP2 SWAP1 PUSH2 0x14B1 JUMP JUMPDEST PUSH2 0xA16 JUMPI PUSH1 0x40 MLOAD PUSH3 0x461BCD PUSH1 0xE5 SHL DUP2 MSTORE PUSH1 0x20 PUSH1 0x4 DUP3 ADD MSTORE PUSH1 0x19 PUSH1 0x24 DUP3 ADD MSTORE PUSH25 0x125350531248199959481D1C985B9CD9995C8819985A5B1959 PUSH1 0x3A SHL PUSH1 0x44 DUP3 ADD MSTORE PUSH1 0x64 ADD PUSH2 0x385 JUMP JUMPDEST PUSH1 0x40 MLOAD PUSH4 0x23B872DD PUSH1 0xE0 SHL DUP2 MSTORE PUSH1 0x1 PUSH1 0x1 PUSH1 0xA0 SHL SUB PUSH32 0x0 AND SWAP1 PUSH4 0x23B872DD SWAP1 PUSH2 0xA66 SWAP1 CALLER SWAP1 ADDRESS SWAP1 DUP7 SWAP1 PUSH1 0x4 ADD PUSH2 0x151F JUMP JUMPDEST PUSH1 0x20 PUSH1 0x40 MLOAD DUP1 DUP4 SUB DUP2 PUSH1 0x0 DUP8 GAS CALL ISZERO DUP1 ISZERO PUSH2 0xA85 JUMPI RETURNDATASIZE PUSH1 0x0 DUP1 RETURNDATACOPY RETURNDATASIZE PUSH1 0x0 REVERT JUMPDEST POP POP POP POP PUSH1 0x40 MLOAD RETURNDATASIZE PUSH1 0x1F NOT PUSH1 0x1F DUP3 ADD AND DUP3 ADD DUP1 PUSH1 0x40 MSTORE POP DUP2 ADD SWAP1 PUSH2 0xAA9 SWAP2 SWAP1 PUSH2 0x14B1 JUMP JUMPDEST PUSH2 0xAF5 JUMPI PUSH1 0x40 MLOAD PUSH3 0x461BCD PUSH1 0xE5 SHL DUP2 MSTORE PUSH1 0x20 PUSH1 0x4 DUP3 ADD MSTORE PUSH1 0x1B PUSH1 0x24 DUP3 ADD MSTORE PUSH32 0x494D414C49207374616B65207472616E73666572206661696C65640000000000 PUSH1 0x44 DUP3 ADD MSTORE PUSH1 0x64 ADD PUSH2 0x385 JUMP JUMPDEST PUSH2 0xB00 CALLER PUSH1 0x1 PUSH2 0x119C JUMP JUMPDEST CALLER PUSH1 0x0 SWAP1 DUP2 MSTORE PUSH1 0x7 PUSH1 0x20 MSTORE PUSH1 0x40 DUP2 KECCAK256 DUP1 SLOAD DUP4 SWAP3 SWAP1 PUSH2 0xB1F SWAP1 DUP5 SWAP1 PUSH2 0x1498 JUMP JUMPDEST SWAP1 SWAP2 SSTORE POP POP CALLER PUSH1 0x0 DUP2 DUP2 MSTORE PUSH1 0x7 PUSH1 0x20 MSTORE PUSH1 0x40 SWAP1 DUP2 SWAP1 KECCAK256 TIMESTAMP PUSH1 0x1 SWAP1 SWAP2 ADD SSTORE MLOAD PUSH32 0x6AD467E7654B822390E4BB86E55C524831F3D49B0AB8ED1A632B1DA4A7717F41 SWAP1 PUSH2 0x86F SWAP1 DUP5 DUP2 MSTORE PUSH1 0x20 ADD SWAP1 JUMP JUMPDEST PUSH2 0xB74 PUSH2 0x1143 JUMP JUMPDEST PUSH1 0x0 DUP2 GT DUP1 ISZERO PUSH2 0xB93 JUMPI POP CALLER PUSH1 0x0 SWAP1 DUP2 MSTORE PUSH1 0x7 PUSH1 0x20 MSTORE PUSH1 0x40 SWAP1 KECCAK256 SLOAD DUP2 GT ISZERO JUMPDEST PUSH2 0xBDF JUMPI PUSH1 0x40 MLOAD PUSH3 0x461BCD PUSH1 0xE5 SHL DUP2 MSTORE PUSH1 0x20 PUSH1 0x4 DUP3 ADD MSTORE PUSH1 0x1C PUSH1 0x24 DUP3 ADD MSTORE PUSH32 0x496E76616C696420494D414C4920756E7374616B6520616D6F756E7400000000 PUSH1 0x44 DUP3 ADD MSTORE PUSH1 0x64 ADD PUSH2 0x385 JUMP JUMPDEST PUSH1 0x0 PUSH1 0x64 PUSH1 0x4 SLOAD DUP4 PUSH2 0xBF1 SWAP2 SWAP1 PUSH2 0x14D3 JUMP JUMPDEST PUSH2 0xBFB SWAP2 SWAP1 PUSH2 0x14EA JUMP JUMPDEST SWAP1 POP PUSH1 0x0 PUSH2 0xC09 DUP3 DUP5 PUSH2 0x150C JUMP JUMPDEST CALLER PUSH1 0x0 SWAP1 DUP2 MSTORE PUSH1 0x7 PUSH1 0x20 MSTORE PUSH1 0x40 DUP2 KECCAK256 DUP1 SLOAD SWAP3 SWAP4 POP DUP6 SWAP3 SWAP1 SWAP2 SWAP1 PUSH2 0xC2D SWAP1 DUP5 SWAP1 PUSH2 0x150C JUMP JUMPDEST SWAP1 SWAP2 SSTORE POP POP PUSH1 0x6 SLOAD PUSH1 0x40 MLOAD PUSH4 0xA9059CBB PUSH1 0xE0 SHL DUP2 MSTORE PUSH1 0x1 PUSH1 0x1 PUSH1 0xA0 SHL SUB SWAP2 DUP3 AND PUSH1 0x4 DUP3 ADD MSTORE PUSH1 0x24 DUP2 ADD DUP5 SWAP1 MSTORE PUSH32 0x0 SWAP1 SWAP2 AND SWAP1 PUSH4 0xA9059CBB SWAP1 PUSH1 0x44 ADD PUSH1 0x20 PUSH1 0x40 MLOAD DUP1 DUP4 SUB DUP2 PUSH1 0x0 DUP8 GAS CALL ISZERO DUP1 ISZERO PUSH2 0xCA6 JUMPI RETURNDATASIZE PUSH1 0x0 DUP1 RETURNDATACOPY RETURNDATASIZE PUSH1 0x0 REVERT JUMPDEST POP POP POP POP PUSH1 0x40 MLOAD RETURNDATASIZE PUSH1 0x1F NOT PUSH1 0x1F DUP3 ADD AND DUP3 ADD DUP1 PUSH1 0x40 MSTORE POP DUP2 ADD SWAP1 PUSH2 0xCCA SWAP2 SWAP1 PUSH2 0x14B1 JUMP JUMPDEST PUSH2 0xD12 JUMPI PUSH1 0x40 MLOAD PUSH3 0x461BCD PUSH1 0xE5 SHL DUP2 MSTORE PUSH1 0x20 PUSH1 0x4 DUP3 ADD MSTORE PUSH1 0x19 PUSH1 0x24 DUP3 ADD MSTORE PUSH25 0x125350531248199959481D1C985B9CD9995C8819985A5B1959 PUSH1 0x3A SHL PUSH1 0x44 DUP3 ADD MSTORE PUSH1 0x64 ADD PUSH2 0x385 JUMP JUMPDEST PUSH1 0x40 MLOAD PUSH4 0xA9059CBB PUSH1 0xE0 SHL DUP2 MSTORE CALLER PUSH1 0x4 DUP3 ADD MSTORE PUSH1 0x24 DUP2 ADD DUP3 SWAP1 MSTORE PUSH32 0x0 PUSH1 0x1 PUSH1 0x1 PUSH1 0xA0 SHL SUB AND SWAP1 PUSH4 0xA9059CBB SWAP1 PUSH1 0x44 ADD PUSH1 0x20 PUSH1 0x40 MLOAD DUP1 DUP4 SUB DUP2 PUSH1 0x0 DUP8 GAS CALL ISZERO DUP1 ISZERO PUSH2 0xD7F JUMPI RETURNDATASIZE PUSH1 0x0 DUP1 RETURNDATACOPY RETURNDATASIZE PUSH1 0x0 REVERT JUMPDEST POP POP POP POP PUSH1 0x40 MLOAD RETURNDATASIZE PUSH1 0x1F NOT PUSH1 0x1F DUP3 ADD AND DUP3 ADD DUP1 PUSH1 0x40 MSTORE POP DUP2 ADD SWAP1 PUSH2 0xDA3 SWAP2 SWAP1 PUSH2 0x14B1 JUMP JUMPDEST PUSH2 0xDEF JUMPI PUSH1 0x40 MLOAD PUSH3 0x461BCD PUSH1 0xE5 SHL DUP2 MSTORE PUSH1 0x20 PUSH1 0x4 DUP3 ADD MSTORE PUSH1 0x1D PUSH1 0x24 DUP3 ADD MSTORE PUSH32 0x494D414C4920756E7374616B65207472616E73666572206661696C6564000000 PUSH1 0x44 DUP3 ADD MSTORE PUSH1 0x64 ADD PUSH2 0x385 JUMP JUMPDEST PUSH1 0x40 MLOAD DUP2 DUP2 MSTORE CALLER SWAP1 PUSH32 0x562551E6F2E6FE1DB475F437EC919836D0DDCAB2BBBEADB35A099F0756F30E27 SWAP1 PUSH1 0x20 ADD PUSH2 0x86F JUMP JUMPDEST PUSH2 0xE29 PUSH2 0x1143 JUMP JUMPDEST PUSH1 0x0 DUP2 GT PUSH2 0xE6D JUMPI PUSH1 0x40 MLOAD PUSH3 0x461BCD PUSH1 0xE5 SHL DUP2 MSTORE PUSH1 0x20 PUSH1 0x4 DUP3 ADD MSTORE PUSH1 0x11 PUSH1 0x24 DUP3 ADD MSTORE PUSH17 0x43616E6E6F74207374616B652030204C5 PUSH1 0x7C SHL PUSH1 0x44 DUP3 ADD MSTORE PUSH1 0x64 ADD PUSH2 0x385 JUMP JUMPDEST PUSH1 0x0 PUSH1 0x64 PUSH1 0x5 SLOAD DUP4 PUSH2 0xE7F SWAP2 SWAP1 PUSH2 0x14D3 JUMP JUMPDEST PUSH2 0xE89 SWAP2 SWAP1 PUSH2 0x14EA JUMP JUMPDEST SWAP1 POP PUSH1 0x0 PUSH2 0xE97 DUP3 DUP5 PUSH2 0x150C JUMP JUMPDEST PUSH1 0x6 SLOAD PUSH1 0x40 MLOAD PUSH4 0x23B872DD PUSH1 0xE0 SHL DUP2 MSTORE SWAP2 SWAP3 POP PUSH1 0x1 PUSH1 0x1 PUSH1 0xA0 SHL SUB PUSH32 0x0 DUP2 AND SWAP3 PUSH4 0x23B872DD SWAP3 PUSH2 0xEEF SWAP3 CALLER SWAP3 SWAP2 AND SWAP1 DUP8 SWAP1 PUSH1 0x4 ADD PUSH2 0x151F JUMP JUMPDEST PUSH1 0x20 PUSH1 0x40 MLOAD DUP1 DUP4 SUB DUP2 PUSH1 0x0 DUP8 GAS CALL ISZERO DUP1 ISZERO PUSH2 0xF0E JUMPI RETURNDATASIZE PUSH1 0x0 DUP1 RETURNDATACOPY RETURNDATASIZE PUSH1 0x0 REVERT JUMPDEST POP POP POP POP PUSH1 0x40 MLOAD RETURNDATASIZE PUSH1 0x1F NOT PUSH1 0x1F DUP3 ADD AND DUP3 ADD DUP1 PUSH1 0x40 MSTORE POP DUP2 ADD SWAP1 PUSH2 0xF32 SWAP2 SWAP1 PUSH2 0x14B1 JUMP JUMPDEST PUSH2 0xF77 JUMPI PUSH1 0x40 MLOAD PUSH3 0x461BCD PUSH1 0xE5 SHL DUP2 MSTORE PUSH1 0x20 PUSH1 0x4 DUP3 ADD MSTORE PUSH1 0x16 PUSH1 0x24 DUP3 ADD MSTORE PUSH22 0x131408199959481D1C985B9CD9995C8819985A5B1959 PUSH1 0x52 SHL PUSH1 0x44 DUP3 ADD MSTORE PUSH1 0x64 ADD PUSH2 0x385 JUMP JUMPDEST PUSH1 0x40 MLOAD PUSH4 0x23B872DD PUSH1 0xE0 SHL DUP2 MSTORE PUSH1 0x1 PUSH1 0x1 PUSH1 0xA0 SHL SUB PUSH32 0x0 AND SWAP1 PUSH4 0x23B872DD SWAP1 PUSH2 0xFC7 SWAP1 CALLER SWAP1 ADDRESS SWAP1 DUP7 SWAP1 PUSH1 0x4 ADD PUSH2 0x151F JUMP JUMPDEST PUSH1 0x20 PUSH1 0x40 MLOAD DUP1 DUP4 SUB DUP2 PUSH1 0x0 DUP8 GAS CALL ISZERO DUP1 ISZERO PUSH2 0xFE6 JUMPI RETURNDATASIZE PUSH1 0x0 DUP1 RETURNDATACOPY RETURNDATASIZE PUSH1 0x0 REVERT JUMPDEST POP POP POP POP PUSH1 0x40 MLOAD RETURNDATASIZE PUSH1 0x1F NOT PUSH1 0x1F DUP3 ADD AND DUP3 ADD DUP1 PUSH1 0x40 MSTORE POP DUP2 ADD SWAP1 PUSH2 0x100A SWAP2 SWAP1 PUSH2 0x14B1 JUMP JUMPDEST PUSH2 0x1056 JUMPI PUSH1 0x40 MLOAD PUSH3 0x461BCD PUSH1 0xE5 SHL DUP2 MSTORE PUSH1 0x20 PUSH1 0x4 DUP3 ADD MSTORE PUSH1 0x18 PUSH1 0x24 DUP3 ADD MSTORE PUSH32 0x4C50207374616B65207472616E73666572206661696C65640000000000000000 PUSH1 0x44 DUP3 ADD MSTORE PUSH1 0x64 ADD PUSH2 0x385 JUMP JUMPDEST PUSH2 0x1061 CALLER PUSH1 0x0 PUSH2 0x119C JUMP JUMPDEST CALLER PUSH1 0x0 SWAP1 DUP2 MSTORE PUSH1 0x8 PUSH1 0x20 MSTORE PUSH1 0x40 DUP2 KECCAK256 DUP1 SLOAD DUP4 SWAP3 SWAP1 PUSH2 0x1080 SWAP1 DUP5 SWAP1 PUSH2 0x1498 JUMP JUMPDEST SWAP1 SWAP2 SSTORE POP POP CALLER PUSH1 0x0 DUP2 DUP2 MSTORE PUSH1 0x8 PUSH1 0x20 MSTORE PUSH1 0x40 SWAP1 DUP2 SWAP1 KECCAK256 TIMESTAMP PUSH1 0x1 SWAP1 SWAP2 ADD SSTORE MLOAD PUSH32 0xD48410CB74CA557AF6DF6423FE044C163E80CF09ED3DB9294D365C70451ED789 SWAP1 PUSH2 0x86F SWAP1 DUP5 DUP2 MSTORE PUSH1 0x20 ADD SWAP1 JUMP JUMPDEST PUSH2 0x10D5 PUSH2 0x132A JUMP JUMPDEST PUSH1 0x1 PUSH1 0x1 PUSH1 0xA0 SHL SUB DUP2 AND PUSH2 0x113A JUMPI PUSH1 0x40 MLOAD PUSH3 0x461BCD PUSH1 0xE5 SHL DUP2 MSTORE PUSH1 0x20 PUSH1 0x4 DUP3 ADD MSTORE PUSH1 0x26 PUSH1 0x24 DUP3 ADD MSTORE PUSH32 0x4F776E61626C653A206E6577206F776E657220697320746865207A65726F2061 PUSH1 0x44 DUP3 ADD MSTORE PUSH6 0x646472657373 PUSH1 0xD0 SHL PUSH1 0x64 DUP3 ADD MSTORE PUSH1 0x84 ADD PUSH2 0x385 JUMP JUMPDEST PUSH2 0x8B7 DUP2 PUSH2 0x1384 JUMP JUMPDEST PUSH1 0x2 PUSH1 0x1 SLOAD SUB PUSH2 0x1195 JUMPI PUSH1 0x40 MLOAD PUSH3 0x461BCD PUSH1 0xE5 SHL DUP2 MSTORE PUSH1 0x20 PUSH1 0x4 DUP3 ADD MSTORE PUSH1 0x1F PUSH1 0x24 DUP3 ADD MSTORE PUSH32 0x5265656E7472616E637947756172643A207265656E7472616E742063616C6C00 PUSH1 0x44 DUP3 ADD MSTORE PUSH1 0x64 ADD PUSH2 0x385 JUMP JUMPDEST PUSH1 0x2 PUSH1 0x1 SSTORE JUMP JUMPDEST PUSH1 0x0 DUP1 PUSH1 0x0 DUP4 ISZERO PUSH2 0x1267 JUMPI PUSH1 0x1 PUSH1 0x1 PUSH1 0xA0 SHL SUB DUP6 AND PUSH1 0x0 SWAP1 DUP2 MSTORE PUSH1 0x7 PUSH1 0x20 MSTORE PUSH1 0x40 SWAP1 KECCAK256 PUSH1 0x1 ADD SLOAD PUSH2 0x11CD SWAP1 TIMESTAMP PUSH2 0x150C JUMP JUMPDEST PUSH1 0x2 SLOAD PUSH1 0x1 PUSH1 0x1 PUSH1 0xA0 SHL SUB DUP8 AND PUSH1 0x0 SWAP1 DUP2 MSTORE PUSH1 0x7 PUSH1 0x20 MSTORE PUSH1 0x40 SWAP1 KECCAK256 SLOAD SWAP2 SWAP5 POP SWAP3 POP SWAP1 POP PUSH3 0x15180 DUP4 PUSH2 0x11FF DUP5 DUP5 PUSH2 0x14D3 JUMP JUMPDEST PUSH2 0x1209 SWAP2 SWAP1 PUSH2 0x14D3 JUMP JUMPDEST PUSH2 0x1213 SWAP2 SWAP1 PUSH2 0x14EA JUMP JUMPDEST PUSH1 0x1 PUSH1 0x1 PUSH1 0xA0 SHL SUB DUP7 AND PUSH1 0x0 SWAP1 DUP2 MSTORE PUSH1 0x7 PUSH1 0x20 MSTORE PUSH1 0x40 DUP2 KECCAK256 PUSH1 0x2 ADD DUP1 SLOAD SWAP1 SWAP2 SWAP1 PUSH2 0x123E SWAP1 DUP5 SWAP1 PUSH2 0x1498 JUMP JUMPDEST SWAP1 SWAP2 SSTORE POP POP PUSH1 0x1 PUSH1 0x1 PUSH1 0xA0 SHL SUB DUP6 AND PUSH1 0x0 SWAP1 DUP2 MSTORE PUSH1 0x7 PUSH1 0x20 MSTORE PUSH1 0x40 SWAP1 KECCAK256 TIMESTAMP PUSH1 0x1 SWAP1 SWAP2 ADD SSTORE PUSH2 0x1323 JUMP JUMPDEST PUSH1 0x1 PUSH1 0x1 PUSH1 0xA0 SHL SUB DUP6 AND PUSH1 0x0 SWAP1 DUP2 MSTORE PUSH1 0x8 PUSH1 0x20 MSTORE PUSH1 0x40 SWAP1 KECCAK256 PUSH1 0x1 ADD SLOAD PUSH2 0x128D SWAP1 TIMESTAMP PUSH2 0x150C JUMP JUMPDEST PUSH1 0x3 SLOAD PUSH1 0x1 PUSH1 0x1 PUSH1 0xA0 SHL SUB DUP8 AND PUSH1 0x0 SWAP1 DUP2 MSTORE PUSH1 0x8 PUSH1 0x20 MSTORE PUSH1 0x40 SWAP1 KECCAK256 SLOAD SWAP2 SWAP5 POP SWAP3 POP SWAP1 POP PUSH3 0x15180 DUP4 PUSH2 0x12BF DUP5 DUP5 PUSH2 0x14D3 JUMP JUMPDEST PUSH2 0x12C9 SWAP2 SWAP1 PUSH2 0x14D3 JUMP JUMPDEST PUSH2 0x12D3 SWAP2 SWAP1 PUSH2 0x14EA JUMP JUMPDEST PUSH1 0x1 PUSH1 0x1 PUSH1 0xA0 SHL SUB DUP7 AND PUSH1 0x0 SWAP1 DUP2 MSTORE PUSH1 0x8 PUSH1 0x20 MSTORE PUSH1 0x40 DUP2 KECCAK256 PUSH1 0x2 ADD DUP1 SLOAD SWAP1 SWAP2 SWAP1 PUSH2 0x12FE SWAP1 DUP5 SWAP1 PUSH2 0x1498 JUMP JUMPDEST SWAP1 SWAP2 SSTORE POP POP PUSH1 0x1 PUSH1 0x1 PUSH1 0xA0 SHL SUB DUP6 AND PUSH1 0x0 SWAP1 DUP2 MSTORE PUSH1 0x8 PUSH1 0x20 MSTORE PUSH1 0x40 SWAP1 KECCAK256 TIMESTAMP PUSH1 0x1 SWAP1 SWAP2 ADD SSTORE JUMPDEST POP POP POP POP POP JUMP JUMPDEST PUSH1 0x0 SLOAD PUSH1 0x1 PUSH1 0x1 PUSH1 0xA0 SHL SUB AND CALLER EQ PUSH2 0x4CC JUMPI PUSH1 0x40 MLOAD PUSH3 0x461BCD PUSH1 0xE5 SHL DUP2 MSTORE PUSH1 0x20 PUSH1 0x4 DUP3 ADD DUP2 SWAP1 MSTORE PUSH1 0x24 DUP3 ADD MSTORE PUSH32 0x4F776E61626C653A2063616C6C6572206973206E6F7420746865206F776E6572 PUSH1 0x44 DUP3 ADD MSTORE PUSH1 0x64 ADD PUSH2 0x385 JUMP JUMPDEST PUSH1 0x0 DUP1 SLOAD PUSH1 0x1 PUSH1 0x1 PUSH1 0xA0 SHL SUB DUP4 DUP2 AND PUSH1 0x1 PUSH1 0x1 PUSH1 0xA0 SHL SUB NOT DUP4 AND DUP2 OR DUP5 SSTORE PUSH1 0x40 MLOAD SWAP2 SWAP1 SWAP3 AND SWAP3 DUP4 SWAP2 PUSH32 0x8BE0079C531659141344CD1FD0A4F28419497F9722A3DAAFE3B4186F6B6457E0 SWAP2 SWAP1 LOG3 POP POP JUMP JUMPDEST PUSH1 0x0 DUP1 PUSH1 0x40 DUP4 DUP6 SUB SLT ISZERO PUSH2 0x13E7 JUMPI PUSH1 0x0 DUP1 REVERT JUMPDEST POP POP DUP1 CALLDATALOAD SWAP3 PUSH1 0x20 SWAP1 SWAP2 ADD CALLDATALOAD SWAP2 POP JUMP JUMPDEST DUP1 CALLDATALOAD PUSH1 0x1 PUSH1 0x1 PUSH1 0xA0 SHL SUB DUP2 AND DUP2 EQ PUSH2 0x140D JUMPI PUSH1 0x0 DUP1 REVERT JUMPDEST SWAP2 SWAP1 POP JUMP JUMPDEST PUSH1 0x0 PUSH1 0x20 DUP3 DUP5 SUB SLT ISZERO PUSH2 0x1424 JUMPI PUSH1 0x0 DUP1 REVERT JUMPDEST PUSH2 0x142D DUP3 PUSH2 0x13F6 JUMP JUMPDEST SWAP4 SWAP3 POP POP POP JUMP JUMPDEST PUSH1 0x0 DUP1 PUSH1 0x0 PUSH1 0x60 DUP5 DUP7 SUB SLT ISZERO PUSH2 0x1449 JUMPI PUSH1 0x0 DUP1 REVERT JUMPDEST DUP4 CALLDATALOAD SWAP3 POP PUSH1 0x20 DUP5 ADD CALLDATALOAD SWAP2 POP PUSH2 0x1460 PUSH1 0x40 DUP6 ADD PUSH2 0x13F6 JUMP JUMPDEST SWAP1 POP SWAP3 POP SWAP3 POP SWAP3 JUMP JUMPDEST PUSH1 0x0 PUSH1 0x20 DUP3 DUP5 SUB SLT ISZERO PUSH2 0x147B JUMPI PUSH1 0x0 DUP1 REVERT JUMPDEST POP CALLDATALOAD SWAP2 SWAP1 POP JUMP JUMPDEST PUSH4 0x4E487B71 PUSH1 0xE0 SHL PUSH1 0x0 MSTORE PUSH1 0x11 PUSH1 0x4 MSTORE PUSH1 0x24 PUSH1 0x0 REVERT JUMPDEST DUP1 DUP3 ADD DUP1 DUP3 GT ISZERO PUSH2 0x14AB JUMPI PUSH2 0x14AB PUSH2 0x1482 JUMP JUMPDEST SWAP3 SWAP2 POP POP JUMP JUMPDEST PUSH1 0x0 PUSH1 0x20 DUP3 DUP5 SUB SLT ISZERO PUSH2 0x14C3 JUMPI PUSH1 0x0 DUP1 REVERT JUMPDEST DUP2 MLOAD DUP1 ISZERO ISZERO DUP2 EQ PUSH2 0x142D JUMPI PUSH1 0x0 DUP1 REVERT JUMPDEST DUP1 DUP3 MUL DUP2 ISZERO DUP3 DUP3 DIV DUP5 EQ OR PUSH2 0x14AB JUMPI PUSH2 0x14AB PUSH2 0x1482 JUMP JUMPDEST PUSH1 0x0 DUP3 PUSH2 0x1507 JUMPI PUSH4 0x4E487B71 PUSH1 0xE0 SHL PUSH1 0x0 MSTORE PUSH1 0x12 PUSH1 0x4 MSTORE PUSH1 0x24 PUSH1 0x0 REVERT JUMPDEST POP DIV SWAP1 JUMP JUMPDEST DUP2 DUP2 SUB DUP2 DUP2 GT ISZERO PUSH2 0x14AB JUMPI PUSH2 0x14AB PUSH2 0x1482 JUMP JUMPDEST PUSH1 0x1 PUSH1 0x1 PUSH1 0xA0 SHL SUB SWAP4 DUP5 AND DUP2 MSTORE SWAP2 SWAP1 SWAP3 AND PUSH1 0x20 DUP3 ADD MSTORE PUSH1 0x40 DUP2 ADD SWAP2 SWAP1 SWAP2 MSTORE PUSH1 0x60 ADD SWAP1 JUMP INVALID LOG2 PUSH5 0x6970667358 0x22 SLT KECCAK256 BALANCE JUMPDEST 0xCF 0xA6 PUSH9 0xE9B1D66F04201F609D DUP7 ADD 0xB4 SWAP7 0xBA 0xB5 0xFC 0x4F 0xEF 0xD7 0xE0 0x2C 0xCF 0x5D NUMBER 0xC4 PUSH23 0xF864736F6C634300081400330000000000000000000000 "},"methodIdentifiers":{"claimRewards()":"372500ab","feeRecipient()":"46904840","imaliFeePercentage()":"ababedb0","imaliRewardRate()":"8162bff4","imaliStakers(address)":"b2bac3cf","imaliToken()":"e311fd0a","lpFeePercentage()":"c8d05042","lpRewardRate()":"acc36319","lpStakers(address)":"fb9c19ea","lpToken()":"5fcbd285","owner()":"8da5cb5b","renounceOwnership()":"715018a6","setFeeSettings(uint256,uint256,address)":"c38e3193","setRewardRates(uint256,uint256)":"37ba04a0","stakeIMALI(uint256)":"d7634a73","stakeLP(uint256)":"e5da2cb2","transferOwnership(address)":"f2fde38b","unstakeIMALI(uint256)":"d87a8b8e","unstakeLP(uint256)":"c4778998"}},"storageLayout":{"storage":[{"astId":53,"contract":"contracts/IMALIStaking.sol:IMALIStaking","label":"_owner","offset":0,"slot":"0","type":"t_address"},{"astId":277,"contract":"contracts/IMALIStaking.sol:IMALIStaking","label":"_status","offset":0,"slot":"1","type":"t_uint256"},{"astId":5076,"contract":"contracts/IMALIStaking.sol:IMALIStaking","label":"imaliRewardRate","offset":0,"slot":"2","type":"t_uint256"},{"astId":5079,"contract":"contracts/IMALIStaking.sol:IMALIStaking","label":"lpRewardRate","offset":0,"slot":"3","type":"t_uint256"},{"astId":5082,"contract":"contracts/IMALIStaking.sol:IMALIStaking","label":"imaliFeePercentage","offset":0,"slot":"4","type":"t_uint256"},{"astId":5085,"contract":"contracts/IMALIStaking.sol:IMALIStaking","label":"lpFeePercentage","offset":0,"slot":"5","type":"t_uint256"},{"astId":5087,"contract":"contracts/IMALIStaking.sol:IMALIStaking","label":"feeRecipient","offset":0,"slot":"6","type":"t_address"},{"astId":5099,"contract":"contracts/IMALIStaking.sol:IMALIStaking","label":"imaliStakers","offset":0,"slot":"7","type":"t_mapping(t_address,t_struct(StakeInfo)5094_storage)"},{"astId":5104,"contract":"contracts/IMALIStaking.sol:IMALIStaking","label":"lpStakers","offset":0,"slot":"8","type":"t_mapping(t_address,t_struct(StakeInfo)5094_storage)"}],"types":{"t_address":{"encoding":"inplace","label":"address","numberOfBytes":"20"},"t_mapping(t_address,t_struct(StakeInfo)5094_storage)":{"encoding":"mapping","key":"t_address","label":"mapping(address => struct IMALIStaking.StakeInfo)","numberOfBytes":"32","value":"t_struct(StakeInfo)5094_storage"},"t_struct(StakeInfo)5094_storage":{"encoding":"inplace","label":"struct IMALIStaking.StakeInfo","members":[{"astId":5089,"contract":"contracts/IMALIStaking.sol:IMALIStaking","label":"amount","offset":0,"slot":"0","type":"t_uint256"},{"astId":5091,"contract":"contracts/IMALIStaking.sol:IMALIStaking","label":"lastUpdated","offset":0,"slot":"1","type":"t_uint256"},{"astId":5093,"contract":"contracts/IMALIStaking.sol:IMALIStaking","label":"rewards","offset":0,"slot":"2","type":"t_uint256"}],"numberOfBytes":"96"},"t_uint256":{"encoding":"inplace","label":"uint256","numberOfBytes":"32"}}}}}}