{"contracts/MockPriceFeed.sol":{"MockPriceFeed":{"abi":[{"inputs":[{"internalType":"int256","name":"_initialPrice","type":"int256"}],"stateMutability":"nonpayable","type":"constructor"},{"inputs":[],"name":"decimals","outputs":[{"internalType":"uint8","name":"","type":"uint8"}],"stateMutability":"view","type":"function"},{"inputs":[],"name":"description","outputs":[{"internalType":"string","name":"","type":"string"}],"stateMutability":"pure","type":"function"},{"inputs":[{"internalType":"uint80","name":"_roundId","type":"uint80"}],"name":"getRoundData","outputs":[{"internalType":"uint80","name":"roundId","type":"uint80"},{"internalType":"int256","name":"answer","type":"int256"},{"internalType":"uint256","name":"startedAt","type":"uint256"},{"internalType":"uint256","name":"updatedAt","type":"uint256"},{"internalType":"uint80","name":"answeredInRound","type":"uint80"}],"stateMutability":"view","type":"function"},{"inputs":[],"name":"latestRoundData","outputs":[{"internalType":"uint80","name":"roundId","type":"uint80"},{"internalType":"int256","name":"answer","type":"int256"},{"internalType":"uint256","name":"startedAt","type":"uint256"},{"internalType":"uint256","name":"updatedAt","type":"uint256"},{"internalType":"uint80","name":"answeredInRound","type":"uint80"}],"stateMutability":"view","type":"function"},{"inputs":[],"name":"version","outputs":[{"internalType":"uint256","name":"","type":"uint256"}],"stateMutability":"pure","type":"function"}],"evm":{"bytecode":{"linkReferences":{},"object":"60a060405234801561001057600080fd5b5060405161026438038061026483398101604081905261002f9161003c565b6000556008608052610055565b60006020828403121561004e57600080fd5b5051919050565b6080516101f561006f6000396000606301526101f56000f3fe608060405234801561001057600080fd5b50600436106100575760003560e01c8063313ce5671461005c57806354fd4d50146100925780637284e416146100a15780639a6fc8f5146100e0578063feaf968c14610132575b600080fd5b60405160ff7f00000000000000000000000000000000000000000000000000000000000000001681526020015b60405180910390f35b60405160018152602001610089565b604080518082018252601981527f4d6f636b20436861696e6c696e6b20507269636520466565640000000000000060208201529051610089919061013e565b6100fb6100ee36600461018c565b6000549091429081908490565b6040805169ffffffffffffffffffff968716815260208101959095528401929092526060830152909116608082015260a001610089565b600080544280836100fb565b600060208083528351808285015260005b8181101561016b5785810183015185820160400152820161014f565b506000604082860101526040601f19601f8301168501019250505092915050565b60006020828403121561019e57600080fd5b813569ffffffffffffffffffff811681146101b857600080fd5b939250505056fea2646970667358221220d69e825d80bfac3b7ca2324e66ed9e3b3aeeb853734dd915f002cc3a90cfd21e64736f6c63430008140033","opcodes":"PUSH1 0xA0 PUSH1 0x40 MSTORE CALLVALUE DUP1 ISZERO PUSH2 0x10 JUMPI PUSH1 0x0 DUP1 REVERT JUMPDEST POP PUSH1 0x40 MLOAD PUSH2 0x264 CODESIZE SUB DUP1 PUSH2 0x264 DUP4 CODECOPY DUP2 ADD PUSH1 0x40 DUP2 SWAP1 MSTORE PUSH2 0x2F SWAP2 PUSH2 0x3C JUMP JUMPDEST PUSH1 0x0 SSTORE PUSH1 0x8 PUSH1 0x80 MSTORE PUSH2 0x55 JUMP JUMPDEST PUSH1 0x0 PUSH1 0x20 DUP3 DUP5 SUB SLT ISZERO PUSH2 0x4E JUMPI PUSH1 0x0 DUP1 REVERT JUMPDEST POP MLOAD SWAP2 SWAP1 POP JUMP JUMPDEST PUSH1 0x80 MLOAD PUSH2 0x1F5 PUSH2 0x6F PUSH1 0x0 CODECOPY PUSH1 0x0 PUSH1 0x63 ADD MSTORE PUSH2 0x1F5 PUSH1 0x0 RETURN INVALID PUSH1 0x80 PUSH1 0x40 MSTORE CALLVALUE DUP1 ISZERO PUSH2 0x10 JUMPI PUSH1 0x0 DUP1 REVERT JUMPDEST POP PUSH1 0x4 CALLDATASIZE LT PUSH2 0x57 JUMPI PUSH1 0x0 CALLDATALOAD PUSH1 0xE0 SHR DUP1 PUSH4 0x313CE567 EQ PUSH2 0x5C JUMPI DUP1 PUSH4 0x54FD4D50 EQ PUSH2 0x92 JUMPI DUP1 PUSH4 0x7284E416 EQ PUSH2 0xA1 JUMPI DUP1 PUSH4 0x9A6FC8F5 EQ PUSH2 0xE0 JUMPI DUP1 PUSH4 0xFEAF968C EQ PUSH2 0x132 JUMPI JUMPDEST PUSH1 0x0 DUP1 REVERT JUMPDEST PUSH1 0x40 MLOAD PUSH1 0xFF PUSH32 0x0 AND DUP2 MSTORE PUSH1 0x20 ADD JUMPDEST PUSH1 0x40 MLOAD DUP1 SWAP2 SUB SWAP1 RETURN JUMPDEST PUSH1 0x40 MLOAD PUSH1 0x1 DUP2 MSTORE PUSH1 0x20 ADD PUSH2 0x89 JUMP JUMPDEST PUSH1 0x40 DUP1 MLOAD DUP1 DUP3 ADD DUP3 MSTORE PUSH1 0x19 DUP2 MSTORE PUSH32 0x4D6F636B20436861696E6C696E6B205072696365204665656400000000000000 PUSH1 0x20 DUP3 ADD MSTORE SWAP1 MLOAD PUSH2 0x89 SWAP2 SWAP1 PUSH2 0x13E JUMP JUMPDEST PUSH2 0xFB PUSH2 0xEE CALLDATASIZE PUSH1 0x4 PUSH2 0x18C JUMP JUMPDEST PUSH1 0x0 SLOAD SWAP1 SWAP2 TIMESTAMP SWAP1 DUP2 SWAP1 DUP5 SWAP1 JUMP JUMPDEST PUSH1 0x40 DUP1 MLOAD PUSH10 0xFFFFFFFFFFFFFFFFFFFF SWAP7 DUP8 AND DUP2 MSTORE PUSH1 0x20 DUP2 ADD SWAP6 SWAP1 SWAP6 MSTORE DUP5 ADD SWAP3 SWAP1 SWAP3 MSTORE PUSH1 0x60 DUP4 ADD MSTORE SWAP1 SWAP2 AND PUSH1 0x80 DUP3 ADD MSTORE PUSH1 0xA0 ADD PUSH2 0x89 JUMP JUMPDEST PUSH1 0x0 DUP1 SLOAD TIMESTAMP DUP1 DUP4 PUSH2 0xFB JUMP JUMPDEST PUSH1 0x0 PUSH1 0x20 DUP1 DUP4 MSTORE DUP4 MLOAD DUP1 DUP3 DUP6 ADD MSTORE PUSH1 0x0 JUMPDEST DUP2 DUP2 LT ISZERO PUSH2 0x16B JUMPI DUP6 DUP2 ADD DUP4 ADD MLOAD DUP6 DUP3 ADD PUSH1 0x40 ADD MSTORE DUP3 ADD PUSH2 0x14F JUMP JUMPDEST POP PUSH1 0x0 PUSH1 0x40 DUP3 DUP7 ADD ADD MSTORE PUSH1 0x40 PUSH1 0x1F NOT PUSH1 0x1F DUP4 ADD AND DUP6 ADD ADD SWAP3 POP POP POP SWAP3 SWAP2 POP POP JUMP JUMPDEST PUSH1 0x0 PUSH1 0x20 DUP3 DUP5 SUB SLT ISZERO PUSH2 0x19E JUMPI PUSH1 0x0 DUP1 REVERT JUMPDEST DUP2 CALLDATALOAD PUSH10 0xFFFFFFFFFFFFFFFFFFFF DUP2 AND DUP2 EQ PUSH2 0x1B8 JUMPI PUSH1 0x0 DUP1 REVERT JUMPDEST SWAP4 SWAP3 POP POP POP JUMP INVALID LOG2 PUSH5 0x6970667358 0x22 SLT KECCAK256 0xD6 SWAP15 DUP3 0x5D DUP1 0xBF 0xAC EXTCODESIZE PUSH29 0xA2324E66ED9E3B3AEEB853734DD915F002CC3A90CFD21E64736F6C6343 STOP ADDMOD EQ STOP CALLER "},"methodIdentifiers":{"decimals()":"313ce567","description()":"7284e416","getRoundData(uint80)":"9a6fc8f5","latestRoundData()":"feaf968c","version()":"54fd4d50"}},"storageLayout":{"storage":[{"astId":6530,"contract":"contracts/MockPriceFeed.sol:MockPriceFeed","label":"price","offset":0,"slot":"0","type":"t_int256"}],"types":{"t_int256":{"encoding":"inplace","label":"int256","numberOfBytes":"32"}}}}}}