{"contracts/IMALILending.sol":{"IMALILending":{"abi":[{"inputs":[{"internalType":"address","name":"_stablecoin","type":"address"}],"stateMutability":"nonpayable","type":"constructor"},{"anonymous":false,"inputs":[{"indexed":true,"internalType":"address","name":"user","type":"address"},{"indexed":false,"internalType":"uint256","name":"amount","type":"uint256"},{"indexed":true,"internalType":"address","name":"collateralToken","type":"address"},{"indexed":false,"internalType":"uint256","name":"borrowId","type":"uint256"}],"name":"Borrowed","type":"event"},{"anonymous":false,"inputs":[{"indexed":true,"internalType":"address","name":"user","type":"address"},{"indexed":false,"internalType":"uint256","name":"amount","type":"uint256"},{"indexed":true,"internalType":"address","name":"collateralToken","type":"address"}],"name":"CollateralDeposited","type":"event"},{"anonymous":false,"inputs":[{"indexed":true,"internalType":"address","name":"user","type":"address"},{"indexed":false,"internalType":"uint256","name":"amount","type":"uint256"},{"indexed":true,"internalType":"address","name":"collateralToken","type":"address"}],"name":"CollateralWithdrawn","type":"event"},{"anonymous":false,"inputs":[{"indexed":true,"internalType":"address","name":"user","type":"address"},{"indexed":false,"internalType":"uint256","name":"feeAmount","type":"uint256"},{"indexed":false,"internalType":"string","name":"feeType","type":"string"}],"name":"FeesCollected","type":"event"},{"anonymous":false,"inputs":[{"indexed":true,"internalType":"address","name":"borrower","type":"address"},{"indexed":false,"internalType":"uint256","name":"collateralSeized","type":"uint256"},{"indexed":true,"internalType":"address","name":"collateralToken","type":"address"},{"indexed":false,"internalType":"uint256","name":"borrowId","type":"uint256"}],"name":"Liquidated","type":"event"},{"anonymous":false,"inputs":[{"indexed":true,"internalType":"address","name":"previousOwner","type":"address"},{"indexed":true,"internalType":"address","name":"newOwner","type":"address"}],"name":"OwnershipTransferred","type":"event"},{"anonymous":false,"inputs":[{"indexed":false,"internalType":"address","name":"account","type":"address"}],"name":"Paused","type":"event"},{"anonymous":false,"inputs":[{"indexed":true,"internalType":"address","name":"user","type":"address"},{"indexed":false,"internalType":"uint256","name":"amount","type":"uint256"},{"indexed":false,"internalType":"uint256","name":"borrowId","type":"uint256"}],"name":"Repaid","type":"event"},{"anonymous":false,"inputs":[{"indexed":true,"internalType":"address","name":"user","type":"address"},{"indexed":false,"internalType":"uint256","name":"amount","type":"uint256"}],"name":"Supplied","type":"event"},{"anonymous":false,"inputs":[{"indexed":false,"internalType":"address","name":"account","type":"address"}],"name":"Unpaused","type":"event"},{"anonymous":false,"inputs":[{"indexed":true,"internalType":"address","name":"user","type":"address"},{"indexed":false,"internalType":"uint256","name":"amount","type":"uint256"}],"name":"WithdrawnSupply","type":"event"},{"inputs":[],"name":"annualInterestRate","outputs":[{"internalType":"uint256","name":"","type":"uint256"}],"stateMutability":"view","type":"function"},{"inputs":[{"internalType":"uint256","name":"amount","type":"uint256"},{"internalType":"address","name":"collateralToken","type":"address"}],"name":"borrow","outputs":[],"stateMutability":"nonpayable","type":"function"},{"inputs":[{"internalType":"address","name":"","type":"address"}],"name":"borrowCount","outputs":[{"internalType":"uint256","name":"","type":"uint256"}],"stateMutability":"view","type":"function"},{"inputs":[],"name":"borrowFee","outputs":[{"internalType":"uint256","name":"","type":"uint256"}],"stateMutability":"view","type":"function"},{"inputs":[],"name":"borrowRate","outputs":[{"internalType":"uint256","name":"","type":"uint256"}],"stateMutability":"view","type":"function"},{"inputs":[{"internalType":"address","name":"","type":"address"},{"internalType":"uint256","name":"","type":"uint256"}],"name":"borrowRecords","outputs":[{"internalType":"uint256","name":"amount","type":"uint256"},{"internalType":"uint256","name":"borrowTime","type":"uint256"},{"internalType":"address","name":"collateralToken","type":"address"},{"internalType":"uint256","name":"accruedInterest","type":"uint256"}],"stateMutability":"view","type":"function"},{"inputs":[{"internalType":"address","name":"user","type":"address"},{"internalType":"uint256","name":"borrowId","type":"uint256"}],"name":"calculateAccruedInterest","outputs":[{"internalType":"uint256","name":"","type":"uint256"}],"stateMutability":"view","type":"function"},{"inputs":[{"internalType":"address","name":"","type":"address"},{"internalType":"address","name":"","type":"address"}],"name":"collateralBalances","outputs":[{"internalType":"uint256","name":"","type":"uint256"}],"stateMutability":"view","type":"function"},{"inputs":[{"internalType":"address","name":"","type":"address"}],"name":"collateralRatios","outputs":[{"internalType":"uint256","name":"","type":"uint256"}],"stateMutability":"view","type":"function"},{"inputs":[{"internalType":"address","name":"token","type":"address"},{"internalType":"uint256","name":"amount","type":"uint256"}],"name":"depositCollateral","outputs":[],"stateMutability":"nonpayable","type":"function"},{"inputs":[],"name":"depositFee","outputs":[{"internalType":"uint256","name":"","type":"uint256"}],"stateMutability":"view","type":"function"},{"inputs":[{"internalType":"address","name":"user","type":"address"},{"internalType":"address","name":"token","type":"address"}],"name":"getCollateralValue","outputs":[{"internalType":"uint256","name":"","type":"uint256"}],"stateMutability":"view","type":"function"},{"inputs":[{"internalType":"address","name":"token","type":"address"}],"name":"getTokenPrice","outputs":[{"internalType":"uint256","name":"","type":"uint256"}],"stateMutability":"view","type":"function"},{"inputs":[{"internalType":"address","name":"borrower","type":"address"},{"internalType":"uint256","name":"borrowId","type":"uint256"}],"name":"liquidate","outputs":[],"stateMutability":"nonpayable","type":"function"},{"inputs":[],"name":"liquidationThreshold","outputs":[{"internalType":"uint256","name":"","type":"uint256"}],"stateMutability":"view","type":"function"},{"inputs":[],"name":"owner","outputs":[{"internalType":"address","name":"","type":"address"}],"stateMutability":"view","type":"function"},{"inputs":[],"name":"pause","outputs":[],"stateMutability":"nonpayable","type":"function"},{"inputs":[],"name":"paused","outputs":[{"internalType":"bool","name":"","type":"bool"}],"stateMutability":"view","type":"function"},{"inputs":[{"internalType":"address","name":"","type":"address"}],"name":"priceFeeds","outputs":[{"internalType":"contract AggregatorV3Interface","name":"","type":"address"}],"stateMutability":"view","type":"function"},{"inputs":[],"name":"renounceOwnership","outputs":[],"stateMutability":"nonpayable","type":"function"},{"inputs":[{"internalType":"uint256","name":"borrowId","type":"uint256"},{"internalType":"uint256","name":"amount","type":"uint256"}],"name":"repay","outputs":[],"stateMutability":"nonpayable","type":"function"},{"inputs":[{"internalType":"address","name":"token","type":"address"},{"internalType":"address","name":"priceFeed","type":"address"},{"internalType":"uint256","name":"ratio","type":"uint256"}],"name":"setCollateralParameters","outputs":[],"stateMutability":"nonpayable","type":"function"},{"inputs":[],"name":"stablecoin","outputs":[{"internalType":"contract IERC20","name":"","type":"address"}],"stateMutability":"view","type":"function"},{"inputs":[{"internalType":"uint256","name":"amount","type":"uint256"}],"name":"supply","outputs":[],"stateMutability":"nonpayable","type":"function"},{"inputs":[{"internalType":"address","name":"","type":"address"}],"name":"supplyBalances","outputs":[{"internalType":"uint256","name":"","type":"uint256"}],"stateMutability":"view","type":"function"},{"inputs":[],"name":"supplyRate","outputs":[{"internalType":"uint256","name":"","type":"uint256"}],"stateMutability":"view","type":"function"},{"inputs":[{"internalType":"address","name":"newOwner","type":"address"}],"name":"transferOwnership","outputs":[],"stateMutability":"nonpayable","type":"function"},{"inputs":[],"name":"unpause","outputs":[],"stateMutability":"nonpayable","type":"function"},{"inputs":[{"internalType":"uint256","name":"newRate","type":"uint256"}],"name":"updateAnnualInterestRate","outputs":[],"stateMutability":"nonpayable","type":"function"},{"inputs":[{"internalType":"uint256","name":"newFee","type":"uint256"}],"name":"updateBorrowFee","outputs":[],"stateMutability":"nonpayable","type":"function"},{"inputs":[{"internalType":"uint256","name":"newRate","type":"uint256"}],"name":"updateBorrowRate","outputs":[],"stateMutability":"nonpayable","type":"function"},{"inputs":[{"internalType":"uint256","name":"newFee","type":"uint256"}],"name":"updateDepositFee","outputs":[],"stateMutability":"nonpayable","type":"function"},{"inputs":[{"internalType":"uint256","name":"newThreshold","type":"uint256"}],"name":"updateLiquidationThreshold","outputs":[],"stateMutability":"nonpayable","type":"function"},{"inputs":[{"internalType":"uint256","name":"newRate","type":"uint256"}],"name":"updateSupplyRate","outputs":[],"stateMutability":"nonpayable","type":"function"},{"inputs":[{"internalType":"address","name":"token","type":"address"},{"internalType":"uint256","name":"amount","type":"uint256"}],"name":"withdrawCollateral","outputs":[],"stateMutability":"nonpayable","type":"function"},{"inputs":[{"internalType":"uint256","name":"amount","type":"uint256"}],"name":"withdrawSupply","outputs":[],"stateMutability":"nonpayable","type":"function"}],"evm":{"bytecode":{"linkReferences":{},"object":"60a06040523480156200001157600080fd5b5060405162001d6338038062001d6383398101604081905262000034916200012a565b6200003f33620000da565b600180556002805460ff191690556001600160a01b038116620000a85760405162461bcd60e51b815260206004820152601a60248201527f496e76616c696420737461626c65636f696e2061646472657373000000000000604482015260640160405180910390fd5b6001600160a01b031660805261012c6009556102bc600a556032600b819055600c556078600d556005600e556200015c565b600080546001600160a01b038381166001600160a01b0319831681178455604051919092169283917f8be0079c531659141344cd1fd0a4f28419497f9722a3daafe3b4186f6b6457e09190a35050565b6000602082840312156200013d57600080fd5b81516001600160a01b03811681146200015557600080fd5b9392505050565b608051611bcf6200019460003960008181610536015281816107d501528181610ac901528181610d8a01526115770152611bcf6000f3fe608060405234801561001057600080fd5b506004361061021c5760003560e01c80638da5cb5b11610125578063bcbaf487116100ad578063d3b5be1a1161007c578063d3b5be1a14610502578063d8aed14514610515578063e626648a14610528578063e9cbd82214610531578063f2fde38b1461055857600080fd5b8063bcbaf48714610458578063c2d9e9291461046b578063c914b437146104e6578063d02641a0146104ef57600080fd5b80639dcb511a116100f45780639dcb511a146103ed578063a5d5db0c14610416578063a8515b5614610429578063ad2961a31461043c578063b8244f5f1461044557600080fd5b80638da5cb5b146103825780639504ad6d146103a757806396c4f292146103ba5780639b9a7966146103cd57600080fd5b80633f4ba83a116101a857806367a527931161017757806367a5279314610336578063715018a61461033f578063716049091461034757806378dc048a146103675780638456cb591461037a57600080fd5b80633f4ba83a146102fc5780634031234c146103045780634b3fd1481461030d5780635c975abb1461032057600080fd5b80631eee3aa3116101ef5780631eee3aa31461027857806320d6b0111461028b578063350c35e9146102ab57806335403023146102be57806339ecf9ba146102d157600080fd5b8063017def571461022157806302b8c56d146102365780630c191763146102495780631a9703da1461025c575b600080fd5b61023461022f36600461191e565b61056b565b005b61023461024436600461191e565b610578565b61023461025736600461191e565b610585565b610265600e5481565b6040519081526020015b60405180910390f35b610265610286366004611953565b610592565b610265610299366004611986565b60066020526000908152604090205481565b6102346102b93660046119a8565b6105e6565b6102346102cc36600461191e565b610783565b6102656102df366004611953565b600360209081526000928352604080842090915290825290205481565b6102346108b1565b610265600d5481565b61023461031b3660046119d2565b6108c3565b60025460ff16604051901515815260200161026f565b610265600b5481565b610234610bee565b610265610355366004611986565b60056020526000908152604090205481565b6102656103753660046119a8565b610c00565b610234610cb4565b6000546001600160a01b03165b6040516001600160a01b03909116815260200161026f565b6102346103b536600461191e565b610cc4565b6102346103c83660046119f5565b610e32565b6102656103db366004611986565b60076020526000908152604090205481565b61038f6103fb366004611986565b6008602052600090815260409020546001600160a01b031681565b6102346104243660046119a8565b610f19565b61023461043736600461191e565b611131565b61026560095481565b61023461045336600461191e565b61113e565b6102346104663660046119a8565b61114b565b6104b76104793660046119a8565b60046020908152600092835260408084209091529082529020805460018201546002830154600390930154919290916001600160a01b039091169084565b60405161026f949392919093845260208401929092526001600160a01b03166040830152606082015260800190565b610265600a5481565b6102656104fd366004611986565b6113c1565b61023461051036600461191e565b61144b565b610234610523366004611a31565b611458565b610265600c5481565b61038f7f000000000000000000000000000000000000000000000000000000000000000081565b610234610566366004611986565b611687565b6105736116fd565b600b55565b6105806116fd565b600a55565b61058d6116fd565b600955565b6001600160a01b0380831660009081526003602090815260408083209385168352929052908120546305f5e1006105c8846113c1565b6105d29083611a69565b6105dc9190611a80565b9150505b92915050565b6105ee611757565b6105f661179d565b6000811161061f5760405162461bcd60e51b815260040161061690611aa2565b60405180910390fd5b3360009081526003602090815260408083206001600160a01b038616845290915290205481111561068c5760405162461bcd60e51b8152602060048201526017602482015276125b9cdd59999a58da595b9d0818dbdb1b185d195c985b604a1b6044820152606401610616565b3360009081526003602090815260408083206001600160a01b0386168452909152812080548392906106bf908490611ace565b909155505060405163a9059cbb60e01b8152336004820152602481018290526001600160a01b0383169063a9059cbb906044016020604051808303816000875af1158015610711573d6000803e3d6000fd5b505050506040513d601f19601f820116820180604052508101906107359190611ae1565b506040518181526001600160a01b0383169033907f5c582f045c0b9365cea3be0c0ad7deef76a1c4fe20ef1f84c153043ec35985039060200160405180910390a361077f60018055565b5050565b61078b611757565b61079361179d565b600081116107b35760405162461bcd60e51b815260040161061690611aa2565b6040516323b872dd60e01b8152336004820152306024820152604481018290527f00000000000000000000000000000000000000000000000000000000000000006001600160a01b0316906323b872dd906064016020604051808303816000875af1158015610826573d6000803e3d6000fd5b505050506040513d601f19601f8201168201806040525081019061084a9190611ae1565b50336000908152600660205260408120805483929061086a908490611b03565b909155505060405181815233907f6473c9f7da8f23a3d810f05b3e8fb3945f0ad17deadcc09e302cdf5d58e48fe7906020015b60405180910390a26108ae60018055565b50565b6108b96116fd565b6108c16117f6565b565b6108cb611757565b6108d361179d565b600082116108f35760405162461bcd60e51b815260040161061690611aa2565b6001600160a01b038181166000908152600860205260409020541661095a5760405162461bcd60e51b815260206004820152601860248201527f436f6c6c61746572616c206e6f7420737570706f7274656400000000000000006044820152606401610616565b60006109663383610592565b6001600160a01b038316600090815260076020526040812054919250906064906109909086611a69565b61099a9190611a80565b9050808210156109e65760405162461bcd60e51b8152602060048201526017602482015276125b9cdd59999a58da595b9d0818dbdb1b185d195c985b604a1b6044820152606401610616565b6000612710600c54866109f99190611a69565b610a039190611a80565b90506000610a118287611ace565b336000908152600560205260408120805492935090919082610a3283611b16565b90915550604080516080810182528481524260208083019182526001600160a01b038b81168486019081526000606086018181523380835260048087528984208b855290965291889020965187559451600187015590516002860180546001600160a01b0319169184169190911790559251600390940193909355925163a9059cbb60e01b815292830152602482018590529192507f00000000000000000000000000000000000000000000000000000000000000009091169063a9059cbb906044016020604051808303816000875af1158015610b14573d6000803e3d6000fd5b505050506040513d601f19601f82011682018060405250810190610b389190611ae1565b5060408051838152602081018390526001600160a01b0388169133917f01c49cf1232849b567d2ab59e1329de06371836816e4da37c284a164a70b5b4b910160405180910390a3336001600160a01b03167fdb23cba216bfaed89070d2734596f2ee2a163099cfc4f5ef32036debc979222684604051610bd891815260406020820181905260069082015265626f72726f7760d01b606082015260800190565b60405180910390a2505050505061077f60018055565b610bf66116fd565b6108c16000611848565b6001600160a01b0380831660009081526004602090815260408083208584528252808320815160808101835281548082526001830154948201949094526002820154909516918501919091526003015460608401529091908203610c685760009150506105e0565b6000816020015142610c7a9190611ace565b9050600063bbf81e0082600e548560000151610c969190611a69565b610ca09190611a69565b610caa9190611a80565b9695505050505050565b610cbc6116fd565b6108c1611898565b610ccc611757565b610cd461179d565b60008111610cf45760405162461bcd60e51b815260040161061690611aa2565b33600090815260066020526040902054811115610d4a5760405162461bcd60e51b8152602060048201526014602482015273496e73756666696369656e742062616c616e636560601b6044820152606401610616565b3360009081526006602052604081208054839290610d69908490611ace565b909155505060405163a9059cbb60e01b8152336004820152602481018290527f00000000000000000000000000000000000000000000000000000000000000006001600160a01b03169063a9059cbb906044016020604051808303816000875af1158015610ddb573d6000803e3d6000fd5b505050506040513d601f19601f82011682018060405250810190610dff9190611ae1565b5060405181815233907f13a0aca96f8702aa1d1f6aec7d2c63d974cfa8457bba0b310e814cb3017e50519060200161089d565b610e3a6116fd565b6001600160a01b03831615801590610e5a57506001600160a01b03821615155b610e985760405162461bcd60e51b815260206004820152600f60248201526e496e76616c6964206164647265737360881b6044820152606401610616565b60008111610edc5760405162461bcd60e51b81526020600482015260116024820152700526174696f206d757374206265203e203607c1b6044820152606401610616565b6001600160a01b03928316600090815260086020908152604080832080546001600160a01b03191695909616949094179094556007909352912055565b610f21611757565b610f2961179d565b60008111610f495760405162461bcd60e51b815260040161061690611aa2565b6001600160a01b0382811660009081526008602052604090205416610fa65760405162461bcd60e51b8152602060048201526013602482015272151bdad95b881b9bdd081cdd5c1c1bdc9d1959606a1b6044820152606401610616565b6000612710600b5483610fb99190611a69565b610fc39190611a80565b90506000610fd18284611ace565b6040516323b872dd60e01b8152336004820152306024820152604481018590529091506001600160a01b038516906323b872dd906064016020604051808303816000875af1158015611027573d6000803e3d6000fd5b505050506040513d601f19601f8201168201806040525081019061104b9190611ae1565b503360009081526003602090815260408083206001600160a01b03881684529091528120805483929061107f908490611b03565b90915550506040518181526001600160a01b0385169033907fa95929ba4ccecfcbca9ce9798d6dfb0c0c6e06226a6d0e1905bb20a8e28157a99060200160405180910390a3336001600160a01b03167fdb23cba216bfaed89070d2734596f2ee2a163099cfc4f5ef32036debc97922268360405161111e9181526040602082018190526007908201526619195c1bdcda5d60ca1b606082015260800190565b60405180910390a2505061077f60018055565b6111396116fd565b600e55565b6111466116fd565b600c55565b611153611757565b61115b61179d565b6001600160a01b0380831660009081526004602090815260408083208584528252918290208251608081018452815480825260018301549382019390935260028201549094169284019290925260039091015460608301526111f25760405162461bcd60e51b815260206004820152601060248201526f4e6f2061637469766520626f72726f7760801b6044820152606401610616565b6000611202848360400151610592565b905060006064600d54846000015161121a9190611a69565b6112249190611a80565b90508082106112755760405162461bcd60e51b815260206004820181905260248201527f426f72726f776572206e6f7420756e646572636f6c6c61746572616c697a65646044820152606401610616565b6001600160a01b0385811660008181526003602081815260408084208982018051881686528184528286205487875285855281518916875291845282862086905595855260048084528286208c8752909352818520858155600181018690556002810180546001600160a01b0319169055909301939093559251915163a9059cbb60e01b815233938101939093526024830181905292169063a9059cbb906044016020604051808303816000875af1158015611335573d6000803e3d6000fd5b505050506040513d601f19601f820116820180604052508101906113599190611ae1565b5083604001516001600160a01b0316866001600160a01b03167f3a487deef66df543d7641c7d8d3da7272a2658edd9f10ffe591214499517a2c883886040516113ac929190918252602082015260400190565b60405180910390a35050505061077f60018055565b6001600160a01b03808216600090815260086020526040808220548151633fabe5a360e21b815291519293849391169163feaf968c9160048083019260a09291908290030181865afa15801561141b573d6000803e3d6000fd5b505050506040513d601f19601f8201168201806040525081019061143f9190611b49565b50919695505050505050565b6114536116fd565b600d55565b611460611757565b61146861179d565b600081116114885760405162461bcd60e51b815260040161061690611aa2565b336000908152600460209081526040808320858452909152902080546114e35760405162461bcd60e51b815260206004820152601060248201526f4e6f2061637469766520626f72726f7760801b6044820152606401610616565b60006114ef3385610c00565b905060008183600001546115039190611b03565b9050808411156115555760405162461bcd60e51b815260206004820152601860248201527f5265706179206578636565647320746f74616c206f77656400000000000000006044820152606401610616565b6040516323b872dd60e01b8152336004820152306024820152604481018590527f00000000000000000000000000000000000000000000000000000000000000006001600160a01b0316906323b872dd906064016020604051808303816000875af11580156115c8573d6000803e3d6000fd5b505050506040513d601f19601f820116820180604052508101906115ec9190611ae1565b50808410611633573360009081526004602090815260408083208884529091528120818155600181018290556002810180546001600160a01b031916905560030155611640565b61163d8482611ace565b83555b604080518581526020810187905233917f1b8cd61ed43bec7c6bdad3a18ffee613f99c853d16c50678d248d879e1b43438910160405180910390a250505061077f60018055565b61168f6116fd565b6001600160a01b0381166116f45760405162461bcd60e51b815260206004820152602660248201527f4f776e61626c653a206e6577206f776e657220697320746865207a65726f206160448201526564647265737360d01b6064820152608401610616565b6108ae81611848565b6000546001600160a01b031633146108c15760405162461bcd60e51b815260206004820181905260248201527f4f776e61626c653a2063616c6c6572206973206e6f7420746865206f776e65726044820152606401610616565b60025460ff16156108c15760405162461bcd60e51b815260206004820152601060248201526f14185d5cd8589b194e881c185d5cd95960821b6044820152606401610616565b6002600154036117ef5760405162461bcd60e51b815260206004820152601f60248201527f5265656e7472616e637947756172643a207265656e7472616e742063616c6c006044820152606401610616565b6002600155565b6117fe6118d5565b6002805460ff191690557f5db9ee0a495bf2e6ff9c91a7834c1ba4fdd244a5e8aa4e537bd38aeae4b073aa335b6040516001600160a01b03909116815260200160405180910390a1565b600080546001600160a01b038381166001600160a01b0319831681178455604051919092169283917f8be0079c531659141344cd1fd0a4f28419497f9722a3daafe3b4186f6b6457e09190a35050565b6118a0611757565b6002805460ff191660011790557f62e78cea01bee320cd4e420270b5ea74000d11b0c9f74754ebdbfc544b05a25861182b3390565b60025460ff166108c15760405162461bcd60e51b815260206004820152601460248201527314185d5cd8589b194e881b9bdd081c185d5cd95960621b6044820152606401610616565b60006020828403121561193057600080fd5b5035919050565b80356001600160a01b038116811461194e57600080fd5b919050565b6000806040838503121561196657600080fd5b61196f83611937565b915061197d60208401611937565b90509250929050565b60006020828403121561199857600080fd5b6119a182611937565b9392505050565b600080604083850312156119bb57600080fd5b6119c483611937565b946020939093013593505050565b600080604083850312156119e557600080fd5b8235915061197d60208401611937565b600080600060608486031215611a0a57600080fd5b611a1384611937565b9250611a2160208501611937565b9150604084013590509250925092565b60008060408385031215611a4457600080fd5b50508035926020909101359150565b634e487b7160e01b600052601160045260246000fd5b80820281158282048414176105e0576105e0611a53565b600082611a9d57634e487b7160e01b600052601260045260246000fd5b500490565b6020808252601290820152710416d6f756e74206d757374206265203e20360741b604082015260600190565b818103818111156105e0576105e0611a53565b600060208284031215611af357600080fd5b815180151581146119a157600080fd5b808201808211156105e0576105e0611a53565b600060018201611b2857611b28611a53565b5060010190565b805169ffffffffffffffffffff8116811461194e57600080fd5b600080600080600060a08688031215611b6157600080fd5b611b6a86611b2f565b9450602086015193506040860151925060608601519150611b8d60808701611b2f565b9050929550929590935056fea264697066735822122014d398d90dcc74727c05700675fed67cbf55b57359b796280f719c2d4786c81d64736f6c63430008140033","opcodes":"PUSH1 0xA0 PUSH1 0x40 MSTORE CALLVALUE DUP1 ISZERO PUSH3 0x11 JUMPI PUSH1 0x0 DUP1 REVERT JUMPDEST POP PUSH1 0x40 MLOAD PUSH3 0x1D63 CODESIZE SUB DUP1 PUSH3 0x1D63 DUP4 CODECOPY DUP2 ADD PUSH1 0x40 DUP2 SWAP1 MSTORE PUSH3 0x34 SWAP2 PUSH3 0x12A JUMP JUMPDEST PUSH3 0x3F CALLER PUSH3 0xDA JUMP JUMPDEST PUSH1 0x1 DUP1 SSTORE PUSH1 0x2 DUP1 SLOAD PUSH1 0xFF NOT AND SWAP1 SSTORE PUSH1 0x1 PUSH1 0x1 PUSH1 0xA0 SHL SUB DUP2 AND PUSH3 0xA8 JUMPI PUSH1 0x40 MLOAD PUSH3 0x461BCD PUSH1 0xE5 SHL DUP2 MSTORE PUSH1 0x20 PUSH1 0x4 DUP3 ADD MSTORE PUSH1 0x1A PUSH1 0x24 DUP3 ADD MSTORE PUSH32 0x496E76616C696420737461626C65636F696E2061646472657373000000000000 PUSH1 0x44 DUP3 ADD MSTORE PUSH1 0x64 ADD PUSH1 0x40 MLOAD DUP1 SWAP2 SUB SWAP1 REVERT JUMPDEST PUSH1 0x1 PUSH1 0x1 PUSH1 0xA0 SHL SUB AND PUSH1 0x80 MSTORE PUSH2 0x12C PUSH1 0x9 SSTORE PUSH2 0x2BC PUSH1 0xA SSTORE PUSH1 0x32 PUSH1 0xB DUP2 SWAP1 SSTORE PUSH1 0xC SSTORE PUSH1 0x78 PUSH1 0xD SSTORE PUSH1 0x5 PUSH1 0xE SSTORE PUSH3 0x15C JUMP JUMPDEST PUSH1 0x0 DUP1 SLOAD PUSH1 0x1 PUSH1 0x1 PUSH1 0xA0 SHL SUB DUP4 DUP2 AND PUSH1 0x1 PUSH1 0x1 PUSH1 0xA0 SHL SUB NOT DUP4 AND DUP2 OR DUP5 SSTORE PUSH1 0x40 MLOAD SWAP2 SWAP1 SWAP3 AND SWAP3 DUP4 SWAP2 PUSH32 0x8BE0079C531659141344CD1FD0A4F28419497F9722A3DAAFE3B4186F6B6457E0 SWAP2 SWAP1 LOG3 POP POP JUMP JUMPDEST PUSH1 0x0 PUSH1 0x20 DUP3 DUP5 SUB SLT ISZERO PUSH3 0x13D JUMPI PUSH1 0x0 DUP1 REVERT JUMPDEST DUP2 MLOAD PUSH1 0x1 PUSH1 0x1 PUSH1 0xA0 SHL SUB DUP2 AND DUP2 EQ PUSH3 0x155 JUMPI PUSH1 0x0 DUP1 REVERT JUMPDEST SWAP4 SWAP3 POP POP POP JUMP JUMPDEST PUSH1 0x80 MLOAD PUSH2 0x1BCF PUSH3 0x194 PUSH1 0x0 CODECOPY PUSH1 0x0 DUP2 DUP2 PUSH2 0x536 ADD MSTORE DUP2 DUP2 PUSH2 0x7D5 ADD MSTORE DUP2 DUP2 PUSH2 0xAC9 ADD MSTORE DUP2 DUP2 PUSH2 0xD8A ADD MSTORE PUSH2 0x1577 ADD MSTORE PUSH2 0x1BCF PUSH1 0x0 RETURN INVALID PUSH1 0x80 PUSH1 0x40 MSTORE CALLVALUE DUP1 ISZERO PUSH2 0x10 JUMPI PUSH1 0x0 DUP1 REVERT JUMPDEST POP PUSH1 0x4 CALLDATASIZE LT PUSH2 0x21C JUMPI PUSH1 0x0 CALLDATALOAD PUSH1 0xE0 SHR DUP1 PUSH4 0x8DA5CB5B GT PUSH2 0x125 JUMPI DUP1 PUSH4 0xBCBAF487 GT PUSH2 0xAD JUMPI DUP1 PUSH4 0xD3B5BE1A GT PUSH2 0x7C JUMPI DUP1 PUSH4 0xD3B5BE1A EQ PUSH2 0x502 JUMPI DUP1 PUSH4 0xD8AED145 EQ PUSH2 0x515 JUMPI DUP1 PUSH4 0xE626648A EQ PUSH2 0x528 JUMPI DUP1 PUSH4 0xE9CBD822 EQ PUSH2 0x531 JUMPI DUP1 PUSH4 0xF2FDE38B EQ PUSH2 0x558 JUMPI PUSH1 0x0 DUP1 REVERT JUMPDEST DUP1 PUSH4 0xBCBAF487 EQ PUSH2 0x458 JUMPI DUP1 PUSH4 0xC2D9E929 EQ PUSH2 0x46B JUMPI DUP1 PUSH4 0xC914B437 EQ PUSH2 0x4E6 JUMPI DUP1 PUSH4 0xD02641A0 EQ PUSH2 0x4EF JUMPI PUSH1 0x0 DUP1 REVERT JUMPDEST DUP1 PUSH4 0x9DCB511A GT PUSH2 0xF4 JUMPI DUP1 PUSH4 0x9DCB511A EQ PUSH2 0x3ED JUMPI DUP1 PUSH4 0xA5D5DB0C EQ PUSH2 0x416 JUMPI DUP1 PUSH4 0xA8515B56 EQ PUSH2 0x429 JUMPI DUP1 PUSH4 0xAD2961A3 EQ PUSH2 0x43C JUMPI DUP1 PUSH4 0xB8244F5F EQ PUSH2 0x445 JUMPI PUSH1 0x0 DUP1 REVERT JUMPDEST DUP1 PUSH4 0x8DA5CB5B EQ PUSH2 0x382 JUMPI DUP1 PUSH4 0x9504AD6D EQ PUSH2 0x3A7 JUMPI DUP1 PUSH4 0x96C4F292 EQ PUSH2 0x3BA JUMPI DUP1 PUSH4 0x9B9A7966 EQ PUSH2 0x3CD JUMPI PUSH1 0x0 DUP1 REVERT JUMPDEST DUP1 PUSH4 0x3F4BA83A GT PUSH2 0x1A8 JUMPI DUP1 PUSH4 0x67A52793 GT PUSH2 0x177 JUMPI DUP1 PUSH4 0x67A52793 EQ PUSH2 0x336 JUMPI DUP1 PUSH4 0x715018A6 EQ PUSH2 0x33F JUMPI DUP1 PUSH4 0x71604909 EQ PUSH2 0x347 JUMPI DUP1 PUSH4 0x78DC048A EQ PUSH2 0x367 JUMPI DUP1 PUSH4 0x8456CB59 EQ PUSH2 0x37A JUMPI PUSH1 0x0 DUP1 REVERT JUMPDEST DUP1 PUSH4 0x3F4BA83A EQ PUSH2 0x2FC JUMPI DUP1 PUSH4 0x4031234C EQ PUSH2 0x304 JUMPI DUP1 PUSH4 0x4B3FD148 EQ PUSH2 0x30D JUMPI DUP1 PUSH4 0x5C975ABB EQ PUSH2 0x320 JUMPI PUSH1 0x0 DUP1 REVERT JUMPDEST DUP1 PUSH4 0x1EEE3AA3 GT PUSH2 0x1EF JUMPI DUP1 PUSH4 0x1EEE3AA3 EQ PUSH2 0x278 JUMPI DUP1 PUSH4 0x20D6B011 EQ PUSH2 0x28B JUMPI DUP1 PUSH4 0x350C35E9 EQ PUSH2 0x2AB JUMPI DUP1 PUSH4 0x35403023 EQ PUSH2 0x2BE JUMPI DUP1 PUSH4 0x39ECF9BA EQ PUSH2 0x2D1 JUMPI PUSH1 0x0 DUP1 REVERT JUMPDEST DUP1 PUSH4 0x17DEF57 EQ PUSH2 0x221 JUMPI DUP1 PUSH4 0x2B8C56D EQ PUSH2 0x236 JUMPI DUP1 PUSH4 0xC191763 EQ PUSH2 0x249 JUMPI DUP1 PUSH4 0x1A9703DA EQ PUSH2 0x25C JUMPI JUMPDEST PUSH1 0x0 DUP1 REVERT JUMPDEST PUSH2 0x234 PUSH2 0x22F CALLDATASIZE PUSH1 0x4 PUSH2 0x191E JUMP JUMPDEST PUSH2 0x56B JUMP JUMPDEST STOP JUMPDEST PUSH2 0x234 PUSH2 0x244 CALLDATASIZE PUSH1 0x4 PUSH2 0x191E JUMP JUMPDEST PUSH2 0x578 JUMP JUMPDEST PUSH2 0x234 PUSH2 0x257 CALLDATASIZE PUSH1 0x4 PUSH2 0x191E JUMP JUMPDEST PUSH2 0x585 JUMP JUMPDEST PUSH2 0x265 PUSH1 0xE SLOAD DUP2 JUMP JUMPDEST PUSH1 0x40 MLOAD SWAP1 DUP2 MSTORE PUSH1 0x20 ADD JUMPDEST PUSH1 0x40 MLOAD DUP1 SWAP2 SUB SWAP1 RETURN JUMPDEST PUSH2 0x265 PUSH2 0x286 CALLDATASIZE PUSH1 0x4 PUSH2 0x1953 JUMP JUMPDEST PUSH2 0x592 JUMP JUMPDEST PUSH2 0x265 PUSH2 0x299 CALLDATASIZE PUSH1 0x4 PUSH2 0x1986 JUMP JUMPDEST PUSH1 0x6 PUSH1 0x20 MSTORE PUSH1 0x0 SWAP1 DUP2 MSTORE PUSH1 0x40 SWAP1 KECCAK256 SLOAD DUP2 JUMP JUMPDEST PUSH2 0x234 PUSH2 0x2B9 CALLDATASIZE PUSH1 0x4 PUSH2 0x19A8 JUMP JUMPDEST PUSH2 0x5E6 JUMP JUMPDEST PUSH2 0x234 PUSH2 0x2CC CALLDATASIZE PUSH1 0x4 PUSH2 0x191E JUMP JUMPDEST PUSH2 0x783 JUMP JUMPDEST PUSH2 0x265 PUSH2 0x2DF CALLDATASIZE PUSH1 0x4 PUSH2 0x1953 JUMP JUMPDEST PUSH1 0x3 PUSH1 0x20 SWAP1 DUP2 MSTORE PUSH1 0x0 SWAP3 DUP4 MSTORE PUSH1 0x40 DUP1 DUP5 KECCAK256 SWAP1 SWAP2 MSTORE SWAP1 DUP3 MSTORE SWAP1 KECCAK256 SLOAD DUP2 JUMP JUMPDEST PUSH2 0x234 PUSH2 0x8B1 JUMP JUMPDEST PUSH2 0x265 PUSH1 0xD SLOAD DUP2 JUMP JUMPDEST PUSH2 0x234 PUSH2 0x31B CALLDATASIZE PUSH1 0x4 PUSH2 0x19D2 JUMP JUMPDEST PUSH2 0x8C3 JUMP JUMPDEST PUSH1 0x2 SLOAD PUSH1 0xFF AND PUSH1 0x40 MLOAD SWAP1 ISZERO ISZERO DUP2 MSTORE PUSH1 0x20 ADD PUSH2 0x26F JUMP JUMPDEST PUSH2 0x265 PUSH1 0xB SLOAD DUP2 JUMP JUMPDEST PUSH2 0x234 PUSH2 0xBEE JUMP JUMPDEST PUSH2 0x265 PUSH2 0x355 CALLDATASIZE PUSH1 0x4 PUSH2 0x1986 JUMP JUMPDEST PUSH1 0x5 PUSH1 0x20 MSTORE PUSH1 0x0 SWAP1 DUP2 MSTORE PUSH1 0x40 SWAP1 KECCAK256 SLOAD DUP2 JUMP JUMPDEST PUSH2 0x265 PUSH2 0x375 CALLDATASIZE PUSH1 0x4 PUSH2 0x19A8 JUMP JUMPDEST PUSH2 0xC00 JUMP JUMPDEST PUSH2 0x234 PUSH2 0xCB4 JUMP JUMPDEST PUSH1 0x0 SLOAD PUSH1 0x1 PUSH1 0x1 PUSH1 0xA0 SHL SUB AND JUMPDEST PUSH1 0x40 MLOAD PUSH1 0x1 PUSH1 0x1 PUSH1 0xA0 SHL SUB SWAP1 SWAP2 AND DUP2 MSTORE PUSH1 0x20 ADD PUSH2 0x26F JUMP JUMPDEST PUSH2 0x234 PUSH2 0x3B5 CALLDATASIZE PUSH1 0x4 PUSH2 0x191E JUMP JUMPDEST PUSH2 0xCC4 JUMP JUMPDEST PUSH2 0x234 PUSH2 0x3C8 CALLDATASIZE PUSH1 0x4 PUSH2 0x19F5 JUMP JUMPDEST PUSH2 0xE32 JUMP JUMPDEST PUSH2 0x265 PUSH2 0x3DB CALLDATASIZE PUSH1 0x4 PUSH2 0x1986 JUMP JUMPDEST PUSH1 0x7 PUSH1 0x20 MSTORE PUSH1 0x0 SWAP1 DUP2 MSTORE PUSH1 0x40 SWAP1 KECCAK256 SLOAD DUP2 JUMP JUMPDEST PUSH2 0x38F PUSH2 0x3FB CALLDATASIZE PUSH1 0x4 PUSH2 0x1986 JUMP JUMPDEST PUSH1 0x8 PUSH1 0x20 MSTORE PUSH1 0x0 SWAP1 DUP2 MSTORE PUSH1 0x40 SWAP1 KECCAK256 SLOAD PUSH1 0x1 PUSH1 0x1 PUSH1 0xA0 SHL SUB AND DUP2 JUMP JUMPDEST PUSH2 0x234 PUSH2 0x424 CALLDATASIZE PUSH1 0x4 PUSH2 0x19A8 JUMP JUMPDEST PUSH2 0xF19 JUMP JUMPDEST PUSH2 0x234 PUSH2 0x437 CALLDATASIZE PUSH1 0x4 PUSH2 0x191E JUMP JUMPDEST PUSH2 0x1131 JUMP JUMPDEST PUSH2 0x265 PUSH1 0x9 SLOAD DUP2 JUMP JUMPDEST PUSH2 0x234 PUSH2 0x453 CALLDATASIZE PUSH1 0x4 PUSH2 0x191E JUMP JUMPDEST PUSH2 0x113E JUMP JUMPDEST PUSH2 0x234 PUSH2 0x466 CALLDATASIZE PUSH1 0x4 PUSH2 0x19A8 JUMP JUMPDEST PUSH2 0x114B JUMP JUMPDEST PUSH2 0x4B7 PUSH2 0x479 CALLDATASIZE PUSH1 0x4 PUSH2 0x19A8 JUMP JUMPDEST PUSH1 0x4 PUSH1 0x20 SWAP1 DUP2 MSTORE PUSH1 0x0 SWAP3 DUP4 MSTORE PUSH1 0x40 DUP1 DUP5 KECCAK256 SWAP1 SWAP2 MSTORE SWAP1 DUP3 MSTORE SWAP1 KECCAK256 DUP1 SLOAD PUSH1 0x1 DUP3 ADD SLOAD PUSH1 0x2 DUP4 ADD SLOAD PUSH1 0x3 SWAP1 SWAP4 ADD SLOAD SWAP2 SWAP3 SWAP1 SWAP2 PUSH1 0x1 PUSH1 0x1 PUSH1 0xA0 SHL SUB SWAP1 SWAP2 AND SWAP1 DUP5 JUMP JUMPDEST PUSH1 0x40 MLOAD PUSH2 0x26F SWAP5 SWAP4 SWAP3 SWAP2 SWAP1 SWAP4 DUP5 MSTORE PUSH1 0x20 DUP5 ADD SWAP3 SWAP1 SWAP3 MSTORE PUSH1 0x1 PUSH1 0x1 PUSH1 0xA0 SHL SUB AND PUSH1 0x40 DUP4 ADD MSTORE PUSH1 0x60 DUP3 ADD MSTORE PUSH1 0x80 ADD SWAP1 JUMP JUMPDEST PUSH2 0x265 PUSH1 0xA SLOAD DUP2 JUMP JUMPDEST PUSH2 0x265 PUSH2 0x4FD CALLDATASIZE PUSH1 0x4 PUSH2 0x1986 JUMP JUMPDEST PUSH2 0x13C1 JUMP JUMPDEST PUSH2 0x234 PUSH2 0x510 CALLDATASIZE PUSH1 0x4 PUSH2 0x191E JUMP JUMPDEST PUSH2 0x144B JUMP JUMPDEST PUSH2 0x234 PUSH2 0x523 CALLDATASIZE PUSH1 0x4 PUSH2 0x1A31 JUMP JUMPDEST PUSH2 0x1458 JUMP JUMPDEST PUSH2 0x265 PUSH1 0xC SLOAD DUP2 JUMP JUMPDEST PUSH2 0x38F PUSH32 0x0 DUP2 JUMP JUMPDEST PUSH2 0x234 PUSH2 0x566 CALLDATASIZE PUSH1 0x4 PUSH2 0x1986 JUMP JUMPDEST PUSH2 0x1687 JUMP JUMPDEST PUSH2 0x573 PUSH2 0x16FD JUMP JUMPDEST PUSH1 0xB SSTORE JUMP JUMPDEST PUSH2 0x580 PUSH2 0x16FD JUMP JUMPDEST PUSH1 0xA SSTORE JUMP JUMPDEST PUSH2 0x58D PUSH2 0x16FD JUMP JUMPDEST PUSH1 0x9 SSTORE JUMP JUMPDEST PUSH1 0x1 PUSH1 0x1 PUSH1 0xA0 SHL SUB DUP1 DUP4 AND PUSH1 0x0 SWAP1 DUP2 MSTORE PUSH1 0x3 PUSH1 0x20 SWAP1 DUP2 MSTORE PUSH1 0x40 DUP1 DUP4 KECCAK256 SWAP4 DUP6 AND DUP4 MSTORE SWAP3 SWAP1 MSTORE SWAP1 DUP2 KECCAK256 SLOAD PUSH4 0x5F5E100 PUSH2 0x5C8 DUP5 PUSH2 0x13C1 JUMP JUMPDEST PUSH2 0x5D2 SWAP1 DUP4 PUSH2 0x1A69 JUMP JUMPDEST PUSH2 0x5DC SWAP2 SWAP1 PUSH2 0x1A80 JUMP JUMPDEST SWAP2 POP POP JUMPDEST SWAP3 SWAP2 POP POP JUMP JUMPDEST PUSH2 0x5EE PUSH2 0x1757 JUMP JUMPDEST PUSH2 0x5F6 PUSH2 0x179D JUMP JUMPDEST PUSH1 0x0 DUP2 GT PUSH2 0x61F JUMPI PUSH1 0x40 MLOAD PUSH3 0x461BCD PUSH1 0xE5 SHL DUP2 MSTORE PUSH1 0x4 ADD PUSH2 0x616 SWAP1 PUSH2 0x1AA2 JUMP JUMPDEST PUSH1 0x40 MLOAD DUP1 SWAP2 SUB SWAP1 REVERT JUMPDEST CALLER PUSH1 0x0 SWAP1 DUP2 MSTORE PUSH1 0x3 PUSH1 0x20 SWAP1 DUP2 MSTORE PUSH1 0x40 DUP1 DUP4 KECCAK256 PUSH1 0x1 PUSH1 0x1 PUSH1 0xA0 SHL SUB DUP7 AND DUP5 MSTORE SWAP1 SWAP2 MSTORE SWAP1 KECCAK256 SLOAD DUP2 GT ISZERO PUSH2 0x68C JUMPI PUSH1 0x40 MLOAD PUSH3 0x461BCD PUSH1 0xE5 SHL DUP2 MSTORE PUSH1 0x20 PUSH1 0x4 DUP3 ADD MSTORE PUSH1 0x17 PUSH1 0x24 DUP3 ADD MSTORE PUSH23 0x125B9CDD59999A58DA595B9D0818DBDB1B185D195C985B PUSH1 0x4A SHL PUSH1 0x44 DUP3 ADD MSTORE PUSH1 0x64 ADD PUSH2 0x616 JUMP JUMPDEST CALLER PUSH1 0x0 SWAP1 DUP2 MSTORE PUSH1 0x3 PUSH1 0x20 SWAP1 DUP2 MSTORE PUSH1 0x40 DUP1 DUP4 KECCAK256 PUSH1 0x1 PUSH1 0x1 PUSH1 0xA0 SHL SUB DUP7 AND DUP5 MSTORE SWAP1 SWAP2 MSTORE DUP2 KECCAK256 DUP1 SLOAD DUP4 SWAP3 SWAP1 PUSH2 0x6BF SWAP1 DUP5 SWAP1 PUSH2 0x1ACE JUMP JUMPDEST SWAP1 SWAP2 SSTORE POP POP PUSH1 0x40 MLOAD PUSH4 0xA9059CBB PUSH1 0xE0 SHL DUP2 MSTORE CALLER PUSH1 0x4 DUP3 ADD MSTORE PUSH1 0x24 DUP2 ADD DUP3 SWAP1 MSTORE PUSH1 0x1 PUSH1 0x1 PUSH1 0xA0 SHL SUB DUP4 AND SWAP1 PUSH4 0xA9059CBB SWAP1 PUSH1 0x44 ADD PUSH1 0x20 PUSH1 0x40 MLOAD DUP1 DUP4 SUB DUP2 PUSH1 0x0 DUP8 GAS CALL ISZERO DUP1 ISZERO PUSH2 0x711 JUMPI RETURNDATASIZE PUSH1 0x0 DUP1 RETURNDATACOPY RETURNDATASIZE PUSH1 0x0 REVERT JUMPDEST POP POP POP POP PUSH1 0x40 MLOAD RETURNDATASIZE PUSH1 0x1F NOT PUSH1 0x1F DUP3 ADD AND DUP3 ADD DUP1 PUSH1 0x40 MSTORE POP DUP2 ADD SWAP1 PUSH2 0x735 SWAP2 SWAP1 PUSH2 0x1AE1 JUMP JUMPDEST POP PUSH1 0x40 MLOAD DUP2 DUP2 MSTORE PUSH1 0x1 PUSH1 0x1 PUSH1 0xA0 SHL SUB DUP4 AND SWAP1 CALLER SWAP1 PUSH32 0x5C582F045C0B9365CEA3BE0C0AD7DEEF76A1C4FE20EF1F84C153043EC3598503 SWAP1 PUSH1 0x20 ADD PUSH1 0x40 MLOAD DUP1 SWAP2 SUB SWAP1 LOG3 PUSH2 0x77F PUSH1 0x1 DUP1 SSTORE JUMP JUMPDEST POP POP JUMP JUMPDEST PUSH2 0x78B PUSH2 0x1757 JUMP JUMPDEST PUSH2 0x793 PUSH2 0x179D JUMP JUMPDEST PUSH1 0x0 DUP2 GT PUSH2 0x7B3 JUMPI PUSH1 0x40 MLOAD PUSH3 0x461BCD PUSH1 0xE5 SHL DUP2 MSTORE PUSH1 0x4 ADD PUSH2 0x616 SWAP1 PUSH2 0x1AA2 JUMP JUMPDEST PUSH1 0x40 MLOAD PUSH4 0x23B872DD PUSH1 0xE0 SHL DUP2 MSTORE CALLER PUSH1 0x4 DUP3 ADD MSTORE ADDRESS PUSH1 0x24 DUP3 ADD MSTORE PUSH1 0x44 DUP2 ADD DUP3 SWAP1 MSTORE PUSH32 0x0 PUSH1 0x1 PUSH1 0x1 PUSH1 0xA0 SHL SUB AND SWAP1 PUSH4 0x23B872DD SWAP1 PUSH1 0x64 ADD PUSH1 0x20 PUSH1 0x40 MLOAD DUP1 DUP4 SUB DUP2 PUSH1 0x0 DUP8 GAS CALL ISZERO DUP1 ISZERO PUSH2 0x826 JUMPI RETURNDATASIZE PUSH1 0x0 DUP1 RETURNDATACOPY RETURNDATASIZE PUSH1 0x0 REVERT JUMPDEST POP POP POP POP PUSH1 0x40 MLOAD RETURNDATASIZE PUSH1 0x1F NOT PUSH1 0x1F DUP3 ADD AND DUP3 ADD DUP1 PUSH1 0x40 MSTORE POP DUP2 ADD SWAP1 PUSH2 0x84A SWAP2 SWAP1 PUSH2 0x1AE1 JUMP JUMPDEST POP CALLER PUSH1 0x0 SWAP1 DUP2 MSTORE PUSH1 0x6 PUSH1 0x20 MSTORE PUSH1 0x40 DUP2 KECCAK256 DUP1 SLOAD DUP4 SWAP3 SWAP1 PUSH2 0x86A SWAP1 DUP5 SWAP1 PUSH2 0x1B03 JUMP JUMPDEST SWAP1 SWAP2 SSTORE POP POP PUSH1 0x40 MLOAD DUP2 DUP2 MSTORE CALLER SWAP1 PUSH32 0x6473C9F7DA8F23A3D810F05B3E8FB3945F0AD17DEADCC09E302CDF5D58E48FE7 SWAP1 PUSH1 0x20 ADD JUMPDEST PUSH1 0x40 MLOAD DUP1 SWAP2 SUB SWAP1 LOG2 PUSH2 0x8AE PUSH1 0x1 DUP1 SSTORE JUMP JUMPDEST POP JUMP JUMPDEST PUSH2 0x8B9 PUSH2 0x16FD JUMP JUMPDEST PUSH2 0x8C1 PUSH2 0x17F6 JUMP JUMPDEST JUMP JUMPDEST PUSH2 0x8CB PUSH2 0x1757 JUMP JUMPDEST PUSH2 0x8D3 PUSH2 0x179D JUMP JUMPDEST PUSH1 0x0 DUP3 GT PUSH2 0x8F3 JUMPI PUSH1 0x40 MLOAD PUSH3 0x461BCD PUSH1 0xE5 SHL DUP2 MSTORE PUSH1 0x4 ADD PUSH2 0x616 SWAP1 PUSH2 0x1AA2 JUMP JUMPDEST PUSH1 0x1 PUSH1 0x1 PUSH1 0xA0 SHL SUB DUP2 DUP2 AND PUSH1 0x0 SWAP1 DUP2 MSTORE PUSH1 0x8 PUSH1 0x20 MSTORE PUSH1 0x40 SWAP1 KECCAK256 SLOAD AND PUSH2 0x95A JUMPI PUSH1 0x40 MLOAD PUSH3 0x461BCD PUSH1 0xE5 SHL DUP2 MSTORE PUSH1 0x20 PUSH1 0x4 DUP3 ADD MSTORE PUSH1 0x18 PUSH1 0x24 DUP3 ADD MSTORE PUSH32 0x436F6C6C61746572616C206E6F7420737570706F727465640000000000000000 PUSH1 0x44 DUP3 ADD MSTORE PUSH1 0x64 ADD PUSH2 0x616 JUMP JUMPDEST PUSH1 0x0 PUSH2 0x966 CALLER DUP4 PUSH2 0x592 JUMP JUMPDEST PUSH1 0x1 PUSH1 0x1 PUSH1 0xA0 SHL SUB DUP4 AND PUSH1 0x0 SWAP1 DUP2 MSTORE PUSH1 0x7 PUSH1 0x20 MSTORE PUSH1 0x40 DUP2 KECCAK256 SLOAD SWAP2 SWAP3 POP SWAP1 PUSH1 0x64 SWAP1 PUSH2 0x990 SWAP1 DUP7 PUSH2 0x1A69 JUMP JUMPDEST PUSH2 0x99A SWAP2 SWAP1 PUSH2 0x1A80 JUMP JUMPDEST SWAP1 POP DUP1 DUP3 LT ISZERO PUSH2 0x9E6 JUMPI PUSH1 0x40 MLOAD PUSH3 0x461BCD PUSH1 0xE5 SHL DUP2 MSTORE PUSH1 0x20 PUSH1 0x4 DUP3 ADD MSTORE PUSH1 0x17 PUSH1 0x24 DUP3 ADD MSTORE PUSH23 0x125B9CDD59999A58DA595B9D0818DBDB1B185D195C985B PUSH1 0x4A SHL PUSH1 0x44 DUP3 ADD MSTORE PUSH1 0x64 ADD PUSH2 0x616 JUMP JUMPDEST PUSH1 0x0 PUSH2 0x2710 PUSH1 0xC SLOAD DUP7 PUSH2 0x9F9 SWAP2 SWAP1 PUSH2 0x1A69 JUMP JUMPDEST PUSH2 0xA03 SWAP2 SWAP1 PUSH2 0x1A80 JUMP JUMPDEST SWAP1 POP PUSH1 0x0 PUSH2 0xA11 DUP3 DUP8 PUSH2 0x1ACE JUMP JUMPDEST CALLER PUSH1 0x0 SWAP1 DUP2 MSTORE PUSH1 0x5 PUSH1 0x20 MSTORE PUSH1 0x40 DUP2 KECCAK256 DUP1 SLOAD SWAP3 SWAP4 POP SWAP1 SWAP2 SWAP1 DUP3 PUSH2 0xA32 DUP4 PUSH2 0x1B16 JUMP JUMPDEST SWAP1 SWAP2 SSTORE POP PUSH1 0x40 DUP1 MLOAD PUSH1 0x80 DUP2 ADD DUP3 MSTORE DUP5 DUP2 MSTORE TIMESTAMP PUSH1 0x20 DUP1 DUP4 ADD SWAP2 DUP3 MSTORE PUSH1 0x1 PUSH1 0x1 PUSH1 0xA0 SHL SUB DUP12 DUP2 AND DUP5 DUP7 ADD SWAP1 DUP2 MSTORE PUSH1 0x0 PUSH1 0x60 DUP7 ADD DUP2 DUP2 MSTORE CALLER DUP1 DUP4 MSTORE PUSH1 0x4 DUP1 DUP8 MSTORE DUP10 DUP5 KECCAK256 DUP12 DUP6 MSTORE SWAP1 SWAP7 MSTORE SWAP2 DUP9 SWAP1 KECCAK256 SWAP7 MLOAD DUP8 SSTORE SWAP5 MLOAD PUSH1 0x1 DUP8 ADD SSTORE SWAP1 MLOAD PUSH1 0x2 DUP7 ADD DUP1 SLOAD PUSH1 0x1 PUSH1 0x1 PUSH1 0xA0 SHL SUB NOT AND SWAP2 DUP5 AND SWAP2 SWAP1 SWAP2 OR SWAP1 SSTORE SWAP3 MLOAD PUSH1 0x3 SWAP1 SWAP5 ADD SWAP4 SWAP1 SWAP4 SSTORE SWAP3 MLOAD PUSH4 0xA9059CBB PUSH1 0xE0 SHL DUP2 MSTORE SWAP3 DUP4 ADD MSTORE PUSH1 0x24 DUP3 ADD DUP6 SWAP1 MSTORE SWAP2 SWAP3 POP PUSH32 0x0 SWAP1 SWAP2 AND SWAP1 PUSH4 0xA9059CBB SWAP1 PUSH1 0x44 ADD PUSH1 0x20 PUSH1 0x40 MLOAD DUP1 DUP4 SUB DUP2 PUSH1 0x0 DUP8 GAS CALL ISZERO DUP1 ISZERO PUSH2 0xB14 JUMPI RETURNDATASIZE PUSH1 0x0 DUP1 RETURNDATACOPY RETURNDATASIZE PUSH1 0x0 REVERT JUMPDEST POP POP POP POP PUSH1 0x40 MLOAD RETURNDATASIZE PUSH1 0x1F NOT PUSH1 0x1F DUP3 ADD AND DUP3 ADD DUP1 PUSH1 0x40 MSTORE POP DUP2 ADD SWAP1 PUSH2 0xB38 SWAP2 SWAP1 PUSH2 0x1AE1 JUMP JUMPDEST POP PUSH1 0x40 DUP1 MLOAD DUP4 DUP2 MSTORE PUSH1 0x20 DUP2 ADD DUP4 SWAP1 MSTORE PUSH1 0x1 PUSH1 0x1 PUSH1 0xA0 SHL SUB DUP9 AND SWAP2 CALLER SWAP2 PUSH32 0x1C49CF1232849B567D2AB59E1329DE06371836816E4DA37C284A164A70B5B4B SWAP2 ADD PUSH1 0x40 MLOAD DUP1 SWAP2 SUB SWAP1 LOG3 CALLER PUSH1 0x1 PUSH1 0x1 PUSH1 0xA0 SHL SUB AND PUSH32 0xDB23CBA216BFAED89070D2734596F2EE2A163099CFC4F5EF32036DEBC9792226 DUP5 PUSH1 0x40 MLOAD PUSH2 0xBD8 SWAP2 DUP2 MSTORE PUSH1 0x40 PUSH1 0x20 DUP3 ADD DUP2 SWAP1 MSTORE PUSH1 0x6 SWAP1 DUP3 ADD MSTORE PUSH6 0x626F72726F77 PUSH1 0xD0 SHL PUSH1 0x60 DUP3 ADD MSTORE PUSH1 0x80 ADD SWAP1 JUMP JUMPDEST PUSH1 0x40 MLOAD DUP1 SWAP2 SUB SWAP1 LOG2 POP POP POP POP POP PUSH2 0x77F PUSH1 0x1 DUP1 SSTORE JUMP JUMPDEST PUSH2 0xBF6 PUSH2 0x16FD JUMP JUMPDEST PUSH2 0x8C1 PUSH1 0x0 PUSH2 0x1848 JUMP JUMPDEST PUSH1 0x1 PUSH1 0x1 PUSH1 0xA0 SHL SUB DUP1 DUP4 AND PUSH1 0x0 SWAP1 DUP2 MSTORE PUSH1 0x4 PUSH1 0x20 SWAP1 DUP2 MSTORE PUSH1 0x40 DUP1 DUP4 KECCAK256 DUP6 DUP5 MSTORE DUP3 MSTORE DUP1 DUP4 KECCAK256 DUP2 MLOAD PUSH1 0x80 DUP2 ADD DUP4 MSTORE DUP2 SLOAD DUP1 DUP3 MSTORE PUSH1 0x1 DUP4 ADD SLOAD SWAP5 DUP3 ADD SWAP5 SWAP1 SWAP5 MSTORE PUSH1 0x2 DUP3 ADD SLOAD SWAP1 SWAP6 AND SWAP2 DUP6 ADD SWAP2 SWAP1 SWAP2 MSTORE PUSH1 0x3 ADD SLOAD PUSH1 0x60 DUP5 ADD MSTORE SWAP1 SWAP2 SWAP1 DUP3 SUB PUSH2 0xC68 JUMPI PUSH1 0x0 SWAP2 POP POP PUSH2 0x5E0 JUMP JUMPDEST PUSH1 0x0 DUP2 PUSH1 0x20 ADD MLOAD TIMESTAMP PUSH2 0xC7A SWAP2 SWAP1 PUSH2 0x1ACE JUMP JUMPDEST SWAP1 POP PUSH1 0x0 PUSH4 0xBBF81E00 DUP3 PUSH1 0xE SLOAD DUP6 PUSH1 0x0 ADD MLOAD PUSH2 0xC96 SWAP2 SWAP1 PUSH2 0x1A69 JUMP JUMPDEST PUSH2 0xCA0 SWAP2 SWAP1 PUSH2 0x1A69 JUMP JUMPDEST PUSH2 0xCAA SWAP2 SWAP1 PUSH2 0x1A80 JUMP JUMPDEST SWAP7 SWAP6 POP POP POP POP POP POP JUMP JUMPDEST PUSH2 0xCBC PUSH2 0x16FD JUMP JUMPDEST PUSH2 0x8C1 PUSH2 0x1898 JUMP JUMPDEST PUSH2 0xCCC PUSH2 0x1757 JUMP JUMPDEST PUSH2 0xCD4 PUSH2 0x179D JUMP JUMPDEST PUSH1 0x0 DUP2 GT PUSH2 0xCF4 JUMPI PUSH1 0x40 MLOAD PUSH3 0x461BCD PUSH1 0xE5 SHL DUP2 MSTORE PUSH1 0x4 ADD PUSH2 0x616 SWAP1 PUSH2 0x1AA2 JUMP JUMPDEST CALLER PUSH1 0x0 SWAP1 DUP2 MSTORE PUSH1 0x6 PUSH1 0x20 MSTORE PUSH1 0x40 SWAP1 KECCAK256 SLOAD DUP2 GT ISZERO PUSH2 0xD4A JUMPI PUSH1 0x40 MLOAD PUSH3 0x461BCD PUSH1 0xE5 SHL DUP2 MSTORE PUSH1 0x20 PUSH1 0x4 DUP3 ADD MSTORE PUSH1 0x14 PUSH1 0x24 DUP3 ADD MSTORE PUSH20 0x496E73756666696369656E742062616C616E6365 PUSH1 0x60 SHL PUSH1 0x44 DUP3 ADD MSTORE PUSH1 0x64 ADD PUSH2 0x616 JUMP JUMPDEST CALLER PUSH1 0x0 SWAP1 DUP2 MSTORE PUSH1 0x6 PUSH1 0x20 MSTORE PUSH1 0x40 DUP2 KECCAK256 DUP1 SLOAD DUP4 SWAP3 SWAP1 PUSH2 0xD69 SWAP1 DUP5 SWAP1 PUSH2 0x1ACE JUMP JUMPDEST SWAP1 SWAP2 SSTORE POP POP PUSH1 0x40 MLOAD PUSH4 0xA9059CBB PUSH1 0xE0 SHL DUP2 MSTORE CALLER PUSH1 0x4 DUP3 ADD MSTORE PUSH1 0x24 DUP2 ADD DUP3 SWAP1 MSTORE PUSH32 0x0 PUSH1 0x1 PUSH1 0x1 PUSH1 0xA0 SHL SUB AND SWAP1 PUSH4 0xA9059CBB SWAP1 PUSH1 0x44 ADD PUSH1 0x20 PUSH1 0x40 MLOAD DUP1 DUP4 SUB DUP2 PUSH1 0x0 DUP8 GAS CALL ISZERO DUP1 ISZERO PUSH2 0xDDB JUMPI RETURNDATASIZE PUSH1 0x0 DUP1 RETURNDATACOPY RETURNDATASIZE PUSH1 0x0 REVERT JUMPDEST POP POP POP POP PUSH1 0x40 MLOAD RETURNDATASIZE PUSH1 0x1F NOT PUSH1 0x1F DUP3 ADD AND DUP3 ADD DUP1 PUSH1 0x40 MSTORE POP DUP2 ADD SWAP1 PUSH2 0xDFF SWAP2 SWAP1 PUSH2 0x1AE1 JUMP JUMPDEST POP PUSH1 0x40 MLOAD DUP2 DUP2 MSTORE CALLER SWAP1 PUSH32 0x13A0ACA96F8702AA1D1F6AEC7D2C63D974CFA8457BBA0B310E814CB3017E5051 SWAP1 PUSH1 0x20 ADD PUSH2 0x89D JUMP JUMPDEST PUSH2 0xE3A PUSH2 0x16FD JUMP JUMPDEST PUSH1 0x1 PUSH1 0x1 PUSH1 0xA0 SHL SUB DUP4 AND ISZERO DUP1 ISZERO SWAP1 PUSH2 0xE5A JUMPI POP PUSH1 0x1 PUSH1 0x1 PUSH1 0xA0 SHL SUB DUP3 AND ISZERO ISZERO JUMPDEST PUSH2 0xE98 JUMPI PUSH1 0x40 MLOAD PUSH3 0x461BCD PUSH1 0xE5 SHL DUP2 MSTORE PUSH1 0x20 PUSH1 0x4 DUP3 ADD MSTORE PUSH1 0xF PUSH1 0x24 DUP3 ADD MSTORE PUSH15 0x496E76616C69642061646472657373 PUSH1 0x88 SHL PUSH1 0x44 DUP3 ADD MSTORE PUSH1 0x64 ADD PUSH2 0x616 JUMP JUMPDEST PUSH1 0x0 DUP2 GT PUSH2 0xEDC JUMPI PUSH1 0x40 MLOAD PUSH3 0x461BCD PUSH1 0xE5 SHL DUP2 MSTORE PUSH1 0x20 PUSH1 0x4 DUP3 ADD MSTORE PUSH1 0x11 PUSH1 0x24 DUP3 ADD MSTORE PUSH17 0x526174696F206D757374206265203E203 PUSH1 0x7C SHL PUSH1 0x44 DUP3 ADD MSTORE PUSH1 0x64 ADD PUSH2 0x616 JUMP JUMPDEST PUSH1 0x1 PUSH1 0x1 PUSH1 0xA0 SHL SUB SWAP3 DUP4 AND PUSH1 0x0 SWAP1 DUP2 MSTORE PUSH1 0x8 PUSH1 0x20 SWAP1 DUP2 MSTORE PUSH1 0x40 DUP1 DUP4 KECCAK256 DUP1 SLOAD PUSH1 0x1 PUSH1 0x1 PUSH1 0xA0 SHL SUB NOT AND SWAP6 SWAP1 SWAP7 AND SWAP5 SWAP1 SWAP5 OR SWAP1 SWAP5 SSTORE PUSH1 0x7 SWAP1 SWAP4 MSTORE SWAP2 KECCAK256 SSTORE JUMP JUMPDEST PUSH2 0xF21 PUSH2 0x1757 JUMP JUMPDEST PUSH2 0xF29 PUSH2 0x179D JUMP JUMPDEST PUSH1 0x0 DUP2 GT PUSH2 0xF49 JUMPI PUSH1 0x40 MLOAD PUSH3 0x461BCD PUSH1 0xE5 SHL DUP2 MSTORE PUSH1 0x4 ADD PUSH2 0x616 SWAP1 PUSH2 0x1AA2 JUMP JUMPDEST PUSH1 0x1 PUSH1 0x1 PUSH1 0xA0 SHL SUB DUP3 DUP2 AND PUSH1 0x0 SWAP1 DUP2 MSTORE PUSH1 0x8 PUSH1 0x20 MSTORE PUSH1 0x40 SWAP1 KECCAK256 SLOAD AND PUSH2 0xFA6 JUMPI PUSH1 0x40 MLOAD PUSH3 0x461BCD PUSH1 0xE5 SHL DUP2 MSTORE PUSH1 0x20 PUSH1 0x4 DUP3 ADD MSTORE PUSH1 0x13 PUSH1 0x24 DUP3 ADD MSTORE PUSH19 0x151BDAD95B881B9BDD081CDD5C1C1BDC9D1959 PUSH1 0x6A SHL PUSH1 0x44 DUP3 ADD MSTORE PUSH1 0x64 ADD PUSH2 0x616 JUMP JUMPDEST PUSH1 0x0 PUSH2 0x2710 PUSH1 0xB SLOAD DUP4 PUSH2 0xFB9 SWAP2 SWAP1 PUSH2 0x1A69 JUMP JUMPDEST PUSH2 0xFC3 SWAP2 SWAP1 PUSH2 0x1A80 JUMP JUMPDEST SWAP1 POP PUSH1 0x0 PUSH2 0xFD1 DUP3 DUP5 PUSH2 0x1ACE JUMP JUMPDEST PUSH1 0x40 MLOAD PUSH4 0x23B872DD PUSH1 0xE0 SHL DUP2 MSTORE CALLER PUSH1 0x4 DUP3 ADD MSTORE ADDRESS PUSH1 0x24 DUP3 ADD MSTORE PUSH1 0x44 DUP2 ADD DUP6 SWAP1 MSTORE SWAP1 SWAP2 POP PUSH1 0x1 PUSH1 0x1 PUSH1 0xA0 SHL SUB DUP6 AND SWAP1 PUSH4 0x23B872DD SWAP1 PUSH1 0x64 ADD PUSH1 0x20 PUSH1 0x40 MLOAD DUP1 DUP4 SUB DUP2 PUSH1 0x0 DUP8 GAS CALL ISZERO DUP1 ISZERO PUSH2 0x1027 JUMPI RETURNDATASIZE PUSH1 0x0 DUP1 RETURNDATACOPY RETURNDATASIZE PUSH1 0x0 REVERT JUMPDEST POP POP POP POP PUSH1 0x40 MLOAD RETURNDATASIZE PUSH1 0x1F NOT PUSH1 0x1F DUP3 ADD AND DUP3 ADD DUP1 PUSH1 0x40 MSTORE POP DUP2 ADD SWAP1 PUSH2 0x104B SWAP2 SWAP1 PUSH2 0x1AE1 JUMP JUMPDEST POP CALLER PUSH1 0x0 SWAP1 DUP2 MSTORE PUSH1 0x3 PUSH1 0x20 SWAP1 DUP2 MSTORE PUSH1 0x40 DUP1 DUP4 KECCAK256 PUSH1 0x1 PUSH1 0x1 PUSH1 0xA0 SHL SUB DUP9 AND DUP5 MSTORE SWAP1 SWAP2 MSTORE DUP2 KECCAK256 DUP1 SLOAD DUP4 SWAP3 SWAP1 PUSH2 0x107F SWAP1 DUP5 SWAP1 PUSH2 0x1B03 JUMP JUMPDEST SWAP1 SWAP2 SSTORE POP POP PUSH1 0x40 MLOAD DUP2 DUP2 MSTORE PUSH1 0x1 PUSH1 0x1 PUSH1 0xA0 SHL SUB DUP6 AND SWAP1 CALLER SWAP1 PUSH32 0xA95929BA4CCECFCBCA9CE9798D6DFB0C0C6E06226A6D0E1905BB20A8E28157A9 SWAP1 PUSH1 0x20 ADD PUSH1 0x40 MLOAD DUP1 SWAP2 SUB SWAP1 LOG3 CALLER PUSH1 0x1 PUSH1 0x1 PUSH1 0xA0 SHL SUB AND PUSH32 0xDB23CBA216BFAED89070D2734596F2EE2A163099CFC4F5EF32036DEBC9792226 DUP4 PUSH1 0x40 MLOAD PUSH2 0x111E SWAP2 DUP2 MSTORE PUSH1 0x40 PUSH1 0x20 DUP3 ADD DUP2 SWAP1 MSTORE PUSH1 0x7 SWAP1 DUP3 ADD MSTORE PUSH7 0x19195C1BDCDA5D PUSH1 0xCA SHL PUSH1 0x60 DUP3 ADD MSTORE PUSH1 0x80 ADD SWAP1 JUMP JUMPDEST PUSH1 0x40 MLOAD DUP1 SWAP2 SUB SWAP1 LOG2 POP POP PUSH2 0x77F PUSH1 0x1 DUP1 SSTORE JUMP JUMPDEST PUSH2 0x1139 PUSH2 0x16FD JUMP JUMPDEST PUSH1 0xE SSTORE JUMP JUMPDEST PUSH2 0x1146 PUSH2 0x16FD JUMP JUMPDEST PUSH1 0xC SSTORE JUMP JUMPDEST PUSH2 0x1153 PUSH2 0x1757 JUMP JUMPDEST PUSH2 0x115B PUSH2 0x179D JUMP JUMPDEST PUSH1 0x1 PUSH1 0x1 PUSH1 0xA0 SHL SUB DUP1 DUP4 AND PUSH1 0x0 SWAP1 DUP2 MSTORE PUSH1 0x4 PUSH1 0x20 SWAP1 DUP2 MSTORE PUSH1 0x40 DUP1 DUP4 KECCAK256 DUP6 DUP5 MSTORE DUP3 MSTORE SWAP2 DUP3 SWAP1 KECCAK256 DUP3 MLOAD PUSH1 0x80 DUP2 ADD DUP5 MSTORE DUP2 SLOAD DUP1 DUP3 MSTORE PUSH1 0x1 DUP4 ADD SLOAD SWAP4 DUP3 ADD SWAP4 SWAP1 SWAP4 MSTORE PUSH1 0x2 DUP3 ADD SLOAD SWAP1 SWAP5 AND SWAP3 DUP5 ADD SWAP3 SWAP1 SWAP3 MSTORE PUSH1 0x3 SWAP1 SWAP2 ADD SLOAD PUSH1 0x60 DUP4 ADD MSTORE PUSH2 0x11F2 JUMPI PUSH1 0x40 MLOAD PUSH3 0x461BCD PUSH1 0xE5 SHL DUP2 MSTORE PUSH1 0x20 PUSH1 0x4 DUP3 ADD MSTORE PUSH1 0x10 PUSH1 0x24 DUP3 ADD MSTORE PUSH16 0x4E6F2061637469766520626F72726F77 PUSH1 0x80 SHL PUSH1 0x44 DUP3 ADD MSTORE PUSH1 0x64 ADD PUSH2 0x616 JUMP JUMPDEST PUSH1 0x0 PUSH2 0x1202 DUP5 DUP4 PUSH1 0x40 ADD MLOAD PUSH2 0x592 JUMP JUMPDEST SWAP1 POP PUSH1 0x0 PUSH1 0x64 PUSH1 0xD SLOAD DUP5 PUSH1 0x0 ADD MLOAD PUSH2 0x121A SWAP2 SWAP1 PUSH2 0x1A69 JUMP JUMPDEST PUSH2 0x1224 SWAP2 SWAP1 PUSH2 0x1A80 JUMP JUMPDEST SWAP1 POP DUP1 DUP3 LT PUSH2 0x1275 JUMPI PUSH1 0x40 MLOAD PUSH3 0x461BCD PUSH1 0xE5 SHL DUP2 MSTORE PUSH1 0x20 PUSH1 0x4 DUP3 ADD DUP2 SWAP1 MSTORE PUSH1 0x24 DUP3 ADD MSTORE PUSH32 0x426F72726F776572206E6F7420756E646572636F6C6C61746572616C697A6564 PUSH1 0x44 DUP3 ADD MSTORE PUSH1 0x64 ADD PUSH2 0x616 JUMP JUMPDEST PUSH1 0x1 PUSH1 0x1 PUSH1 0xA0 SHL SUB DUP6 DUP2 AND PUSH1 0x0 DUP2 DUP2 MSTORE PUSH1 0x3 PUSH1 0x20 DUP2 DUP2 MSTORE PUSH1 0x40 DUP1 DUP5 KECCAK256 DUP10 DUP3 ADD DUP1 MLOAD DUP9 AND DUP7 MSTORE DUP2 DUP5 MSTORE DUP3 DUP7 KECCAK256 SLOAD DUP8 DUP8 MSTORE DUP6 DUP6 MSTORE DUP2 MLOAD DUP10 AND DUP8 MSTORE SWAP2 DUP5 MSTORE DUP3 DUP7 KECCAK256 DUP7 SWAP1 SSTORE SWAP6 DUP6 MSTORE PUSH1 0x4 DUP1 DUP5 MSTORE DUP3 DUP7 KECCAK256 DUP13 DUP8 MSTORE SWAP1 SWAP4 MSTORE DUP2 DUP6 KECCAK256 DUP6 DUP2 SSTORE PUSH1 0x1 DUP2 ADD DUP7 SWAP1 SSTORE PUSH1 0x2 DUP2 ADD DUP1 SLOAD PUSH1 0x1 PUSH1 0x1 PUSH1 0xA0 SHL SUB NOT AND SWAP1 SSTORE SWAP1 SWAP4 ADD SWAP4 SWAP1 SWAP4 SSTORE SWAP3 MLOAD SWAP2 MLOAD PUSH4 0xA9059CBB PUSH1 0xE0 SHL DUP2 MSTORE CALLER SWAP4 DUP2 ADD SWAP4 SWAP1 SWAP4 MSTORE PUSH1 0x24 DUP4 ADD DUP2 SWAP1 MSTORE SWAP3 AND SWAP1 PUSH4 0xA9059CBB SWAP1 PUSH1 0x44 ADD PUSH1 0x20 PUSH1 0x40 MLOAD DUP1 DUP4 SUB DUP2 PUSH1 0x0 DUP8 GAS CALL ISZERO DUP1 ISZERO PUSH2 0x1335 JUMPI RETURNDATASIZE PUSH1 0x0 DUP1 RETURNDATACOPY RETURNDATASIZE PUSH1 0x0 REVERT JUMPDEST POP POP POP POP PUSH1 0x40 MLOAD RETURNDATASIZE PUSH1 0x1F NOT PUSH1 0x1F DUP3 ADD AND DUP3 ADD DUP1 PUSH1 0x40 MSTORE POP DUP2 ADD SWAP1 PUSH2 0x1359 SWAP2 SWAP1 PUSH2 0x1AE1 JUMP JUMPDEST POP DUP4 PUSH1 0x40 ADD MLOAD PUSH1 0x1 PUSH1 0x1 PUSH1 0xA0 SHL SUB AND DUP7 PUSH1 0x1 PUSH1 0x1 PUSH1 0xA0 SHL SUB AND PUSH32 0x3A487DEEF66DF543D7641C7D8D3DA7272A2658EDD9F10FFE591214499517A2C8 DUP4 DUP9 PUSH1 0x40 MLOAD PUSH2 0x13AC SWAP3 SWAP2 SWAP1 SWAP2 DUP3 MSTORE PUSH1 0x20 DUP3 ADD MSTORE PUSH1 0x40 ADD SWAP1 JUMP JUMPDEST PUSH1 0x40 MLOAD DUP1 SWAP2 SUB SWAP1 LOG3 POP POP POP POP PUSH2 0x77F PUSH1 0x1 DUP1 SSTORE JUMP JUMPDEST PUSH1 0x1 PUSH1 0x1 PUSH1 0xA0 SHL SUB DUP1 DUP3 AND PUSH1 0x0 SWAP1 DUP2 MSTORE PUSH1 0x8 PUSH1 0x20 MSTORE PUSH1 0x40 DUP1 DUP3 KECCAK256 SLOAD DUP2 MLOAD PUSH4 0x3FABE5A3 PUSH1 0xE2 SHL DUP2 MSTORE SWAP2 MLOAD SWAP3 SWAP4 DUP5 SWAP4 SWAP2 AND SWAP2 PUSH4 0xFEAF968C SWAP2 PUSH1 0x4 DUP1 DUP4 ADD SWAP3 PUSH1 0xA0 SWAP3 SWAP2 SWAP1 DUP3 SWAP1 SUB ADD DUP2 DUP7 GAS STATICCALL ISZERO DUP1 ISZERO PUSH2 0x141B JUMPI RETURNDATASIZE PUSH1 0x0 DUP1 RETURNDATACOPY RETURNDATASIZE PUSH1 0x0 REVERT JUMPDEST POP POP POP POP PUSH1 0x40 MLOAD RETURNDATASIZE PUSH1 0x1F NOT PUSH1 0x1F DUP3 ADD AND DUP3 ADD DUP1 PUSH1 0x40 MSTORE POP DUP2 ADD SWAP1 PUSH2 0x143F SWAP2 SWAP1 PUSH2 0x1B49 JUMP JUMPDEST POP SWAP2 SWAP7 SWAP6 POP POP POP POP POP POP JUMP JUMPDEST PUSH2 0x1453 PUSH2 0x16FD JUMP JUMPDEST PUSH1 0xD SSTORE JUMP JUMPDEST PUSH2 0x1460 PUSH2 0x1757 JUMP JUMPDEST PUSH2 0x1468 PUSH2 0x179D JUMP JUMPDEST PUSH1 0x0 DUP2 GT PUSH2 0x1488 JUMPI PUSH1 0x40 MLOAD PUSH3 0x461BCD PUSH1 0xE5 SHL DUP2 MSTORE PUSH1 0x4 ADD PUSH2 0x616 SWAP1 PUSH2 0x1AA2 JUMP JUMPDEST CALLER PUSH1 0x0 SWAP1 DUP2 MSTORE PUSH1 0x4 PUSH1 0x20 SWAP1 DUP2 MSTORE PUSH1 0x40 DUP1 DUP4 KECCAK256 DUP6 DUP5 MSTORE SWAP1 SWAP2 MSTORE SWAP1 KECCAK256 DUP1 SLOAD PUSH2 0x14E3 JUMPI PUSH1 0x40 MLOAD PUSH3 0x461BCD PUSH1 0xE5 SHL DUP2 MSTORE PUSH1 0x20 PUSH1 0x4 DUP3 ADD MSTORE PUSH1 0x10 PUSH1 0x24 DUP3 ADD MSTORE PUSH16 0x4E6F2061637469766520626F72726F77 PUSH1 0x80 SHL PUSH1 0x44 DUP3 ADD MSTORE PUSH1 0x64 ADD PUSH2 0x616 JUMP JUMPDEST PUSH1 0x0 PUSH2 0x14EF CALLER DUP6 PUSH2 0xC00 JUMP JUMPDEST SWAP1 POP PUSH1 0x0 DUP2 DUP4 PUSH1 0x0 ADD SLOAD PUSH2 0x1503 SWAP2 SWAP1 PUSH2 0x1B03 JUMP JUMPDEST SWAP1 POP DUP1 DUP5 GT ISZERO PUSH2 0x1555 JUMPI PUSH1 0x40 MLOAD PUSH3 0x461BCD PUSH1 0xE5 SHL DUP2 MSTORE PUSH1 0x20 PUSH1 0x4 DUP3 ADD MSTORE PUSH1 0x18 PUSH1 0x24 DUP3 ADD MSTORE PUSH32 0x5265706179206578636565647320746F74616C206F7765640000000000000000 PUSH1 0x44 DUP3 ADD MSTORE PUSH1 0x64 ADD PUSH2 0x616 JUMP JUMPDEST PUSH1 0x40 MLOAD PUSH4 0x23B872DD PUSH1 0xE0 SHL DUP2 MSTORE CALLER PUSH1 0x4 DUP3 ADD MSTORE ADDRESS PUSH1 0x24 DUP3 ADD MSTORE PUSH1 0x44 DUP2 ADD DUP6 SWAP1 MSTORE PUSH32 0x0 PUSH1 0x1 PUSH1 0x1 PUSH1 0xA0 SHL SUB AND SWAP1 PUSH4 0x23B872DD SWAP1 PUSH1 0x64 ADD PUSH1 0x20 PUSH1 0x40 MLOAD DUP1 DUP4 SUB DUP2 PUSH1 0x0 DUP8 GAS CALL ISZERO DUP1 ISZERO PUSH2 0x15C8 JUMPI RETURNDATASIZE PUSH1 0x0 DUP1 RETURNDATACOPY RETURNDATASIZE PUSH1 0x0 REVERT JUMPDEST POP POP POP POP PUSH1 0x40 MLOAD RETURNDATASIZE PUSH1 0x1F NOT PUSH1 0x1F DUP3 ADD AND DUP3 ADD DUP1 PUSH1 0x40 MSTORE POP DUP2 ADD SWAP1 PUSH2 0x15EC SWAP2 SWAP1 PUSH2 0x1AE1 JUMP JUMPDEST POP DUP1 DUP5 LT PUSH2 0x1633 JUMPI CALLER PUSH1 0x0 SWAP1 DUP2 MSTORE PUSH1 0x4 PUSH1 0x20 SWAP1 DUP2 MSTORE PUSH1 0x40 DUP1 DUP4 KECCAK256 DUP9 DUP5 MSTORE SWAP1 SWAP2 MSTORE DUP2 KECCAK256 DUP2 DUP2 SSTORE PUSH1 0x1 DUP2 ADD DUP3 SWAP1 SSTORE PUSH1 0x2 DUP2 ADD DUP1 SLOAD PUSH1 0x1 PUSH1 0x1 PUSH1 0xA0 SHL SUB NOT AND SWAP1 SSTORE PUSH1 0x3 ADD SSTORE PUSH2 0x1640 JUMP JUMPDEST PUSH2 0x163D DUP5 DUP3 PUSH2 0x1ACE JUMP JUMPDEST DUP4 SSTORE JUMPDEST PUSH1 0x40 DUP1 MLOAD DUP6 DUP2 MSTORE PUSH1 0x20 DUP2 ADD DUP8 SWAP1 MSTORE CALLER SWAP2 PUSH32 0x1B8CD61ED43BEC7C6BDAD3A18FFEE613F99C853D16C50678D248D879E1B43438 SWAP2 ADD PUSH1 0x40 MLOAD DUP1 SWAP2 SUB SWAP1 LOG2 POP POP POP PUSH2 0x77F PUSH1 0x1 DUP1 SSTORE JUMP JUMPDEST PUSH2 0x168F PUSH2 0x16FD JUMP JUMPDEST PUSH1 0x1 PUSH1 0x1 PUSH1 0xA0 SHL SUB DUP2 AND PUSH2 0x16F4 JUMPI PUSH1 0x40 MLOAD PUSH3 0x461BCD PUSH1 0xE5 SHL DUP2 MSTORE PUSH1 0x20 PUSH1 0x4 DUP3 ADD MSTORE PUSH1 0x26 PUSH1 0x24 DUP3 ADD MSTORE PUSH32 0x4F776E61626C653A206E6577206F776E657220697320746865207A65726F2061 PUSH1 0x44 DUP3 ADD MSTORE PUSH6 0x646472657373 PUSH1 0xD0 SHL PUSH1 0x64 DUP3 ADD MSTORE PUSH1 0x84 ADD PUSH2 0x616 JUMP JUMPDEST PUSH2 0x8AE DUP2 PUSH2 0x1848 JUMP JUMPDEST PUSH1 0x0 SLOAD PUSH1 0x1 PUSH1 0x1 PUSH1 0xA0 SHL SUB AND CALLER EQ PUSH2 0x8C1 JUMPI PUSH1 0x40 MLOAD PUSH3 0x461BCD PUSH1 0xE5 SHL DUP2 MSTORE PUSH1 0x20 PUSH1 0x4 DUP3 ADD DUP2 SWAP1 MSTORE PUSH1 0x24 DUP3 ADD MSTORE PUSH32 0x4F776E61626C653A2063616C6C6572206973206E6F7420746865206F776E6572 PUSH1 0x44 DUP3 ADD MSTORE PUSH1 0x64 ADD PUSH2 0x616 JUMP JUMPDEST PUSH1 0x2 SLOAD PUSH1 0xFF AND ISZERO PUSH2 0x8C1 JUMPI PUSH1 0x40 MLOAD PUSH3 0x461BCD PUSH1 0xE5 SHL DUP2 MSTORE PUSH1 0x20 PUSH1 0x4 DUP3 ADD MSTORE PUSH1 0x10 PUSH1 0x24 DUP3 ADD MSTORE PUSH16 0x14185D5CD8589B194E881C185D5CD959 PUSH1 0x82 SHL PUSH1 0x44 DUP3 ADD MSTORE PUSH1 0x64 ADD PUSH2 0x616 JUMP JUMPDEST PUSH1 0x2 PUSH1 0x1 SLOAD SUB PUSH2 0x17EF JUMPI PUSH1 0x40 MLOAD PUSH3 0x461BCD PUSH1 0xE5 SHL DUP2 MSTORE PUSH1 0x20 PUSH1 0x4 DUP3 ADD MSTORE PUSH1 0x1F PUSH1 0x24 DUP3 ADD MSTORE PUSH32 0x5265656E7472616E637947756172643A207265656E7472616E742063616C6C00 PUSH1 0x44 DUP3 ADD MSTORE PUSH1 0x64 ADD PUSH2 0x616 JUMP JUMPDEST PUSH1 0x2 PUSH1 0x1 SSTORE JUMP JUMPDEST PUSH2 0x17FE PUSH2 0x18D5 JUMP JUMPDEST PUSH1 0x2 DUP1 SLOAD PUSH1 0xFF NOT AND SWAP1 SSTORE PUSH32 0x5DB9EE0A495BF2E6FF9C91A7834C1BA4FDD244A5E8AA4E537BD38AEAE4B073AA CALLER JUMPDEST PUSH1 0x40 MLOAD PUSH1 0x1 PUSH1 0x1 PUSH1 0xA0 SHL SUB SWAP1 SWAP2 AND DUP2 MSTORE PUSH1 0x20 ADD PUSH1 0x40 MLOAD DUP1 SWAP2 SUB SWAP1 LOG1 JUMP JUMPDEST PUSH1 0x0 DUP1 SLOAD PUSH1 0x1 PUSH1 0x1 PUSH1 0xA0 SHL SUB DUP4 DUP2 AND PUSH1 0x1 PUSH1 0x1 PUSH1 0xA0 SHL SUB NOT DUP4 AND DUP2 OR DUP5 SSTORE PUSH1 0x40 MLOAD SWAP2 SWAP1 SWAP3 AND SWAP3 DUP4 SWAP2 PUSH32 0x8BE0079C531659141344CD1FD0A4F28419497F9722A3DAAFE3B4186F6B6457E0 SWAP2 SWAP1 LOG3 POP POP JUMP JUMPDEST PUSH2 0x18A0 PUSH2 0x1757 JUMP JUMPDEST PUSH1 0x2 DUP1 SLOAD PUSH1 0xFF NOT AND PUSH1 0x1 OR SWAP1 SSTORE PUSH32 0x62E78CEA01BEE320CD4E420270B5EA74000D11B0C9F74754EBDBFC544B05A258 PUSH2 0x182B CALLER SWAP1 JUMP JUMPDEST PUSH1 0x2 SLOAD PUSH1 0xFF AND PUSH2 0x8C1 JUMPI PUSH1 0x40 MLOAD PUSH3 0x461BCD PUSH1 0xE5 SHL DUP2 MSTORE PUSH1 0x20 PUSH1 0x4 DUP3 ADD MSTORE PUSH1 0x14 PUSH1 0x24 DUP3 ADD MSTORE PUSH20 0x14185D5CD8589B194E881B9BDD081C185D5CD959 PUSH1 0x62 SHL PUSH1 0x44 DUP3 ADD MSTORE PUSH1 0x64 ADD PUSH2 0x616 JUMP JUMPDEST PUSH1 0x0 PUSH1 0x20 DUP3 DUP5 SUB SLT ISZERO PUSH2 0x1930 JUMPI PUSH1 0x0 DUP1 REVERT JUMPDEST POP CALLDATALOAD SWAP2 SWAP1 POP JUMP JUMPDEST DUP1 CALLDATALOAD PUSH1 0x1 PUSH1 0x1 PUSH1 0xA0 SHL SUB DUP2 AND DUP2 EQ PUSH2 0x194E JUMPI PUSH1 0x0 DUP1 REVERT JUMPDEST SWAP2 SWAP1 POP JUMP JUMPDEST PUSH1 0x0 DUP1 PUSH1 0x40 DUP4 DUP6 SUB SLT ISZERO PUSH2 0x1966 JUMPI PUSH1 0x0 DUP1 REVERT JUMPDEST PUSH2 0x196F DUP4 PUSH2 0x1937 JUMP JUMPDEST SWAP2 POP PUSH2 0x197D PUSH1 0x20 DUP5 ADD PUSH2 0x1937 JUMP JUMPDEST SWAP1 POP SWAP3 POP SWAP3 SWAP1 POP JUMP JUMPDEST PUSH1 0x0 PUSH1 0x20 DUP3 DUP5 SUB SLT ISZERO PUSH2 0x1998 JUMPI PUSH1 0x0 DUP1 REVERT JUMPDEST PUSH2 0x19A1 DUP3 PUSH2 0x1937 JUMP JUMPDEST SWAP4 SWAP3 POP POP POP JUMP JUMPDEST PUSH1 0x0 DUP1 PUSH1 0x40 DUP4 DUP6 SUB SLT ISZERO PUSH2 0x19BB JUMPI PUSH1 0x0 DUP1 REVERT JUMPDEST PUSH2 0x19C4 DUP4 PUSH2 0x1937 JUMP JUMPDEST SWAP5 PUSH1 0x20 SWAP4 SWAP1 SWAP4 ADD CALLDATALOAD SWAP4 POP POP POP JUMP JUMPDEST PUSH1 0x0 DUP1 PUSH1 0x40 DUP4 DUP6 SUB SLT ISZERO PUSH2 0x19E5 JUMPI PUSH1 0x0 DUP1 REVERT JUMPDEST DUP3 CALLDATALOAD SWAP2 POP PUSH2 0x197D PUSH1 0x20 DUP5 ADD PUSH2 0x1937 JUMP JUMPDEST PUSH1 0x0 DUP1 PUSH1 0x0 PUSH1 0x60 DUP5 DUP7 SUB SLT ISZERO PUSH2 0x1A0A JUMPI PUSH1 0x0 DUP1 REVERT JUMPDEST PUSH2 0x1A13 DUP5 PUSH2 0x1937 JUMP JUMPDEST SWAP3 POP PUSH2 0x1A21 PUSH1 0x20 DUP6 ADD PUSH2 0x1937 JUMP JUMPDEST SWAP2 POP PUSH1 0x40 DUP5 ADD CALLDATALOAD SWAP1 POP SWAP3 POP SWAP3 POP SWAP3 JUMP JUMPDEST PUSH1 0x0 DUP1 PUSH1 0x40 DUP4 DUP6 SUB SLT ISZERO PUSH2 0x1A44 JUMPI PUSH1 0x0 DUP1 REVERT JUMPDEST POP POP DUP1 CALLDATALOAD SWAP3 PUSH1 0x20 SWAP1 SWAP2 ADD CALLDATALOAD SWAP2 POP JUMP JUMPDEST PUSH4 0x4E487B71 PUSH1 0xE0 SHL PUSH1 0x0 MSTORE PUSH1 0x11 PUSH1 0x4 MSTORE PUSH1 0x24 PUSH1 0x0 REVERT JUMPDEST DUP1 DUP3 MUL DUP2 ISZERO DUP3 DUP3 DIV DUP5 EQ OR PUSH2 0x5E0 JUMPI PUSH2 0x5E0 PUSH2 0x1A53 JUMP JUMPDEST PUSH1 0x0 DUP3 PUSH2 0x1A9D JUMPI PUSH4 0x4E487B71 PUSH1 0xE0 SHL PUSH1 0x0 MSTORE PUSH1 0x12 PUSH1 0x4 MSTORE PUSH1 0x24 PUSH1 0x0 REVERT JUMPDEST POP DIV SWAP1 JUMP JUMPDEST PUSH1 0x20 DUP1 DUP3 MSTORE PUSH1 0x12 SWAP1 DUP3 ADD MSTORE PUSH18 0x416D6F756E74206D757374206265203E203 PUSH1 0x74 SHL PUSH1 0x40 DUP3 ADD MSTORE PUSH1 0x60 ADD SWAP1 JUMP JUMPDEST DUP2 DUP2 SUB DUP2 DUP2 GT ISZERO PUSH2 0x5E0 JUMPI PUSH2 0x5E0 PUSH2 0x1A53 JUMP JUMPDEST PUSH1 0x0 PUSH1 0x20 DUP3 DUP5 SUB SLT ISZERO PUSH2 0x1AF3 JUMPI PUSH1 0x0 DUP1 REVERT JUMPDEST DUP2 MLOAD DUP1 ISZERO ISZERO DUP2 EQ PUSH2 0x19A1 JUMPI PUSH1 0x0 DUP1 REVERT JUMPDEST DUP1 DUP3 ADD DUP1 DUP3 GT ISZERO PUSH2 0x5E0 JUMPI PUSH2 0x5E0 PUSH2 0x1A53 JUMP JUMPDEST PUSH1 0x0 PUSH1 0x1 DUP3 ADD PUSH2 0x1B28 JUMPI PUSH2 0x1B28 PUSH2 0x1A53 JUMP JUMPDEST POP PUSH1 0x1 ADD SWAP1 JUMP JUMPDEST DUP1 MLOAD PUSH10 0xFFFFFFFFFFFFFFFFFFFF DUP2 AND DUP2 EQ PUSH2 0x194E JUMPI PUSH1 0x0 DUP1 REVERT JUMPDEST PUSH1 0x0 DUP1 PUSH1 0x0 DUP1 PUSH1 0x0 PUSH1 0xA0 DUP7 DUP9 SUB SLT ISZERO PUSH2 0x1B61 JUMPI PUSH1 0x0 DUP1 REVERT JUMPDEST PUSH2 0x1B6A DUP7 PUSH2 0x1B2F JUMP JUMPDEST SWAP5 POP PUSH1 0x20 DUP7 ADD MLOAD SWAP4 POP PUSH1 0x40 DUP7 ADD MLOAD SWAP3 POP PUSH1 0x60 DUP7 ADD MLOAD SWAP2 POP PUSH2 0x1B8D PUSH1 0x80 DUP8 ADD PUSH2 0x1B2F JUMP JUMPDEST SWAP1 POP SWAP3 SWAP6 POP SWAP3 SWAP6 SWAP1 SWAP4 POP JUMP INVALID LOG2 PUSH5 0x6970667358 0x22 SLT KECCAK256 EQ 0xD3 SWAP9 0xD9 0xD 0xCC PUSH21 0x727C05700675FED67CBF55B57359B796280F719C2D SELFBALANCE DUP7 0xC8 SAR PUSH5 0x736F6C6343 STOP ADDMOD EQ STOP CALLER "},"methodIdentifiers":{"annualInterestRate()":"1a9703da","borrow(uint256,address)":"4b3fd148","borrowCount(address)":"71604909","borrowFee()":"e626648a","borrowRate()":"c914b437","borrowRecords(address,uint256)":"c2d9e929","calculateAccruedInterest(address,uint256)":"78dc048a","collateralBalances(address,address)":"39ecf9ba","collateralRatios(address)":"9b9a7966","depositCollateral(address,uint256)":"a5d5db0c","depositFee()":"67a52793","getCollateralValue(address,address)":"1eee3aa3","getTokenPrice(address)":"d02641a0","liquidate(address,uint256)":"bcbaf487","liquidationThreshold()":"4031234c","owner()":"8da5cb5b","pause()":"8456cb59","paused()":"5c975abb","priceFeeds(address)":"9dcb511a","renounceOwnership()":"715018a6","repay(uint256,uint256)":"d8aed145","setCollateralParameters(address,address,uint256)":"96c4f292","stablecoin()":"e9cbd822","supply(uint256)":"35403023","supplyBalances(address)":"20d6b011","supplyRate()":"ad2961a3","transferOwnership(address)":"f2fde38b","unpause()":"3f4ba83a","updateAnnualInterestRate(uint256)":"a8515b56","updateBorrowFee(uint256)":"b8244f5f","updateBorrowRate(uint256)":"02b8c56d","updateDepositFee(uint256)":"017def57","updateLiquidationThreshold(uint256)":"d3b5be1a","updateSupplyRate(uint256)":"0c191763","withdrawCollateral(address,uint256)":"350c35e9","withdrawSupply(uint256)":"9504ad6d"}},"storageLayout":{"storage":[{"astId":53,"contract":"contracts/IMALILending.sol:IMALILending","label":"_owner","offset":0,"slot":"0","type":"t_address"},{"astId":277,"contract":"contracts/IMALILending.sol:IMALILending","label":"_status","offset":0,"slot":"1","type":"t_uint256"},{"astId":176,"contract":"contracts/IMALILending.sol:IMALILending","label":"_paused","offset":0,"slot":"2","type":"t_bool"},{"astId":3927,"contract":"contracts/IMALILending.sol:IMALILending","label":"collateralBalances","offset":0,"slot":"3","type":"t_mapping(t_address,t_mapping(t_address,t_uint256))"},{"astId":3934,"contract":"contracts/IMALILending.sol:IMALILending","label":"borrowRecords","offset":0,"slot":"4","type":"t_mapping(t_address,t_mapping(t_uint256,t_struct(Borrow)3921_storage))"},{"astId":3938,"contract":"contracts/IMALILending.sol:IMALILending","label":"borrowCount","offset":0,"slot":"5","type":"t_mapping(t_address,t_uint256)"},{"astId":3942,"contract":"contracts/IMALILending.sol:IMALILending","label":"supplyBalances","offset":0,"slot":"6","type":"t_mapping(t_address,t_uint256)"},{"astId":3949,"contract":"contracts/IMALILending.sol:IMALILending","label":"collateralRatios","offset":0,"slot":"7","type":"t_mapping(t_address,t_uint256)"},{"astId":3954,"contract":"contracts/IMALILending.sol:IMALILending","label":"priceFeeds","offset":0,"slot":"8","type":"t_mapping(t_address,t_contract(AggregatorV3Interface)45)"},{"astId":3956,"contract":"contracts/IMALILending.sol:IMALILending","label":"supplyRate","offset":0,"slot":"9","type":"t_uint256"},{"astId":3958,"contract":"contracts/IMALILending.sol:IMALILending","label":"borrowRate","offset":0,"slot":"10","type":"t_uint256"},{"astId":3960,"contract":"contracts/IMALILending.sol:IMALILending","label":"depositFee","offset":0,"slot":"11","type":"t_uint256"},{"astId":3962,"contract":"contracts/IMALILending.sol:IMALILending","label":"borrowFee","offset":0,"slot":"12","type":"t_uint256"},{"astId":3964,"contract":"contracts/IMALILending.sol:IMALILending","label":"liquidationThreshold","offset":0,"slot":"13","type":"t_uint256"},{"astId":3966,"contract":"contracts/IMALILending.sol:IMALILending","label":"annualInterestRate","offset":0,"slot":"14","type":"t_uint256"}],"types":{"t_address":{"encoding":"inplace","label":"address","numberOfBytes":"20"},"t_bool":{"encoding":"inplace","label":"bool","numberOfBytes":"1"},"t_contract(AggregatorV3Interface)45":{"encoding":"inplace","label":"contract AggregatorV3Interface","numberOfBytes":"20"},"t_mapping(t_address,t_contract(AggregatorV3Interface)45)":{"encoding":"mapping","key":"t_address","label":"mapping(address => contract AggregatorV3Interface)","numberOfBytes":"32","value":"t_contract(AggregatorV3Interface)45"},"t_mapping(t_address,t_mapping(t_address,t_uint256))":{"encoding":"mapping","key":"t_address","label":"mapping(address => mapping(address => uint256))","numberOfBytes":"32","value":"t_mapping(t_address,t_uint256)"},"t_mapping(t_address,t_mapping(t_uint256,t_struct(Borrow)3921_storage))":{"encoding":"mapping","key":"t_address","label":"mapping(address => mapping(uint256 => struct IMALILending.Borrow))","numberOfBytes":"32","value":"t_mapping(t_uint256,t_struct(Borrow)3921_storage)"},"t_mapping(t_address,t_uint256)":{"encoding":"mapping","key":"t_address","label":"mapping(address => uint256)","numberOfBytes":"32","value":"t_uint256"},"t_mapping(t_uint256,t_struct(Borrow)3921_storage)":{"encoding":"mapping","key":"t_uint256","label":"mapping(uint256 => struct IMALILending.Borrow)","numberOfBytes":"32","value":"t_struct(Borrow)3921_storage"},"t_struct(Borrow)3921_storage":{"encoding":"inplace","label":"struct IMALILending.Borrow","members":[{"astId":3914,"contract":"contracts/IMALILending.sol:IMALILending","label":"amount","offset":0,"slot":"0","type":"t_uint256"},{"astId":3916,"contract":"contracts/IMALILending.sol:IMALILending","label":"borrowTime","offset":0,"slot":"1","type":"t_uint256"},{"astId":3918,"contract":"contracts/IMALILending.sol:IMALILending","label":"collateralToken","offset":0,"slot":"2","type":"t_address"},{"astId":3920,"contract":"contracts/IMALILending.sol:IMALILending","label":"accruedInterest","offset":0,"slot":"3","type":"t_uint256"}],"numberOfBytes":"128"},"t_uint256":{"encoding":"inplace","label":"uint256","numberOfBytes":"32"}}}}}}