{
    "_format": "hh-sol-artifact-1",
    "contractName": "IMALIYieldFarming",
    "sourceName": "contracts/IMALIYieldFarming.sol",
    "abi": [
        {
            "inputs": [
                {
                    "internalType": "contract IERC20",
                    "name": "_imaliToken",
                    "type": "address"
                },
                {
                    "internalType": "contract IERC20",
                    "name": "_lpToken",
                    "type": "address"
                },
                {
                    "internalType": "address",
                    "name": "_feeRecipient",
                    "type": "address"
                }
            ],
            "stateMutability": "nonpayable",
            "type": "constructor"
        },
        {
            "anonymous": false,
            "inputs": [
                {
                    "indexed": true,
                    "internalType": "address",
                    "name": "user",
                    "type": "address"
                },
                {
                    "indexed": false,
                    "internalType": "uint256",
                    "name": "feeAmount",
                    "type": "uint256"
                }
            ],
            "name": "FeeTransferred",
            "type": "event"
        },
        {
            "anonymous": false,
            "inputs": [
                {
                    "indexed": true,
                    "internalType": "address",
                    "name": "user",
                    "type": "address"
                },
                {
                    "indexed": false,
                    "internalType": "uint256",
                    "name": "amount",
                    "type": "uint256"
                }
            ],
            "name": "LiquidityStaked",
            "type": "event"
        },
        {
            "anonymous": false,
            "inputs": [
                {
                    "indexed": true,
                    "internalType": "address",
                    "name": "user",
                    "type": "address"
                },
                {
                    "indexed": false,
                    "internalType": "uint256",
                    "name": "amount",
                    "type": "uint256"
                }
            ],
            "name": "LiquidityUnstaked",
            "type": "event"
        },
        {
            "anonymous": false,
            "inputs": [
                {
                    "indexed": true,
                    "internalType": "address",
                    "name": "previousOwner",
                    "type": "address"
                },
                {
                    "indexed": true,
                    "internalType": "address",
                    "name": "newOwner",
                    "type": "address"
                }
            ],
            "name": "OwnershipTransferred",
            "type": "event"
        },
        {
            "anonymous": false,
            "inputs": [
                {
                    "indexed": true,
                    "internalType": "address",
                    "name": "user",
                    "type": "address"
                },
                {
                    "indexed": false,
                    "internalType": "uint256",
                    "name": "reward",
                    "type": "uint256"
                }
            ],
            "name": "RewardClaimed",
            "type": "event"
        },
        {
            "inputs": [],
            "name": "claimRewards",
            "outputs": [],
            "stateMutability": "nonpayable",
            "type": "function"
        },
        {
            "inputs": [
                {
                    "internalType": "address",
                    "name": "user",
                    "type": "address"
                }
            ],
            "name": "earned",
            "outputs": [
                {
                    "internalType": "uint256",
                    "name": "",
                    "type": "uint256"
                }
            ],
            "stateMutability": "view",
            "type": "function"
        },
        {
            "inputs": [],
            "name": "feePercentage",
            "outputs": [
                {
                    "internalType": "uint256",
                    "name": "",
                    "type": "uint256"
                }
            ],
            "stateMutability": "view",
            "type": "function"
        },
        {
            "inputs": [],
            "name": "feeRecipient",
            "outputs": [
                {
                    "internalType": "address",
                    "name": "",
                    "type": "address"
                }
            ],
            "stateMutability": "view",
            "type": "function"
        },
        {
            "inputs": [],
            "name": "imaliToken",
            "outputs": [
                {
                    "internalType": "contract IERC20",
                    "name": "",
                    "type": "address"
                }
            ],
            "stateMutability": "view",
            "type": "function"
        },
        {
            "inputs": [],
            "name": "lastUpdated",
            "outputs": [
                {
                    "internalType": "uint256",
                    "name": "",
                    "type": "uint256"
                }
            ],
            "stateMutability": "view",
            "type": "function"
        },
        {
            "inputs": [],
            "name": "lpToken",
            "outputs": [
                {
                    "internalType": "contract IERC20",
                    "name": "",
                    "type": "address"
                }
            ],
            "stateMutability": "view",
            "type": "function"
        },
        {
            "inputs": [],
            "name": "owner",
            "outputs": [
                {
                    "internalType": "address",
                    "name": "",
                    "type": "address"
                }
            ],
            "stateMutability": "view",
            "type": "function"
        },
        {
            "inputs": [],
            "name": "renounceOwnership",
            "outputs": [],
            "stateMutability": "nonpayable",
            "type": "function"
        },
        {
            "inputs": [],
            "name": "rewardPerToken",
            "outputs": [
                {
                    "internalType": "uint256",
                    "name": "",
                    "type": "uint256"
                }
            ],
            "stateMutability": "view",
            "type": "function"
        },
        {
            "inputs": [],
            "name": "rewardPerTokenStored",
            "outputs": [
                {
                    "internalType": "uint256",
                    "name": "",
                    "type": "uint256"
                }
            ],
            "stateMutability": "view",
            "type": "function"
        },
        {
            "inputs": [],
            "name": "rewardRate",
            "outputs": [
                {
                    "internalType": "uint256",
                    "name": "",
                    "type": "uint256"
                }
            ],
            "stateMutability": "view",
            "type": "function"
        },
        {
            "inputs": [
                {
                    "internalType": "address",
                    "name": "",
                    "type": "address"
                }
            ],
            "name": "rewards",
            "outputs": [
                {
                    "internalType": "uint256",
                    "name": "",
                    "type": "uint256"
                }
            ],
            "stateMutability": "view",
            "type": "function"
        },
        {
            "inputs": [
                {
                    "internalType": "uint256",
                    "name": "newFeePercentage",
                    "type": "uint256"
                }
            ],
            "name": "setFeePercentage",
            "outputs": [],
            "stateMutability": "nonpayable",
            "type": "function"
        },
        {
            "inputs": [
                {
                    "internalType": "address",
                    "name": "newFeeRecipient",
                    "type": "address"
                }
            ],
            "name": "setFeeRecipient",
            "outputs": [],
            "stateMutability": "nonpayable",
            "type": "function"
        },
        {
            "inputs": [
                {
                    "internalType": "uint256",
                    "name": "amount",
                    "type": "uint256"
                }
            ],
            "name": "stake",
            "outputs": [],
            "stateMutability": "nonpayable",
            "type": "function"
        },
        {
            "inputs": [
                {
                    "internalType": "address",
                    "name": "",
                    "type": "address"
                }
            ],
            "name": "stakedLpTokens",
            "outputs": [
                {
                    "internalType": "uint256",
                    "name": "",
                    "type": "uint256"
                }
            ],
            "stateMutability": "view",
            "type": "function"
        },
        {
            "inputs": [],
            "name": "totalStaked",
            "outputs": [
                {
                    "internalType": "uint256",
                    "name": "",
                    "type": "uint256"
                }
            ],
            "stateMutability": "view",
            "type": "function"
        },
        {
            "inputs": [
                {
                    "internalType": "address",
                    "name": "newOwner",
                    "type": "address"
                }
            ],
            "name": "transferOwnership",
            "outputs": [],
            "stateMutability": "nonpayable",
            "type": "function"
        },
        {
            "inputs": [
                {
                    "internalType": "uint256",
                    "name": "amount",
                    "type": "uint256"
                }
            ],
            "name": "unstake",
            "outputs": [],
            "stateMutability": "nonpayable",
            "type": "function"
        },
        {
            "inputs": [
                {
                    "internalType": "address",
                    "name": "",
                    "type": "address"
                }
            ],
            "name": "userRewardPerTokenPaid",
            "outputs": [
                {
                    "internalType": "uint256",
                    "name": "",
                    "type": "uint256"
                }
            ],
            "stateMutability": "view",
            "type": "function"
        }
    ],
    "bytecode": "0x60c06040526064600155600580553480156200001a57600080fd5b5060405162002796380380620027968339818101604052810190620000409190620003ea565b62000060620000546200026f60201b60201c565b6200027760201b60201c565b600073ffffffffffffffffffffffffffffffffffffffff168373ffffffffffffffffffffffffffffffffffffffff1603620000d2576040517f08c379a0000000000000000000000000000000000000000000000000000000008152600401620000c990620004cd565b60405180910390fd5b600073ffffffffffffffffffffffffffffffffffffffff168273ffffffffffffffffffffffffffffffffffffffff160362000144576040517f08c379a00000000000000000000000000000000000000000000000000000000081526004016200013b906200053f565b60405180910390fd5b600073ffffffffffffffffffffffffffffffffffffffff168173ffffffffffffffffffffffffffffffffffffffff1603620001b6576040517f08c379a0000000000000000000000000000000000000000000000000000000008152600401620001ad90620005b1565b60405180910390fd5b8273ffffffffffffffffffffffffffffffffffffffff1660808173ffffffffffffffffffffffffffffffffffffffff16815250508173ffffffffffffffffffffffffffffffffffffffff1660a08173ffffffffffffffffffffffffffffffffffffffff168152505080600660006101000a81548173ffffffffffffffffffffffffffffffffffffffff021916908373ffffffffffffffffffffffffffffffffffffffff16021790555042600381905550505050620005d3565b600033905090565b60008060009054906101000a900473ffffffffffffffffffffffffffffffffffffffff169050816000806101000a81548173ffffffffffffffffffffffffffffffffffffffff021916908373ffffffffffffffffffffffffffffffffffffffff1602179055508173ffffffffffffffffffffffffffffffffffffffff168173ffffffffffffffffffffffffffffffffffffffff167f8be0079c531659141344cd1fd0a4f28419497f9722a3daafe3b4186f6b6457e060405160405180910390a35050565b600080fd5b600073ffffffffffffffffffffffffffffffffffffffff82169050919050565b60006200036d8262000340565b9050919050565b6000620003818262000360565b9050919050565b620003938162000374565b81146200039f57600080fd5b50565b600081519050620003b38162000388565b92915050565b620003c48162000360565b8114620003d057600080fd5b50565b600081519050620003e481620003b9565b92915050565b6000806000606084860312156200040657620004056200033b565b5b60006200041686828701620003a2565b93505060206200042986828701620003a2565b92505060406200043c86828701620003d3565b9150509250925092565b600082825260208201905092915050565b7f494d414c4920546f6b656e20616464726573732063616e6e6f74206265207a6560008201527f726f000000000000000000000000000000000000000000000000000000000000602082015250565b6000620004b560228362000446565b9150620004c28262000457565b604082019050919050565b60006020820190508181036000830152620004e881620004a6565b9050919050565b7f4c5020546f6b656e20616464726573732063616e6e6f74206265207a65726f00600082015250565b600062000527601f8362000446565b91506200053482620004ef565b602082019050919050565b600060208201905081810360008301526200055a8162000518565b9050919050565b7f46656520726563697069656e742063616e6e6f74206265207a65726f00000000600082015250565b600062000599601c8362000446565b9150620005a68262000561565b602082019050919050565b60006020820190508181036000830152620005cc816200058a565b9050919050565b60805160a05161216c6200062a600039600081816107240152818161082801528181610cb001528181610e7401528181610f500152818161105d0152611163015260008181610b57015261141d015261216c6000f3fe608060405234801561001057600080fd5b50600436106101365760003560e01c80638bbfd265116100b8578063cd3daf9d1161007c578063cd3daf9d14610317578063d0b06f5d14610335578063df136d6514610353578063e311fd0a14610371578063e74b981b1461038f578063f2fde38b146103ab57610136565b80638bbfd265146102735780638da5cb5b146102a3578063a001ecdd146102c1578063a694fc3a146102df578063ae06c1b7146102fb57610136565b80635fcbd285116100ff5780635fcbd285146101df578063715018a6146101fd5780637b0a47ee14610207578063817b1cd2146102255780638b8763471461024357610136565b80628cc2621461013b5780630700037d1461016b5780632e17de781461019b578063372500ab146101b757806346904840146101c1575b600080fd5b6101556004803603810190610150919061172a565b6103c7565b6040516101629190611770565b60405180910390f35b6101856004803603810190610180919061172a565b6104c9565b6040516101929190611770565b60405180910390f35b6101b560048036038101906101b091906117b7565b6104e1565b005b6101bf6109aa565b005b6101c9610c88565b6040516101d691906117f3565b60405180910390f35b6101e7610cae565b6040516101f4919061186d565b60405180910390f35b610205610cd2565b005b61020f610ce6565b60405161021c9190611770565b60405180910390f35b61022d610cec565b60405161023a9190611770565b60405180910390f35b61025d6004803603810190610258919061172a565b610cf2565b60405161026a9190611770565b60405180910390f35b61028d6004803603810190610288919061172a565b610d0a565b60405161029a9190611770565b60405180910390f35b6102ab610d22565b6040516102b891906117f3565b60405180910390f35b6102c9610d4b565b6040516102d69190611770565b60405180910390f35b6102f960048036038101906102f491906117b7565b610d51565b005b610315600480360381019061031091906117b7565b611356565b005b61031f6113ac565b60405161032c9190611770565b60405180910390f35b61033d61140f565b60405161034a9190611770565b60405180910390f35b61035b611415565b6040516103689190611770565b60405180910390f35b61037961141b565b604051610386919061186d565b60405180910390f35b6103a960048036038101906103a4919061172a565b61143f565b005b6103c560048036038101906103c0919061172a565b6114fa565b005b6000600860008373ffffffffffffffffffffffffffffffffffffffff1673ffffffffffffffffffffffffffffffffffffffff16815260200190815260200160002054670de0b6b3a7640000600960008573ffffffffffffffffffffffffffffffffffffffff1673ffffffffffffffffffffffffffffffffffffffff1681526020019081526020016000205461045a6113ac565b61046491906118b7565b600760008673ffffffffffffffffffffffffffffffffffffffff1673ffffffffffffffffffffffffffffffffffffffff168152602001908152602001600020546104ae91906118eb565b6104b8919061195c565b6104c2919061198d565b9050919050565b60086020528060005260406000206000915090505481565b336104ea6113ac565b60048190555042600381905550600073ffffffffffffffffffffffffffffffffffffffff168173ffffffffffffffffffffffffffffffffffffffff16146105be57610534816103c7565b600860008373ffffffffffffffffffffffffffffffffffffffff1673ffffffffffffffffffffffffffffffffffffffff16815260200190815260200160002081905550600454600960008373ffffffffffffffffffffffffffffffffffffffff1673ffffffffffffffffffffffffffffffffffffffff168152602001908152602001600020819055505b60008211610601576040517f08c379a00000000000000000000000000000000000000000000000000000000081526004016105f890611a1e565b60405180910390fd5b81600760003373ffffffffffffffffffffffffffffffffffffffff1673ffffffffffffffffffffffffffffffffffffffff168152602001908152602001600020541015610683576040517f08c379a000000000000000000000000000000000000000000000000000000000815260040161067a90611a8a565b60405180910390fd5b600060646005548461069591906118eb565b61069f919061195c565b9050600081846106af91906118b7565b905083600760003373ffffffffffffffffffffffffffffffffffffffff1673ffffffffffffffffffffffffffffffffffffffff168152602001908152602001600020600082825461070091906118b7565b92505081905550836002600082825461071991906118b7565b9250508190555060007f000000000000000000000000000000000000000000000000000000000000000073ffffffffffffffffffffffffffffffffffffffff1663a9059cbb600660009054906101000a900473ffffffffffffffffffffffffffffffffffffffff16856040518363ffffffff1660e01b815260040161079f929190611aaa565b6020604051808303816000875af11580156107be573d6000803e3d6000fd5b505050506040513d601f19601f820116820180604052508101906107e29190611b0b565b905080610824576040517f08c379a000000000000000000000000000000000000000000000000000000000815260040161081b90611b84565b60405180910390fd5b60007f000000000000000000000000000000000000000000000000000000000000000073ffffffffffffffffffffffffffffffffffffffff1663a9059cbb33856040518363ffffffff1660e01b8152600401610881929190611aaa565b6020604051808303816000875af11580156108a0573d6000803e3d6000fd5b505050506040513d601f19601f820116820180604052508101906108c49190611b0b565b905080610906576040517f08c379a00000000000000000000000000000000000000000000000000000000081526004016108fd90611bf0565b60405180910390fd5b3373ffffffffffffffffffffffffffffffffffffffff167fbd21f8e3649e37763ada407fae985c15bedb014b8297249d052363aa67d5a1d48460405161094c9190611770565b60405180910390a23373ffffffffffffffffffffffffffffffffffffffff167f34e8a84e537ed93d93ddf39a78816dcbc74df8397c635838b8cc973d4fa943f88560405161099a9190611770565b60405180910390a2505050505050565b336109b36113ac565b60048190555042600381905550600073ffffffffffffffffffffffffffffffffffffffff168173ffffffffffffffffffffffffffffffffffffffff1614610a87576109fd816103c7565b600860008373ffffffffffffffffffffffffffffffffffffffff1673ffffffffffffffffffffffffffffffffffffffff16815260200190815260200160002081905550600454600960008373ffffffffffffffffffffffffffffffffffffffff1673ffffffffffffffffffffffffffffffffffffffff168152602001908152602001600020819055505b6000600860003373ffffffffffffffffffffffffffffffffffffffff1673ffffffffffffffffffffffffffffffffffffffff16815260200190815260200160002054905060008111610b0e576040517f08c379a0000000000000000000000000000000000000000000000000000000008152600401610b0590611c5c565b60405180910390fd5b6000600860003373ffffffffffffffffffffffffffffffffffffffff1673ffffffffffffffffffffffffffffffffffffffff1681526020019081526020016000208190555060007f000000000000000000000000000000000000000000000000000000000000000073ffffffffffffffffffffffffffffffffffffffff1663a9059cbb33846040518363ffffffff1660e01b8152600401610bb0929190611aaa565b6020604051808303816000875af1158015610bcf573d6000803e3d6000fd5b505050506040513d601f19601f82011682018060405250810190610bf39190611b0b565b905080610c35576040517f08c379a0000000000000000000000000000000000000000000000000000000008152600401610c2c90611cc8565b60405180910390fd5b3373ffffffffffffffffffffffffffffffffffffffff167f106f923f993c2149d49b4255ff723acafa1f2d94393f561d3eda32ae348f724183604051610c7b9190611770565b60405180910390a2505050565b600660009054906101000a900473ffffffffffffffffffffffffffffffffffffffff1681565b7f000000000000000000000000000000000000000000000000000000000000000081565b610cda61157d565b610ce460006115fb565b565b60015481565b60025481565b60096020528060005260406000206000915090505481565b60076020528060005260406000206000915090505481565b60008060009054906101000a900473ffffffffffffffffffffffffffffffffffffffff16905090565b60055481565b33610d5a6113ac565b60048190555042600381905550600073ffffffffffffffffffffffffffffffffffffffff168173ffffffffffffffffffffffffffffffffffffffff1614610e2e57610da4816103c7565b600860008373ffffffffffffffffffffffffffffffffffffffff1673ffffffffffffffffffffffffffffffffffffffff16815260200190815260200160002081905550600454600960008373ffffffffffffffffffffffffffffffffffffffff1673ffffffffffffffffffffffffffffffffffffffff168152602001908152602001600020819055505b60008211610e71576040517f08c379a0000000000000000000000000000000000000000000000000000000008152600401610e6890611d34565b60405180910390fd5b817f000000000000000000000000000000000000000000000000000000000000000073ffffffffffffffffffffffffffffffffffffffff166370a08231336040518263ffffffff1660e01b8152600401610ecb91906117f3565b602060405180830381865afa158015610ee8573d6000803e3d6000fd5b505050506040513d601f19601f82011682018060405250810190610f0c9190611d69565b1015610f4d576040517f08c379a0000000000000000000000000000000000000000000000000000000008152600401610f4490611de2565b60405180910390fd5b817f000000000000000000000000000000000000000000000000000000000000000073ffffffffffffffffffffffffffffffffffffffff1663dd62ed3e33306040518363ffffffff1660e01b8152600401610fa9929190611e02565b602060405180830381865afa158015610fc6573d6000803e3d6000fd5b505050506040513d601f19601f82011682018060405250810190610fea9190611d69565b101561102b576040517f08c379a000000000000000000000000000000000000000000000000000000000815260040161102290611e77565b60405180910390fd5b600060646005548461103d91906118eb565b611047919061195c565b90506000818461105791906118b7565b905060007f000000000000000000000000000000000000000000000000000000000000000073ffffffffffffffffffffffffffffffffffffffff166323b872dd33600660009054906101000a900473ffffffffffffffffffffffffffffffffffffffff16866040518463ffffffff1660e01b81526004016110da93929190611e97565b6020604051808303816000875af11580156110f9573d6000803e3d6000fd5b505050506040513d601f19601f8201168201806040525081019061111d9190611b0b565b90508061115f576040517f08c379a000000000000000000000000000000000000000000000000000000000815260040161115690611b84565b60405180910390fd5b60007f000000000000000000000000000000000000000000000000000000000000000073ffffffffffffffffffffffffffffffffffffffff166323b872dd3330866040518463ffffffff1660e01b81526004016111be93929190611e97565b6020604051808303816000875af11580156111dd573d6000803e3d6000fd5b505050506040513d601f19601f820116820180604052508101906112019190611b0b565b905080611243576040517f08c379a000000000000000000000000000000000000000000000000000000000815260040161123a90611f1a565b60405180910390fd5b82600760003373ffffffffffffffffffffffffffffffffffffffff1673ffffffffffffffffffffffffffffffffffffffff1681526020019081526020016000206000828254611292919061198d565b9250508190555082600260008282546112ab919061198d565b925050819055503373ffffffffffffffffffffffffffffffffffffffff167f6f50cbea63312b4c2be9a9a8da194e0d9092597ff756c7402c05b0dd506416e2846040516112f89190611770565b60405180910390a23373ffffffffffffffffffffffffffffffffffffffff167f34e8a84e537ed93d93ddf39a78816dcbc74df8397c635838b8cc973d4fa943f8856040516113469190611770565b60405180910390a2505050505050565b61135e61157d565b60648111156113a2576040517f08c379a000000000000000000000000000000000000000000000000000000000815260040161139990611f86565b60405180910390fd5b8060058190555050565b600080600254036113c157600454905061140c565b600254670de0b6b3a7640000600354426113db91906118b7565b6001546113e891906118eb565b6113f291906118eb565b6113fc919061195c565b600454611409919061198d565b90505b90565b60035481565b60045481565b7f000000000000000000000000000000000000000000000000000000000000000081565b61144761157d565b600073ffffffffffffffffffffffffffffffffffffffff168173ffffffffffffffffffffffffffffffffffffffff16036114b6576040517f08c379a00000000000000000000000000000000000000000000000000000000081526004016114ad90612018565b60405180910390fd5b80600660006101000a81548173ffffffffffffffffffffffffffffffffffffffff021916908373ffffffffffffffffffffffffffffffffffffffff16021790555050565b61150261157d565b600073ffffffffffffffffffffffffffffffffffffffff168173ffffffffffffffffffffffffffffffffffffffff1603611571576040517f08c379a0000000000000000000000000000000000000000000000000000000008152600401611568906120aa565b60405180910390fd5b61157a816115fb565b50565b6115856116bf565b73ffffffffffffffffffffffffffffffffffffffff166115a3610d22565b73ffffffffffffffffffffffffffffffffffffffff16146115f9576040517f08c379a00000000000000000000000000000000000000000000000000000000081526004016115f090612116565b60405180910390fd5b565b60008060009054906101000a900473ffffffffffffffffffffffffffffffffffffffff169050816000806101000a81548173ffffffffffffffffffffffffffffffffffffffff021916908373ffffffffffffffffffffffffffffffffffffffff1602179055508173ffffffffffffffffffffffffffffffffffffffff168173ffffffffffffffffffffffffffffffffffffffff167f8be0079c531659141344cd1fd0a4f28419497f9722a3daafe3b4186f6b6457e060405160405180910390a35050565b600033905090565b600080fd5b600073ffffffffffffffffffffffffffffffffffffffff82169050919050565b60006116f7826116cc565b9050919050565b611707816116ec565b811461171257600080fd5b50565b600081359050611724816116fe565b92915050565b6000602082840312156117405761173f6116c7565b5b600061174e84828501611715565b91505092915050565b6000819050919050565b61176a81611757565b82525050565b60006020820190506117856000830184611761565b92915050565b61179481611757565b811461179f57600080fd5b50565b6000813590506117b18161178b565b92915050565b6000602082840312156117cd576117cc6116c7565b5b60006117db848285016117a2565b91505092915050565b6117ed816116ec565b82525050565b600060208201905061180860008301846117e4565b92915050565b6000819050919050565b600061183361182e611829846116cc565b61180e565b6116cc565b9050919050565b600061184582611818565b9050919050565b60006118578261183a565b9050919050565b6118678161184c565b82525050565b6000602082019050611882600083018461185e565b92915050565b7f4e487b7100000000000000000000000000000000000000000000000000000000600052601160045260246000fd5b60006118c282611757565b91506118cd83611757565b92508282039050818111156118e5576118e4611888565b5b92915050565b60006118f682611757565b915061190183611757565b925082820261190f81611757565b9150828204841483151761192657611925611888565b5b5092915050565b7f4e487b7100000000000000000000000000000000000000000000000000000000600052601260045260246000fd5b600061196782611757565b915061197283611757565b9250826119825761198161192d565b5b828204905092915050565b600061199882611757565b91506119a383611757565b92508282019050808211156119bb576119ba611888565b5b92915050565b600082825260208201905092915050565b7f43616e6e6f7420756e7374616b65203020746f6b656e73000000000000000000600082015250565b6000611a086017836119c1565b9150611a13826119d2565b602082019050919050565b60006020820190508181036000830152611a37816119fb565b9050919050565b7f496e73756666696369656e74207374616b65642062616c616e63650000000000600082015250565b6000611a74601b836119c1565b9150611a7f82611a3e565b602082019050919050565b60006020820190508181036000830152611aa381611a67565b9050919050565b6000604082019050611abf60008301856117e4565b611acc6020830184611761565b9392505050565b60008115159050919050565b611ae881611ad3565b8114611af357600080fd5b50565b600081519050611b0581611adf565b92915050565b600060208284031215611b2157611b206116c7565b5b6000611b2f84828501611af6565b91505092915050565b7f466565207472616e73666572206661696c656400000000000000000000000000600082015250565b6000611b6e6013836119c1565b9150611b7982611b38565b602082019050919050565b60006020820190508181036000830152611b9d81611b61565b9050919050565b7f556e7374616b65207472616e73666572206661696c6564000000000000000000600082015250565b6000611bda6017836119c1565b9150611be582611ba4565b602082019050919050565b60006020820190508181036000830152611c0981611bcd565b9050919050565b7f4e6f207265776172647320746f20636c61696d00000000000000000000000000600082015250565b6000611c466013836119c1565b9150611c5182611c10565b602082019050919050565b60006020820190508181036000830152611c7581611c39565b9050919050565b7f526577617264207472616e73666572206661696c656400000000000000000000600082015250565b6000611cb26016836119c1565b9150611cbd82611c7c565b602082019050919050565b60006020820190508181036000830152611ce181611ca5565b9050919050565b7f43616e6e6f74207374616b65203020746f6b656e730000000000000000000000600082015250565b6000611d1e6015836119c1565b9150611d2982611ce8565b602082019050919050565b60006020820190508181036000830152611d4d81611d11565b9050919050565b600081519050611d638161178b565b92915050565b600060208284031215611d7f57611d7e6116c7565b5b6000611d8d84828501611d54565b91505092915050565b7f496e73756666696369656e74204c5020546f6b656e2062616c616e6365000000600082015250565b6000611dcc601d836119c1565b9150611dd782611d96565b602082019050919050565b60006020820190508181036000830152611dfb81611dbf565b9050919050565b6000604082019050611e1760008301856117e4565b611e2460208301846117e4565b9392505050565b7f4c5020546f6b656e20616c6c6f77616e636520746f6f206c6f77000000000000600082015250565b6000611e61601a836119c1565b9150611e6c82611e2b565b602082019050919050565b60006020820190508181036000830152611e9081611e54565b9050919050565b6000606082019050611eac60008301866117e4565b611eb960208301856117e4565b611ec66040830184611761565b949350505050565b7f5374616b65207472616e73666572206661696c65640000000000000000000000600082015250565b6000611f046015836119c1565b9150611f0f82611ece565b602082019050919050565b60006020820190508181036000830152611f3381611ef7565b9050919050565b7f466565206d757374206265206265747765656e203020616e6420313030000000600082015250565b6000611f70601d836119c1565b9150611f7b82611f3a565b602082019050919050565b60006020820190508181036000830152611f9f81611f63565b9050919050565b7f46656520726563697069656e742063616e6e6f74206265207a65726f2061646460008201527f7265737300000000000000000000000000000000000000000000000000000000602082015250565b60006120026024836119c1565b915061200d82611fa6565b604082019050919050565b6000602082019050818103600083015261203181611ff5565b9050919050565b7f4f776e61626c653a206e6577206f776e657220697320746865207a65726f206160008201527f6464726573730000000000000000000000000000000000000000000000000000602082015250565b60006120946026836119c1565b915061209f82612038565b604082019050919050565b600060208201905081810360008301526120c381612087565b9050919050565b7f4f776e61626c653a2063616c6c6572206973206e6f7420746865206f776e6572600082015250565b60006121006020836119c1565b915061210b826120ca565b602082019050919050565b6000602082019050818103600083015261212f816120f3565b905091905056fea26469706673582212205f83b2214d4702228129b01d6709bca10ba4445270fb66eaaf033139aa88d16664736f6c63430008140033",
    "linkReferences": {},
    "deployedLinkReferences": {}
}