{
  "_format": "hh-sol-artifact-1",
  "contractName": "IMALILending",
  "sourceName": "contracts/IMALILending.sol",
  "abi": [
    {
      "inputs": [
        {
          "internalType": "address",
          "name": "_stablecoin",
          "type": "address"
        }
      ],
      "stateMutability": "nonpayable",
      "type": "constructor"
    },
    {
      "anonymous": false,
      "inputs": [
        {
          "indexed": true,
          "internalType": "address",
          "name": "user",
          "type": "address"
        },
        {
          "indexed": false,
          "internalType": "uint256",
          "name": "amount",
          "type": "uint256"
        },
        {
          "indexed": true,
          "internalType": "address",
          "name": "collateralToken",
          "type": "address"
        },
        {
          "indexed": false,
          "internalType": "uint256",
          "name": "borrowId",
          "type": "uint256"
        }
      ],
      "name": "Borrowed",
      "type": "event"
    },
    {
      "anonymous": false,
      "inputs": [
        {
          "indexed": true,
          "internalType": "address",
          "name": "user",
          "type": "address"
        },
        {
          "indexed": false,
          "internalType": "uint256",
          "name": "amount",
          "type": "uint256"
        },
        {
          "indexed": true,
          "internalType": "address",
          "name": "collateralToken",
          "type": "address"
        }
      ],
      "name": "CollateralDeposited",
      "type": "event"
    },
    {
      "anonymous": false,
      "inputs": [
        {
          "indexed": true,
          "internalType": "address",
          "name": "user",
          "type": "address"
        },
        {
          "indexed": false,
          "internalType": "uint256",
          "name": "amount",
          "type": "uint256"
        },
        {
          "indexed": true,
          "internalType": "address",
          "name": "collateralToken",
          "type": "address"
        }
      ],
      "name": "CollateralWithdrawn",
      "type": "event"
    },
    {
      "anonymous": false,
      "inputs": [
        {
          "indexed": true,
          "internalType": "address",
          "name": "user",
          "type": "address"
        },
        {
          "indexed": false,
          "internalType": "uint256",
          "name": "feeAmount",
          "type": "uint256"
        },
        {
          "indexed": false,
          "internalType": "string",
          "name": "feeType",
          "type": "string"
        }
      ],
      "name": "FeesCollected",
      "type": "event"
    },
    {
      "anonymous": false,
      "inputs": [
        {
          "indexed": true,
          "internalType": "address",
          "name": "borrower",
          "type": "address"
        },
        {
          "indexed": false,
          "internalType": "uint256",
          "name": "collateralSeized",
          "type": "uint256"
        },
        {
          "indexed": true,
          "internalType": "address",
          "name": "collateralToken",
          "type": "address"
        },
        {
          "indexed": false,
          "internalType": "uint256",
          "name": "borrowId",
          "type": "uint256"
        }
      ],
      "name": "Liquidated",
      "type": "event"
    },
    {
      "anonymous": false,
      "inputs": [
        {
          "indexed": true,
          "internalType": "address",
          "name": "previousOwner",
          "type": "address"
        },
        {
          "indexed": true,
          "internalType": "address",
          "name": "newOwner",
          "type": "address"
        }
      ],
      "name": "OwnershipTransferred",
      "type": "event"
    },
    {
      "anonymous": false,
      "inputs": [
        {
          "indexed": false,
          "internalType": "address",
          "name": "account",
          "type": "address"
        }
      ],
      "name": "Paused",
      "type": "event"
    },
    {
      "anonymous": false,
      "inputs": [
        {
          "indexed": true,
          "internalType": "address",
          "name": "user",
          "type": "address"
        },
        {
          "indexed": false,
          "internalType": "uint256",
          "name": "amount",
          "type": "uint256"
        },
        {
          "indexed": false,
          "internalType": "uint256",
          "name": "borrowId",
          "type": "uint256"
        }
      ],
      "name": "Repaid",
      "type": "event"
    },
    {
      "anonymous": false,
      "inputs": [
        {
          "indexed": true,
          "internalType": "address",
          "name": "user",
          "type": "address"
        },
        {
          "indexed": false,
          "internalType": "uint256",
          "name": "amount",
          "type": "uint256"
        }
      ],
      "name": "Supplied",
      "type": "event"
    },
    {
      "anonymous": false,
      "inputs": [
        {
          "indexed": false,
          "internalType": "address",
          "name": "account",
          "type": "address"
        }
      ],
      "name": "Unpaused",
      "type": "event"
    },
    {
      "anonymous": false,
      "inputs": [
        {
          "indexed": true,
          "internalType": "address",
          "name": "user",
          "type": "address"
        },
        {
          "indexed": false,
          "internalType": "uint256",
          "name": "amount",
          "type": "uint256"
        }
      ],
      "name": "WithdrawnSupply",
      "type": "event"
    },
    {
      "inputs": [],
      "name": "annualInterestRate",
      "outputs": [
        {
          "internalType": "uint256",
          "name": "",
          "type": "uint256"
        }
      ],
      "stateMutability": "view",
      "type": "function"
    },
    {
      "inputs": [
        {
          "internalType": "uint256",
          "name": "amount",
          "type": "uint256"
        },
        {
          "internalType": "address",
          "name": "collateralToken",
          "type": "address"
        }
      ],
      "name": "borrow",
      "outputs": [],
      "stateMutability": "nonpayable",
      "type": "function"
    },
    {
      "inputs": [
        {
          "internalType": "address",
          "name": "",
          "type": "address"
        }
      ],
      "name": "borrowCount",
      "outputs": [
        {
          "internalType": "uint256",
          "name": "",
          "type": "uint256"
        }
      ],
      "stateMutability": "view",
      "type": "function"
    },
    {
      "inputs": [],
      "name": "borrowFee",
      "outputs": [
        {
          "internalType": "uint256",
          "name": "",
          "type": "uint256"
        }
      ],
      "stateMutability": "view",
      "type": "function"
    },
    {
      "inputs": [],
      "name": "borrowRate",
      "outputs": [
        {
          "internalType": "uint256",
          "name": "",
          "type": "uint256"
        }
      ],
      "stateMutability": "view",
      "type": "function"
    },
    {
      "inputs": [
        {
          "internalType": "address",
          "name": "",
          "type": "address"
        },
        {
          "internalType": "uint256",
          "name": "",
          "type": "uint256"
        }
      ],
      "name": "borrowRecords",
      "outputs": [
        {
          "internalType": "uint256",
          "name": "amount",
          "type": "uint256"
        },
        {
          "internalType": "uint256",
          "name": "borrowTime",
          "type": "uint256"
        },
        {
          "internalType": "address",
          "name": "collateralToken",
          "type": "address"
        },
        {
          "internalType": "uint256",
          "name": "accruedInterest",
          "type": "uint256"
        }
      ],
      "stateMutability": "view",
      "type": "function"
    },
    {
      "inputs": [
        {
          "internalType": "address",
          "name": "user",
          "type": "address"
        },
        {
          "internalType": "uint256",
          "name": "borrowId",
          "type": "uint256"
        }
      ],
      "name": "calculateAccruedInterest",
      "outputs": [
        {
          "internalType": "uint256",
          "name": "",
          "type": "uint256"
        }
      ],
      "stateMutability": "view",
      "type": "function"
    },
    {
      "inputs": [
        {
          "internalType": "address",
          "name": "",
          "type": "address"
        },
        {
          "internalType": "address",
          "name": "",
          "type": "address"
        }
      ],
      "name": "collateralBalances",
      "outputs": [
        {
          "internalType": "uint256",
          "name": "",
          "type": "uint256"
        }
      ],
      "stateMutability": "view",
      "type": "function"
    },
    {
      "inputs": [
        {
          "internalType": "address",
          "name": "",
          "type": "address"
        }
      ],
      "name": "collateralRatios",
      "outputs": [
        {
          "internalType": "uint256",
          "name": "",
          "type": "uint256"
        }
      ],
      "stateMutability": "view",
      "type": "function"
    },
    {
      "inputs": [
        {
          "internalType": "address",
          "name": "token",
          "type": "address"
        },
        {
          "internalType": "uint256",
          "name": "amount",
          "type": "uint256"
        }
      ],
      "name": "depositCollateral",
      "outputs": [],
      "stateMutability": "nonpayable",
      "type": "function"
    },
    {
      "inputs": [],
      "name": "depositFee",
      "outputs": [
        {
          "internalType": "uint256",
          "name": "",
          "type": "uint256"
        }
      ],
      "stateMutability": "view",
      "type": "function"
    },
    {
      "inputs": [
        {
          "internalType": "address",
          "name": "user",
          "type": "address"
        },
        {
          "internalType": "address",
          "name": "token",
          "type": "address"
        }
      ],
      "name": "getCollateralValue",
      "outputs": [
        {
          "internalType": "uint256",
          "name": "",
          "type": "uint256"
        }
      ],
      "stateMutability": "view",
      "type": "function"
    },
    {
      "inputs": [
        {
          "internalType": "address",
          "name": "token",
          "type": "address"
        }
      ],
      "name": "getTokenPrice",
      "outputs": [
        {
          "internalType": "uint256",
          "name": "",
          "type": "uint256"
        }
      ],
      "stateMutability": "view",
      "type": "function"
    },
    {
      "inputs": [
        {
          "internalType": "address",
          "name": "borrower",
          "type": "address"
        },
        {
          "internalType": "uint256",
          "name": "borrowId",
          "type": "uint256"
        }
      ],
      "name": "liquidate",
      "outputs": [],
      "stateMutability": "nonpayable",
      "type": "function"
    },
    {
      "inputs": [],
      "name": "liquidationThreshold",
      "outputs": [
        {
          "internalType": "uint256",
          "name": "",
          "type": "uint256"
        }
      ],
      "stateMutability": "view",
      "type": "function"
    },
    {
      "inputs": [],
      "name": "owner",
      "outputs": [
        {
          "internalType": "address",
          "name": "",
          "type": "address"
        }
      ],
      "stateMutability": "view",
      "type": "function"
    },
    {
      "inputs": [],
      "name": "pause",
      "outputs": [],
      "stateMutability": "nonpayable",
      "type": "function"
    },
    {
      "inputs": [],
      "name": "paused",
      "outputs": [
        {
          "internalType": "bool",
          "name": "",
          "type": "bool"
        }
      ],
      "stateMutability": "view",
      "type": "function"
    },
    {
      "inputs": [
        {
          "internalType": "address",
          "name": "",
          "type": "address"
        }
      ],
      "name": "priceFeeds",
      "outputs": [
        {
          "internalType": "contract AggregatorV3Interface",
          "name": "",
          "type": "address"
        }
      ],
      "stateMutability": "view",
      "type": "function"
    },
    {
      "inputs": [],
      "name": "renounceOwnership",
      "outputs": [],
      "stateMutability": "nonpayable",
      "type": "function"
    },
    {
      "inputs": [
        {
          "internalType": "uint256",
          "name": "borrowId",
          "type": "uint256"
        },
        {
          "internalType": "uint256",
          "name": "amount",
          "type": "uint256"
        }
      ],
      "name": "repay",
      "outputs": [],
      "stateMutability": "nonpayable",
      "type": "function"
    },
    {
      "inputs": [
        {
          "internalType": "address",
          "name": "token",
          "type": "address"
        },
        {
          "internalType": "address",
          "name": "priceFeed",
          "type": "address"
        },
        {
          "internalType": "uint256",
          "name": "ratio",
          "type": "uint256"
        }
      ],
      "name": "setCollateralParameters",
      "outputs": [],
      "stateMutability": "nonpayable",
      "type": "function"
    },
    {
      "inputs": [],
      "name": "stablecoin",
      "outputs": [
        {
          "internalType": "contract IERC20",
          "name": "",
          "type": "address"
        }
      ],
      "stateMutability": "view",
      "type": "function"
    },
    {
      "inputs": [
        {
          "internalType": "uint256",
          "name": "amount",
          "type": "uint256"
        }
      ],
      "name": "supply",
      "outputs": [],
      "stateMutability": "nonpayable",
      "type": "function"
    },
    {
      "inputs": [
        {
          "internalType": "address",
          "name": "",
          "type": "address"
        }
      ],
      "name": "supplyBalances",
      "outputs": [
        {
          "internalType": "uint256",
          "name": "",
          "type": "uint256"
        }
      ],
      "stateMutability": "view",
      "type": "function"
    },
    {
      "inputs": [],
      "name": "supplyRate",
      "outputs": [
        {
          "internalType": "uint256",
          "name": "",
          "type": "uint256"
        }
      ],
      "stateMutability": "view",
      "type": "function"
    },
    {
      "inputs": [
        {
          "internalType": "address",
          "name": "newOwner",
          "type": "address"
        }
      ],
      "name": "transferOwnership",
      "outputs": [],
      "stateMutability": "nonpayable",
      "type": "function"
    },
    {
      "inputs": [],
      "name": "unpause",
      "outputs": [],
      "stateMutability": "nonpayable",
      "type": "function"
    },
    {
      "inputs": [
        {
          "internalType": "uint256",
          "name": "newRate",
          "type": "uint256"
        }
      ],
      "name": "updateAnnualInterestRate",
      "outputs": [],
      "stateMutability": "nonpayable",
      "type": "function"
    },
    {
      "inputs": [
        {
          "internalType": "uint256",
          "name": "newFee",
          "type": "uint256"
        }
      ],
      "name": "updateBorrowFee",
      "outputs": [],
      "stateMutability": "nonpayable",
      "type": "function"
    },
    {
      "inputs": [
        {
          "internalType": "uint256",
          "name": "newRate",
          "type": "uint256"
        }
      ],
      "name": "updateBorrowRate",
      "outputs": [],
      "stateMutability": "nonpayable",
      "type": "function"
    },
    {
      "inputs": [
        {
          "internalType": "uint256",
          "name": "newFee",
          "type": "uint256"
        }
      ],
      "name": "updateDepositFee",
      "outputs": [],
      "stateMutability": "nonpayable",
      "type": "function"
    },
    {
      "inputs": [
        {
          "internalType": "uint256",
          "name": "newThreshold",
          "type": "uint256"
        }
      ],
      "name": "updateLiquidationThreshold",
      "outputs": [],
      "stateMutability": "nonpayable",
      "type": "function"
    },
    {
      "inputs": [
        {
          "internalType": "uint256",
          "name": "newRate",
          "type": "uint256"
        }
      ],
      "name": "updateSupplyRate",
      "outputs": [],
      "stateMutability": "nonpayable",
      "type": "function"
    },
    {
      "inputs": [
        {
          "internalType": "address",
          "name": "token",
          "type": "address"
        },
        {
          "internalType": "uint256",
          "name": "amount",
          "type": "uint256"
        }
      ],
      "name": "withdrawCollateral",
      "outputs": [],
      "stateMutability": "nonpayable",
      "type": "function"
    },
    {
      "inputs": [
        {
          "internalType": "uint256",
          "name": "amount",
          "type": "uint256"
        }
      ],
      "name": "withdrawSupply",
      "outputs": [],
      "stateMutability": "nonpayable",
      "type": "function"
    }
  ],
  "bytecode": "0x60a06040523480156200001157600080fd5b5060405162001d6338038062001d6383398101604081905262000034916200012a565b6200003f33620000da565b600180556002805460ff191690556001600160a01b038116620000a85760405162461bcd60e51b815260206004820152601a60248201527f496e76616c696420737461626c65636f696e2061646472657373000000000000604482015260640160405180910390fd5b6001600160a01b031660805261012c6009556102bc600a556032600b819055600c556078600d556005600e556200015c565b600080546001600160a01b038381166001600160a01b0319831681178455604051919092169283917f8be0079c531659141344cd1fd0a4f28419497f9722a3daafe3b4186f6b6457e09190a35050565b6000602082840312156200013d57600080fd5b81516001600160a01b03811681146200015557600080fd5b9392505050565b608051611bcf6200019460003960008181610536015281816107d501528181610ac901528181610d8a01526115770152611bcf6000f3fe608060405234801561001057600080fd5b506004361061021c5760003560e01c80638da5cb5b11610125578063bcbaf487116100ad578063d3b5be1a1161007c578063d3b5be1a14610502578063d8aed14514610515578063e626648a14610528578063e9cbd82214610531578063f2fde38b1461055857600080fd5b8063bcbaf48714610458578063c2d9e9291461046b578063c914b437146104e6578063d02641a0146104ef57600080fd5b80639dcb511a116100f45780639dcb511a146103ed578063a5d5db0c14610416578063a8515b5614610429578063ad2961a31461043c578063b8244f5f1461044557600080fd5b80638da5cb5b146103825780639504ad6d146103a757806396c4f292146103ba5780639b9a7966146103cd57600080fd5b80633f4ba83a116101a857806367a527931161017757806367a5279314610336578063715018a61461033f578063716049091461034757806378dc048a146103675780638456cb591461037a57600080fd5b80633f4ba83a146102fc5780634031234c146103045780634b3fd1481461030d5780635c975abb1461032057600080fd5b80631eee3aa3116101ef5780631eee3aa31461027857806320d6b0111461028b578063350c35e9146102ab57806335403023146102be57806339ecf9ba146102d157600080fd5b8063017def571461022157806302b8c56d146102365780630c191763146102495780631a9703da1461025c575b600080fd5b61023461022f36600461191e565b61056b565b005b61023461024436600461191e565b610578565b61023461025736600461191e565b610585565b610265600e5481565b6040519081526020015b60405180910390f35b610265610286366004611953565b610592565b610265610299366004611986565b60066020526000908152604090205481565b6102346102b93660046119a8565b6105e6565b6102346102cc36600461191e565b610783565b6102656102df366004611953565b600360209081526000928352604080842090915290825290205481565b6102346108b1565b610265600d5481565b61023461031b3660046119d2565b6108c3565b60025460ff16604051901515815260200161026f565b610265600b5481565b610234610bee565b610265610355366004611986565b60056020526000908152604090205481565b6102656103753660046119a8565b610c00565b610234610cb4565b6000546001600160a01b03165b6040516001600160a01b03909116815260200161026f565b6102346103b536600461191e565b610cc4565b6102346103c83660046119f5565b610e32565b6102656103db366004611986565b60076020526000908152604090205481565b61038f6103fb366004611986565b6008602052600090815260409020546001600160a01b031681565b6102346104243660046119a8565b610f19565b61023461043736600461191e565b611131565b61026560095481565b61023461045336600461191e565b61113e565b6102346104663660046119a8565b61114b565b6104b76104793660046119a8565b60046020908152600092835260408084209091529082529020805460018201546002830154600390930154919290916001600160a01b039091169084565b60405161026f949392919093845260208401929092526001600160a01b03166040830152606082015260800190565b610265600a5481565b6102656104fd366004611986565b6113c1565b61023461051036600461191e565b61144b565b610234610523366004611a31565b611458565b610265600c5481565b61038f7f000000000000000000000000000000000000000000000000000000000000000081565b610234610566366004611986565b611687565b6105736116fd565b600b55565b6105806116fd565b600a55565b61058d6116fd565b600955565b6001600160a01b0380831660009081526003602090815260408083209385168352929052908120546305f5e1006105c8846113c1565b6105d29083611a69565b6105dc9190611a80565b9150505b92915050565b6105ee611757565b6105f661179d565b6000811161061f5760405162461bcd60e51b815260040161061690611aa2565b60405180910390fd5b3360009081526003602090815260408083206001600160a01b038616845290915290205481111561068c5760405162461bcd60e51b8152602060048201526017602482015276125b9cdd59999a58da595b9d0818dbdb1b185d195c985b604a1b6044820152606401610616565b3360009081526003602090815260408083206001600160a01b0386168452909152812080548392906106bf908490611ace565b909155505060405163a9059cbb60e01b8152336004820152602481018290526001600160a01b0383169063a9059cbb906044016020604051808303816000875af1158015610711573d6000803e3d6000fd5b505050506040513d601f19601f820116820180604052508101906107359190611ae1565b506040518181526001600160a01b0383169033907f5c582f045c0b9365cea3be0c0ad7deef76a1c4fe20ef1f84c153043ec35985039060200160405180910390a361077f60018055565b5050565b61078b611757565b61079361179d565b600081116107b35760405162461bcd60e51b815260040161061690611aa2565b6040516323b872dd60e01b8152336004820152306024820152604481018290527f00000000000000000000000000000000000000000000000000000000000000006001600160a01b0316906323b872dd906064016020604051808303816000875af1158015610826573d6000803e3d6000fd5b505050506040513d601f19601f8201168201806040525081019061084a9190611ae1565b50336000908152600660205260408120805483929061086a908490611b03565b909155505060405181815233907f6473c9f7da8f23a3d810f05b3e8fb3945f0ad17deadcc09e302cdf5d58e48fe7906020015b60405180910390a26108ae60018055565b50565b6108b96116fd565b6108c16117f6565b565b6108cb611757565b6108d361179d565b600082116108f35760405162461bcd60e51b815260040161061690611aa2565b6001600160a01b038181166000908152600860205260409020541661095a5760405162461bcd60e51b815260206004820152601860248201527f436f6c6c61746572616c206e6f7420737570706f7274656400000000000000006044820152606401610616565b60006109663383610592565b6001600160a01b038316600090815260076020526040812054919250906064906109909086611a69565b61099a9190611a80565b9050808210156109e65760405162461bcd60e51b8152602060048201526017602482015276125b9cdd59999a58da595b9d0818dbdb1b185d195c985b604a1b6044820152606401610616565b6000612710600c54866109f99190611a69565b610a039190611a80565b90506000610a118287611ace565b336000908152600560205260408120805492935090919082610a3283611b16565b90915550604080516080810182528481524260208083019182526001600160a01b038b81168486019081526000606086018181523380835260048087528984208b855290965291889020965187559451600187015590516002860180546001600160a01b0319169184169190911790559251600390940193909355925163a9059cbb60e01b815292830152602482018590529192507f00000000000000000000000000000000000000000000000000000000000000009091169063a9059cbb906044016020604051808303816000875af1158015610b14573d6000803e3d6000fd5b505050506040513d601f19601f82011682018060405250810190610b389190611ae1565b5060408051838152602081018390526001600160a01b0388169133917f01c49cf1232849b567d2ab59e1329de06371836816e4da37c284a164a70b5b4b910160405180910390a3336001600160a01b03167fdb23cba216bfaed89070d2734596f2ee2a163099cfc4f5ef32036debc979222684604051610bd891815260406020820181905260069082015265626f72726f7760d01b606082015260800190565b60405180910390a2505050505061077f60018055565b610bf66116fd565b6108c16000611848565b6001600160a01b0380831660009081526004602090815260408083208584528252808320815160808101835281548082526001830154948201949094526002820154909516918501919091526003015460608401529091908203610c685760009150506105e0565b6000816020015142610c7a9190611ace565b9050600063bbf81e0082600e548560000151610c969190611a69565b610ca09190611a69565b610caa9190611a80565b9695505050505050565b610cbc6116fd565b6108c1611898565b610ccc611757565b610cd461179d565b60008111610cf45760405162461bcd60e51b815260040161061690611aa2565b33600090815260066020526040902054811115610d4a5760405162461bcd60e51b8152602060048201526014602482015273496e73756666696369656e742062616c616e636560601b6044820152606401610616565b3360009081526006602052604081208054839290610d69908490611ace565b909155505060405163a9059cbb60e01b8152336004820152602481018290527f00000000000000000000000000000000000000000000000000000000000000006001600160a01b03169063a9059cbb906044016020604051808303816000875af1158015610ddb573d6000803e3d6000fd5b505050506040513d601f19601f82011682018060405250810190610dff9190611ae1565b5060405181815233907f13a0aca96f8702aa1d1f6aec7d2c63d974cfa8457bba0b310e814cb3017e50519060200161089d565b610e3a6116fd565b6001600160a01b03831615801590610e5a57506001600160a01b03821615155b610e985760405162461bcd60e51b815260206004820152600f60248201526e496e76616c6964206164647265737360881b6044820152606401610616565b60008111610edc5760405162461bcd60e51b81526020600482015260116024820152700526174696f206d757374206265203e203607c1b6044820152606401610616565b6001600160a01b03928316600090815260086020908152604080832080546001600160a01b03191695909616949094179094556007909352912055565b610f21611757565b610f2961179d565b60008111610f495760405162461bcd60e51b815260040161061690611aa2565b6001600160a01b0382811660009081526008602052604090205416610fa65760405162461bcd60e51b8152602060048201526013602482015272151bdad95b881b9bdd081cdd5c1c1bdc9d1959606a1b6044820152606401610616565b6000612710600b5483610fb99190611a69565b610fc39190611a80565b90506000610fd18284611ace565b6040516323b872dd60e01b8152336004820152306024820152604481018590529091506001600160a01b038516906323b872dd906064016020604051808303816000875af1158015611027573d6000803e3d6000fd5b505050506040513d601f19601f8201168201806040525081019061104b9190611ae1565b503360009081526003602090815260408083206001600160a01b03881684529091528120805483929061107f908490611b03565b90915550506040518181526001600160a01b0385169033907fa95929ba4ccecfcbca9ce9798d6dfb0c0c6e06226a6d0e1905bb20a8e28157a99060200160405180910390a3336001600160a01b03167fdb23cba216bfaed89070d2734596f2ee2a163099cfc4f5ef32036debc97922268360405161111e9181526040602082018190526007908201526619195c1bdcda5d60ca1b606082015260800190565b60405180910390a2505061077f60018055565b6111396116fd565b600e55565b6111466116fd565b600c55565b611153611757565b61115b61179d565b6001600160a01b0380831660009081526004602090815260408083208584528252918290208251608081018452815480825260018301549382019390935260028201549094169284019290925260039091015460608301526111f25760405162461bcd60e51b815260206004820152601060248201526f4e6f2061637469766520626f72726f7760801b6044820152606401610616565b6000611202848360400151610592565b905060006064600d54846000015161121a9190611a69565b6112249190611a80565b90508082106112755760405162461bcd60e51b815260206004820181905260248201527f426f72726f776572206e6f7420756e646572636f6c6c61746572616c697a65646044820152606401610616565b6001600160a01b0385811660008181526003602081815260408084208982018051881686528184528286205487875285855281518916875291845282862086905595855260048084528286208c8752909352818520858155600181018690556002810180546001600160a01b0319169055909301939093559251915163a9059cbb60e01b815233938101939093526024830181905292169063a9059cbb906044016020604051808303816000875af1158015611335573d6000803e3d6000fd5b505050506040513d601f19601f820116820180604052508101906113599190611ae1565b5083604001516001600160a01b0316866001600160a01b03167f3a487deef66df543d7641c7d8d3da7272a2658edd9f10ffe591214499517a2c883886040516113ac929190918252602082015260400190565b60405180910390a35050505061077f60018055565b6001600160a01b03808216600090815260086020526040808220548151633fabe5a360e21b815291519293849391169163feaf968c9160048083019260a09291908290030181865afa15801561141b573d6000803e3d6000fd5b505050506040513d601f19601f8201168201806040525081019061143f9190611b49565b50919695505050505050565b6114536116fd565b600d55565b611460611757565b61146861179d565b600081116114885760405162461bcd60e51b815260040161061690611aa2565b336000908152600460209081526040808320858452909152902080546114e35760405162461bcd60e51b815260206004820152601060248201526f4e6f2061637469766520626f72726f7760801b6044820152606401610616565b60006114ef3385610c00565b905060008183600001546115039190611b03565b9050808411156115555760405162461bcd60e51b815260206004820152601860248201527f5265706179206578636565647320746f74616c206f77656400000000000000006044820152606401610616565b6040516323b872dd60e01b8152336004820152306024820152604481018590527f00000000000000000000000000000000000000000000000000000000000000006001600160a01b0316906323b872dd906064016020604051808303816000875af11580156115c8573d6000803e3d6000fd5b505050506040513d601f19601f820116820180604052508101906115ec9190611ae1565b50808410611633573360009081526004602090815260408083208884529091528120818155600181018290556002810180546001600160a01b031916905560030155611640565b61163d8482611ace565b83555b604080518581526020810187905233917f1b8cd61ed43bec7c6bdad3a18ffee613f99c853d16c50678d248d879e1b43438910160405180910390a250505061077f60018055565b61168f6116fd565b6001600160a01b0381166116f45760405162461bcd60e51b815260206004820152602660248201527f4f776e61626c653a206e6577206f776e657220697320746865207a65726f206160448201526564647265737360d01b6064820152608401610616565b6108ae81611848565b6000546001600160a01b031633146108c15760405162461bcd60e51b815260206004820181905260248201527f4f776e61626c653a2063616c6c6572206973206e6f7420746865206f776e65726044820152606401610616565b60025460ff16156108c15760405162461bcd60e51b815260206004820152601060248201526f14185d5cd8589b194e881c185d5cd95960821b6044820152606401610616565b6002600154036117ef5760405162461bcd60e51b815260206004820152601f60248201527f5265656e7472616e637947756172643a207265656e7472616e742063616c6c006044820152606401610616565b6002600155565b6117fe6118d5565b6002805460ff191690557f5db9ee0a495bf2e6ff9c91a7834c1ba4fdd244a5e8aa4e537bd38aeae4b073aa335b6040516001600160a01b03909116815260200160405180910390a1565b600080546001600160a01b038381166001600160a01b0319831681178455604051919092169283917f8be0079c531659141344cd1fd0a4f28419497f9722a3daafe3b4186f6b6457e09190a35050565b6118a0611757565b6002805460ff191660011790557f62e78cea01bee320cd4e420270b5ea74000d11b0c9f74754ebdbfc544b05a25861182b3390565b60025460ff166108c15760405162461bcd60e51b815260206004820152601460248201527314185d5cd8589b194e881b9bdd081c185d5cd95960621b6044820152606401610616565b60006020828403121561193057600080fd5b5035919050565b80356001600160a01b038116811461194e57600080fd5b919050565b6000806040838503121561196657600080fd5b61196f83611937565b915061197d60208401611937565b90509250929050565b60006020828403121561199857600080fd5b6119a182611937565b9392505050565b600080604083850312156119bb57600080fd5b6119c483611937565b946020939093013593505050565b600080604083850312156119e557600080fd5b8235915061197d60208401611937565b600080600060608486031215611a0a57600080fd5b611a1384611937565b9250611a2160208501611937565b9150604084013590509250925092565b60008060408385031215611a4457600080fd5b50508035926020909101359150565b634e487b7160e01b600052601160045260246000fd5b80820281158282048414176105e0576105e0611a53565b600082611a9d57634e487b7160e01b600052601260045260246000fd5b500490565b6020808252601290820152710416d6f756e74206d757374206265203e20360741b604082015260600190565b818103818111156105e0576105e0611a53565b600060208284031215611af357600080fd5b815180151581146119a157600080fd5b808201808211156105e0576105e0611a53565b600060018201611b2857611b28611a53565b5060010190565b805169ffffffffffffffffffff8116811461194e57600080fd5b600080600080600060a08688031215611b6157600080fd5b611b6a86611b2f565b9450602086015193506040860151925060608601519150611b8d60808701611b2f565b9050929550929590935056fea264697066735822122014d398d90dcc74727c05700675fed67cbf55b57359b796280f719c2d4786c81d64736f6c63430008140033",
  "linkReferences": {},
  "deployedLinkReferences": {}
}